:020000040800F2
:100000002007002029560008ED150008EF1500080C
:10001000F3150008F7150008FB15000800000000A4
:10002000000000000000000000000000FF150008B4
:10003000011600080000000003160008ED0A000881
:10004000435600084356000843560008435600082C
:10005000435600084356000843560008435600081C
:10006000435600084356000843560008435600080C
:10007000211F0008032300088B21000843560008B5
:10008000031D00085D1D0008435600084356000884
:10009000BB2B00084356000843560008435600088F
:1000A00043560008F9250008435600084356000847
:1000B00043560008435600084356000843560008BC
:1000C00043560008435600084356000843560008AC
:1000D000435600084356000843560008435600089C
:1000E000435600084356000843560008435600088C
:1000F000435600084356000843560008435600087C
:10010000435600084356000843560008435600086B
:10011000435600084356000843560008435600085B
:1001200043560008435600084B1A0008435600087F
:10013000435600084356000843560008435600083B
:10014000D3170008435600084356000843560008DA
:10015000435600084356000843560008435600081B
:10016000435600084356000843560008435600080B
:1001700043560008435600084356000843560008FB
:100180004356000843560008DFF80CD005F018FD70
:1001900000480047150200082007002070B54FF402
:1001A000A06002F0ABFD01F0F9F901F0B9FB01F03C
:1001B000EDFC01F0F5FD02F019F802F06FFC01F022
:1001C0003DFA02F04BF902F03FFC02F02BFDF8493A
:1001D000481EB0F1807F00D31BE0481E4FF0E022A4
:1001E000506150170F22002804DB13071C0EF14B3F
:1001F0001C5406E013071D0EEF4B00F00F04241FE4
:100200001D5500BF00204FF0E022906107201061D3
:1002100000BF70BDE94802F051FBE848283002F009
:100220004DFBE648503002F049FBE448783002F0DC
:1002300045FBE34802F057FBE148283002F053FB4E
:10024000DF48503002F04FFBDD48783002F04BFBC6
:10025000DC4802F05DFBDC4802F06FFB01F0E9FBDB
:1002600001F04FFEFFF79AFF2120D8490870302097
:10027000487055208870C8700871487123208871B3
:100280006FF00100D2490860FEE3D14800680728FA
:100290007DD00ADC00F10200092879D2DFE800F005
:1002A00018217FFBFAF9F8F7F600172871D008DC5F
:1002B00008286FD014286ED015286DD0162867D165
:1002C00072E2182869D0192868D02828F7D1F7E2F7
:1002D0004FF47A7001F096F94FF0FF30BC49086096
:1002E0008AE30020BB49086011E0012001F08AF98F
:1002F0009FEDB90AB94880ED000A9FEDB90AB948E7
:1003000080ED000AB3480068401CB2490860B1485B
:10031000006840F6B8318842E7DB9FEDB30AAA488F
:1003200080ED000A00BF02F081F900EE100AB8EE7D
:10033000C00AA548D0ED000A30EEC00AB5EEC00AEA
:10034000F1EE10FA0BDD02F071F900EE100AB8EED2
:10035000C00A9D48D0ED000A30EEC00A0CE002F061
:1003600065F900EE100AB8EEC00A9748D0ED000A11
:1003700030EEC00AB1EE400ADFED9C0AB4EEE00AAE
:10038000F1EE10FACFDC00209149086034E392E1ED
:100390002BE323E2A4E1B5E1D3E139E272E2944830
:1003A000407A012812D19248007A01280FD102F038
:1003B000E9F9064602F0A7F9444202F065F9454220
:1003C0003346224629468B4802F05AFA8AE088488A
:1003D000007A02287ED18848B0F9120000EE100A97
:1003E000B8EEC00ADFED850A30EE600ADFED840A60
:1003F00080EE201A9FED830A21EE000ABDEEC00AAE
:1004000010EE104A7C48B0F90E0000EE100AB8EE6B
:10041000C00ADFED7A0A30EE600AB1EE400ADFED85
:10042000780A80EE201A9FED770A21EE000ABDEED1
:10043000C00A10EE105A7048B0F9100000EE100A11
:10044000B8EEC00ADFED6D0A30EE600AB1EE400A88
:10045000DFED6B0A80EE201A9FED6A0A21EE000A9A
:10046000BDEEC00A10EE106A23462A4631466148A6
:1004700002F006FA6048C088012833D1624800685B
:10048000032809DD01205249086016E006E1E5E095
:10049000C4E06DE04AE026E000231A4610215548EA
:1004A00002F0EEF9642001F0ADF807204849086039
:1004B00055480068401C5449086031204349487041
:1004C00000231A4619464B4802F0DAF900231A466F
:1004D000194600E006E0184601F028F94FF4FA70DA
:1004E00001F090F888E200236FF00D0219464148B0
:1004F00002F0C6F94548006830B14548006818B1B7
:1005000004203349086010E04048006818B1022018
:100510002F49086009E03E48006818B103202C49C3
:10052000086002E001202A49086065E204230022F5
:100530001146304802F0A4F93448006830B134481C
:10054000006818B104202249086010E02F480068B4
:1005500018B102201E49086009E02D48006818B152
:1005600003201B49086002E001201949086043E2AA
:100570006FF00303002211461E4802F081F9234860
:10058000006830B12248006818B1042010490860A2
:1005900043E01E48006818B102200D4908603CE0A5
:1005A0001B48006818B103200949086035E031E0B4
:1005B0004090020000E400E018ED00E0840000201C
:1005C00024010020C4010020EC0100205200002082
:1005D0001400002018000020004092442400002055
:1005E0000000FA442000002000D8EF4600008C42B2
:1005F0009402002054020020D40200200000804415
:1006000000002544000048431C0000203C0000205E
:10061000400000200120FD490860EDE14FF4FA7030
:1006200000F0F0FFFA48006830B1FA48006818B1ED
:100630000520F649086010E0F548006818B102206E
:10064000F249086009E0F348006818B10320EF4957
:10065000086002E00120ED490860CDE14FF4FA7036
:1006600000F0D0FFEA48006830B1EA48006818B1ED
:100670000620E649086010E0E548006818B102204D
:10068000E249086009E0E348006818B10320DF4947
:10069000086002E00120DD490860ADE100231A4650
:1006A0001946DD4802F0ECF8642000F0ABFF14209E
:1006B000D6490860A0E100236FF00D021946D64824
:1006C00002F0DEF8D248006810B9D248006818B1CC
:1006D0000820CE49086002E00720CC4908608BE181
:1006E0004FF4FA7000F08EFFC948006810B9C9488D
:1006F000006818B10620C549086002E00720C34918
:10070000086079E10020C549086011E0022000F08E
:1007100079FF9FEDC30AC34880ED000A9FEDC20A2E
:10072000C24880ED000ABD480068401CBB49086013
:10073000BA480068B0F5167FE8DB1520B3490860B9
:100740005AE10020B549086023E04FF4FA7000F048
:1007500067FF9FEDB30AB34880ED000AB44890EDFF
:10076000000AF7EE000A30EE200A80ED000AB148D8
:10077000006810B9B048006830B1642000F042FF52
:100780001620A24908600AE0A4480068401CA3495A
:100790000860A248006842F21C518842D5DB00BFC5
:1007A00016209A49086027E100209C4908600CE067
:1007B000012000F027FF1FED760A9A4880ED000A1D
:1007C00096480068401C9549086094480068B0F558
:1007D000967FEDDB17208D4908600DE100208F49E1
:1007E00008600CE0012000F00DFF1FED850A8F4826
:1007F00080ED000A89480068401C884908608748E5
:100800000068B0F5167FEDDB182080490860F3E042
:100810009FED8A0A864880ED000A00BF01F006FFBE
:1008200000EE100AB8EEC00A8148D0ED000A30EEA2
:10083000C00AB5EEC00AF1EE10FA0BDD01F0F6FECB
:1008400000EE100AB8EEC00A7948D0ED000A30EE8A
:10085000C00A0CE001F0EAFE00EE100AB8EEC00A91
:100860007348D0ED000A30EEC00AB1EE400A5FEDE9
:10087000A10AB4EEE00AF1EE10FACFDC19206349C8
:100880000860B9E00020654908600CE0012000F034
:10089000B9FE9FED6B0A654880ED000A5F4800686D
:1008A000401C5E4908605D48006840F6AC518842D3
:1008B000ECDB2820554908603220624948709BE0F3
:1008C0006148407A012866D15F48007A01280FD13B
:1008D00001F058FF064601F016FF444201F0D4FE35
:1008E00045423346224629464B4801F0C9FF52E0B3
:1008F0005548007A02284ED15448B0F9120000EE53
:10090000100AB8EEC00A5FEDC30A30EE600A5FED70
:10091000C40A80EE201A1FEDC50A21EE000ABDEEC2
:10092000C00A10EE104A4948B0F90E0000EE100A55
:10093000B8EEC00A5FEDCF0A30EE600AB1EE400AB1
:100940005FEDD10A80EE201A1FEDD20A21EE000AD7
:10095000BDEEC00A10EE105A3C48B0F9100000EE8F
:10096000100AB8EEC00A5FEDDB0A30EE600AB1EEA5
:10097000400A5FEDDD0A80EE201A1FEDDE0A21EE4F
:10098000000ABDEEC00A10EE106A23462A46314620
:10099000214801F075FF2D488089012819D10020D8
:1009A0001E4908600CE0012000F02CFE9FED1C0A9F
:1009B0001C4880ED000A19480068401C174908606F
:1009C00016480068B0F5967FEDDB33201D4948706E
:1009D00012E01E488089022806D13020194948704B
:1009E0004FF0FF300949086006E000231A46194617
:1009F000094801F045FF00BF00BF1348407A0128B5
:100A000072D11148007A01283BD121E01400002066
:100A10003C0000204000002054020020180000206C
:100A200000008C4420000020008065442400002049
:100A3000EC010020340000203800002000FEFF46BA
:100A4000002000455200002094020020D402002023
:100A50009FEDFE0AFE4880ED000A9FEDFC0A80ED46
:100A60000A0A9FEDFA0A80ED140A9FEDF80A80ED5C
:100A70001E0A0020F74988600021F64881618162E2
:100A80008163F548007A00E02EE0032813D19FED42
:100A9000EF0AF24880ED000A9FEDEC0A80ED0A0AA9
:100AA0009FEDEA0A80ED140A9FEDE80A80ED1E0A28
:100AB00001F027FA18E09FEDE50AE54880ED000A0D
:100AC0009FEDE20A80ED0A0A9FEDE00A80ED140A2C
:100AD0009FEDDE0A80ED1E0A0020DE4988600021BD
:100AE000DC48816181628163FFF7CFBB10B52DEDDA
:100AF000088BDB48006840F2DC5188427DDAD84838
:100B00000068401CD6490860D6480188D14801F0E9
:100B10007DFFD4480189CF48103001F077FFD148DC
:100B2000018ACC48203001F071FFCE48018BC948C2
:100B3000303001F06BFF0020C64988600021C548B5
:100B40008161816281630020C249C8600021C1487F
:100B5000C161C162C163D0ED020AF8EEE00AB0EEF5
:100B6000600ABB4801F0FEFEBF4880ED000AB948AC
:100B7000D0ED060AF8EEE00AB0EE600AB44828307C
:100B800001F0F0FEB84880ED010AB248D0ED0A0A43
:100B9000F8EEE00AB0EE600AAD48503001F0E2FE37
:100BA000B14880ED020AAB48D0ED0E0AF8EEE00A3B
:100BB000B0EE600AA648783001F0D4FEAA4880ED75
:100BC000030A044694ED030ABDEEC00A10EE103A83
:100BD00094ED020ABDEEC00A10EE102A94ED010A4F
:100BE000BDEEC00A10EE101A94ED000ABDEEC00A68
:100BF00010EE100A00F09AFD00E002E0BDEC088B58
:100C000010BD98480188934801F000FF954801897C
:100C10009048103001F0FAFE9248018A8D48203049
:100C200001F0F4FE8F48018B8A48303001F0EEFE6F
:100C300001F0FCFC00EE100AB8EEC00AB0EE408AEB
:100C40008A4801F08FFEB1EE400ABDEEC00A10EEF8
:100C5000104A204601F0EDFC7F48407A01287DD102
:100C60007D48007A01287AD18149486804F076FEEF
:100C700041EC190B9FED7F0B53EC102B04F08DFD15
:100C800041EC180B04F0BAFE744908607849096811
:100C9000484204F063FE41EC190B9FED760B53ECD8
:100CA000102B04F07AFD41EC180B04F0A7FE6B4901
:100CB00088626F498968484204F050FE41EC190B84
:100CC0009FED6C0B53EC102B04F067FD41EC180BFF
:100CD00004F094FE614908656549C86804F03EFE69
:100CE00041EC190B9FED630B53EC102B04F055FDF9
:100CF00041EC180B04F082FE584988675548D0ED46
:100D0000000AF8EEE00AB0EE600A084601F02AFE9A
:100D10005548D0ED000A30EE200A80ED000A4D481B
:100D2000D0ED040AF8EEE00AB0EE600A4B48283035
:100D300001F018FE4C48D0ED010A30EE200A80ED9B
:100D4000010A4448D0ED080AF8EEE00AB0EE600A65
:100D50004248503001F006FE434801E09CE133E098
:100D6000D0ED020A30EE200A80ED020A3948D0EDBB
:100D70000C0AF8EEE00AB0EE600A3848783001F06C
:100D8000F1FD3948D0ED030A30EE200A80ED030A68
:100D9000044694ED030ABDEEC00A10EE103A94ED3D
:100DA000020ABDEEC00A10EE102A94ED010ABDEE53
:100DB000C00A10EE101A94ED000ABDEEC00A10EE43
:100DC000100A00F0B3FC6DE12348007A03286CD1CF
:100DD0002048D0ED020AF8EEE00AB0EE600A1C48A6
:100DE00001F0C0FD204880ED000A1A48D0ED060A47
:100DF000F8EEE00AB0EE600A1548283001F0B2FDC6
:100E0000194880ED010A1348D0ED0A0AF8EEE00A0D
:100E1000B0EE600A0E48503001F0A4FD124880ED9B
:100E2000020A0C48D0ED0E0AF8EEE00AB0EE600AB5
:100E30000748783001F096FD0B4880ED030A044620
:100E400094ED030ABDEEC00A18E0000000000000A7
:100E500024010020140200209402002084000020BD
:100E6000100000207402002064020020EC01002029
:100E7000540200207B14AE47E17AC43F10EE103AD2
:100E800094ED020ABDEEC00A10EE102A94ED010A9C
:100E9000BDEEC00A10EE101A94ED000ABDEEC00AB5
:100EA00010EE100A00F042FCFCE0FB48007A022839
:100EB0007BD1FA48008801281AD1F948D0ED080AF8
:100EC000F84890ED001A70EEC10AB0EE600AF648DC
:100ED00001F048FDB1EE400ADFEDF40A30EE200AE1
:100EE000BDEEC00A10EE100A00B2EC4948821DE0C7
:100EF000EA480088022815D1E948D0ED080AB0EE8A
:100F0000600AE94801F02EFDB1EE400ADFEDE70A84
:100F100030EE200ABDEEC00A10EE100A00B2DF4922
:100F2000488203E04FF48060DC494882E049486829
:100F300004F014FD41EC190B9FEDDE0B53EC102B6C
:100F400004F02BFC41EC180B04F058FDDB49086061
:100F5000D7490968484204F001FD41EC190B9FEDA7
:100F6000D50B53EC102B04F018FC41EC180B04F0DB
:100F700045FDD2498862CE498968484204F0EEFCBA
:100F800041EC190B9FEDCB0B53EC102B04F005FC3F
:100F900041EC180B04F032FDC8490865C449C86823
:100FA00004F0DCFC41EC190B00E06EE09FEDC10B9E
:100FB00053EC102B04F0F1FB41EC180B04F01EFD78
:100FC000BE498867BE48D0ED000AF8EEE00AB0EEF0
:100FD000600A084601F0C6FCBA48D0ED000A30EEBF
:100FE000200A80ED000AB648D0ED040AF8EEE00AC7
:100FF000B0EE600AB148283001F0B4FCB148D0ED41
:10100000010A30EE200A80ED010AAD48D0ED080A51
:10101000F8EEE00AB0EE600AA848503001F0A2FCF9
:10102000A848D0ED020A30EE200A80ED020AA4485A
:10103000D0ED0C0AF8EEE00AB0EE600A9F48783076
:1010400001F090FC9F48D0ED030A30EE200A80EDBD
:10105000030A044694ED030ABDEEC00A10EE103AEE
:1010600094ED020ABDEEC00A10EE102A94ED010ABA
:10107000BDEEC00A10EE101A94ED000ABDEEC00AD3
:1010800010EE100A00F052FB0CE000231A4619463D
:10109000184600F04BFB05E000231A461946184697
:1010A00000F044FB88480068322804DC8648006869
:1010B000401C854908600020834908607648407AD2
:1010C000032873D17448007A02286FD07248C08810
:1010D000A0F58060002804DD6F48C088A0F580601E
:1010E00003E06D48C088C0F58060642802DA9FED97
:1010F000770B0FE06849C988A1F5806004F02EFCE9
:1011000041EC1B0B9FED730B53EC102B04F045FBD4
:1011100041EC100BB0EE409AF0EE609A6F48006818
:1011200004F059FC41EC1A0B53EC192B04F08EFA25
:1011300041EC180B04F062FC68490860564840888E
:10114000A0F58060002804DD53484088A0F5806049
:1011500003E051484088C0F58060642802DA9FEDC2
:101160005B0B0FE04C494988A1F5806004F0F6FB69
:1011700041EC1B0B9FED570B53EC102B04F00DFBB8
:1011800041EC100BB0EE409AF0EE609A54480068C3
:1011900004F021FC41EC1A0B53EC192B04F056FA25
:1011A00041EC180B04F02AFC4D4908604D4890EDC5
:1011B000000AF3EE0E0A30EE600A4848D0ED000A4D
:1011C000B4EEE00AF1EE10FA07DB464890ED000AB3
:1011D000F3EE0E0A30EE600A19E0424890ED000A84
:1011E000F3EE0E0A30EE200A3C48D0ED000AB4EED1
:1011F000E00AF1EE10FA07D83A4890ED000AF3EE53
:101200000E0A30EE200A02E0344890ED000A33481E
:1012100080ED000A344890ED000AF6EE000A30EE48
:10122000600A2F48D0ED000AB4EEE00AF1EE10FAA1
:1012300007DB2D4890ED000AF6EE000A30EE600A5A
:1012400019E0294890ED000AF6EE000A30EE200A77
:101250002348D0ED000AB4EEE00AF1EE10FA07D808
:10126000214890ED000AF6EE000A30EE200A02E076
:101270001B4890ED000A1A4880ED000A174890EDCF
:10128000000ADFED1A0AB4EEE00AF1EE10FA2FD8E8
:101290009FED160A3CE0000094020020D4020020DA
:1012A000F802002030000020C4010020000080442B
:1012B000540200209A9999999999B93F8400002085
:1012C000140200206402002004000020000000003E
:1012D000000000007B14AE47E17A743F200000203C
:1012E00024000020280000202C00002000008C4456
:1012F000974890ED000ADFED970AB4EEE00AF1EEB0
:1013000010FA02DB9FED930A02E0914890ED000A8B
:101310008F4880ED000A904890ED000ADFED8F0ABB
:10132000B4EEE00AF1EE10FA02D89FED8C0A0FE05D
:10133000894890ED000ADFED8A0AB4EEE00AF1EE8A
:1013400010FA02DB9FED860A02E0834890ED000A66
:10135000814880ED000A7E4890ED000A814880EDCA
:10136000000A7D4890ED000A7F4880ED000A7F4822
:1013700000680A2805DC7D480068401C7B4908603D
:101380005BE000207949086079480068401C784992
:101390000860084600680A2801DD00F0B2FD6C48CC
:1013A00090ED000ADFED730A30EEC00ABDEEC00A10
:1013B00010EE100A02B2664890ED000ADFED6E0AE8
:1013C00030EEC00ABDEEC00A10EE100A01B260484D
:1013D00090ED000ABDEEC00A10EE100A00B201F056
:1013E000C8FB5D4890ED000ABCEEC00A10EE101A72
:1013F000624801F08EFF6248407A03281DD161489F
:10140000D0ED000A5E48008840F24A51884202DD71
:101410006FF0080008E05A48008840F2B621884280
:1014200001DA092000E0002000EE100AB8EEC00A40
:1014300030EE800A534880ED000A53480068B0F54A
:10144000FA7F05DC50480068401C4F4908607BE08B
:1014500000204D4908604A48407A012874D1484824
:10146000007A032870D14648808840F24A54A0424E
:1014700002DD4FF4805008E04148808840F2B624F5
:10148000A04201DA414800E0002003463C48408881
:1014900040F24A54A04202DD4FF4005008E03848C0
:1014A000408840F2B624A04201DA394800E000202A
:1014B00042423348008840F24A54A04202DD4FF4D1
:1014C000005008E02E48008840F2B624A04201DA1D
:1014D0002F4800E0002041422E4801F0D1F92E486B
:1014E000D0ED000A2B4890ED010AB8EEC00A30EEAC
:1014F000800A294880ED000AD0ED0A0A25480068D4
:10150000404200EE100AB8EEC00A30EE800A2248CF
:1015100080ED0A0AD0ED140A1E488068404200EEB1
:10152000100AB8EEC00A30EE800A1B4880ED140A9B
:10153000D0ED1E0A174890ED030AB8EEC00A30EE4F
:10154000800A154880ED1E0A00BFFFF755BB00005A
:10155000200000200000FA442400002000806544A0
:1015600000200045280000202C0000200000002062
:101570000C00002000805445000048450004014054
:1015800094020020EC0100200800002000F0FFFF82
:1015900000E0FFFF54020020240100201CB50121BF
:1015A000084602F0F3FB1020009001208DF80400A3
:1015B00000208DF8060003208DF8050002208DF82C
:1015C00007006946084803F085FA20200090694624
:1015D000054803F07FFA1021034803F0F7FA2021B1
:1015E000014803F0F3FA1CBD00000240704700BF41
:1015F000FEE700BFFEE700BFFEE700BFFEE7704763
:101600007047704710B5002107E04AF2104200BF52
:10161000131EA2F10102FBD1491C8142F5D310BD7A
:1016200010B5002106E0282200BF131EA2F101021E
:10163000FBD1491C8142F6D310BD000000B58BB030
:101640000121022002F0A2FB0121480602F0D1FB99
:101650000121880602F0CDFB09220D21AC4803F0E0
:10166000C4FA09220C21AA4803F0BFFA4FF44050F3
:10167000029002208DF80C008DF80D0000208DF8EE
:101680000E0001208DF80F0002A9A14803F022FAF4
:1016900040208DF8040000208DF8050001208DF811
:1016A00006008DF8070001A801F02DFB00208DF841
:1016B00026008DF827008DF828008DF829008DF878
:1016C0002A0001208DF82B0000208DF822008DF8D3
:1016D000230008208DF8240003208DF82500ADF8A4
:1016E000200008A98B4802F0A8FC0E208DF81A00F3
:1016F00000208DF81B0001208DF81C000020ADF8A3
:101700001000ADF81200ADF81400ADF81600ADF8F9
:10171000180001208DF81D0004A802F018FD012218
:1017200002217C4803F012F80BB000BDF0B585B083
:1017300004460D4616461F464FF4007000900020E8
:101740008DF808008DF8090008208DF80A00B4F51E
:101750007A6F01DD4FF47A64B5F57A6F01DD4FF4ED
:101760007A65B6F57A6F01DD4FF47A66B7F57A6F70
:1017700001DD4FF47A6714F57A6F00DA664C15F5DF
:101780007A6F00DA644D16F57A6F00DA624E17F55B
:101790007A6F00DA604F200A8DF80B00E1B28DF805
:1017A0000C10290A8DF80D10E9B28DF80E10310ACF
:1017B0008DF80F10F1B28DF81010390A8DF8111054
:1017C000F9B28DF812106946524802F0AFFD05B02B
:1017D000F0BD00B585B002214E4803F01FF8002887
:1017E0007ED002214B4803F0B4F86A4600214948F4
:1017F00002F091FE0098A0F2012030B1012822D021
:1018000002283ED003287BD159E09DF80C009DF8BA
:101810000B1040EA0120414908809DF80E109DF808
:101820000D0041EA002000B23C4948809DF81010AC
:101830009DF80F0041EA002000B2384988809DF8E9
:101840001100C8805DE09DF80C009DF80B1040EA87
:101850000120324908819DF80E109DF80D0041EAE3
:10186000002001B22D4841819DF810109DF80F0015
:1018700041EA002001B2294881819DF81110C181FF
:101880003FE09DF80C009DF80B1040EA0120234931
:1018900008829DF80E109DF80D0041EA002001B26B
:1018A0001E4841829DF810109DF80F0041EA00206B
:1018B00001B21A4881829DF81110C18221E09DF881
:1018C0000C009DF80B1040EA0120144908839DF894
:1018D0000E109DF80D0041EA002001B20F4801E012
:1018E00014E00DE041839DF810109DF80F0041EACF
:1018F000002001B2094881839DF81110C18300E0E6
:1019000000BF00BF0221034803F023F805B000BD6B
:10191000000402400068004060F0FFFF74020020F5
:1019200000B597B00121084602F030FA01211020DD
:1019300002F070FA07220A218D4803F056F94FF49D
:101940008060119002208DF8480000208DF84A0038
:1019500003208DF8490000208DF84B0011A9844820
:1019600003F0B8F8834813900020ADF85000ADF8AC
:1019700052004FF48060ADF854000420ADF85600DA
:101980000020ADF8580013A97B4803F085FB012225
:1019900040F22551784803F0BDFC0121764803F060
:1019A00003FC01224021744803F0ABFC3A208DF87F
:1019B000400001208DF8410003208DF842000120F5
:1019C0008DF8430010A801F09EF90121880502F06E
:1019D000DDF96A4803F03EF94FF000600190664877
:1019E000001D02906648039000200490122005908C
:1019F000002006904FF48060079000200890099026
:101A00004FF480700A9040020B9000200C900D90D3
:101A10000E900F9001A9594803F0BEF90122102140
:101A2000564803F080FA0121544803F0EFF917B04B
:101A300000BD4FF480605349088048808880C8808A
:101A40000120087203204872704710B54E494B4878
:101A500003F086FA00287DD04FF08151474803F00B
:101A60004EFA4949454803F0A5FA454800784449EB
:101A7000497840EA0120C0F30A0042490880404802
:101A80004078C0103E49897840EA4110C0F30A000E
:101A90003C4948803A48807880113949C97840EA01
:101AA00081003749097940EA8120C0F30A003549AD
:101AB00088803348007940103149497940EAC110A3
:101AC000C0F30A002F49C8802D484079C0F30110A7
:101AD00008722B4840798009487229488079284942
:101AE000C97940EA012000B2264948812448007A99
:101AF0002349497A40EA012001B2224881812048E5
:101B0000807A1F49C97A40EA012001B21D48C1818B
:101B10001B48017B1B4801741948417B19484174DB
:101B20001748807B00F00100164948821448807BEA
:101B3000C0F340011348C1821148807BC0F380018B
:101B4000104881820E48807BC0F3C0010D4801839C
:101B50000B4800E00AE0807BC0F300110948818354
:101B60000748807BC0F340110648418310BD000048
:101B700000000240A08601000010014040640240C5
:101B8000B2020020940200200080201000B597B01F
:101B90000121084602F0FAF80121480402F029F96F
:101BA00007220221754803F020F807220321734819
:101BB00003F01BF80C20119002208DF84800002043
:101BC0008DF84A0002208DF8490000208DF84B0066
:101BD00011A96A4802F07EFF4FF4E1301390002013
:101BE000ADF85000ADF85200ADF854000C20ADF83F
:101BF00056000020ADF8580013A9614803F04CFAD4
:101C000001215F4803F0D0FA0122C0215C4803F0B3
:101C100078FB10208DF8400003208DF84100022051
:101C20008DF8420001208DF8430010A801F06BF8F8
:101C300011208DF8400003208DF8410002208DF81E
:101C4000420001208DF8430010A801F05CF801214A
:101C5000480502F09BF84FF0006001904848001DD5
:101C600002904848039040200490072005900020EF
:101C700006904FF4806007900020089009904FF480
:101C800080700A9000200B900C900D900E900F9099
:101C900001A93D4803F080F801213B4803F0B6F864
:101CA0004FF0006001903648001D029037480390C5
:101CB0000020049007200590002006904FF48060DB
:101CC00007900020089009904FF480700A904FF41C
:101CD00040300B9000200C900D900E900F9001A9B9
:101CE0002948183803F058F801212748183803F01C
:101CF0008DF8012210212448183803F014F917B088
:101D000000BD10B5002422491F48183803F028F9F7
:101D100010B320491C48183803F0F1F81C491A4840
:101D2000183803F047F900BF14E0072094FBF0F1E6
:101D300000FB11401549085C6C280AD1A01D072141
:101D400090FBF1F201FB12001049085C642800D1FD
:101D500010BD641C102CE8DB00BFF9E710B50E497C
:101D6000094803F0FDF838B10C49074803F0C7F8FB
:101D70000949054803F01EF910BD000000000240AB
:101D80000044004052000020A060024044000020B7
:101D90000088002000080020008020200000202073
:101DA00000B597B00121022001F0F0FF0121880465
:101DB00002F01FF807220A21FD4802F016FF072251
:101DC0000B21FB4802F011FF4FF4406011900220FC
:101DD0008DF8480000208DF84A0002208DF8490057
:101DE00000208DF84B0011A9F14802F073FE4FF46A
:101DF000E13013900020ADF85000ADF85200ADF87E
:101E000054000C20ADF856000020ADF8580013A97E
:101E1000E84803F041F90121E64803F0C5F9012241
:101E2000C021E44803F06DFA0C208DF84000032037
:101E30008DF8410002208DF8420001208DF843000A
:101E400010A800F060FF0E208DF8400003208DF8F0
:101E5000410002208DF8420001208DF8430010A8B7
:101E600000F051FF0121480501F090FF4FF00060A4
:101E70000190D048001D0290CF480390402004906C
:101E800007200590002006904FF480600790002006
:101E9000089009904FF480700A904FF440300B90F6
:101EA00000200C900D900E900F904FF0006001906C
:101EB000C048001D0290C1480390002004901020EB
:101EC0000590002006904FF4806007900020089055
:101ED00009904FF480700A9000200B900C900D90A8
:101EE0000E900F9001A9B64802F056FF0121B448A8
:101EF00002F08CFF01221021B14803F014F817B052
:101F000000BD4FF48060AF490882C881002008807E
:101F10004FF4806048820020C880488088817047E4
:101F20002DE9F0412DED068B0024A749A44803F0CC
:101F300017F800287DD0A549A14802F0E0FFA2498A
:101F40009F4803F037F800BF1AE12146E21704EB7F
:101F500012721211A4EB0212984B9A5C212A69D1D9
:101F600004F10F00C21700EB12721211A0EB021263
:101F70009A5C232AF3D1A51CEF1705EB17773F11C5
:101F8000A5EB07179C461CF807C0661CF71706EB65
:101F900017773F11A6EB0717984618F807704CEA19
:101FA0000727B7F5B67F02DC4FF4B67739E0A21CFD
:101FB000D71702EB17773F11A2EB0717DFF8FCC129
:101FC0001CF80770631C4FEAE37C03EB1C7C4FEAB0
:101FD0002C1CA3EB0C1CDFF8E48118F80CC047EABA
:101FE0000C2740F2946C674501DB674619E0A01CA2
:101FF000C71700EB17773F11A0EB0717DFF8BCC13D
:102000001CF80770611C4FEAE17C01EB1C7C4FEA75
:102010002C1CA1EB0C1CDFF8A48118F80CC047EABB
:102020000C273FB2DFF89CC1ACF80E70251DEF17EE
:1020300001E0A8E0A3E005EB17773F11A5EB071738
:10204000DFF878C11CF807C0E61CF71706EB177716
:102050003F11A6EB0717DFF8648118F807704CEA08
:102060000727B7F5B67F02DC4FF4B67739E0221DBB
:10207000D71702EB17773F11A2EB0717DFF83CC128
:102080001CF80770E31C4FEAE37C03EB1C7C4FEA6F
:102090002C1CA3EB0C1CDFF8248118F80CC047EAB9
:1020A0000C2740F2946C674501DB674619E0201D60
:1020B000C71700EB17773F11A0EB0717DFF8FCC03D
:1020C0001CF80770E11C4FEAE17C01EB1C7C4FEA35
:1020D0002C1CA1EB0C1CDFF8E48018F80CC047EABC
:1020E0000C273FB2DFF8DCC0ACF81070651DE917B3
:1020F00005EB11710911A5EB0111304A505C03F099
:102100003EFC41EC1A0B9FED320B53EC102B03F00D
:1021100044FB41EC190B9FED300B53EC102B03F0FB
:1021200036FB41EC180B03F069FC2D490860281DB3
:10213000C11700EB11710911A0EB01111F4A515C8D
:10214000204AD180C01CC11700EB11710911A0EB0E
:1021500001111A4A515C1B4A1180801CC11700EB07
:1021600011710911A0EB0111144A515C154A9181BA
:1021700000201C490860BDEC068BBDE8F081641CA2
:10218000102CFFF6E2AE00BFF5E710B516490C487B
:10219000303002F0E5FE50B14FF0C0510848303009
:1021A00002F0ADFE10490648303002F003FF10BDCA
:1021B000000402400048004052000020C4020020F9
:1021C00028600240D402002000880010000800109F
:1021D0009A9999999999B93F00000000000024400C
:1021E000300000200C0000200080001800B597B0DF
:1021F0000121042001F0CAFD0121C80401F0F9FD0C
:102200000121480501F0C2FD08220A21874802F099
:10221000ECFC08220B21854802F0E7FC4FF44060FB
:10222000119002208DF8480000208DF84A0003200C
:102230008DF8490000208DF84B0011A97B4802F071
:1022400049FC4FF4E13013900020ADF85000ADF898
:102250005200ADF854000C20ADF856000020ADF847
:10226000580013A9724802F017FF0121704802F0CC
:102270009BFF012240216E4803F043F80D208DF8AA
:10228000400003208DF841008DF8420001208DF8B8
:10229000430010A800F037FD0121664802F0B6FDAA
:1022A000644802F0D7FC4FF0006001906048001DC8
:1022B000029061480390002004900B2005900020BC
:1022C00006904FF4806007900020089009904FF42A
:1022D00080700A904FF440300B9000200C900D90CD
:1022E0000E900F9001A9534802F056FD01221021D3
:1022F000504802F018FE01214E4802F087FD17B049
:1023000000BD10B52DED068B4C494A4802F028FE61
:1023100000287DD04FF08151464802F0F0FD47493A
:10232000444802F047FE4448007855287BD1424893
:102330004078532876D1404989783F4AD27841EA9B
:10234000022108B203F00AFB41EC1A0B9FED3C0B93
:1023500053EC102B03F093FA41EC190B9FED3A0B61
:1023600053EC102B03F019FA41EC180B03F046FB69
:1023700037498861304909792F4A527941EA022167
:1023800008B203F0EBFA41EC1A0B9FED2D0B53EC66
:10239000102B03F074FA41EC190B9FED2B0B53EC4F
:1023A000102B03F0FAF941EC180B03F027FB284936
:1023B000C86121498979204AD27941EA022108B2CB
:1023C00003F0CCFA41EC1A0B9FED1D0B53EC102BD4
:1023D00003F055FA41EC180B9FED1B0B53EC102B3F
:1023E00003F0DBF941EC190B03F008FB1849086214
:1023F0001148007A1049497A40EA012000B200EE03
:10240000100AB8EEC00A9FED131AC0EE010A01E0EF
:1024100009E007E09FED100A30EE800A0C4880EDDD
:10242000090A00BF00BFBDEC068B10BD00080240CA
:10243000004C004040600240EC0200200080201070
:10244000000000000000E040000000000080664046
:10245000F80200200000AA43B81E124200B58BB05B
:102460000121084601F092FC0121042001F08EFCBC
:102470000121084601F0CEFC0121022001F0B9FC47
:102480004FF44070099002208DF8280003208DF849
:10249000290002208DF82B0009A9754802F01AFBCB
:1024A00001220821724802F0A0FB01220921704894
:1024B00002F09BFB0020ADF81800ADF81A004FF6B3
:1024C000FF7007900020ADF8200006A9694800F0D1
:1024D00032FD19208DF8000001208DF801008DF8E3
:1024E00002008DF80300684600F00DFC00231A4638
:1024F0000221604801F093FA01215E4801F0D0F911
:1025000047F6FF715B4800F05FFD0121594800F07C
:102510009BFD1020099001208DF8280000208DF8E7
:102520002A008DF8290009A9534802F0D3FA102196
:10253000514802F04BFBC020099001208DF8280083
:1025400000208DF82A0002208DF8280003208DF845
:10255000290009A9464802F0BDFA02220621444892
:1025600002F043FB02220721414802F03EFB5420C7
:10257000ADF818000020ADF81A004FF4FA6007908B
:102580000020ADF8200006A93C4800F0D4FC7020E3
:10259000ADF80400002003900120ADF806000020F3
:1025A000ADF808000220ADF810000020ADF81200D0
:1025B000ADF814004FF48070ADF8160001A92F4853
:1025C00000F04EFD01A92D4800F083FD08212B48A5
:1025D00000F0D3FE0821294800F0D8FE0121274849
:1025E00000F014FD0121254801F01FF901212348C5
:1025F00000F02AFD0BB000BD10B51E48008800F0A9
:102600001000102805D01E480068401C1C490860B6
:1026100004E01B480068401E194908600A20FEF7C4
:10262000FFFF0121134801F03BF910BD1148406A3A
:10263000704710F5C86F01DC124906E0B0F5C86FAD
:1026400002DB4FF4C86100E001460846002805DBC4
:1026500000210A4A34321160111D0860002806DA90
:102660004142064A343211600021121D1160704748
:102670000000024000000140000802400004004049
:102680005C000020C0F9FFFF10B52DED068B8549D9
:10269000098800EE101AB8EE400ADFED830A30EE2A
:1026A000600ABDEEC00A10EE101A08B203F056F927
:1026B00041EC1A0B9FED7D0B53EC102B03F0DFF870
:1026C00041EC190B9FED7B0B53EC102B03F065F8DD
:1026D00041EC180B03F060F904B272480088A0F5D1
:1026E0008060002804DD6F480088A0F5806003E06A
:1026F0006C480088C0F580600A2800DA0024204673
:10270000BDEC068B10BD10B52DED068B65494988D3
:1027100000EE101AB8EE400ADFED630A30EE600AF0
:10272000BDEEC00A10EE101A08B203F017F941EC22
:102730001A0B9FED5E0B53EC102B03F0A0F841EC4D
:10274000190B9FED5C0B53EC102B03F026F841ECBA
:10275000180B03F021F904B252484088A0F58060BC
:10276000002804DD4F484088A0F5806003E04D4814
:102770004088C0F580600A2800DA00242046BDECBD
:10278000068B10BD10B52DED068B4649898800EEED
:10279000101AB8EE400ADFED440A30EE600ABDEED2
:1027A000C00A10EE101A08B203F0D8F841EC1A0B68
:1027B0009FED3E0B53EC102B03F061F841EC190B2D
:1027C0009FED3C0B53EC102B02F0E7FF41EC180B94
:1027D00003F0E2F804B233488088A0F58060002856
:1027E00004DD30488088A0F5806003E02D488088B3
:1027F000C0F580600A2800DA00242046BDEC068B74
:1028000010BD10B52DED068B2649C98800EE101AB3
:10281000B8EE400ADFED240A30EE600ABDEEC00AD1
:1028200010EE101A08B203F099F841EC1A0B9FED64
:102830001F0B53EC102B03F022F841EC190B9FED0A
:102840001D0B53EC102B02F0A8FF41EC180B03F00A
:10285000A3F804B21348C088A0F58060002804DD06
:102860001048C088A0F5806003E00E48C088C0F51D
:1028700080600A2800DA00242046BDEC068B10BDDB
:1028800030B58C18E41A04604C4214441C44446073
:102890004C4214445D422C4484608C181C44C46037
:1028A00030BD0000940200200000804400000000C1
:1028B00000A0844000000000000069409FED6C0A09
:1028C00080ED010A9FED6B0A80ED020AB3EE0E0A5D
:1028D00080ED030A9FED680A80ED060A9FED650A08
:1028E00080ED000A70479FED650A80ED010A9FEDBB
:1028F000640A80ED020A9FED630A80ED030A9FEDF2
:10290000620A80ED060A9FED5B0A80ED000A7047BF
:102910009FED5E0A80ED010A9FED560A80ED020AE6
:10292000B3EE050A80ED030A9FED530A80ED060A17
:102930009FED500A80ED000A7047B3EE000A80ED6B
:10294000010A9FED4C0A80ED020A9FED510A80EDCD
:10295000030A9FED490A80ED060A9FED4E0A80EDBD
:10296000000A7047B0EE401A90ED000A30EE410ABE
:10297000F0EE400A90ED040A30EEC00AF0EE401A84
:10298000C0ED040A90ED050A30EE200A80ED050A3C
:1029900090ED050A90ED062AB4EEC20AF1EE10FAA7
:1029A00004DB90ED060A80ED050A10E090ED050AC3
:1029B00090ED062AB1EE422AB4EEC20AF1EE10FA08
:1029C00005D890ED060AB1EE400A80ED050A90EDBB
:1029D000010A20EE200A80ED070A90ED020A90ED30
:1029E000052A20EE020A80ED080A90ED030A20EE87
:1029F000210A80ED090A90ED070A90ED082A30EED1
:102A0000020A90ED092A30EE020A704742688A1ADB
:102A100002600268B2F5805F04DD0268A2F5005230
:102A2000026007E0026812F5805F03DA026802F5CF
:102A3000005202604160036882681A448260036841
:102A4000C2681A44C26070471CB50121022001F01F
:102A50009DF9C020009000208DF804008DF806003C
:102A600003208DF8050069460B4802F033F81CBDC1
:102A7000295C8F3E000000000000FA43CDCC4C3EA4
:102A8000A69BC43B0000F04200401C473333734018
:102A90000000A04200FEFF460004024000B58BB0DB
:102AA0000121084601F072F90121480601F0A1F95F
:102AB00009220B21554802F098F809220C215348AD
:102AC00002F093F84FF4C050029002208DF80C00F1
:102AD00002A94E4801F0FEFF14208DF804000020EA
:102AE0008DF805008DF8060001208DF8070001A87B
:102AF00000F009F900208DF826008DF827008DF8E8
:102B000028008DF829008DF82A0001208DF82B006F
:102B100000208DF822008DF8230008208DF8240075
:102B200003208DF82500ADF8200008A9384801F0F1
:102B300084FA00208DF81A008DF81B0001208DF812
:102B40001C000020ADF81000ADF81200ADF8140024
:102B5000ADF81600ADF8180001208DF81D0004A88E
:102B600001F0F5FA01220221294801F0EFFD0BB036
:102B700000BD70B586B004460D461646052001908E
:102B800000208DF80C008DF80D0008208DF80E0047
:102B9000200A8DF80F008DF81040290A8DF81110C9
:102BA0008DF81250310A8DF813108DF8146001A9B8
:102BB000174801F0BBFB06B070BD00B585B002211F
:102BC000134801F02BFEF8B10221114801F0C1FEBB
:102BD0006A4600210E4801F09EFC00210C4801F0DD
:102BE00012FD009806280FD19DF80B0009490860D6
:102BF0009DF80C00084908609DF80D000749086021
:102C00009DF80E000649086005B000BD00000240B6
:102C10000064004034000020380000204000002004
:102C20003C00002000B58BB00121042001F0AEF87B
:102C30000121022001F0EEF8C020099000208DF85B
:102C40002A0002208DF8280003208DF8290009A908
:102C5000284801F03FFF03220621264801F0C5FF66
:102C600003220721234801F0C0FFA720ADF8180078
:102C70000020ADF81A0044F6206007900020ADF85F
:102C8000200006A91C4800F056F97020ADF8040099
:102C90000120ADF806000020ADF8080003900220E6
:102CA000ADF810000020ADF81200ADF814004FF49C
:102CB0008070ADF8160001A90F4800F0D1F901A904
:102CC0000D4800F006FA08210B4800F056FB0821D9
:102CD000094800F05BFB0121074800F097F901214A
:102CE000054800F0A2FD0121034800F0ADF90BB04A
:102CF00000BD0000000802400004014032490143C9
:102D0000324A1160704770B5002100230F22C47849
:102D10001CB32E4C246804F4E064C4F5E064C4F3EE
:102D20000721C1F10404E3B20A4144789C40E1B2B6
:102D30008478144021430C07210E254C05786155F9
:102D4000047804F01F050124AC4005786D11AD0036
:102D500005F1E025C5F8004109E0047804F01F05FD
:102D60000124AC401B4D0678761145F8264070BD15
:102D7000194A0A400243154B1B1F1A60704739B1AC
:102D8000124A121D12680243104B1B1D1A6006E006
:102D90000E4A121D126882430C4B1B1D1A607047AD
:102DA000042808D14FF0E021096941F004014FF0F7
:102DB000E022116107E04FF0E021096921F00401F0
:102DC0004FF0E022116170470000FA050CED00E0C1
:102DD00000E400E080E100E080FFFF1F10B5044642
:102DE000FE48844208D10121084601F07BF8002109
:102DF000012001F077F89DE0B4F1804F08D1012166
:102E0000084601F05EF80021012001F05AF891E037
:102E1000F348844208D10121022001F052F8002138
:102E2000022001F04EF885E0EE48844208D10121ED
:102E3000042001F046F80021042001F042F879E076
:102E4000E948844208D10121082001F03AF8002124
:102E5000082001F036F86DE0E448844208D10121F1
:102E6000102001F02EF80021102001F02AF861E076
:102E7000DF48844208D10121202001F022F80021FE
:102E8000202001F01EF855E0DA48844208D10121E3
:102E9000022001F027F80021022001F023F849E088
:102EA000D548844209D10121080401F01BF8002112
:102EB0004FF4803001F016F83CE0D048844209D14C
:102EC0000121480401F00EF800214FF4003001F018
:102ED00009F82FE0CA48844209D10121880401F091
:102EE00001F800214FF4802000F0FCFF22E0C548EB
:102EF000844208D10121402000F0E3FF002140205E
:102F000000F0DFFF16E0C048844208D10121802094
:102F100000F0D7FF0021802000F0D3FF0AE0BB487B
:102F2000844207D10121801500F0CBFF0021A015BC
:102F300000F0C7FF10BD00220288A84B98420ED0B7
:102F4000AC4B98420BD0B0F1804F08D0A44B9842C4
:102F500005D0A44B984202D0A34B984204D14FF61F
:102F60008F731A404B881A43A04B984207D0A04B4E
:102F7000984204D04FF6FF431A400B891A4302804F
:102F80004B68C3620B880385944B984202D0994BDF
:102F9000984201D18B7A03860123838270474FF0D8
:102FA000FF314160002101800181418081727047C1
:102FB0000185828270470A46002101884FF68F738F
:102FC000194011430180704741627047C1627047E8
:102FD0000146486A70470146088D704721B1028852
:102FE00042F00202028004E002884FF6FD731A40AC
:102FF0000280704721B1028842F00402028004E09E
:1030000002884FF6FB731A400280704721B1028894
:1030100042F08002028004E002884FF67F731A407B
:103020000280704702884FF6F7731A4002800288C8
:103030000A430280704702884FF6FF431A4002801D
:1030400002880A430280704721B1028842F00102DF
:10305000028004E002884FF6FE731A400280704737
:1030600070B5002400220023058C4FF6FE76354013
:103070000584028C8388048B4FF68F752C40B51E17
:103080002C400D882C43751E2A408D892A434D887B
:103090002A43524DA84202D0564DA84213D14FF6B2
:1030A000F7752A40CD892A434FF6FB752A408D8853
:1030B0002A434FF6FF652B404FF6FF552B400D8AF4
:1030C0002B434D8A2B43838004838D6845630284A0
:1030D00070BD70B5002400220023058C4FF6EF76FA
:1030E00035400584028C8388048B48F6FF752C409C
:1030F0004FF6FF452C400D884FF6FF7606EA052572
:103100002C434FF6DF752A408D8906EA05152A43C0
:103110004D8806EA05152A43304DA84202D0354DA8
:10312000A8421DD14FF67F752A40CD894FF6FF7614
:1031300006EA05152A434FF6BF752A408D8806EA30
:1031400005152A434FF6FF352B404FF2FF752B40F4
:103150000D8A06EA85052B434D8A06EA85052B4331
:10316000838004838D688563028470BD70B50024FC
:1031700000220023058C4FF6FF6635400584028C43
:103180008388848B4FF68F752C404FF6FC752C404E
:103190000D882C434FF6FF552A408D894FF6FF7658
:1031A00006EA05252A434D8806EA05252A430B4DE4
:1031B000A84202D00F4DA84238D14FF2FF752A40E5
:1031C000CD894FF6FF7606EA05252A434FF6FF35EF
:1031D0002A408D8806EA05252A4319E000000140AF
:1031E0000004004000080040000C004000100040B7
:1031F0000014004000040140004001400044014030
:103200000048014000180040001C00400020004021
:103210004EF6FF752B404DF6FF752B400D8A06EAE2
:1032200005152B434D8A06EA05152B4383808483BD
:103230008D68C563028470BD70B500220023002430
:10324000058C4EF6FF7635400584038C8488828B8E
:1032500048F6FF752A404FF6FF452A400D884FF685
:10326000FF7606EA05252A434DF6FF752B408D892A
:1032700006EA05352B434D8806EA05352B43FE4DFE
:10328000A84202D0FD4DA84208D14BF6FF752C4054
:103290000D8A4FF6FF7606EA85152C4384808283DB
:1032A0008D680564038470BD0021018041808180A8
:1032B00081608181C18101824182704770B503467E
:1032C000002000241846183001258D40ACB21D8C1A
:1032D000A5431D8409B108290AD100EB61000568E6
:1032E0004FF68F76354005600568154305600FE0A1
:1032F0000D1FC5F34E052844056848F6FF76354096
:10330000056005684FF6FF7606EA0226354305603C
:1033100070BD4163704781637047C163704701644A
:1033200070470A460021018B4FF68F7319401143F5
:10333000018370470A460021018B48F6FF7319404C
:103340004FF6FF7303EA02231943018370470A46CD
:103350000021818B4FF68F73194011438183704791
:103360000A460021818B48F6FF7319404FF6FF7320
:1033700003EA02231943818370470A460021018B27
:103380004FF6F77319401143018370470A46002135
:10339000018B4FF2FF7319404FF6FF7303EA0223CC
:1033A0001943018370470A460021818B4FF6F7735A
:1033B00019401143818370470A460021818B4FF2E7
:1033C000FF7319404FF6FF7303EA02231943818309
:1033D00070470A460021018B4FF6FB7319401143D9
:1033E000018370470A460021018B4FF6FF331940D5
:1033F0004FF6FF7303EA02231943018370470A461D
:103400000021818B4FF6FB73194011438183704774
:103410000A460021818B4FF6FF3319404FF6FF73A8
:1034200003EA02231943818370470A460021018B76
:103430004FF67F7319401143018370470A460021FC
:10344000018BC1F30E014FF6FF7303EA0223194308
:10345000018370470A460021818B4FF67F73194024
:103460001143818370470A460021818BC1F30E010D
:103470004FF6FF7303EA02231943818370470A461C
:103480000021018C4FF6FD731940114301847047F0
:103490000A460021018C4FF6F7731940114301844D
:1034A00070470A460021018C4FF6DF7319404FF632
:1034B000FF7303EA02131943018470470A4600218F
:1034C000018C4FF67F7319404FF6FF7303EA021326
:1034D0001943018470470A460021018C4FF6FF53BF
:1034E00019404FF6FF7303EA022319430184704722
:1034F0000A460021018C4FF2FF7319404FF6FF730B
:1035000003EA02231943018470470A460021018C13
:103510004DF6FF7319404FF6FF7303EA0233194368
:103520000184704730B5002301248C40A3B2048C81
:103530009C430484048C02FA01F5ADB22C4304844C
:1035400030BD30B5002304248C40A3B2048C9C43CE
:103550000484048C02FA01F5ADB22C43048430BD1E
:10356000828B4FF2FF331A408283828B4FF6FF73B8
:1035700003EA01231A4382837047F0B50C461546CF
:10358000002100220026078C4EF6FF7C07EA0C077C
:103590000784818B028C4FF6FF7707EA043640F6EA
:1035A000FF4739404FF6FF7707EA052739434FF6C3
:1035B000FF7707EA0337394345F6FF773A4046F489
:1035C00080573A4381830284F0BD828B4FF6F373B8
:1035D0001A408283828B0A4382837047F0B50C467F
:1035E0001546002100220026078C4FF6FF6C07EAE3
:1035F0000C070784818B028C4FF6FF7707EA0426BD
:103600004FF60C7739404FF6FF7707EA03172F4341
:1036100039434FF2FF573A4046F480773A4381836B
:103620000284F0BD028B4FF2FF331A400283028BFB
:103630004FF6FF7303EA01231A4302837047F0B584
:103640000C461546002100220026078C4FF6EF7C21
:1036500007EA0C070784018B028C4FF6FF7707EA15
:10366000041640F6FF4739404FF6FF7707EA033765
:1036700039434FF6FF7703E00000014000040140AA
:1036800007EA052739434FF65F773A4046F01007BF
:103690003A4301830284F0BD028B4FF6F3731A4064
:1036A0000283028B0A4302837047F0B50C4615462D
:1036B00000210022068C4FF6FE773E400684018BE7
:1036C000028C4FF60C7631407E1C06EA03162E4320
:1036D00031434FF6F576324044F001063243018320
:1036E0000284F0BD70B505460C46208850B9238988
:1036F000A28861882846FFF7D8FFE1882846FFF7AF
:10370000CBFF25E0208804280AD12389A28861887C
:103710002846FFF794FFE1882846FFF783FF17E06C
:10372000208808280AD12389A28861882846FFF7C3
:1037300055FFE1882846FFF748FF09E02389A28862
:1037400061882846FFF719FFE1882846FFF708FF40
:1037500070BD002101804180012181800021C18054
:10376000018170472DE9F04105460C4600260127EE
:10377000608808B9022600E00026A088012801D14F
:10378000022700E001272088A0B92389A288618848
:103790002846FFF78AFFE1882846FFF77DFF238947
:1037A0003A4631462846FFF74AFFE1882846FFF7A8
:1037B00039FF13E02389A28861882846FFF73FFF7D
:1037C000E1882846FFF72EFF23893A4631462846EE
:1037D000FFF76BFFE1882846FFF75EFFBDE8F08149
:1037E0000146486B70470146886B70470146C86BBD
:1037F00070470146086C70470A884B881A438B88CB
:103800001A43CB881A430B891A434B891A438B8975
:103810001A43A0F844207047002101804180818034
:10382000C180018141818181704731B1B0F844206C
:1038300042F40042A0F8442005E0B0F84420C2F36E
:103840000E02A0F84420704721B1828842F00402A1
:10385000828004E082884FF6FB731A4082807047B2
:1038600021B1828842F00102828004E082884FF612
:10387000FE731A40828070471AB183890B4383819B
:1038800002E083898B4383817047818270470246BF
:103890000020138A0B400BB1012000E0002070478C
:1038A000CA430282704730B502460020002300243C
:1038B000158A05EA0103958905EA010413B10CB1E3
:1038C000012000E0002030BDCA430282704741EA77
:1038D0000203A0F8483070471AB183890B438381F3
:1038E00002E083898B438381704721B1828842F053
:1038F0000802828004E082884FF6F7731A408280C3
:10390000704701894FF6F8721140018170470A46ED
:10391000002101894FF68F731940114301817047CF
:1039200030B504460D4629462046FFF7F0FF2089B2
:1039300040F00700208130BD2DE9F04104460D46DE
:1039400016461F46602D06D13B46012231462046D1
:10395000FFF775FE05E03B46012231462046FFF7A2
:10396000A4FE29462046FFF7D2FF208940F0070039
:103970002081BDE8F08130B50C4600210189C9B233
:103980004FF6FF7505EA03251543254329430181B9
:1039900030BD2DE9F04105460E46174698460024F5
:1039A00043463A4631462846FFF7E5FF2C894FF655
:1039B000F870044044F007044FF68F70044044F060
:1039C00070042C81BDE8F081F0B504460D46164622
:1039D0001F463B46324629462046FFF7CCFF20894A
:1039E00040F480402081F0BD82884FF68F731A40EA
:1039F000828082880A438280704702894FF6F8737A
:103A00001A40028102890A430281704702894FF6F7
:103A10007F731A40028102890A4302817047F0B520
:103A20000C4615461E460021002200230189028B08
:103A3000038C4FF6F877394021434FF6FC473A4064
:103A400040F201173A434FF6DD773B404FF6FF77E0
:103A500007EA06172F433B43018102830384F0BD2D
:103A600021B1828842F08002828004E082884FF691
:103A70007F731A4082807047A0F850107047000092
:103A8000FA48006840F00100F84908600020F74952
:103A900008310860F5480068F5490840F3490860B6
:103AA000F448091D0860081F006820F48020091FE1
:103AB00008600020ED490C31086070470021EB4A96
:103AC000921C117011460870704710B50146002213
:103AD000002300204A11012A02D1E44C236808E0A7
:103AE000022A03D1E14C7034236802E0DF4C7434C5
:103AF000236801F01F02012494401C400CB10120F6
:103B000000E0002010BD38B5002000900024002502
:103B100000BF3120FFF7D9FF05460098401C0090F8
:103B20000098B0F5A06F01D0002DF2D03120FFF742
:103B3000CCFF08B1012400E00024204638BD014636
:103B40000020CA4A106820F0F80040EAC100106066
:103B50007047C949086070470021C44A703211702B
:103B60001170012802D004280AD104E00121BF4AC3
:103B70007032117005E00521BC4A7032117000E00E
:103B800000BF00BF7047BD490860704770B5049C16
:103B900041EA82150126C6EB530645EA0645054370
:103BA00045EA0465B14E361D356070BDB249086600
:103BB0007047820142EA0172AC4B84331A6070474D
:103BC000AD4988667047AC49C8647047024600201A
:103BD000A64B0833186820F0EC6042EA0103184352
:103BE000A24B083318607047024600209F4B0833F1
:103BF000186820F0784042EA010318439B4B0833D1
:103C00001860704701460020984A0832106820F07A
:103C1000030008431060704794480830006800F0C3
:103C20000C00704701460020904A0832106820F0CE
:103C3000F000084310607047014600208B4A0832AC
:103C4000106820F4E05008431060704701460020DF
:103C5000864A0832106820F4604040EAC1001060D3
:103C60007047F0B50021002200240225002602231F
:103C70007E4F08373F6807F00C0121B1042905D0B9
:103C8000082937D105E07E4F076036E07D4F076099
:103C900033E0764F3F1D3F68C7F38056734F3F1D9B
:103CA0003F6807F03F036EB1764FB7FBF3F7DFF8DD
:103CB000BCC10CF1040CDCF800C0CCF3881C07FB81
:103CC0000CF40CE06E4FB7FBF3F7DFF8A0C10CF17A
:103CD000040CDCF800C0CCF3881C07FB0CF4634F29
:103CE0003F1D3F68C7F301477F1C7D00B4FBF5F71C
:103CF000076002E0624F076000BF00BF5B4F0837FC
:103D00003F6807F0F00109095F4F7A5C0768D74008
:103D10004760564F08373F6807F4E051890A5A4F09
:103D20007A5C4768D7408760504F08373F6807F490
:103D30006041490B544F7A5C4768D740C760F0BD7B
:103D4000002100F44072B2F5407F0AD1474A0832A0
:103D5000116821F4F8114D4A02401143434A0832D8
:103D60001160424A70321268C0F30B031A433F4B92
:103D700070331A60704741494439086070473F49C1
:103D800040390860704742490860704739B1374A86
:103D9000303212680243354B30331A6006E0334A42
:103DA000303212688243314B30331A60704739B178
:103DB0002E4A3432126802432C4B34331A6006E028
:103DC0002A4A343212688243284B34331A607047CF
:103DD00039B1264A383212680243244B38331A600C
:103DE00006E0224A383212688243204B38331A6088
:103DF000704739B11D4A4032126802431B4B4033B1
:103E00001A6006E0194A403212688243174B403369
:103E10001A60704739B1154A443212680243134B95
:103E200044331A6006E0114A4432126882430F4B51
:103E300044331A60704739B10C4A10321268024399
:103E40000A4B10331A6006E0084A103212688243A7
:103E5000064B10331A607047E1B1044A14321268FD
:103E60000243024B14331A6019E00000003802408C
:103E7000FFFFF6FE1030002400004742800E47424C
:103E80000024F40000127A0060000020FFFCFF0F05
:103E90005C0147425B4A126882435A4B1A60704782
:103EA00039B1584A121D12680243564B1B1D1A6045
:103EB00006E0544A121D12688243524B1B1D1A60C1
:103EC000704739B14F4A0C32126802434D4B0C33E4
:103ED0001A6006E04B4A0C3212688243494B0C339D
:103EE0001A60704739B1474A103212680243454B95
:103EF00010331A6006E0434A103212688243414B85
:103F000010331A60704739B13E4A3C32126802439E
:103F10003C4B3C331A6006E03A4A3C32126882431A
:103F2000384B3C331A60704739B1364A4032126818
:103F30000243344B40331A6006E0324A4032126882
:103F40008243304B40331A60704739B12D4A4432B6
:103F5000126802432B4B44331A6006E0294A44326C
:103F600012688243274B44331A60704739B1254A9F
:103F70004C3212680243234B4C331A6006E0214A4C
:103F80004C32126882431F4B4C331A60704739B170
:103F90001C4A5032126802431A4B50331A6006E032
:103FA000184A503212688243164B50331A607047D9
:103FB00039B1144AD21F12780243124BDB1F1A7018
:103FC00006E0104AD21F127882430E4BDB1F1A7094
:103FD00070470C486030006840F0807009496031DB
:103FE0000860704701460020064A083A12680A40F5
:103FF0000AB1012000E0002070470249891F0870C3
:10400000704700001438024010B50446FE48844250
:1040100009D101214806FFF754FF00214FF000703D
:10402000FFF74FFF08E001218806FFF74AFF002154
:104030004FF08060FFF745FF10BD30B5024600200D
:104040000023146824F002041460146844F001048E
:10405000146000E05B1C546804F001041CB94FF6C6
:10406000FF74A342F6D1546804F001040CB9002097
:104070006CE08C79012C04D1146844F08004146045
:1040800003E0146824F080041460CC79012C04D17E
:10409000146844F04004146003E0146824F0400401
:1040A00014600C7A012C04D1146844F020041460CC
:1040B00003E0146824F0200414604C7A012C04D12D
:1040C000146844F01004146003E0146824F0100431
:1040D00014608C7A012C04D1146844F00804146034
:1040E00003E0146824F008041460CC7A012C04D195
:1040F000146844F00404146003E0146824F0040419
:1041000014608C78A407CD7844EA05640D7944EAFC
:1041100005444D7944EA05540D886D1E2C43D46145
:10412000146824F001041460002300E05B1C546850
:1041300004F001041CB14FF6FF74A342F6D1546899
:1041400004F001040CB1002000E0012030BD10B5E6
:104150000021837A012202FA03F1AC4A126842F08C
:104160000102AA4B1A60A94A1C3212688A43A74B63
:104170001C331A60027BCAB9A44A0C3212688A4303
:10418000A24B0C331A604288C38842EA03439F4A19
:104190004032847A42F834300288838842EA03430A
:1041A0009A4A4032847A02EBC4025360027B012AAD
:1041B00019D1964A0C3212680A43944B0C331A6098
:1041C0004288038842EA0343904A4032847A42F8A4
:1041D0003430C288838842EA03438C4A4032847A6E
:1041E00002EBC4025360C27A3AB9884A121D1268BF
:1041F0008A43864B1B1D1A6006E0844A121D126812
:104200000A43824B1B1D1A60028932B97F4A14325D
:1042100012688A437D4B14331A600289012A06D141
:104220007A4A143212680A43784B14331A60427B7C
:10423000012A06D1754A1C3212680A43734B1C339B
:104240001A60724A126822F00102704B1A6010BDA7
:1042500000218171C171017241728172C1728170DC
:10426000C170032101710221417101210180704758
:104270006649096841F00101644A11601146096804
:1042800043F60E729143614A11601146096841EA92
:10429000002111601146096821F001011160704789
:1042A00021B1026842F48032026003E0026822F425
:1042B000803202607047E1B1026842F08002026021
:1042C0004FF4C272125842F480734FF4C27213500A
:1042D0004FF4CA72125842F480734FF4CA721350EA
:1042E0004FF4D272125842F480734FF4D2721350CA
:1042F0001BE0026822F0800202604FF4C272125882
:1043000022F480734FF4C27213504FF4CA721258E1
:1043100022F480734FF4CA7213504FF4D2721258C1
:1043200022F480734FF4D2721350704710B50246D6
:104330000020936803F08063B3F1806F00D110E038
:10434000936803F00063B3F1006F01D1012008E02E
:10435000936803F08053B3F1805F01D1022000E045
:104360000420042879D002F5C07303EB00131B6806
:1043700003F0010402F5C07303EB00131C600B7A19
:104380007BB94B7A0C8843EA445302F5C07404EBC2
:1043900000142468234302F5C07404EB0014236066
:1043A00010E00B7A4C6843EAC4034C7A234302F5CD
:1043B000C07404EB00142468234302F5C07404EBBA
:1043C000001423608B7A03F00F038B7202F5C07325
:1043D00003EB00135B6823F00F0402F5C07303EBDB
:1043E00000135C6002F5C07303EB00135B688C7A0A
:1043F000234302F5C07404EB001463608B7B1C063E
:104400004B7B44EA034403E0006400400066004044
:104410000B7B44EA0323CC7A234302F5C07404EBFC
:104420000014A3608B7C1C064B7C44EA03440B7C89
:1044300044EA0323CC7B234302F5C07404EB00144D
:10444000E36002F5C07303EB00131B6843F0010443
:1044500002F5C07303EB00131C6010BD10B50246DB
:10446000002321B1012907D002290FD109E090686A
:10447000F94C00EA04030BE09068F84C00EA0403EE
:1044800006E09068F64C00EA040301E0002300BF58
:1044900000BFF44C181BA34216D007DC83B16FF0A9
:1044A0008060184470B1022818D111E0B0F5007F87
:1044B00010D0ED4C204448B1B0F5003F0ED10BE0D8
:1044C00002230DE000230BE0002309E0002307E0B6
:1044D000012305E0012303E0012301E0002300BFE5
:1044E00000BFD8B210BD21B1012907D002290FD1D8
:1044F00009E0826842F0800282600AE0826842F449
:104500000042826005E0826842F40002826000E0BE
:1045100000BF00BF704710B500F5D87303EB01135F
:104520001B6803F004031372137A53B900F5D873B0
:1045300003EB01131B6840F2FF7404EA535313604A
:1045400009E000F5D87303EB01131B686FF06044BA
:1045500004EAD303536000F5D87303EB01131B681F
:1045600003F00203537200F5D87303EB01135B6889
:1045700003F00F03937200F5D87303EB01135B682C
:104580001B0AD37400F5D87303EB01139B68D37235
:1045900000F5D87303EB01139B681C0A147300F534
:1045A000D87303EB01139B681C0C547300F5D8738C
:1045B00003EB01139B681B0E937300F5D87303EB99
:1045C0000113DB68D37300F5D87303EB0113DB68C9
:1045D0001C0A147400F5D87303EB0113DB681C0C80
:1045E000547400F5D87303EB0113DB681B0E93744E
:1045F00021B9C36843F02003C36003E0036943F0BB
:104600002003036110BD21B9C26842F02002C260DC
:1046100003E0026942F02002026170470246002076
:1046200019B9D36803F0030006E0012903D1136927
:1046300003F0030000E00020704710B502460B466F
:1046400000204FF6FF71BBB9146824F0020444F057
:104650000104146000E0491E546804F00304012CB6
:1046600001D00029F7D1546804F00304012C01D0D3
:10467000002032E0012030E0012B13D1146824F037
:104680000304146000E0491E546804F003040CB1F4
:104690000029F8D1546804F003040CB100201CE098
:1046A00001201AE0022B17D1146824F0010444F011
:1046B0000204146000E0491E546804F00304022C54
:1046C00001D00029F7D1546804F00304022C01D072
:1046D000002002E0012000E0002010BD0146002083
:1046E0000A6822F0010242F002020A604A6802F0FF
:1046F0000302022A00D10120704701464FF6FF72E3
:1047000000200B6823F002030B6000E0521E4B6890
:1047100003F00203022B01D1002AF7D14B6803F00A
:104720000203022B00D001207047014600208A6955
:1047300002F070007047014600208A69100E704731
:10474000014600208A69C2F3074070471AB14369E5
:104750000B43436102E043698B434361704710B5EB
:104760000246002001F4700343B19369C1F31304BE
:1047700023400BB101202DE000202BE001F08073DD
:1047800043B15368C1F3130423400BB1012021E06E
:1047900000201FE001F0006343B19368C1F31304EC
:1047A00023400BB1012015E0002013E001F000735D
:1047B00043B1D368C1F3130423400BB1012009E0D6
:1047C000002007E01369C1F3130423400BB101205B
:1047D00000E0002010BD0022244B994202D10023AA
:1047E000836111E0C1F3130201F000730BB1C260E9
:1047F0000AE001F080630BB1026105E001F00063A3
:104800000BB1826000E0426070470246002002EA7D
:1048100001030BB1012000E00020704770B5044691
:104820000D46002660692840002872D0B5F5807FCB
:1048300069D01DDC082D42D006DC012D2DD0022DC3
:1048400031D0042D7FD134E0102D3ED0202D42D028
:10485000402D78D145E0000003000004000300086B
:1048600000000310000100080001FFF77000F030A5
:10487000B5F5004F61D009DCB5F5007F4AD0B5F53C
:10488000806F4DD0B5F5006F5DD150E0B5F5803F3C
:104890002DD0B5F5003F56D12FE0A0685549FFF760
:1048A000B4FF064651E0E0680321FFF7AEFF06467D
:1048B0004BE0E0680821FFF7A8FF064645E0E06806
:1048C0001021FFF7A2FF06463FE020690321FFF712
:1048D0009CFF064639E020690821FFF796FF06464F
:1048E00033E020691021FFF790FF06462DE0606855
:1048F0000821FFF78AFF064627E060681021FFF7CE
:1049000084FF064621E0A0690121FFF77EFF0646ED
:104910001BE01BE0A0690221FFF777FF064614E0C9
:10492000A0690421FFF771FF06460EE00BE0A069C5
:104930007021FFF76AFF064607E060680421FFF771
:1049400064FF064601E0002600BF00E00026304676
:1049500070BDB1F5007F3AD00FDC202928D006DCED
:1049600001291CD004291DD0082940D11DE040296F
:1049700021D0B1F5807F3AD126E0B1F5004F31D09A
:1049800006DCB1F5806F25D0B1F5006F2FD124E0A2
:10499000B1F5803F12D0B1F5003F28D111E0154AA2
:1049A000826025E00822C26022E01022C2601FE07F
:1049B000082202611CE01022026119E00822426014
:1049C00016E01022426013E00422426010E004224C
:1049D00042600DE0042242600AE00022826104226B
:1049E000426005E0002282610422426000E000BFD4
:1049F00000BF70470101010010B504468C48844295
:104A000008D101210846FFF716FA00210120FFF71F
:104A100012FA5EE08748844208D101210220FFF7A4
:104A20000AFA00210220FFF706FA52E08248844287
:104A300008D101210420FFF7FEF900210420FFF72F
:104A4000FAF946E07D48844208D101210820FFF7A9
:104A5000F2F900210820FFF7EEF93AE078488442A5
:104A600008D101211020FFF7E6F900211020FFF7FF
:104A7000E2F92EE07348844208D101212020FFF79B
:104A8000DAF900212020FFF7D6F922E06E488442AF
:104A900008D101214020FFF7CEF900214020FFF787
:104AA000CAF916E06948844208D101218020FFF745
:104AB000C2F900218020FFF7BEF90AE06448844271
:104AC00007D101218015FFF7B6F90021A015FFF7E6
:104AD000B2F910BDF0B50A4600210023002400BF42
:104AE0003DE0012505FA01F3156805EA03049C423F
:104AF00034D105684F000326BE40B54305601579E3
:104B00004E00B5400668354305601579012D02D089
:104B10001579022D16D185684F000326BE40B54396
:104B2000856055794E00B540866835438560456897
:104B300001268E40B5434560456896798E40B6B2F1
:104B400035434560C5684F000326BE40B543C56088
:104B5000D5794E00B540C6683543C560491C10295B
:104B6000BFD3F0BD4FF6FF710160002101714171AB
:104B70008171C171704708B54FF480320092009A7C
:104B80000A430092009AC261C161009AC261C2697F
:104B90000092C269009208BD0246002013690B40D2
:104BA0000BB1012000E0002070470146086980B287
:104BB00070470246002053690B400BB1012000E012
:104BC000002070470146486980B2704701837047F2
:104BD000418370470AB1018300E04183704741611E
:104BE000704742694A4042617047F0B50023002493
:104BF0004D07ED0E02FA05F3CE1000F1200555F831
:104C000026504E07F70E0F26BE40B543CF1000F1D9
:104C1000200646F82750CE1000F1200555F8265002
:104C200045EA0304CE1000F1200545F82640F0BD0A
:104C3000000002400004024000080240000C024054
:104C4000001002400014024000180240001C024004
:104C500000200240016821F0010101600021016093
:104C600041608160C160016121214161DB4988426D
:104C700004D13D21D94A103A91608CE0D7491831CE
:104C8000884205D14FF47461D44A103A916082E0B1
:104C9000D2493031884205D14FF47411CF4A103ACD
:104CA000916078E0CD494831884205D14FF0746178
:104CB000CA4A103A91606EE0C8496031884204D116
:104CC000C749C64A103AD16065E0C4497831884284
:104CD00004D1C449C14A103AD1605CE0BF49903167
:104CE000884204D1C049BD4A103AD16053E0BB4963
:104CF000A831884205D14FF03D51B84A103AD160F1
:104D000049E0BA49884204D13D21B84A083A1160C5
:104D100041E0B6491831884205D14FF47461B34A75
:104D2000083A116037E0B1493031884205D14FF47B
:104D30007411AE4A083A11602DE0AC4948318842FE
:104D400005D14FF07461A94A083A116023E0A749E0
:104D50006031884204D1A249A44A121F11601AE0AE
:104D6000A2497831884204D19E49A04A121F11609D
:104D700011E09E499031884204D19B499B4A121F01
:104D8000116008E09949A831884204D14FF03D51A3
:104D9000964A121F1160704710B500220268944BAA
:104DA0001A40CC680B6823434C6923438C69234326
:104DB000CC6923430C6A23434C6A23438C6A234304
:104DC0004C6B23438C6B23431A430260426922F0ED
:104DD0000702D1E90B3423431A4342610B69436054
:104DE0004B6883608B68C36010BD00210160416027
:104DF0008160C160016141618161C16101624162A3
:104E00008162C162016341638163704721B10268BD
:104E100042F00102026003E0026822F00102026037
:104E2000704721B1026842F40042026003E0026868
:104E300022F400420260704721B1026842F0200271
:104E4000026003E0026822F02002026070474160C5
:104E500070470146486880B2704722B1036843F446
:104E60000023036003E0036823F40023036001616F
:104E7000704721B1026842F48022026003E00268B8
:104E800022F48022026070470AB1016100E0C16033
:104E90007047014600200A6802F400220AB101208E
:104EA00000E000207047014600200A6802F001027D
:104EB0000AB1012000E000207047014600204A6945
:104EC00002F03800704730B503460A46002000243F
:104ED000464DAB4202D24149103901E043491039F5
:104EE00002F000550DB14C6800E00C68414D2C40BB
:104EF00004EA02050DB1012000E0002030BD0246A9
:104F00003A4B9A4202D23548103801E037481038FF
:104F100001F000531BB1374B0B40C36002E0354B2F
:104F20000B408360704710B501F080034BB122B194
:104F3000436943F08003436103E0436923F0800346
:104F4000436180290BD02AB1036801F01E0423437A
:104F5000036004E0036801F01E04A343036010BD76
:104F600070B50246002000240025204EB24202D235
:104F70001A4B103B01E01D4B103B1F4E0E4036B14B
:104F80001E2606EAD124166806EA040502E05669E0
:104F900006F0800501F000560EB15C6800E01C6868
:104FA000144E344004EA010616B10DB1012000E0B0
:104FB000002070BD02460D4B9A4202D207481038BD
:104FC00001E00A48103801F000531BB1094B0B40B7
:104FD000C36002E0074B0B408360704710600240E3
:104FE0003D000020400F002000003D2010640240E2
:104FF0003F801CF07D0F7D0F3C0F3C0F10B5044629
:10500000F748844208D101211020FEF76BFF0021F0
:105010001020FEF767FF3EE0F248844209D10121EB
:105020004804FEF74EFF00214FF40030FEF749FF21
:1050300031E0ED48844209D101218804FEF741FFA7
:1050400000214FF48020FEF73CFF24E0E748844233
:1050500009D10121C804FEF734FF00214FF40020DC
:10506000FEF72FFF17E0E248844209D1012108052D
:10507000FEF727FF00214FF48010FEF722FF0AE021
:10508000DC48844207D101212020FEF72BFF0021BC
:105090002020FEF727FF10BD2DE9FF4705460E46ED
:1050A0000024A14600BFA046B08900B100BF2C8AF1
:1050B00024F44054F08804432C82AC8941F20C6003
:1050C0008443B08831890843718908430443AC8123
:1050D000AC8A24F44074B0890443AC826846FEF77D
:1050E000C0FDBF48854202D0C248854202D1DDF8EA
:1050F0000C9001E0DDF80890A88900F4004040B170
:1051000009EBC90000EB091031684900B0FBF1F769
:1051100007E009EBC90000EB091031688900B0FB1A
:10512000F1F76420B7FBF0F004012009642101FBD2
:105130001078A88900F4004040B1322000EBC8008C
:10514000B0FBF1F000F00700044308E0322000EB70
:1051500008106421B0FBF1F000F00F0004432C8133
:10516000BDE8FF874FF41651016000218180C180A6
:1051700001810C21418100218181704710B50246D7
:105180000020108A20F470600B884C8823438C88A0
:105190002343CC8823431843108210BD0021018093
:1051A00041808180C180704721B1828942F40052E0
:1051B000828104E082894DF6FF731A408281704734
:1051C000028B02F47F420283028B0A430283704700
:1051D00021B1828942F40042828103E08289C2F3D4
:1051E0000E028281704721B1828A42F4006282827B
:1051F00004E0828A4FF2FF731A4082827047C1F343
:1052000008028280704701468888C0F30800704712
:10521000028A4FF6F0731A400282028A0A4302821F
:10522000704721B1828942F00202828104E08289C2
:105230004FF6FD731A408281704782894FF2FF73E7
:105240001A40828182890A4382817047028A4FF61E
:10525000DF731A400282028A0A430282704721B138
:10526000028A42F48042028204E0028A4BF6FF7313
:105270001A4002827047818941F0010181817047A3
:1052800021B1828A42F00802828204E0828A4FF6CB
:10529000F7731A4082827047028BD2B20283028B6C
:1052A00042EA01220283704721B1828A42F0200241
:1052B000828204E0828A4FF6DF731A40828270474E
:1052C00021B1828A42F01002828204E0828A4FF683
:1052D000EF731A4082827047828A4FF6FB731A403E
:1052E0008282828A0A438282704721B1828A42F096
:1052F0000202828204E0828A4FF6FD731A408282A3
:1053000070471AB1838A0B43838202E0838A8B43FE
:1053100083827047F0B50346002400260025002054
:1053200040F66A17B94200D100BF1846C1F34214D3
:1053300001F01F06012707FA06F5012C01D10C30F8
:1053400004E0022C01D1103000E014301AB10768DB
:105350002F43076002E00768AF430760F0BD0246D5
:105360000020B1F5007F00D100BF13880B400BB1C6
:10537000012000E00020704701F40072B2F5007FC8
:1053800000D100BFCA430280704770B502460024B6
:1053900000230025002040F66A16B14200D100BF6C
:1053A000C1F3421501F01F03012606FA03F3012D94
:1053B00002D19689334006E0022D02D1168A33408D
:1053C00001E0968A33400C12012606FA04F416888E
:1053D000344013B10CB1012000E0002070BD00008A
:1053E000001001400044004000480040004C0040D4
:1053F000005000400014014010B50022002340F688
:105400006A14A14200D100BF0A1201249440A3B241
:10541000DC43048010BD00000CB50020019000901A
:105420007648006840F480307449086000BF7348D3
:10543000006800F4003000900198401C0190009832
:1054400018B90198B0F5A06FF1D16C48006800F46C
:10545000003010B10120009001E000200090009881
:10546000012846D165484030006840F080506349CB
:10547000403108606248006840F48040604908603C
:105480005E48083000685D490831086008460068D9
:1054900040F4004008600846006840F4A0500860EE
:1054A0005848091F0860081F006840F08070091FF5
:1054B000086000BF5148006800F000700028F9D073
:1054C00040F20560504908604C480830006820F000
:1054D00003004A49083108600846006840F00200AD
:1054E000086000BF45480830006800F00C0008283C
:1054F000F8D10CBD10B54548006840F47000434930
:1055000008603E48006840F001003C490860002007
:105510003A4908310860394800683D490840374930
:1055200008603C48091D0860081F006820F48020BE
:10553000091F0860002031490C310860FFF76CFF3B
:105540004FF0006031498039086010BD70B500200F
:105550000022022300240221284D08352D6805F081
:105560000C0020B1042806D0082834D107E02A4DC9
:105570002A4E356033E02A4D284E35602FE01F4D0E
:105580002D1D2D68C5F380541C4D2D1D2D6805F073
:105590003F0154B1224DB5FBF1F5184E361D36686A
:1055A000C6F3881605FB06F209E01B4DB5FBF1F5C5
:1055B000124E361D3668C6F3881605FB06F20F4DEF
:1055C0002D1D2D68C5F301456D1C6B00B2FBF3F575
:1055D000124E356003E0104D104E356000BF00BF25
:1055E000064D08352D68C5F303150E4E705D0B4D45
:1055F0002D68C540094E356070BD0000003802407E
:105600000070004008544007003C024088ED00E074
:10561000FFFFF6FE103000240024F400700000208C
:1056200000127A00740000200648804706480047B0
:10563000FEE7FEE7FEE7FEE7FEE7FEE7FEE7FEE742
:10564000FEE7FEE7F5540008890100082DE9FE4F4A
:10565000804681EA0300C00F0C46009021F0004113
:1056600023F00045B8EB0200A94105D2404621468F
:1056700090461C460B46024623F00040104347D09C
:10568000270DC7F30A00C3F30A510290401A019094
:1056900040286BDAC3F3130040F4801B0098924655
:1056A00020B10023D2EB030A63EB0B0B01985946A0
:1056B000C0F14002504600F0BDF906460D46504686
:1056C0005946019A00F0D5F910EB08006141002419
:1056D00087EA115284EAE7731A4340D0009A62B312
:1056E000019A012A4FEA075215DC001B61EB020107
:1056F0004FF0004202EA0752CDE90042001C41F59A
:10570000801132462B4600F00CFA03B0BDE8F08F52
:1057100040462146F9E7001B61EB0201001C41F500
:10572000801300185B412018A2F5001747EB030116
:1057300040EAD570B6196D4111E06D084FEA3606A2
:1057400045EAC0754FEA0752001B61EB0201001CDD
:1057500041F5801149084FEA3000001951413246A5
:105760002B4603B0BDE8F04F00F0CCB90098012201
:1057700040000023D0EB020263EBE0730098214667
:105780004FEAE074B8EB000061EB0401E9E783F055
:1057900000435BE781F0004158E72DE9FE4F81EAC5
:1057A000030404F0004421F0004100944FF0000B8A
:1057B00023F0004350EA01045ED052EA03045BD0B8
:1057C000C3F30A54C1F30A552C44A4F2F3340194F0
:1057D000A0FB0254C1F3130141F48011C3F313037E
:1057E00043F4801301FB024400FB034E840A970A32
:1057F00044EA815447EA8357A4FB076802958D0A5F
:1058000005FB07854FEA932C04FB0C542705029DEA
:105810004FEA065847EA1637B5EB08056EEB070C5A
:10582000870E920E47EA811742EA8312A7FB020114
:10583000B6EB0B0164EB00042B0D43EA0C335E184E
:1058400044EB1C50DA465146E7FB0201C5F3130452
:105850004FEA0B3343EA14534FEA0432019C43EA04
:105860000603A4F10C040294009CCDE900B400F0FE
:1058700058F903B0BDE8F08F00200146F9E72DE9A3
:10588000F04D81EA030404F0004B21F0004514467A
:105890004FF0000A23F0004150EA050220D054EAFC
:1058A00001021DD0C5F30A570246C5F31303C1F325
:1058B0001300C1F30A5640F4801543F48013A7EB9C
:1058C0000608101BD64608F2FD3873EB050002D31C
:1058D00008F1010801E092185B41B8F1000F03DA0A
:1058E00000200146BDE8F08D00204FF480110646EF
:1058F00084460EE0171B73EB050705D3121B63EB01
:10590000050306434CEA010C49084FEA300092189F
:105910005B4150EA0107EDD152EA030012D082EA5E
:10592000040083EA0501084305D0101BAB4106D2F1
:105930000122002306E000224FF0004302E06FF056
:10594000010253101AEB06004CEB085110EB0A0051
:1059500041EB0B01BDE8F04D00F0D4B80EB5C10F1E
:1059600080EAE0700844CA07002140F233438DE822
:105970000E000A460B4600F0D4F803B000BD0EB589
:1059800040F2334102910021CDE900110A460B4655
:1059900000F0C7F803B000BD70B5C1F30A5201F0C2
:1059A00000450024C1F3130140F2FF3341F480119C
:1059B0009A4201DA002070BD40F233439A42A2F2CB
:1059C000334203DC524200F044F800E090402C43A4
:1059D000F1D0404270BD00F0004230F000400AD0EB
:1059E000C10D01F56071C0F3160042EA0151C20811
:1059F00040071143704700200146704701F0004303
:105A000030B421F0004150EA010206D00A0DA2F59F
:105A10006072C1F31301002A02DC30BC0020704721
:105A2000440F44EAC104C100E01830BC00EBC2508E
:105A300000F031B8202A04DB203A00FA02F10020FD
:105A400070479140C2F1200320FA03F319439040BC
:105A50007047202A04DB203A21FA02F00021704727
:105A600021FA02F3D040C2F12002914008431946C6
:105A70007047202A06DBCB17203A41FA02F043EAAE
:105A8000E07306E041FA02F3D040C2F120029140F7
:105A90000843194670470029A8BF7047401C4900B9
:105AA00008BF20F00100704710B4B0FA80FC00FA83
:105AB0000CF050EA010404BF10BC704749B1CCF1AE
:105AC000200421FA04F411FA0CF118BF012121433A
:105AD0000843A3EB0C01CB1D4FEA00614FEA1020F5
