:020000040800F2
:1000000008190020611000088510000887100008FA
:100010008B1000088F1000089310000800000000EB
:100020000000000000000000000000009710000821
:1000300099100008000000009B10000879100008CB
:100040007B1000087B1000087B1000087B10000864
:100050007B1000087B100008F90700080B08000857
:100060007B1000087B100008F95C00087B1000087A
:100070007B1000087B1000087B1000087B10000834
:100080007B1000087B1000087B1000081105000899
:10009000270500087B1000087B1000087B10000873
:1000A0007B1000087B1000087B1000087B10000804
:1000B000AB0900087B1000087B1000087B100008CB
:1000C0007B1000087B1000087B1000087B100008E4
:1000D0007B100008530B00087B1000084F0D000830
:1000E0007B1000087B1000087B1000087B100008C4
:1000F0007B1000087B1000087B1000087B100008B4
:100100007B1000087B1000087B1000087B100008A3
:100110007B1000087B100008D90900087B1000083C
:100120007B1000087B1000087B1000087B10000883
:100130007B1000087B1000087B1000086D0600088B
:10014000830600087B1000087B1000087B10000865
:100150007B1000087B1000087B1000087B10000853
:100160007B1000087B1000087B1000087B10000843
:100170007B1000087B1000087B1000087B10000833
:100180007B1000087B100008DFF80CD009F094F910
:10019000004800479D0100080819002006F0ECFD0A
:1001A00007F089FB4FF4487000F084FA00F026F85D
:1001B00000F023FC0D49086017E00D4804F015FD20
:1001C00000F01BFC09490968401A0A4909680A4AF3
:1001D000B2FBF1F1884208D900F00FFC0349086036
:1001E00006F027F9012000F065FAE6E70800002094
:1001F000500800200000002040420F0010B54FF4CE
:10020000A06000F04BFF00F041F800F01FF800F094
:1002100009FB00F0ACFB05F085F900F04BFB00F0AA
:1002200017FE00F0C7F800F09DF9074800F0FAFB50
:1002300000F0FEFC00F062FB05F020FD05F051F936
:1002400000F033FE10BD0000A08601001CB50121A6
:10025000042002F0FFFB0620009001208DF804002E
:1002600000208DF8060003208DF805006946064839
:1002700002F0AAF90221044802F022FA04210248FD
:1002800002F01EFA1CBD00000008024000B58BB051
:100290000121084602F0DEFB0121082002F00DFCDE
:1002A0000121080402F01AFC0720099002208DF8B1
:1002B000280003208DF8290009A93B4802F084F9A1
:1002C00002220021384802F00AFA022201213648AF
:1002D00002F005FA03220221334802F000FA53200B
:1002E000ADF818000020ADF81A0040F6C4100790D1
:1002F0000020ADF8200006A92C4802F0DCFDA72064
:10030000ADF818000020ADF81A004FF47A7007908D
:100310000020ADF8200006A9254802F0CCFD702091
:10032000ADF804000120ADF806000020ADF808008B
:100330004FF47A7003900220ADF810000020ADF861
:100340001200ADF814004FF48070ADF8160001A94A
:10035000164802F045FE01A9144802F07AFE00207A
:10036000039001A9124802F03BFE08210F4802F059
:10037000C4FF08210D4802F0C9FF08210C4802F013
:10038000BCFF0121094802F001FE0121084802F0EA
:10039000FDFD0121054802F017FE0121044802F08D
:1003A00013FE0BB000BD000000000240000C004036
:1003B0000040014000B58BB00121084602F04AFB25
:1003C0000121480602F079FB09220B21624802F064
:1003D00086F909220C21604802F081F94FF4C050DF
:1003E000029002208DF80C0002A95B4802F0ECF8A4
:1003F00014208DF8040002208DF8050001208DF8EE
:1004000006008DF8070001A800F04DFE13208DF8BE
:10041000040001208DF805008DF806008DF8070016
:1004200001A800F040FE4D4800F0A8FE08A800F02A
:10043000C9FF00208DF826008DF827008DF82800D0
:100440008DF829008DF82A0001208DF82B0000205E
:100450008DF822008DF8230008208DF82400032059
:100460008DF82500ADF8200008A93C4800F09FFE5B
:1004700000208DF81A008DF81B0001208DF81C005B
:100480000020ADF81000ADF81200ADF81400ADF882
:100490001600ADF8180001208DF81D0004A800F02A
:1004A00010FF012202212D4801F00AFA0122114613
:1004B0002A4801F005FA0BB000BD00B585B040F246
:1004C0000440009000208DF808008DF809000820F5
:1004D0008DF80A0000208DF80B0001218DF80C101A
:1004E00002218DF80D1003218DF80E1004218DF8D6
:1004F0000F1005218DF8101006218DF8111007211D
:100500008DF812106946154800F0CAFF05B000BD0D
:1005100010B50121114801F03BFA18B101210F4833
:1005200001F0D1FA10BD00B585B002210B4801F0F1
:100530002FFA78B10421094801F0C5FA08490748A3
:1005400001F003FA6A460021044801F09EF868466B
:1005500007F06CFA05B000BD0000024000640040E6
:100560000800003200B58BB00121022002F072FABF
:100570000121880602F0A1FA09220C214B4802F061
:10058000AEF809220D21494802F0A9F84FF4405075
:10059000029002208DF80C0002A9444802F014F8E1
:1005A00040208DF8040001208DF805008DF806002C
:1005B0008DF8070001A800F076FD3F208DF80400BB
:1005C00000208DF8050001208DF806008DF8070049
:1005D00001A800F068FD364800F0D0FD08A800F042
:1005E000F1FE00208DF826008DF827008DF82800F8
:1005F0008DF829008DF82A0001208DF82B000020AD
:100600008DF822008DF8230008208DF824000320A7
:100610008DF82500ADF8200008A9254800F0C7FD99
:100620000E208DF81A0000208DF81B0001208DF897
:100630001C000020ADF81000ADF81200ADF8140059
:10064000ADF81600ADF8180001208DF81D0004A8C3
:1006500000F037FE01220221154801F031F9012294
:100660001146134801F02CF90BB000BD10B5012163
:100670000F4801F08DF918B101210D4801F023FA5E
:1006800010BD00B585B00221094801F081F958B1CB
:100690000221074801F017FA6A460021044800F0D9
:1006A000F4FF684607F0C2F905B000BD000402403F
:1006B0000068004010B5002107E04AF2104200BF78
:1006C000131EA2F10102FBD1491C8142F5D310BDDA
:1006D00010B5002106E0282200BF131EA2F101027E
:1006E000FBD1491C8142F6D310BD10B5002107E0B3
:1006F0004AF2104200BF131EA2F10102FBD1491CB5
:100700008142F5D310BD10B5002106E0282200BFBC
:10071000131EA2F10102FBD1491C8142F6D310BD88
:1007200000B585B00121880302F0D8F90121142019
:1007300002F090F900208DF810008DF812000120D1
:100740008DF8130000208DF811000320039003A9F9
:10075000324801F039FF6020039003A9304801F0CE
:1007600033FF0021022002F0C1FA0121022002F031
:10077000BDFA0521042002F0B9FA0621042002F096
:10078000B5FA6320019000208DF808000C208DF848
:10079000090001208DF80A0001A801F0C9FB06201C
:1007A0008DF8000002208DF8010001208DF8020074
:1007B0008DF80300684600F076FC07208DF80000F5
:1007C00002208DF801008DF8020001208DF8030051
:1007D000684600F068FC17208DF8000002208DF8B4
:1007E000010003208DF8020001208DF80300684607
:1007F00000F059FC05B000BD10B5012001F0FEFB72
:1008000010B1012001F00BFC10BD10B5022001F069
:10081000F5FB10B1022001F002FC10BD00080240FF
:10082000001002401CB50121084602F013F94FF4F4
:100830008070009001208DF8040000208DF80600E3
:1008400003208DF805006946044801F0BDFE4FF411
:100850008071024801F036FF1CBD0000000002401C
:100860000EB50121022002F039F94FF0FF3001905E
:10087000A720ADF800000020ADF80800ADF8020098
:100880000121604802F082FB69465E4802F013FBDA
:1008900001215C4802F07AFB00221146594802F01F
:1008A00047FB0121574802F059FB0121554802F04E
:1008B0008BFB0EBD1FB50121102002F0FEF8362083
:1008C0008DF8000001208DF8010000208DF8020055
:1008D00001208DF80300684600F0E5FB5320ADF8D9
:1008E00004000020ADF80600ADF80C004FF47A705B
:1008F000029001A9444802F0DEFA1FBD10B50121A3
:10090000414802F061FB012211463F4802F074FFAA
:1009100001213D4802F084FF10BD0EB501210420E5
:1009200002F0CBF84FF0FF300190A720ADF80000A7
:100930000020ADF80800ADF802000121334802F0B4
:1009400025FB6946314802F0B6FA01212F4802F032
:100950001DFB002211462D4802F0EAFA01212B4826
:1009600002F0FCFA0121294802F02EFB0EBD0EB563
:100970000121084602F0A1F84FF0FF30019053200A
:10098000ADF800000020ADF80800ADF8020001212C
:10099000880702F0FBFA69464FF0804002F08BFABC
:1009A0000121880702F010FB0EBD10B50121880758
:1009B00002F039FF78B10121880702F045FF0121DB
:1009C000880702F02DFF0221114801F084FE042166
:1009D0000F4801F080FE10BD10B501210A4802F059
:1009E00022FF48B10121084802F02EFF01210648EC
:1009F00002F016FF06F020FB10BD4FF08040406A69
:100A00007047000000040140001000400008004052
:100A10000008024010B5072312227E497E4807F0E5
:100A2000E3FD10BD10B596B004460121022002F08E
:100A300011F80121880502F00DF80121102002F0C3
:100A40004DF807221146754801F049FE14A801F03F
:100A500003FE8020149002208DF8540000208DF8B1
:100A6000550001208DF8570014A96C4801F0ACFD29
:100A70006B4802F0C5FF10A803F076F81094002030
:100A8000ADF84400ADF846004FF48060ADF8480082
:100A90000420ADF84A000020ADF84C0010A96048D1
:100AA00002F0FCFFFFF7B6FF012240215C4803F093
:100AB0002AF95C4801F05AF8684601F022F94FF033
:100AC000006000905648001D019057480290002099
:100AD00003901E200490002005904FF48060069043
:100AE0000020079008904FF48070099000020A904F
:100AF00000200B900C900D900E906946494801F033
:100B0000D7F8002248491E31464801F032F9012148
:100B1000444801F03AF90121424801F003F9252047
:100B20008DF83C0000208DF83D008DF83E0001203E
:100B30008DF83F000FA800F0B6FA012240F22441E0
:100B4000374803F0E9F80121354803F02FF816B0D3
:100B500010BD10B540F22441314803F018F90028C7
:100B600055D02F4800882E4880882E4801F01DF966
:100B700030BB00212B4801F0D5F82A4801F0F5F8E8
:100B8000C0F11E00294908601E202649091D086081
:100B9000081F006840F40020091F08600121214857
:100BA00001F0C0F821480068122830D11E4806F034
:100BB00010FE002007F030F9044608F01FF826E088
:100BC0000021184801F0AEF8164801F0CEF8C0F147
:100BD0001E00164908601E201249091D0860081FE2
:100BE000006820F40020091F086001210D4801F071
:100BF00099F80E480068122809D10B481E3006F0FB
:100C0000E8FD002007F008F9044607F0F7FF10BDE3
:100C1000014870472C060020000700200004024015
:100C20000010014040640240F00500200C0000204C
:100C300000B587B00121022001F00CFF01218804DA
:100C400001F03BFF07220A217D4801F048FD072201
:100C50000B217B4801F043FD4FF4406001900220DE
:100C60008DF8080000208DF80A0003208DF8090097
:100C700000208DF80B0001A9714801F0A5FC4FF48C
:100C8000E13003900020ADF81000ADF81200ADF88F
:100C900014000C20ADF816000020ADF8180003A9D0
:100CA000684802F0FBFE012240F22551654803F03E
:100CB00033F80121634802F079FF27208DF8000006
:100CC00001208DF8010000208DF8020001208DF830
:100CD0000300684600F0E7F9642007F007FD5A4971
:100CE000086007B000BD10B50446214656480068AC
:100CF00007F063FD012240F22771524803F00CF81F
:100D000010BD70B505460E46002400BF06E0295D03
:100D10004D48006807F051FD601CC4B2B442F6DBD8
:100D2000012240F22771474802F0F6FF70BD70B50E
:100D300004460D4600BF4021424803F012F8002847
:100D4000F9D0E1B23F4802F05CFF204670BD70B5BB
:100D500040F227713B4803F01AF8A8B13A480068FE
:100D600007F0A1FE48B93848006807F0AEFD044618
:100D70002146344802F045FF60E0002240F227712E
:100D8000304802F0C9FF59E040F225512D4802F0E9
:100D9000FEFF002852D02B4802F037FFC5B22B4986
:100DA000284607F089F9002847D0284807F01CFAA0
:100DB00043282CD1254807F01AFA0446207818B9A0
:100DC000022005F052F921E02078012803D1042007
:100DD00005F04BF91AE02078022803D1102005F025
:100DE00044F913E02078032803D1202005F03DF9D1
:100DF0000CE02078042803D1402005F036F905E006
:100E00002078052802D1802005F02FF915E00F4841
:100E100007F0EAF9442810D00C4807F0E5F9472814
:100E20000BD10A4807F0E3F90446204605F0F6FA2C
:100E30004FF4807005F019F900BF00BF70BD0000CD
:100E40000004024000480040100000201C07002061
:100E50001CB50121022001F0FDFD0121022001F05D
:100E60002CFE3020009003208DF8050002208DF824
:100E7000040001208DF807006946194801F0A4FB21
:100E800002220521164801F02AFC022204211448FE
:100E900001F025FC02231A460321124802F07FFDCF
:100EA0000121104802F090F81CBD47F6FF700D4973
:100EB00024310860704700210A4824300068A0F5FA
:100EC000FE41FF3947F6FF70064A2432106006489B
:100ED0000078012801D1084670474842FCE700002D
:100EE000000402400004004014000020014608787D
:100EF000704701464E48814201D2002070474D485C
:100F0000814201D20820F9E74B48814201D21020EA
:100F1000F4E74A48814201D21820EFE7484881426D
:100F200001D22020EAE74748814201D22820E5E7A4
:100F30004548814201D23020E0E74448814201D255
:100F40003820DBE74248814201D24020D6E74148C1
:100F5000814201D24820D1E73F48814201D250204E
:100F6000CCE75820CAE72DE9FC5F04460D469046C1
:100F70004FF008090120019000264FF0000A0027D9
:100F80004FF0000B00200090B4F1006F01D2BDE8DB
:100F9000FC9F01F08BF8002001F06BF8264604EB73
:100FA000080A3046FFF7A5FF83465046FFF7A1FF2A
:100FB00000902A48864211D25F460BE00221384653
:100FC00001F0C0F88146B9F1080F02D0002001906D
:100FD00003E0083700988742F0D900BFB9F1080F45
:100FE0000ED10AE02978204601F0A7F9082802D09E
:100FF0000020019003E0641C6D1C5445F2D300BF37
:10100000012001F036F801F05EF80198BFE72DE904
:10101000F04107460D461646002405E03846FFF726
:1010200065FF28557F1C641CB442F7D3BDE8F081EE
:10103000004000080080000800C00008000001080F
:10104000000002080000040800000608000008086C
:1010500000000A0800000C0800000E080000FF1F36
:101060000648804706480047FEE7FEE7FEE7FEE742
:10107000FEE7FEE7FEE7FEE7FEE7FEE7F93E0008D3
:1010800089010008704700BFFEE700BFFEE700BF10
:10109000FEE700BFFEE770477047704732490143E3
:1010A000324A1160704770B5002100230F22C478C6
:1010B0001CB32E4C246804F4E064C4F5E064C4F36B
:1010C0000721C1F10404E3B20A4144789C40E1B233
:1010D0008478144021430C07210E254C0578615576
:1010E000047804F01F050124AC4005786D11AD00B3
:1010F00005F1E025C5F8004109E0047804F01F057A
:101100000124AC401B4D0678761145F8264070BD91
:10111000194A0A400243154B1B1F1A60704739B128
:10112000124A121D12680243104B1B1D1A6006E082
:101130000E4A121D126882430C4B1B1D1A60704729
:10114000042808D14FF0E021096941F004014FF073
:10115000E022116107E04FF0E021096921F004016C
:101160004FF0E022116170470000FA050CED00E03D
:1011700000E400E080E100E080FFFF1F10B50446BE
:10118000FE48844209D10121480601F0FEFC0021FD
:101190004FF0007001F0F9FC08E00121880601F031
:1011A000F4FC00214FF0806001F0EFFC10BD30B581
:1011B000024600200023146824F00204146014681E
:1011C00044F00104146000E05B1C546804F0010466
:1011D0001CB94FF6FF74A342F6D1546804F0010421
:1011E0000CB900206CE08C79012C04D1146844F017
:1011F0008004146003E0146824F080041460CC7947
:10120000012C04D1146844F04004146003E0146815
:1012100024F0400414600C7A012C04D1146844F0CA
:101220002004146003E0146824F0200414604C7A55
:10123000012C04D1146844F01004146003E0146815
:1012400024F0100414608C7A012C04D1146844F04A
:101250000804146003E0146824F008041460CC7AD5
:10126000012C04D1146844F00404146003E01468F1
:1012700024F0040414608C78A407CD7844EA056453
:101280000D7944EA05444D7944EA05540D886D1EF4
:101290002C43D461146824F001041460002300E09E
:1012A0005B1C546804F001041CB14FF6FF74A342A8
:1012B000F6D1546804F001040CB1002000E00120D4
:1012C00030BD10B50021837A012202FA03F1AC4A45
:1012D000126842F00102AA4B1A60A94A1C32126835
:1012E0008A43A74B1C331A60027BCAB9A44A0C324A
:1012F00012688A43A24B0C331A604288C38842EAC0
:1013000003439F4A4032847A42F83430028883880B
:1013100042EA03439A4A4032847A02EBC4025360A1
:10132000027B012A19D1964A0C3212680A43944B67
:101330000C331A604288038842EA0343904A4032E1
:10134000847A42F83430C288838842EA03438C4A64
:101350004032847A02EBC4025360C27A3AB9884AB6
:10136000121D12688A43864B1B1D1A6006E0844AD0
:10137000121D12680A43824B1B1D1A60028932B982
:101380007F4A143212688A437D4B14331A600289F3
:10139000012A06D17A4A143212680A43784B143370
:1013A0001A60427B012A06D1754A1C3212680A4330
:1013B000734B1C331A60724A126822F00102704BA0
:1013C0001A6010BD00218171C17101724172817278
:1013D000C1728170C170032101710221417101212B
:1013E000018070476649096841F00101644A116053
:1013F0001146096843F60E729143614A1160114625
:10140000096841EA002111601146096821F00101D3
:101410001160704721B1026842F48032026003E03B
:10142000026822F4803202607047E1B1026842F043
:10143000800202604FF4C272125842F480734FF47B
:10144000C27213504FF4CA72125842F480734FF4B0
:10145000CA7213504FF4D272125842F480734FF490
:10146000D27213501BE0026822F0800202604FF437
:10147000C272125822F480734FF4C27213504FF4A8
:10148000CA72125822F480734FF4CA7213504FF488
:10149000D272125822F480734FF4D27213507047F4
:1014A00010B502460020936803F08063B3F1806FAB
:1014B00000D110E0936803F00063B3F1006F01D135
:1014C000012008E0936803F08053B3F1805F01D1FD
:1014D000022000E00420042879D002F5C07303EB59
:1014E00000131B6803F0010402F5C07303EB001343
:1014F0001C600B7A7BB94B7A0C8843EA445302F5A3
:10150000C07404EB00142468234302F5C07404EB98
:101510000014236010E00B7A4C6843EAC4034C7A51
:10152000234302F5C07404EB00142468234302F53E
:10153000C07404EB001423608B7A03F00F038B72EA
:1015400002F5C07303EB00135B6823F00F0402F590
:10155000C07303EB00135C6002F5C07303EB001370
:101560005B688C7A234302F5C07404EB001463605B
:101570008B7B1C064B7B44EA034403E00064004081
:10158000006600400B7B44EA0323CC7A234302F538
:10159000C07404EB0014A3608B7C1C064B7C44EAF3
:1015A00003440B7C44EA0323CC7B234302F5C07441
:1015B00004EB0014E36002F5C07303EB00131B6837
:1015C00043F0010402F5C07303EB00131C6010BD6F
:1015D00010B50246002321B1012907D002290FD1FD
:1015E00009E09068F94C00EA04030BE09068F84CBD
:1015F00000EA040306E09068F64C00EA040301E008
:10160000002300BF00BFF44C181BA34216D007DC18
:1016100083B16FF08060184470B1022818D111E0D6
:10162000B0F5007F10D0ED4C204448B1B0F5003F3C
:101630000ED10BE002230DE000230BE0002309E0B4
:10164000002307E0012305E0012303E0012301E07B
:10165000002300BF00BFD8B210BD21B1012907D0BF
:1016600002290FD109E0826842F0800282600AE01C
:10167000826842F40042826005E0826842F400021F
:10168000826000E000BF00BF704710B500F5D8735E
:1016900003EB01131B6803F004031372137A53B9AD
:1016A00000F5D87303EB01131B6840F2FF7404EAE2
:1016B0005353136009E000F5D87303EB01131B6863
:1016C0006FF0604404EAD303536000F5D87303EB72
:1016D00001131B6803F00203537200F5D87303EB88
:1016E00001135B6803F00F03937200F5D87303EBEB
:1016F00001135B681B0AD37400F5D87303EB011365
:101700009B68D37200F5D87303EB01139B681C0A26
:10171000147300F5D87303EB01139B681C0C54730E
:1017200000F5D87303EB01139B681B0E937300F550
:10173000D87303EB0113DB68D37300F5D87303EBA5
:101740000113DB681C0A147400F5D87303EB011352
:10175000DB681C0C547400F5D87303EB0113DB68D1
:101760001B0E937421B9C36843F02003C36003E0E8
:10177000036943F02003036110BD21B9C26842F040
:101780002002C26003E0026942F020020261704759
:101790000246002019B9D36803F0030006E00129CE
:1017A00003D1136903F0030000E00020704710B577
:1017B00002460B4600204FF6FF71BBB9146824F0B7
:1017C000020444F00104146000E0491E546804F06F
:1017D0000304012C01D00029F7D1546804F003045C
:1017E000012C01D0002032E0012030E0012B13D188
:1017F000146824F00304146000E0491E546804F0E7
:1018000003040CB10029F8D1546804F003040CB1AE
:1018100000201CE001201AE0022B17D1146824F0EC
:10182000010444F00204146000E0491E546804F00E
:101830000304022C01D00029F7D1546804F00304FA
:10184000022C01D0002002E0012000E0002010BDA9
:10185000014600200A6822F0010242F002020A60FA
:101860004A6802F00302022A00D1012070470146B3
:101870004FF6FF7200200B6823F002030B6000E0BC
:10188000521E4B6803F00203022B01D1002AF7D14C
:101890004B6803F00203022B00D001207047014681
:1018A00000208A6902F070007047014600208A69B2
:1018B000100E7047014600208A69C2F30740704746
:1018C0001AB143690B43436102E043698B434361AF
:1018D000704710B50246002001F4700343B19369CC
:1018E000C1F3130423400BB101202DE000202BE0B5
:1018F00001F0807343B15368C1F3130423400BB16B
:10190000012021E000201FE001F0006343B1936853
:10191000C1F3130423400BB1012015E0002013E0B4
:1019200001F0007343B1D368C1F3130423400BB13A
:10193000012009E0002007E01369C1F313042340EC
:101940000BB1012000E0002010BD0022244B994281
:1019500002D10023836111E0C1F3130201F000738F
:101960000BB1C2600AE001F080630BB1026105E0D7
:1019700001F000630BB1826000E0426070470246F4
:10198000002002EA01030BB1012000E000207047B3
:1019900070B504460D46002660692840002872D0C4
:1019A000B5F5807F69D01DDC082D42D006DC012D05
:1019B0002DD0022D31D0042D7FD134E0102D3ED01A
:1019C000202D42D0402D78D145E0000003000004D6
:1019D0000003000800000310000100080001FFF7E9
:1019E0007000F030B5F5004F61D009DCB5F5007F2F
:1019F0004AD0B5F5806F4DD0B5F5006F5DD150E0A0
:101A0000B5F5803F2DD0B5F5003F56D12FE0A06849
:101A10005549FFF7B4FF064651E0E0680321FFF7A0
:101A2000AEFF06464BE0E0680821FFF7A8FF064638
:101A300045E0E0681021FFF7A2FF06463FE020697D
:101A40000321FFF79CFF064639E020690821FFF7D4
:101A500096FF064633E020691021FFF790FF064607
:101A60002DE060680821FFF78AFF064627E06068DE
:101A70001021FFF784FF064621E0A0690121FFF74E
:101A80007EFF06461BE01BE0A0690221FFF777FFFF
:101A9000064614E0A0690421FFF771FF06460EE038
:101AA0000BE0A0697021FFF76AFF064607E0606857
:101AB0000421FFF764FF064601E0002600BF00E0B6
:101AC0000026304670BDB1F5007F3AD00FDC2029EA
:101AD00028D006DC01291CD004291DD0082940D1BA
:101AE0001DE0402921D0B1F5807F3AD126E0B1F543
:101AF000004F31D006DCB1F5806F25D0B1F5006F15
:101B00002FD124E0B1F5803F12D0B1F5003F28D1AC
:101B100011E0154A826025E00822C26022E010220E
:101B2000C2601FE0082202611CE01022026119E07D
:101B30000822426016E01022426013E00422426054
:101B400010E0042242600DE0042242600AE000221C
:101B500082610422426005E0002282610422426028
:101B600000E000BF00BF704701010100016821F0E3
:101B7000010101600021016041608160C16001617B
:101B800021214161DB49884204D13D21D94A103AE3
:101B900091608CE0D7491831884205D14FF47461C7
:101BA000D44A103A916082E0D2493031884205D15E
:101BB0004FF47411CF4A103A916078E0CD49483122
:101BC000884205D14FF07461CA4A103A91606EE0C4
:101BD000C8496031884204D1C749C64A103AD16029
:101BE00065E0C4497831884204D1C449C14A103AF9
:101BF000D1605CE0BF499031884204D1C049BD4A00
:101C0000103AD16053E0BB49A831884205D14FF06A
:101C10003D51B84A103AD16049E0BA49884204D1EE
:101C20003D21B84A083A116041E0B649183188426E
:101C300005D14FF47461B34A083A116037E0B149F5
:101C40003031884205D14FF47411AE4A083A116020
:101C50002DE0AC494831884205D14FF07461A94A62
:101C6000083A116023E0A7496031884204D1A249B3
:101C7000A44A121F11601AE0A2497831884204D1A7
:101C80009E49A04A121F116011E09E49903188427E
:101C900004D19B499B4A121F116008E09949A83161
:101CA000884204D14FF03D51964A121F116070478F
:101CB00010B500220268944B1A40CC680B6823438D
:101CC0004C6923438C692343CC6923430C6A234327
:101CD0004C6A23438C6A23434C6B23438C6B234312
:101CE0001A430260426922F00702D1E90B34234310
:101CF0001A4342610B6943604B6883608B68C36021
:101D000010BD0021016041608160C16001614161DD
:101D10008161C161016241628162C16201634163AB
:101D20008163704721B1026842F00102026003E062
:101D3000026822F001020260704721B1026842F499
:101D40000042026003E0026822F400420260704731
:101D500021B1026842F02002026003E0026822F032
:101D6000200202607047416070470146486880B2B7
:101D7000704722B1036843F40023036003E0036863
:101D800023F4002303600161704721B1026842F42B
:101D90008022026003E0026822F480220260704721
:101DA0000AB1016100E0C1607047014600200A6885
:101DB00002F400220AB1012000E000207047014631
:101DC00000200A6802F001020AB1012000E00020B0
:101DD0007047014600204A6902F03800704730B56C
:101DE00003460A4600200024464DAB4202D2414938
:101DF000103901E04349103902F000550DB14C682B
:101E000000E00C68414D2C4004EA02050DB10120B0
:101E100000E0002030BD02463A4B9A4202D23548DB
:101E2000103801E03748103801F000531BB1374B30
:101E30000B40C36002E0354B0B408360704710B528
:101E400001F080034BB122B1436943F08003436149
:101E500003E0436923F08003436180290BD02AB15A
:101E6000036801F01E042343036004E0036801F0EB
:101E70001E04A343036010BD70B502460020002479
:101E80000025204EB24202D21A4B103B01E01D4BFE
:101E9000103B1F4E0E4036B11E2606EAD1241668AE
:101EA00006EA040502E0566906F0800501F00056D6
:101EB0000EB15C6800E01C68144E344004EA010670
:101EC00016B10DB1012000E0002070BD02460D4B9F
:101ED0009A4202D20748103801E00A48103801F04F
:101EE00000531BB1094B0B40C36002E0074B0B4092
:101EF00083607047106002403D000020400F0020CA
:101F000000003D20106402403F801CF07D0F7D0FDB
:101F10003C0F3C0F002044490860091D0860091D62
:101F20000860091D086041483F4914310860704746
:101F300000213D498279002A3AD00A461268036896
:101F40009A430B461A600A1D126803689A430B1DD8
:101F50001A60027911440A6803681A430A60324A17
:101F60000832126803689A432F4B08331A601A1D0F
:101F7000126803689A432C4B0C331A604279102A7A
:101F80000ED11A1F126803681A43274B08331A60D0
:101F90001A1D126803681A43234B0C331A600DE0B4
:101FA0002149427911440A6803681A430A6005E02E
:101FB000027911440A6803689A430A607047002155
:101FC000016001710C214171002181717047164936
:101FD000103109680143144A1032116070470146FC
:101FE0000020114A143212680A400AB1012000E0B0
:101FF000002070470C4914310860704701460020EA
:102000000022094B1B6803EA0102074B14331B68CB
:102010000B4013B10AB1012000E0002070470249D3
:102020001431086070470000003C0140FFFF7F0052
:10203000FE4A1070704730B1FC49096841F4807164
:10204000FA4A116005E0F949096821F48071F74AFC
:102050001160704730B1F549096841F40071F34AE5
:10206000116005E0F149096821F40071EF4A11603F
:10207000704730B1ED49096841F48061EB4A116065
:1020800005E0EA49096821F48061E84A1160704777
:10209000E648006840F40060E44908607047E3489F
:1020A000006840F48050E14908607047DF48103014
:1020B000006800F0004028B1DD48DC49091D0860D7
:1020C000DC4808607047D9481030006840F0004094
:1020D000D6491031086070470820D4490C3109688E
:1020E00001F48031B1F5803F01D1012018E0CF49E2
:1020F0000C31096801F0100109B1052010E0CB494D
:102100000C31096801F0EF0109B1062008E0C74968
:102110000C31096801F0020109B1072000E0082034
:10212000704708B508200090FFF7D6FF009002E046
:10213000FFF7D2FF00909DF800000128F8D09DF82D
:10214000000008BD70B504460A460026082502B9FD
:1021500009E0012A01D1160205E0022A01D1160286
:1021600001E04FF44076FFF7DCFF0546082D2DD146
:10217000AE481030006820F44070AC49103108605F
:1021800008460068304308600846006820F0F80000
:1021900008600846006844F002010843A349103172
:1021A00008600846006840F480300860FFF7B9FF17
:1021B00005469E481030006820F002009B4910310F
:1021C00008600846006820F0F8000860284670BDE6
:1021D00030B5024600250824FFF7A3FF044602B9E4
:1021E00009E0012A01D1150205E0022A01D11502F8
:1021F00001E04FF44075082C20D18C481030006865
:1022000020F440708949103108600846006828436E
:1022100008600846006840F004000860084600684E
:1022200040F480300860FFF77CFF04467F481030A0
:10223000006820F004007D4910310860204630BD60
:1022400070B5064614461D460822FFF76AFF02468F
:10225000082A1ED175481030006820F44070734978
:10226000103108600846006840F440700860084675
:10227000006840F00100086034607560FFF751FFAE
:1022800002466A481030006820F0010067491031AA
:102290000860104670BD30B502460C460825FFF7B1
:1022A00040FF0546082D1DD160481030006820F41D
:1022B00040705E49103108600846006840F40070C4
:1022C00008600846006840F0010008601460FFF7ED
:1022D00028FF054655481030006820F0010053499A
:1022E00010310860284630BD30B502460C4608253E
:1022F000FFF717FF0546082D1DD14C481030006828
:1023000020F440704949103108600846006840F4E4
:10231000807008600846006840F001000860148082
:10232000FFF7FFFE054641481030006820F001002D
:102330003E4910310860284630BD30B502460C4693
:102340000825FFF7EEFE0546082D1BD13748103053
:10235000006820F440703549103108600846006874
:1023600008600846006840F0010008601470FFF73C
:10237000D8FE05462D481030006820F001002B499A
:1023800010310860284630BD28481430006800F03D
:10239000010028B12848254908310860274808600D
:1023A000704722481430006840F001001F49143182
:1023B0000860704730B502460C460825FFF7B1FEAD
:1023C0000546082D10D13CB11848163000889043BE
:1023D00016491631088007E014481630008891B27B
:1023E000084312491631088030BD10B50246082452
:1023F000FFF797FE0446082C02D10C4815300270F6
:1024000010BDF0B504460D46FF260827FFF789FEEC
:102410000746082F16D105481430007800F00F0643
:1024200045EA060010432043004909E0003C024011
:1024300023016745AB89EFCD3B2A19087F6E5D4CC0
:1024400014310870F0BD2849097821F00C01264AA2
:1024500011701146097801431170704700B50822C8
:102460002148007840F002001F490870FFF759FE2C
:102470000246104600BD1C480068C0F34710704774
:102480001948801C0088704700201749491C0978AA
:10249000AA2901D0012000E00020704712480078EE
:1024A00000F00C00704739B10F4A121F1268024346
:1024B0000D4B1B1F1A6006E00B4A121F1268824365
:1024C000094B1B1F1A60704701460020064A083A54
:1024D00012680A400AB1012000E00020704702495A
:1024E0000839086070470000143C024010B50446EB
:1024F0008C48844208D10121084600F000FB0021ED
:10250000012000F0FCFA5EE08748844208D10121F6
:10251000022000F0F4FA0021022000F0F0FA52E06C
:102520008248844208D10121042000F0E8FA002109
:10253000042000F0E4FA46E07D48844208D10121FD
:10254000082000F0DCFA0021082000F0D8FA3AE078
:102550007848844208D10121102000F0D0FA0021EF
:10256000102000F0CCFA2EE07348844208D10121FB
:10257000202000F0C4FA0021202000F0C0FA22E060
:102580006E48844208D10121402000F0B8FA0021B1
:10259000402000F0B4FA16E06948844208D10121D5
:1025A000802000F0ACFA0021802000F0A8FA0AE0B8
:1025B0006448844207D10121801500F0A0FA00216F
:1025C000A01500F09CFA10BDF0B50A4600210023CA
:1025D000002400BF3DE0012505FA01F3156805EA76
:1025E00003049C4234D105684F000326BE40B54326
:1025F000056015794E00B5400668354305601579CC
:10260000012D02D01579022D16D185684F000326C1
:10261000BE40B543856055794E00B5408668354368
:102620008560456801268E40B543456045689679CA
:102630008E40B6B235434560C5684F000326BE40A4
:10264000B543C560D5794E00B540C6683543C56011
:10265000491C1029BFD3F0BD4FF6FF710160002166
:10266000017141718171C171704708B54FF48032B9
:102670000092009A0A430092009AC261C161009AD6
:10268000C261C2690092C269009208BD0246002080
:1026900013690B400BB1012000E000207047014698
:1026A000086980B270470246002053690B400BB1A5
:1026B000012000E0002070470146486980B2704761
:1026C00001837047418370470AB1018300E0418371
:1026D00070474161704742694A4042617047F0B5B6
:1026E000002300244D07ED0E02FA05F3CE1000F191
:1026F000200555F826504E07F70E0F26BE40B5436D
:10270000CF1000F1200646F82750CE1000F120052A
:1027100055F8265045EA0304CE1000F1200545F88F
:102720002640F0BD000002400004024000080240C4
:10273000000C024000100240001402400018024049
:10274000001C024000200240FA48006840F00100EE
:10275000F84908600020F74908310860F54800682A
:10276000F5490840F3490860F448091D0860081F4E
:10277000006820F48020091F08600020ED490C311A
:10278000086070470021EB4A921C117011460870D6
:10279000704710B501460022002300204A11012A8B
:1027A00002D1E44C236808E0022A03D1E14C7034E2
:1027B000236802E0DF4C7434236801F01F02012417
:1027C00094401C400CB1012000E0002010BD38B541
:1027D000002000900024002500BF3120FFF7D9FF22
:1027E00005460098401C00900098B0F5A06F01D0FD
:1027F000002DF2D03120FFF7CCFF08B1012400E01A
:102800000024204638BD01460020CA4A106820F046
:10281000F80040EAC10010607047C949086070477D
:102820000021C44A703211701170012802D00428AE
:102830000AD104E00121BF4A7032117005E0052180
:10284000BC4A7032117000E000BF00BF7047BD4944
:102850000860704770B5049C41EA82150126C6EBFA
:10286000530645EA0645054345EA0465B14E361D63
:10287000356070BDB24908667047820142EA017254
:10288000AC4B84331A607047AD4988667047AC49D9
:10289000C864704702460020A64B0833186820F031
:1028A000EC6042EA01031843A24B083318607047FA
:1028B000024600209F4B0833186820F0784042EA17
:1028C000010318439B4B08331860704701460020F2
:1028D000984A0832106820F00300084310607047DF
:1028E00094480830006800F00C0070470146002052
:1028F000904A0832106820F0F000084310607047DA
:10290000014600208B4A0832106820F4E05008434A
:102910001060704701460020864A0832106820F493
:10292000604040EAC10010607047F0B5002100220D
:1029300000240225002602237E4F08373F6807F057
:102940000C0121B1042905D0082937D105E07E4FBB
:10295000076036E07D4F076033E0764F3F1D3F68EC
:10296000C7F38056734F3F1D3F6807F03F036EB1BA
:10297000764FB7FBF3F7DFF8BCC10CF1040CDCF8C1
:1029800000C0CCF3881C07FB0CF40CE06E4FB7FBC7
:10299000F3F7DFF8A0C10CF1040CDCF800C0CCF3B5
:1029A000881C07FB0CF4634F3F1D3F68C7F30147CA
:1029B0007F1C7D00B4FBF5F7076002E0624F076003
:1029C00000BF00BF5B4F08373F6807F0F0010909FF
:1029D0005F4F7A5C0768D7404760564F08373F68BB
:1029E00007F4E051890A5A4F7A5C4768D7408760FC
:1029F000504F08373F6807F46041490B544F7A5CE9
:102A00004768D740C760F0BD002100F44072B2F5BE
:102A1000407F0AD1474A0832116821F4F8114D4A23
:102A200002401143434A08321160424A7032126830
:102A3000C0F30B031A433F4B70331A607047414990
:102A40004439086070473F4940390860704742493F
:102A50000860704739B1374A303212680243354B4B
:102A600030331A6006E0334A303212688243314B09
:102A700030331A60704739B12E4A3432126802433B
:102A80002C4B34331A6006E02A4A343212688243EF
:102A9000284B34331A60704739B1264A38321268ED
:102AA0000243244B38331A6006E0224A3832126857
:102AB0008243204B38331A60704739B11D4A403287
:102AC000126802431B4B40331A6006E0194A403239
:102AD00012688243174B40331A60704739B1154A68
:102AE000443212680243134B44331A6006E0114A21
:102AF0004432126882430F4B44331A60704739B135
:102B00000C4A1032126802430A4B10331A6006E076
:102B1000084A103212688243064B10331A6070471D
:102B2000E1B1044A143212680243024B14331A60B2
:102B300019E0000000380240FFFFF6FE10300024CC
:102B400000004742800E47420024F40040787D0197
:102B500015000020FFFCFF0F5C0147425B4A126832
:102B600082435A4B1A60704739B1584A121D126895
:102B70000243564B1B1D1A6006E0544A121D126890
:102B80008243524B1B1D1A60704739B14F4A0C32B9
:102B9000126802434D4B0C331A6006E04B4A0C326C
:102BA00012688243494B0C331A60704739B1474A67
:102BB000103212680243454B10331A6006E0434A54
:102BC000103212688243414B10331A60704739B19A
:102BD0003E4A3C32126802433C4B3C331A6006E0EA
:102BE0003A4A3C3212688243384B3C331A60704791
:102BF00039B1364A403212680243344B40331A60CE
:102C000006E0324A403212688243304B40331A6049
:102C1000704739B12D4A4432126802432B4B44337A
:102C20001A6006E0294A443212688243274B443333
:102C30001A60704739B1254A4C3212680243234B5F
:102C40004C331A6006E0214A4C32126882431F4B13
:102C50004C331A60704739B11C4A50321268024333
:102C60001A4B50331A6006E0184A503212688243F9
:102C7000164B50331A60704739B1144AD21F12787C
:102C80000243124BDB1F1A7006E0104AD21F127863
:102C900082430E4BDB1F1A7070470C48603000688F
:102CA00040F080700949603108607047014600209B
:102CB000064A083A12680A400AB1012000E00020E2
:102CC00070470249891F087070470000143802409D
:102CD00010B501218803FFF769FF00214FF4804000
:102CE000FFF764FF10BD1A490860704730B5002235
:102CF0008B071C0F0F2303FA04F2154B08338C10BB
:102D000053F824309343124C08348D1044F8253086
:102D100023468C1053F824308C07240F00FA04F457
:102D200023430B4C08348D1044F8253030BD09493D
:102D30000860704708490860704700200449203146
:102D4000096801F4807109B1012000E0002070479A
:102D500000380140DC0027420004274210B5044639
:102D6000FE48844208D101210846FFF71FFF0021D9
:102D70000120FFF71BFF9DE0B4F1804F08D1012136
:102D80000846FFF702FF00210120FFF7FEFE91E059
:102D9000F348844208D101210220FFF7F6FE00210A
:102DA0000220FFF7F2FE85E0EE48844208D10121BF
:102DB0000420FFF7EAFE00210420FFF7E6FE79E099
:102DC000E948844208D101210820FFF7DEFE0021F6
:102DD0000820FFF7DAFE6DE0E448844208D10121C3
:102DE0001020FFF7D2FE00211020FFF7CEFE61E099
:102DF000DF48844208D101212020FFF7C6FE0021D0
:102E00002020FFF7C2FE55E0DA48844208D10121B4
:102E10000220FFF7CBFE00210220FFF7C7FE49E0AA
:102E2000D548844209D101210804FFF7BFFE0021E3
:102E30004FF48030FFF7BAFE3CE0D048844209D11D
:102E400001214804FFF7B2FE00214FF40030FFF7E4
:102E5000ADFE2FE0CA48844209D101218804FFF762
:102E6000A5FE00214FF48020FFF7A0FE22E0C54818
:102E7000844208D101214020FFF787FE0021402035
:102E8000FFF783FE16E0C048844208D1012180206C
:102E9000FFF77BFE00218020FFF777FE0AE0BB48AA
:102EA000844207D101218015FFF76FFE0021A01594
:102EB000FFF76BFE10BD00220288A84B98420ED08F
:102EC000AC4B98420BD0B0F1804F08D0A44B984245
:102ED00005D0A44B984202D0A34B984204D14FF6A0
:102EE0008F731A404B881A43A04B984207D0A04BCF
:102EF000984204D04FF6FF431A400B891A430280D0
:102F00004B68C3620B880385944B984202D0994B5F
:102F1000984201D18B7A03860123838270474FF058
:102F2000FF31416000210180018141808172704741
:102F30000185828270470A46002101884FF68F730F
:102F4000194011430180704741627047C162704768
:102F50000146486A70470146088D704721B10288D2
:102F600042F00202028004E002884FF6FD731A402C
:102F70000280704721B1028842F00402028004E01E
:102F800002884FF6FB731A400280704721B1028815
:102F900042F08002028004E002884FF67F731A40FC
:102FA0000280704702884FF6F7731A400280028849
:102FB0000A430280704702884FF6FF431A4002809E
:102FC00002880A430280704721B1028842F0010260
:102FD000028004E002884FF6FE731A4002807047B8
:102FE00070B5002400220023058C4FF6FE76354094
:102FF0000584028C8388048B4FF68F752C40B51E98
:103000002C400D882C43751E2A408D892A434D88FB
:103010002A43524DA84202D0564DA84213D14FF632
:10302000F7752A40CD892A434FF6FB752A408D88D3
:103030002A434FF6FF652B404FF6FF552B400D8A74
:103040002B434D8A2B43838004838D684563028420
:1030500070BD70B5002400220023058C4FF6EF767A
:1030600035400584028C8388048B48F6FF752C401C
:103070004FF6FF452C400D884FF6FF7606EA0525F2
:103080002C434FF6DF752A408D8906EA05152A4341
:103090004D8806EA05152A43304DA84202D0354D29
:1030A000A8421DD14FF67F752A40CD894FF6FF7695
:1030B00006EA05152A434FF6BF752A408D8806EAB1
:1030C00005152A434FF6FF352B404FF2FF752B4075
:1030D0000D8A06EA85052B434D8A06EA85052B43B2
:1030E000838004838D688563028470BD70B500247D
:1030F00000220023058C4FF6FF6635400584028CC4
:103100008388848B4FF68F752C404FF6FC752C40CE
:103110000D882C434FF6FF552A408D894FF6FF76D8
:1031200006EA05252A434D8806EA05252A430B4D64
:10313000A84202D00F4DA84238D14FF2FF752A4065
:10314000CD894FF6FF7606EA05252A434FF6FF356F
:103150002A408D8806EA05252A4319E0000001402F
:103160000004004000080040000C00400010004037
:1031700000140040000401400040014000440140B0
:103180000048014000180040001C004000200040A2
:103190004EF6FF752B404DF6FF752B400D8A06EA63
:1031A00005152B434D8A06EA05152B43838084833E
:1031B0008D68C563028470BD70B5002200230024B1
:1031C000058C4EF6FF7635400584038C8488828B0F
:1031D00048F6FF752A404FF6FF452A400D884FF606
:1031E000FF7606EA05252A434DF6FF752B408D89AB
:1031F00006EA05352B434D8806EA05352B43FE4D7F
:10320000A84202D0FD4DA84208D14BF6FF752C40D4
:103210000D8A4FF6FF7606EA85152C43848082835B
:103220008D680564038470BD002101804180818028
:1032300081608181C18101824182704770B50346FE
:10324000002000241846183001258D40ACB21D8C9A
:10325000A5431D8409B108290AD100EB6100056866
:103260004FF68F76354005600568154305600FE021
:103270000D1FC5F34E052844056848F6FF76354016
:10328000056005684FF6FF7606EA022635430560BD
:1032900070BD4163704781637047C16370470164CB
:1032A00070470A460021018B4FF68F731940114376
:1032B000018370470A460021018B48F6FF731940CD
:1032C0004FF6FF7303EA02231943018370470A464E
:1032D0000021818B4FF68F73194011438183704712
:1032E0000A460021818B48F6FF7319404FF6FF73A1
:1032F00003EA02231943818370470A460021018BA8
:103300004FF6F77319401143018370470A460021B5
:10331000018B4FF2FF7319404FF6FF7303EA02234C
:103320001943018370470A460021818B4FF6F773DA
:1033300019401143818370470A460021818B4FF267
:10334000FF7319404FF6FF7303EA02231943818389
:1033500070470A460021018B4FF6FB731940114359
:10336000018370470A460021018B4FF6FF33194055
:103370004FF6FF7303EA02231943018370470A469D
:103380000021818B4FF6FB731940114381837047F5
:103390000A460021818B4FF6FF3319404FF6FF7329
:1033A00003EA02231943818370470A460021018BF7
:1033B0004FF67F7319401143018370470A4600217D
:1033C000018BC1F30E014FF6FF7303EA0223194389
:1033D000018370470A460021818B4FF67F731940A5
:1033E0001143818370470A460021818BC1F30E018E
:1033F0004FF6FF7303EA02231943818370470A469D
:103400000021018C4FF6FD73194011430184704770
:103410000A460021018C4FF6F773194011430184CD
:1034200070470A460021018C4FF6DF7319404FF6B2
:10343000FF7303EA02131943018470470A4600210F
:10344000018C4FF67F7319404FF6FF7303EA0213A6
:103450001943018470470A460021018C4FF6FF533F
:1034600019404FF6FF7303EA0223194301847047A2
:103470000A460021018C4FF2FF7319404FF6FF738B
:1034800003EA02231943018470470A460021018C94
:103490004DF6FF7319404FF6FF7303EA02331943E9
:1034A0000184704730B5002301248C40A3B2048C02
:1034B0009C430484048C02FA01F5ADB22C430484CD
:1034C00030BD30B5002304248C40A3B2048C9C434F
:1034D0000484048C02FA01F5ADB22C43048430BD9F
:1034E000828B4FF2FF331A408283828B4FF6FF7339
:1034F00003EA01231A4382837047F0B50C46154650
:10350000002100220026078C4EF6FF7C07EA0C07FC
:103510000784818B028C4FF6FF7707EA043640F66A
:10352000FF4739404FF6FF7707EA052739434FF643
:10353000FF7707EA0337394345F6FF773A4046F409
:1035400080573A4381830284F0BD828B4FF6F37338
:103550001A408283828B0A4382837047F0B50C46FF
:103560001546002100220026078C4FF6FF6C07EA63
:103570000C070784818B028C4FF6FF7707EA04263D
:103580004FF60C7739404FF6FF7707EA03172F43C2
:1035900039434FF2FF573A4046F480773A438183EC
:1035A0000284F0BD028B4FF2FF331A400283028B7C
:1035B0004FF6FF7303EA01231A4302837047F0B505
:1035C0000C461546002100220026078C4FF6EF7CA2
:1035D00007EA0C070784018B028C4FF6FF7707EA96
:1035E000041640F6FF4739404FF6FF7707EA0337E6
:1035F00039434FF6FF7703E000000140000401402B
:1036000007EA052739434FF65F773A4046F010073F
:103610003A4301830284F0BD028B4FF6F3731A40E4
:103620000283028B0A4302837047F0B50C461546AD
:1036300000210022068C4FF6FE773E400684018B67
:10364000028C4FF60C7631407E1C06EA03162E43A0
:1036500031434FF6F576324044F0010632430183A0
:103660000284F0BD70B505460C46208850B9238908
:10367000A28861882846FFF7D8FFE1882846FFF72F
:10368000CBFF25E0208804280AD12389A2886188FD
:103690002846FFF794FFE1882846FFF783FF17E0ED
:1036A000208808280AD12389A28861882846FFF744
:1036B00055FFE1882846FFF748FF09E02389A288E3
:1036C00061882846FFF719FFE1882846FFF708FFC1
:1036D00070BD002101804180012181800021C180D5
:1036E000018170472DE9F04105460C46002601276F
:1036F000608808B9022600E00026A088012801D1D0
:10370000022700E001272088A0B92389A2886188C8
:103710002846FFF78AFFE1882846FFF77DFF2389C7
:103720003A4631462846FFF74AFFE1882846FFF728
:1037300039FF13E02389A28861882846FFF73FFFFD
:10374000E1882846FFF72EFF23893A46314628466E
:10375000FFF76BFFE1882846FFF75EFFBDE8F081C9
:103760000146486B70470146886B70470146C86B3D
:1037700070470146086C70470A884B881A438B884B
:103780001A43CB881A430B891A434B891A438B89F6
:103790001A43A0F8442070470021018041808180B5
:1037A000C180018141818181704731B1B0F84420ED
:1037B00042F40042A0F8442005E0B0F84420C2F3EF
:1037C0000E02A0F84420704721B1828842F0040222
:1037D000828004E082884FF6FB731A408280704733
:1037E00021B1828842F00102828004E082884FF693
:1037F000FE731A40828070471AB183890B4383811C
:1038000002E083898B43838170478182704702463F
:103810000020138A0B400BB1012000E0002070470C
:10382000CA430282704730B50246002000230024BC
:10383000158A05EA0103958905EA010413B10CB163
:10384000012000E0002030BDCA430282704741EAF7
:103850000203A0F8483070471AB183890B43838173
:1038600002E083898B438381704721B1828842F0D3
:103870000802828004E082884FF6F7731A40828043
:10388000704701894FF6F8721140018170470A466E
:10389000002101894FF68F73194011430181704750
:1038A00030B504460D4629462046FFF7F0FF208933
:1038B00040F00700208130BD2DE9F04104460D465F
:1038C00016461F46602D06D13B4601223146204652
:1038D000FFF775FE05E03B46012231462046FFF723
:1038E000A4FE29462046FFF7D2FF208940F00700BA
:1038F0002081BDE8F08130B50C4600210189C9B2B4
:103900004FF6FF7505EA0325154325432943018139
:1039100030BD2DE9F04105460E4617469846002475
:1039200043463A4631462846FFF7E5FF2C894FF6D5
:10393000F870044044F007044FF68F70044044F0E0
:1039400070042C81BDE8F081F0B504460D461646A2
:103950001F463B46324629462046FFF7CCFF2089CA
:1039600040F480402081F0BD82884FF68F731A406A
:10397000828082880A438280704702894FF6F873FA
:103980001A40028102890A430281704702894FF678
:103990007F731A40028102890A4302817047F0B5A1
:1039A0000C4615461E460021002200230189028B89
:1039B000038C4FF6F877394021434FF6FC473A40E5
:1039C00040F201173A434FF6DD773B404FF6FF7761
:1039D00007EA06172F433B43018102830384F0BDAE
:1039E00021B1828842F08002828004E082884FF612
:1039F0007F731A4082807047A0F850107047000013
:103A000010B50446F748844208D101211020FFF781
:103A1000CDF800211020FFF7C9F83EE0F2488442BB
:103A200009D101214804FFF7B0F800214FF400301C
:103A3000FFF7ABF831E0ED48844209D10121880459
:103A4000FFF7A3F800214FF48020FFF79EF824E051
:103A5000E748844209D10121C804FFF796F8002104
:103A60004FF40020FFF791F817E0E248844209D1B3
:103A700001210805FFF789F800214FF48010FFF7B6
:103A800084F80AE0DC48844207D101212020FFF7B6
:103A90008DF800212020FFF789F810BD2DE9FF47A0
:103AA00005460E460024A14600BFA046B08900B1DD
:103AB00000BF2C8A24F44054F08804432C82AC8943
:103AC00041F20C608443B08831890843718908430E
:103AD0000443AC81AC8A24F44074B0890443AC82C2
:103AE0006846FEF722FFBF48854202D0C2488542A1
:103AF00002D1DDF80C9001E0DDF80890A88900F40F
:103B0000004040B109EBC90000EB091031684900E1
:103B1000B0FBF1F707E009EBC90000EB09103168D1
:103B20008900B0FBF1F76420B7FBF0F00401200935
:103B3000642101FB1078A88900F4004040B13220D4
:103B400000EBC800B0FBF1F000F00700044308E010
:103B5000322000EB08106421B0FBF1F000F00F0000
:103B600004432C81BDE8FF874FF41651016000210A
:103B70008180C18001810C214181002181817047B8
:103B800010B502460020108A20F470600B884C8823
:103B900023438C882343CC8823431843108210BDD1
:103BA0000021018041808180C180704721B18289DC
:103BB00042F40052828104E082894DF6FF731A407C
:103BC00082817047028B02F47F420283028B0A4398
:103BD0000283704721B1828942F40042828103E06E
:103BE0008289C2F30E028281704721B1828A42F437
:103BF0000062828204E0828A4FF2FF731A4082825E
:103C00007047C1F308028280704701468888C0F37C
:103C100008007047028A4FF6F0731A400282028A47
:103C20000A430282704721B1828942F002028281F6
:103C300004E082894FF6FD731A40828170478289C1
:103C40004FF2FF731A40828182890A438281704752
:103C5000028A4FF6DF731A400282028A0A43028206
:103C6000704721B1028A42F48042028204E0028A53
:103C70004BF6FF731A4002827047818941F00101BF
:103C80008181704721B1828A42F00802828204E079
:103C9000828A4FF6F7731A4082827047028BD2B243
:103CA0000283028B42EA01220283704721B1828A99
:103CB00042F02002828204E0828A4FF6DF731A40CB
:103CC0008282704721B1828A42F01002828204E02F
:103CD000828A4FF6EF731A4082827047828A4FF6CB
:103CE000FB731A408282828A0A438282704721B122
:103CF000828A42F00202828204E0828A4FF6FD73D9
:103D00001A40828270471AB1838A0B43838202E091
:103D1000838A8B4383827047F0B5034600240026D4
:103D20000025002040F66A17B94200D100BF1846AE
:103D3000C1F3421401F01F06012707FA06F5012C12
:103D400001D10C3004E0022C01D1103000E014301D
:103D50001AB107682F43076002E00768AF430760A6
:103D6000F0BD02460020B1F5007F00D100BF1388EE
:103D70000B400BB1012000E00020704701F40072FD
:103D8000B2F5007F00D100BFCA430280704770B512
:103D90000246002400230025002040F66A16B142A6
:103DA00000D100BFC1F3421501F01F03012606FA3E
:103DB00003F3012D02D19689334006E0022D02D192
:103DC000168A334001E0968A33400C12012606FA27
:103DD00004F41688344013B10CB1012000E0002037
:103DE00070BD000000100140004400400048004049
:103DF000004C0040005000400014014010B500226B
:103E0000002340F66A14A14200D100BF0A12012427
:103E10009440A3B2DC43048010BD00000CB5002028
:103E2000019000907648006840F480307449086042
:103E300000BF7348006800F4003000900198401CF7
:103E40000190009818B90198B0F5A06FF1D16C48B5
:103E5000006800F4003010B10120009001E0002063
:103E600000900098012846D165484030006840F035
:103E700080506349403108606248006840F48040E7
:103E8000604908605E48083000685D490831086094
:103E90000846006840F4004008600846006840F4A6
:103EA000A05008605848091F0860081F006840F0CB
:103EB0008070091F086000BF5148006800F0007062
:103EC0000028F9D040F20560504908604C4808309D
:103ED000006820F003004A4908310860084600687D
:103EE00040F00200086000BF45480830006800F05C
:103EF0000C000828F8D10CBD10B54548006840F406
:103F00007000434908603E48006840F001003C49A9
:103F1000086000203A4908310860394800683D4986
:103F20000840374908603C48091D0860081F0068C0
:103F300020F48020091F0860002031490C310860FE
:103F4000FFF76CFF4FF0006031498039086010BD09
:103F500070B500200022022300240221284D0835DC
:103F60002D6805F00C0020B1042806D0082834D1B3
:103F700007E02A4D2A4E356033E02A4D284E356041
:103F80002FE01F4D2D1D2D68C5F380541C4D2D1D98
:103F90002D6805F03F0154B1224DB5FBF1F5184EE7
:103FA000361D3668C6F3881605FB06F209E01B4D80
:103FB000B5FBF1F5124E361D3668C6F3881605FBC3
:103FC00006F20F4D2D1D2D68C5F301456D1C6B00CC
:103FD000B2FBF3F5124E356003E0104D104E356024
:103FE00000BF00BF064D08352D68C5F303150E4E02
:103FF000705D0B4D2D68C540094E356070BD0000E9
:10400000003802400070004019544007003C024054
:1040100088ED00E0FFFFF6FE103000240024F400DD
:104020002800002040787D012C000020F0EE400A9E
:10403000F6EE001A60EEA11AB0EE611AB0EE600A58
:1040400010EE100AFE49A1EB600000EE100A21EE0E
:10405000002AF7EE081A42EE401A61EE801AB0EE1E
:10406000610A704710B52DED048B84B001AA02A936
:1040700003A801F08FFDBDF90C0000284BDABDF953
:104080000800002847DABDF90C00BDF9081090FBC4
:10409000F1F4204605F088F841EC190BB0EE490A1E
:1040A000F0EE690A05F07CFEB0EE408AF0EE608A20
:1040B0009FEDE40B53EC102B51EC180B05F0B2F80C
:1040C00014D89FEDE20AE24880ED000A9FEDE10A74
:1040D000E14880ED000A9FEDE10AE14880ED000A29
:1040E0009FEDE00AE04880ED000A03E19FEDDF0A62
:1040F000D74880ED000A9FEDDE0AD74880ED000A20
:104100009FEDDC0AD64880ED000A9FEDDB0AD64819
:1041100080ED000AEEE0BDF90C0000284BDABDF995
:104120000800002847DDBDF90C00BDF9081090FB20
:10413000F1F4204605F038F841EC190BB0EE490ACD
:10414000F0EE690A05F02CFEB0EE408AF0EE608ACF
:104150009FEDBC0B53EC102B51EC180B05F062F8E3
:1041600014D89FEDC60ABA4880ED000A9FEDB90A3F
:10417000B94880ED000A9FEDC20AB94880ED000AF7
:104180009FEDC00AB84880ED000AB3E09FEDBB0A7E
:10419000AF4880ED000A9FEDBC0AAF4880ED000AF1
:1041A0009FEDBA0AAE4880ED000A9FEDB90AAE480D
:1041B00080ED000A9EE0BDF90C0000284BDDBDF942
:1041C0000800002847DDBDF90C00BDF9081090FB80
:1041D000F1F4204604F0E8FF41EC190BB0EE490A77
:1041E000F0EE690A05F0DCFDB0EE408AF0EE608A80
:1041F0009FED940B53EC102B51EC180B05F012F8BB
:1042000014D89FEDA40A924880ED000A9FED9C0A05
:10421000914880ED000A9FED8F0A914880ED000AD9
:104220009FED8A0A904880ED000A63E09FED9A0AAC
:10423000874880ED000A9FED950A874880ED000AC7
:104240009FED910A864880ED000A9FED930A86480B
:1042500080ED000A4EE0BDF90C0000284ADDBDF9F2
:104260000800002846DABDF90C00BDF9081090FBE3
:10427000F1F4204604F098FF41EC190BB0EE490A26
:10428000F0EE690A05F08CFDB0EE408AF0EE608A2F
:104290009FED6C0B53EC102B51EC180B04F0C2FF8C
:1042A00014D89FED7E0A6A4880ED000A9FED7C0AD3
:1042B000694880ED000A9FED670A694880ED000AB1
:1042C0009FED780A684880ED000A13E09FED730ABD
:1042D0005F4880ED000A9FED670A5F4880ED000AA5
:1042E0009FED710A5E4880ED000A9FED700A5E48FE
:1042F00080ED000A04B0BDEC048B10BD30B585B074
:1043000004460DF1120004A9031F03AACDE9001011
:10431000891F02A801F010FABDF80800644908805E
:10432000BDF80A004880BDF80C008880BDF80E007A
:104330000881BDF810004881BDF812008881002571
:104340001DE0032D0BDA02A830F9150000EE100A6B
:10435000B8EEC00A04EB850080ED000A0EE002A86A
:1043600030F9150000EE100AB8EEC00ADFED510A70
:1043700080EE201A04EB850080ED001A6D1C062DDE
:10438000DFDB04F1180001F010FC94ED060ABDEE2D
:10439000C00A10EE100A00B24549C88194ED070A20
:1043A000BDEEC00A10EE100A00B2088294ED080AB1
:1043B000BDEEC00A10EE100A00B2488205B030BD52
:1043C00000B52DED108B93B0214890ED000AD0ED93
:1043D000000A20EE200A8DED080A90ED000A1E4822
:1043E000D0ED000A20EE200AB0EE40FA184890ED19
:1043F000000A1B48D0ED000A20EE200AF0EE40AA89
:10440000134890ED000A1848D0ED000A20EE200A6B
:104410008DED070A104890ED000AD0ED000A20EE5D
:10442000200AF0EE40FA90ED000A0D48D0ED000AA7
:1044300020EE200A8DED060A074890ED000A3BE0C9
:10444000DF59375F000000000000F03F0AD7A3BB30
:1044500048000020A8C64BBE4C000020BE9F7A3FFB
:10446000500000204ED111BC540000206F1203BC3C
:104470007B140EBFE17A543F6F1203BB0AD7A33BF4
:10448000355E7ABFA69B443C68910DBFE17A54BF6C
:1044900099BB16BB52499D3A99BB163B0AD7233BA1
:1044A000355E7A3F6F12033C295C0FBFBC74933BAF
:1044B0005C08002033330342FE48D0ED000A20EEB2
:1044C000200AB0EE40BAFC4890ED000AD0ED000A98
:1044D00020EE200AF0EE40BA90ED000AF548D0ED4B
:1044E000000A20EE200A8DED050A90ED000AD0EDBD
:1044F000000A20EE200A8DED040AF04890ED030A30
:10450000DFEDEF0A20EE200ADFEDEE0A80EE201A42
:10451000ED4880ED001AE94890ED040ADFEDE80A65
:1045200020EE200ADFEDE70A80EE201AE74880ED52
:10453000001AE24890ED050ADFEDE10A20EE200ABC
:10454000DFEDE00A80EE201AE14880ED001ADB483A
:1045500090ED000ADF4880ED000AD84890ED010A8E
:10456000DD4880ED000AD54890ED020ADB4880ED79
:10457000000AD24890ED060AD94880ED000ACF48DB
:1045800090ED070AD74880ED000ACC4890ED080A64
:10459000D54880ED000AFCF730FAD4490860084697
:1045A0000068D349096888420CD3D0480068D049D4
:1045B0000968401A00EE100AB8EE400ADFEDCD0A95
:1045C000C0EE208AC9480068C9490860C148D0EDDA
:1045D000000A90ED001A60EE810ABF4890ED001AC3
:1045E000D0ED001A41EE210ABC4890ED001AD0ED42
:1045F000001A41EE210AB0EE600AFFF717FDB0EE97
:10460000408AB44890ED000A20EE080A80ED000AC6
:10461000B14890ED000A20EE080A80ED000AAF488C
:1046200090ED000A20EE080A80ED000AAC48D0EDBB
:10463000000A90ED001A60EE810AAA4890ED001A77
:10464000D0ED001A41EE210AA74890ED001AD0EDF6
:10465000001A41EE210AB0EE600AFFF7E7FCB0EE67
:10466000408A9F4890ED000A20EE080A80ED000A7B
:104670009C4890ED000A20EE080A80ED000A9A4856
:1046800090ED000A20EE080A80ED000A944890EDB3
:10469000000AF0EE000A60EE200AB6EE000A30EEE4
:1046A0006B1A9DED040A31EE400A20EE800A8D4817
:1046B000D0ED000AB0EE001A60EE811ADDED060AB8
:1046C0009DED071A70EEC10A01EEA00A8648D0EDF2
:1046D000000AB0EE001A60EE810A3BEE2A1A00EEE4
:1046E000810A8DED110A7E4890ED000AF0EE000A75
:1046F00020EE201A9DED060ADDED070A30EE200AB5
:1047000021EE000A7748D0ED000AB0EE001A20EE44
:10471000811AF6EE000A70EEEF1ADDED040A71EE72
:10472000E00A01EE200A7048D0ED000AB0EE001A4F
:1047300020EE811ADDED050A70EECF0A01EE200AA7
:104740008DED100A664890ED000AF0EE000A20EEAA
:10475000200A7BEE6A0A60EE200A624890ED000AA9
:10476000B0EE001A20EE011A9DED050A70EE0F1A48
:10477000B0EE600A01EE210A5B48D0ED000AB0EE0F
:10478000001A60EE810AB6EE001A31EE6F1A31EEB1
:104790006B1AB0EE409A00EE819A9DED110A60EE20
:1047A000000A9DED100A40EE000A10EE901A08462D
:1047B00004F024FDCDE900019DED000B05F0FAFAAF
:1047C0008DED020B9DED020B51EC100B04F042FD40
:1047D00009EE900AB0EE49AA3BEE6A0AF0EE000A32
:1047E00020EE200A8DED0F0A9DED050A3FEE000A2E
:1047F000F0EE000A20EE200A8DED0E0A9DED080A6B
:1048000030EE6F0A70EE6B0A9DED040A30EE800AFE
:104810008DED0D0AB0EE000A69EE800AB6EE000AD0
:1048200030EE6B1A9DED040A31EE400A20EE800A4C
:10483000B0EE4A9AF0EE000A69EE200A3BEE6A1AE0
:1048400000EE810A8DED0C0AB0EE000A29EE801A06
:104850009DED060ADDED070A30EE600A21EE000A42
:10486000B0EE4A9AF0EE000A29EE201ADDED050AB4
:104870007FEE200A01EE200A8DED0B0AB0EE000A51
:1048800029EE800A7AEE8B0A20EE200AB0EE4A9AD0
:10489000F0EE000A69EE200AB6EE001A31EE6F1A49
:1048A00031EE6B1A00EE810A8DED0A0A0A48D0ED4E
:1048B000000A21E054000020500000201C080020C5
:1048C000DB0F494000003443580000205C0000200A
:1048D0006000002064000020680000206C000020C0
:1048E000700000207400002078000020800000206C
:1048F0007C0000200024F4499DED0D0A60EE800A42
:10490000FE4890ED001A9DED0E0A41EE400AFC486B
:1049100090ED001A9DED0A0A21EE001AF948D0ED3B
:10492000001A9DED0B0A01EEC01A30EE81CAF34861
:10493000D0ED000A9DED0F0A60EE800AF24890ED7E
:10494000001A9DED0D0A41EE400AEE4890ED001A66
:104950009DED0C0A21EE001AEC48D0ED001A9DEDF9
:104960000A0A01EEC01A70EE81CAE748D0ED000ACB
:104970009DED0E0A60EE800AE54890ED001A9DED6F
:104980000F0A41EE400AE14890ED001A9DED0B0A36
:1049900021EE001ADA48D0ED001A9DED0C0A01EE66
:1049A000C01A30EE81DAB5EEC0CAF1EE10FA57D077
:1049B000F5EEC0CAF1EE10FA52D0B5EEC0DAF1EE63
:1049C00010FA4DD09FEDD30A6CEE000AD24890ED5C
:1049D000000A00EEA80A80ED000A9FEDCE0A6CEEF8
:1049E000800ACE4890ED000A00EEA80A80ED000A89
:1049F0009FEDC80A6DEE000AC94890ED000A00EE6E
:104A0000A80A80ED000AC74890ED000AF0EE000AFF
:104A100000EE8C0AC048D0ED000A30EE200AC148F2
:104A200080ED000AC04890ED000AF0EE000A00EEAA
:104A3000AC0ABA48D0ED000A30EE200ABA4880ED40
:104A4000000ABA4890ED000AF0EE000A00EE8D0A66
:104A5000B348D0ED000A30EE200AB44880ED000AD9
:104A6000B34890ED000AB1EE400AAE48D0ED000A1E
:104A700020EE200AAF48D0ED000AAB4890ED001AB6
:104A800000EEC10AAC4890ED001AA848D0ED001A1B
:104A9000F0EE400A41EE610AA84890ED000A00EEEF
:104AA000A80A8DED090A90ED000A9E48D0ED000A93
:104AB00020EE200A9F48D0ED000A9C4890ED001A95
:104AC00000EE810A9C48D0ED000A974890ED001A4C
:104AD00000EEC10A9648D0ED000AF0EE60DA40EE32
:104AE00028DA964890ED000A8F48D0ED000A20EEB3
:104AF000200A8F48D0ED000A8C4890ED001A00EE95
:104B0000C10A8D48D0ED000A864890ED001A00EEEB
:104B1000810A8848D0ED000AB0EE60EA00EE28EA8B
:104B2000864890ED000A8148D0ED000A20EE200A68
:104B30007F48D0ED000A7C4890ED001A00EE810A13
:104B40007C48D0ED000A774890ED001A00EEC10ACB
:104B50007948D0ED000AF0EE60EA40EE28EADDED9B
:104B6000090A60EEA00A4DEEAD0A4EEE0E0A4EEEB8
:104B7000AE0AB0EE600AFFF759FAB0EE408A9DED3A
:104B8000090A20EE080A6D4880ED000A2DEE880A19
:104B9000674880ED000A2EEE080A664880ED000A9C
:104BA0002EEE880A644880ED000A13B0BDEC108B2D
:104BB00000BD10B504466248FFF7A0FBFFF700FCFC
:104BC0005E4890ED000A84ED000A594890ED000A15
:104BD00084ED010A574890ED000A84ED020A564818
:104BE00090ED000A84ED030A10BD10B52DED0C8B7D
:104BF00004465448FFF7DDFF524890ED020AF8EEF4
:104C0000000A20EE200AD0ED020A20EE200AD0EDA4
:104C1000030AB0EE001A60EE810A90ED031A00EE6E
:104C2000C10AF7EE000A30EE200A10EE101A08460C
:104C300004F0E4FA41EC1C0B424890ED010AF0EE5E
:104C4000000A20EE200AD0ED020A20EE200AD0ED64
:104C5000000AB0EE001A60EE810A90ED031A00EE31
:104C6000810A10EE101A084604F0C8FA41EC1D0B38
:104C7000B0EE4C1AF0EE6C1AB0EE4D0AF0EE6D0A82
:104C800004F096FFB0EE40BAF0EE60BA51EC1B0BA8
:104C900081F0004141EC1A0B9FED2B0B53EC102BD4
:104CA00004F0A1F941EC190B9FED290B53EC102BEB
:104CB00004F00BFA41EC180B04F0CCFA00EE100AE9
:104CC00084ED000A1F4890ED010AF8EE000A20EE7C
:104CD000200AD0ED030A20EE200AD0ED000AB0EE43
:104CE000001A60EE810A90ED021A00EE810A10EEC1
:104CF000101A084604F082FA2EE000006C00002032
:104D00007400002078000020640000207000002063
:104D1000680000200AD7233C3C000020400000200F
:104D200044000020580000205C00002060000020AB
:104D30004C000020500000205400002048000020BB
:104D40001C08002040080020000000000080664091
:104D500000000060FB21094041EC1C0BB0EE4C0A46
:104D6000F0EE6C0A04F008FCB0EE40BAF0EE60BA67
:104D700051EC1B0B81F0004141EC1A0B1FED0E0BA7
:104D800053EC102B04F02FF941EC190B1FED100B15
:104D900053EC102B04F099F941EC180B04F05AFA7B
:104DA00000EE100A84ED010A654890ED010AF8EE64
:104DB000000A20EE200AD0ED010A20EE200AD0EDF4
:104DC000020AB0EE001A60EE810A90ED021A00EEBF
:104DD000C10AF7EE000A30EE200A10EE101A08465B
:104DE00004F00CFA41EC1B0B554890ED020AF0EE72
:104DF000000A20EE200AD0ED030A20EE200AD0EDB2
:104E0000000AB0EE001A60EE810A90ED011A00EE81
:104E1000810A10EE101A084604F0F0F941EC1C0B60
:104E2000B0EE4B1AF0EE6B1AB0EE4C0AF0EE6C0AD4
:104E300004F0BEFEB0EE40AAF0EE60AA1FED3E0BFD
:104E400053EC102B51EC1A0B04F0CDF841EC190B7C
:104E50001FED410B53EC102B04F037F941EC180B0C
:104E600004F0F8F900EE100A84ED020ABDEC0C8B98
:104E700010BD344890ED030A334880ED040A3148F0
:104E800090ED040AB1EE400A2F4880ED050A2D4846
:104E900090ED050A2C4880ED060A2C4890ED000A9A
:104EA0002B4880ED000A2B4890ED000A274880ED42
:104EB000000A90ED000A2648D0ED000A30EE600AA4
:104EC000DFED250AB4EEE00AF1EE10FA05DB234827
:104ED0000068401E2149086013E01C4890ED000A5C
:104EE0001B48D0ED000A30EE600ADFED1D0AB4EE7B
:104EF000E00AF1EE10FA04D818480068401C17497F
:104F00000860164800684FF4B471484300EE100A78
:104F1000B8EEC00A0D48D0ED000A30EE200A114864
:104F200080ED000A0B4890ED010A0F4880ED000A61
:104F3000084890ED020A0D4880ED000A7047000015
:104F4000400800201C080020700800208400002079
:104F500090000020500800200000A543A800002079
:104F60000000A5C39C000020A0000020A400002099
:104F700010B5002106E0062200BF131EA2F10102B7
:104F8000FBD1491C8142F6D310BD1CB50121022082
:104F9000FDF760FD1020009001208DF80400002036
:104FA0008DF8060003208DF805006946CF48FDF70F
:104FB0000BFB1021CD48FDF785FB1CBD1CB5012165
:104FC0000220FDF747FD4FF44070009001208DF85E
:104FD00004008DF8060003208DF805006946C348DB
:104FE000FDF7F2FA1CBD1CB54FF4007000900120D3
:104FF0008DF804008DF8060003208DF80500694641
:10500000BA48FDF7E1FA1CBD1CB54FF400700090E2
:1050100000208DF804008DF806008DF807000220AE
:105020008DF805006946B148FDF7CEFA1CBD10B5F4
:10503000FFF7D9FF4FF40071AC48FDF741FB4FF487
:105040008071AA48FDF73CFB0120FFF791FF4FF468
:105050000071A648FDF736FB0120FFF789FF4FF4EA
:105060008071A248FDF72EFB10BD10B5FFF7BBFF06
:105070004FF480719D48FDF725FB4FF400719B486C
:10508000FDF720FB0120FFF773FF4FF48071974875
:10509000FDF716FB4FF400719448FDF711FB01205A
:1050A000FFF766FF10BD10B50446FFF79CFF2CB15B
:1050B0004FF400718D48FDF703FB04E04FF40071DD
:1050C0008A48FDF7FFFA4FF480718848FDF7F8FA37
:1050D0000120FFF74DFF4FF480718448FDF7F2FA8D
:1050E0000120FFF745FF10BD10B54FF47A744FF45F
:1050F00000717E48FDF7E4FAFFF786FF0120FFF715
:1051000037FF4FF480717948FDF7DAFA0120FFF795
:105110002FFF0AE0601E80B2041E06D0FFF7A5FF35
:1051200073A004F007FAFF2010BD4FF400716F4820
:10513000FDF7ACFA0028EDD14FF480716B48FDF714
:10514000C1FA0020F0E770B50446FFF74CFF4FF4BA
:1051500080716648FDF7B6FA002521E004F0800072
:1051600028B14FF400716148FDF7AAFA04E04FF44A
:1051700000715E48FDF7A6FA6006040E0120FFF7F5
:10518000F7FE4FF480715948FDF79AFA0120FFF7B6
:10519000EFFE4FF480715548FDF794FA681CC5B2D4
:1051A000082DDBDB70BD70B50024FFF72DFF002557
:1051B0001BE04FF480714D48FDF784FA0120FFF7A2
:1051C000D7FE4FF480714948FDF77AFA6006040E65
:1051D0004FF400714548FDF759FA08B1601CC4B29C
:1051E0000120FFF7C5FE681CC5B2082DE1DB4FF4B6
:1051F00080713E48FDF766FA204670BD70B50646E0
:105200000C461546FFF713FF3046FFF79CFFFFF7EC
:105210006BFFFF2804D139A004F08CF9FF2070BD8A
:105220002046FFF790FFFFF75FFFFF2804D136A06D
:1052300004F080F9FF20F2E72846FFF784FFFFF72C
:1052400053FFFF2804D133A004F074F9FF20E6E7F0
:10525000FFF70BFF0020E2E72DE9F04106460F467D
:1052600014469846FFF7E3FE3046FFF76CFFFFF762
:105270003BFFFF2805D12AA004F05CF9FF20BDE820
:10528000F0813846FFF75FFFFFF72EFFFF2804D1BC
:1052900026A004F04FF9FF20F1E7FFF7C8FE711CCC
:1052A000C8B2FFF750FFFFF71FFFFF2804D122A06D
:1052B00004F040F9FF20E2E7002508E0FFF773FF64
:1052C00020700020FFF7EFFE641C681CC5B2A8F137
:1052D0000100A842F2DCFFF766FF20700120FFF713
:1052E000E2FEFFF7C2FE0020C9E700000004024012
:1052F0006572726F722032410D0A00006572726F22
:10530000722032420D0A00006572726F72203243C1
:105310000D0A00006572726F722032440D0A00009F
:105320006572726F722032460D0A00006572726FEC
:10533000722032470D0A00006572726F7220324887
:105340000D0A00002DE9F04104460D4616461F46A1
:105350003B46324629462046FFF77EFFFF2805D10F
:10536000FEA004F0E7F8FF20BDE8F0810020FBE795
:1053700008B50020009001236A460A213C20FFF76F
:10538000E1FF40B99DF80000482809D0F6A004F0DC
:10539000D1F8FF2008BDF7A004F0CCF8FF20F9E712
:1053A000702200213C20FFF729FF0520FBF79DF923
:1053B000A02201213C20FFF721FF0520FBF795F9F2
:1053C000002202213C20FFF719FF0620FBF78DF990
:1053D000182200213C20FFF711FF0620FBF785F97A
:1053E0000020D7E708B500200090FFF7E7FDFFF7A2
:1053F000CCFD01236A467521D020FFF72DFF40B96F
:105400009DF80000682809D0DDA004F093F8FF2083
:1054100008BDDEA004F08EF8FF20F9E701226B2121
:10542000D020FFF7EBFEFF2804D1DBA004F082F8C8
:10543000FF20EDE703221A21D020FFF7DFFEFF282F
:1054400004D1D8A004F076F8FF20E1E710221B2158
:10545000D020FFF7D3FEFF2804D1D5A004F06AF8CE
:10546000FF20D5E700221C21D020FFF7C7FEFF2830
:1054700004D1D2A004F05EF8FF20C9E70222372150
:10548000D020FFF7BBFEFF2804D1CFA004F052F8D4
:10549000FF20BDE700223821D020FFF7AFFEFF2814
:1054A00004D1CCA004F046F8FF20B1E700226A2125
:1054B000D020FFF7A3FEFF2804D1C6A004F03AF8DD
:1054C000FF20A5E7FFF754FFFF2804D1C4A004F094
:1054D00031F8FF209CE74FF4FA70FBF706F9002043
:1054E00096E710B501221921D020FFF787FEFF288B
:1054F00004D1BEA004F01EF8FF2010BDC5A004F02A
:1055000019F80A20FBF7F1F801223821D020FFF723
:1055100075FEFF2804D1AFA004F00CF8FF20ECE7E3
:105520000020EAE710B502E0C820FBF7DEF8FFF73D
:1055300059FFFF28F8D010BD2DE9F04304460D4671
:10554000DDE9076700200021012041E0DFF8E4C227
:105550003CF81080A0F1010CDFF8D89229F81C80EB
:1055600009F1160C3CF81090A0F1010CDFF8C48290
:1055700008F1160828F81C9008F1160C3CF8109059
:10558000A0F1010C08F1160828F81C9008F1160C7F
:105590003CF81090A0F1010C08F1160828F81C90B6
:1055A00008F1160C3CF81090A0F1010C08F1160857
:1055B00028F81C9008F1160C3CF81090A0F1010C92
:1055C00008F1160828F81C9000F1010C0CF0FF00FF
:1055D0000A28BBDBDFF85CC2ACF81240ACF82850FC
:1055E000ACF83E20ACF85430ACF86A60ACF880708F
:1055F000002008E0DFF83CC23CF910C0614400F133
:10560000010C0CF0FF000A28F4DB4FF00A0C91FBB0
:10561000FCFC0FFA8CFCDFF81C82A8F814C00021F7
:1056200000200AE0DFF80CC20CF1160C3CF910C0A7
:10563000614400F1010C0CF0FF000A28F2DB4FF08E
:105640000A0C91FBFCFC0FFA8CF8DFF8E8C1ACF80F
:105650002A80002100200AE0DFF8D8C10CF12C0CD0
:105660003CF910C0614400F1010C0CF0FF000A2865
:10567000F2DB4FF00A0C91FBFCFC0FFA8CF8DFF820
:10568000B4C1ACF84080002100200AE0DFF8A4C1DA
:105690000CF1420C3CF910C0614400F1010C0CF01B
:1056A000FF000A28F2DB4FF00A0C91FBFCFC0FFA1A
:1056B0008CF8DFF880C1ACF85680002100200AE0A9
:1056C000DFF870C10CF1580C3CF910C0614400F1D6
:1056D000010C0CF0FF000A28F2DB4FF00A0C91FBE2
:1056E000FCFC0FFA8CF8DFF84CC1ACF86C800021A0
:1056F00000200AE0DFF83CC10CF16E0C3CF910C050
:10570000614400F1010C0CF0FF000A28F2DB4FF0BD
:105710000A0C91FBFCFC0FFA8CF8DFF818C1ACF80E
:105720008280BDE8F08310B504460623224603219B
:105730003C20FFF707FE10BD2DE9FC4704460D464F
:1057400016461F46DDE90A893B480078002877D0D5
:105750000020394908700E23384A72E06572726F72
:105760007220314A0D0A00006572726F7220324158
:105770000D0A00006572726F722032420D0A00003D
:105780006572726F722031410D0A00006572726F8E
:10579000722031420D0A00006572726F722031432F
:1057A0000D0A00006572726F722031450D0A00000B
:1057B0006572726F722031460D0A00006572726F59
:1057C000722031470D0A00006572726F72203148F5
:1057D0000D0A00006572726F722031490D0A0000D7
:1057E0006572726F7220314B0D0A000043616E6E5C
:1057F0006F7420656E61626C6520696E746572728B
:10580000757074207375636365737366756C6C79FA
:105810002E0D0A004D5055363035302073657420FA
:1058200073616D706C65207261746520646F6E6564
:105830002E0A0000B8080020C4000020A4080020A0
:1058400083E03B21D020FFF77DFDFD48FFF76BFF94
:10585000FB480E384078FA490E39097840EA0120B1
:1058600000B2F8490880F6480E38C078F4490E397D
:10587000897840EA012000B2F3490880F0480E38E8
:105880004079EF490E39097940EA012000B2EF4929
:105890000880EB480E38407AE9490E39097A40EA27
:1058A000012000B2EA490880E5480E38C07AE44990
:1058B0000E39897A40EA012000B2E6490880E048C2
:1058C0000E38407BDE490E39097B40EA012000B2E8
:1058D000E14908800846B0F90000DE49B1F900103E
:1058E000CDE90010DA48B0F90030D848B0F900200E
:1058F000D548B0F90010D348B0F90000FFF71CFEFE
:10590000D648808A2080D548408D2880D348B0F87A
:1059100040003080D148B0F85600D1490988401A7B
:1059200000B23880CD48B0F86C00CD494988401AA3
:1059300000B2A8F80000C948B0F88200C8498988B8
:10594000401A00B2A9F8000023E0C448808A2080F1
:10595000C248408D2880C148B0F840003080BF4820
:10596000B0F85600BE490988401A00B23880BB48DA
:10597000B0F86C00BA494988401A00B2A8F8000093
:10598000B648B0F88200B6498988401A00B2A9F832
:105990000000BDE8FC87F0B5DDE90545AF4EB68AED
:1059A0000680AE4E768D0E80AC4EB6F84060168006
:1059B000AA4EB6F85660AA4F3F88F61B36B21E8034
:1059C000A64EB6F86C60A64F7F88F61B36B22680CE
:1059D000A24EB6F88260A24FBF88F61B36B22E8068
:1059E000F0BDF0B503460C4600200021012019E06F
:1059F0009C4D35F81060451E9A4F27F8156007F149
:105A0000160535F81070451E964E163626F8157098
:105A100006F1160535F81070451E163626F8157075
:105A2000451CE8B20A28E3DB8E4D6B822C85EA87A1
:105A3000002005E08B4D35F910502944451CE8B293
:105A40000A28F7DB0A2591FBF5F52DB2854EB582C4
:105A50000021002006E0834D163535F91050294409
:105A6000451CE8B20A28F6DB0A2591FBF5F52EB2B3
:105A70007C4D6E850021002006E07A4D2C3535F9ED
:105A800010502944451CE8B20A28F6DB0A2591FB90
:105A9000F5F52EB2734DA5F84060734DB5F906507B
:105AA000704EB6F91460B54203DD6E4DAD8A6E4E90
:105AB000F5806D4DB5F908606A4DB5F92A50AE42D2
:105AC00003DD684D6D8D684E3581674DB5F90A600F
:105AD000644DB5F94050AE4204DD624DB5F840501A
