:020000040800F2
:10000000801C0020C1010008E7210008E11D000854
:100010009F200008850400089D6300080000000080
:100020000000000000000000000000000147000880
:100030001D110008000000000D380008D90100085B
:10004000DB010008DB010008DB010008DB01000820
:10005000DB010008DB010008591100085D120008EF
:100060008D120008BD120008ED120008DB01000827
:10007000DB010008DB010008DB010008DB010008F0
:10008000DB010008DB010008DB010008DB010008E0
:10009000DB010008DB010008DB0100081D1300087C
:1000A000DB010008DB010008DB010008DB010008C0
:1000B000714A0008DB010008DB010008DB010008D1
:1000C000DB010008DB010008DB010008DB010008A0
:1000D000DB01000855500008C950000861510008B4
:1000E00089110008DB010008DB010008DB010008C2
:1000F000DB010008DB010008DB010008DB01000870
:10010000DB010008DB010008DB010008DB0100085F
:10011000DB010008DB0100089D4A0008DB01000844
:10012000DB010008DB010008DB010008DB0100083F
:10013000DB010008DB010008DB010008CD0400083A
:1001400089040008DB010008DB010008DB0100086E
:10015000DB010008DB010008DB010008F9510008A1
:10016000DB010008DB010008DB010008DB010008FF
:10017000DB010008DB010008DB01000800000000D3
:10018000DB010008DB010008DB010008DB010008DF
:10019000DB010008DB010008DB010008DB010008CF
:1001A0000000000000000000DB010008DFF80CD0B8
:1001B00000F03CF800480047BD640008801C0020A7
:1001C0000648804706480047FEE7FEE7FEE7FEE7F1
:1001D000FEE7FEE7FEE7FEE7FEE7FEE7154A00085A
:1001E000AD01000840EA01039B0703D009E008C9FC
:1001F000121F08C0042AFAD203E011F8013B00F8EC
:10020000013B521EF9D27047D2B201E000F8012B37
:10021000491EFBD270470022F6E710B513460A4686
:1002200004461946FFF7F0FF204610BD064C074D67
:1002300006E0E06840F0010394E8070098471034B6
:10024000AC42F6D3FFF7B6FF84670008A467000846
:1002500070B58C1810F8015B15F0070301D110F888
:10026000013B2A1106D110F8012B03E010F8016BB5
:1002700001F8016B5B1EF9D12B0705D40023521E38
:100280000DD401F8013BFAE710F8013BCB1A921CA0
:1002900003E013F8015B01F8015B521EF9D5A1429E
:1002A000D8D3002070BD000038B500240A4D234685
:1002B000224621462846009400F093FB0022114676
:1002C000284601F019FA05480460001F0460001F69
:1002D0000460001F046038BD006400404008004016
:1002E00010B501F00DFE00F089FC00F017FD01F0E3
:1002F000A9FE00F00DFC01F0C1FF00F019FD00F0B7
:1003000057FD06F041F800F017FF00F017FD00F070
:10031000D5FE00F08DFB03F0A1FA04F029FB04F0F8
:1003200095FA06F045F801F0E3FD06F057F8BDE850
:10033000104006F00DB800001FB50020094C012147
:10034000592200940390CDE901210346024601465B
:10035000054801F0B9FF04B02046BDE81040012176
:1003600004F0C4BB000400400404024010B54FF484
:10037000A06001F079FFFFF7DFFF00F023F800F045
:100380007BF800F01FFE01F0F1FD01F005FE03F027
:100390003FFA03F089FB04F010FE04F01FFE00F0AA
:1003A00061FB00F07BFB04F069F904F063FABDE83F
:1003B00010404FF48041014801F0D4BA00140240CB
:1003C00000F038B83EB54E200821CDE90010154C9C
:1003D00015490290B7EE000A4FF416532246481C06
:1003E00004F056FF012240F22551204605F039FF66
:1003F00001221146262001F0F7FE0C49A5152A46D8
:10040000A1F1280001F019F909492A46A1F58A70DD
:1004100001F013F903B02046BDE83040012105F09A
:1004200027BE000000440040050C0240A811002037
:10043000A8120020022005F0B3BF000031B50C481F
:1004400001F005F90028FAD10A4D40F22774002284
:100450002146284605F005FF01226946044801F0BF
:1004600018F901222146284605F0FBFE38BD0000A0
:100470009411002000440040014801F001BA00003E
:100480000A0C0240FEE7000010B50E4C86B00221B7
:10049000204600F039F9002811D00221204600F052
:1004A0003FF80949204600F023F86A46002120461B
:1004B00000F0FAF90DF10B01009800F0EDFA06B02A
:1004C00010BD0000006800400800003210B5074C65
:1004D0000121204600F018F9002805D02046BDE88B
:1004E0001040012100F01CB810BD00000068004061
:1004F0000A4A914202D1002181617047C1F313027F
:100500008B0101D5C26070474B0101D50261704774
:10051000090101D582607047426070477000F03079
:1005200030B5082310240422B1F5007F1DD010DC63
:10053000202929D007DC012921D0042922D008292B
:1005400000D1C46030BD402920D0B1F5807FF9D101
:100550000BE00025B1F5004F06D008DCB1F5806F47
:1005600003D0B1F5006FEDD18561426030BDB1F5CA
:10057000803F0DD0B1F5003FF8D1446030BD054952
:10058000816030BDC36030BD036130BD046130BDEA
:10059000436030BD010101002DE9FE430F460446D2
:1005A000DDE90A89154916481D4616468C4202D1D6
:1005B0000121480603E0844203D10121880603F0AB
:1005C00081F900218DF804808DF808108DF80590D0
:1005D0008DF80A10ADF800708DF8061001208DF826
:1005E00002608DF807108DF80B008DF803506946F6
:1005F000204600F0E5F8BDE8FE83000000640040FE
:1006000000680040F0B5827A012191402E4A1368BB
:1006100043F0010313602C4B1C331C688C431C609B
:10062000294D067B294C0C35A6B92E688E432E60C9
:100630004688C78846EA0746877A04EBC707C7F8A3
:1006400040660688878846EA0746877A04EBC7072C
:10065000C7F84466067B012E12D12E680E432E6029
:10066000867A056804EBC6064FEA3545C6F840565B
:10067000867A456804EBC6044FEA3545C4F844560B
:10068000114CC57A241D002D256806D00D43256028
:100690000D4C0589143415B104E08D43F7E7256846
:1006A0008D4325600589012D02D125680D43256004
:1006B000407B012802D1186808431860106820F0B8
:1006C00001001060F0BD00000066004000600040C6
:1006D0007FB5DDE90845ADF80000ADF808408DF8BC
:1006E0000A5000208DF80B0001208DF80C00ADF8A9
:1006F00004208DF80D00ADF80210ADF80630684604
:10070000FFF780FF7FBD00000246002053690B42C7
:100710004AD0B1F5807F3BD013DC08292ED007DC0E
:10072000012926D0022927D004293DD1D0682BE009
:10073000102925D0202926D0402935D11069102133
:1007400030E0B1F5004F2BD00BDCB1F5007F22D0AB
:10075000B1F5806F22D0B1F5006F25D1906970217D
:1007600020E0B1F5803F11D0B1F5003F1CD15068B9
:10077000E5E790680D4915E0D06802E0D068DEE753
:10078000106903210EE0106908210BE05068FBE7B7
:100790009069012106E09069022103E0906900E080
:1007A0005068042100F0AFBA704700000101010059
:1007B000002A426901D00A4300E08A43426170473F
:1007C00010B50368002223F002030360036843F0BE
:1007D000010303604FF6FF7300E0521C4468E40716
:1007E00001D19A42F9D14268D2073ED08A79012AD2
:1007F00002683CD022F080020260CA79012A0268B5
:1008000038D022F0400202600A7A012A026834D00D
:1008100022F0200202604A7A012A026830D022F0D7
:10082000100202608A7A012A02682CD022F00802A3
:100830000260CA7A012A026828D022F0040202600B
:100840008A78CC78920742EA04620C7942EA044240
:100850004C79098842EA0452491E0A43C261016880
:1008600021F001010160002114E0002010BD42F0E0
:100870008002C1E742F04002C5E742F02002C9E72A
:1008800042F01002CDE742F00802D1E742F0040244
:10089000D5E7491C4268D20701D09942F9D1406896
:1008A000C007E2D1012010BD10B500EB0113D3F851
:1008B000B04114F004041472D3F8B04134D0E40809
:1008C000C2F80440D3F8B04104F002045472D3F8E3
:1008D000B44104F00F049472D3F8B441240AD474E0
:1008E000D3F8B841D472D3F8B841240A1473D3F8BA
:1008F000B841240C5473D3F8B841240E9473D3F840
:10090000BC41D473D3F8BC41240A1474D3F8BC415D
:10091000240C5474D3F8BC311B0E937439B10169A3
:1009200041F02001016110BD640D1460CAE7C16887
:1009300041F02001C16010BD30B50246002093682F
:100940005B0108D49068000101D5012003E09068A4
:10095000C00037D5022002EB0012D2F8803103F03C
:100960000103C2F880310B7A73B3D2F880414D682D
:100970001C434B7A43EAC5031C43C2F880418B7A7F
:1009800003F00F038B72D2F8843123F00F03C2F807
:100990008431D2F884318C7A2343C2F88431CB7A03
:1009A000CC6843EA0423C2F88831CB7B096943EA67
:1009B0000121C2F88C11D2F8801141F00101C2F876
:1009C000801130BD042030BDD2F880314C7A2343F1
:1009D0000C8843EA4453C2F88031D0E71821FFF76E
:1009E0001ABC30B585B04FF40075009500258DF820
:1009F00008508DF8095008258DF80A50089C0D0AFA
:100A00008DF80C10110A8DF80D108DF80E20190AB2
:100A10008DF80F108DF81030210A8DF811108DF817
:100A20000B508DF812406946FFF786FF05B030BDC8
:100A3000044800210322016041600349A1F1100034
:100A400001F0C2BA0C000020C00100200448007868
:100A5000C043000701D0002070470120704700000C
:100A60000C0000201CB50921094800F069FE084867
:100A70000921401C00F064FE04210820CDE900019A
:100A800000231A4603210348FFF786FD1CBD000022
:100A9000000C02400064004000F050B81CB5092171
:100AA000194800F04DFE18480921401C00F048FE8E
:100AB00001221146402001F097FB012202213F2034
:100AC00001F092FB04210820CDE900010F4C002326
:100AD0001A4603212046FFF75FFD00200E21CDE9D5
:100AE0000001034602460146FFF7F2FD0122022102
:100AF0002046FFF75DFE02B020460122BDE810400F
:100B00001146FFF755BE00000C040240006800408B
:100B100070B5094D002400BFC4EBC40005EB001004
:100B200001F05EFB641CE4B2062CF5D3BDE8704016
:100B300001482C3805F0A0BCF801002070B50D4626
:100B40000446B0F5017F32D00EDCA4F50070013808
:100B50001DD0012823D0022843D10D2005F020FC10
:100B60002A4621461F4838E0A4F50070053826D0F3
:100B700001282CD0B0F5FE7F33D10A2005F010FCFF
:100B80002A462146BDE87040174805F02FBC0B20CF
:100B900005F006FC14482A4621462C301DE00C20A6
:100BA00005F0FEFB0F482A462146703815E00E205E
:100BB00005F0F6FB0B482A46214670300DE00F2069
:100BC00005F0EEFB07482A462146E03005E01020FC
:100BD00005F0E6FB05482A462146BDE8704001F0D5
:100BE0005FBA70BDD8020020CC010020280400208C
:100BF0000146014800F06ABD1900002010B5BEB0E2
:100C0000F4223D496846FFF7EDFA3C4800F078F8D9
:100C10000120FFF7EDFF28B938481822083002A953
:100C2000FFF7E0FA0220FFF7E3FF344C641E40B9FF
:100C30000898C4F821000998C4F825000A98C4F857
:100C400029000420FFF7D4FF18B9BDF82C00A4F840
:100C50002D000820FFF7CCFF30B9284814222E3091
:100C60000DF12E01FFF7BEFA1020FFF7C1FF30B9DA
:100C70002248102242300DF14201FFF7B3FA202042
:100C8000FFF7B6FF30B91D48102252300DF1520166
:100C9000FFF7A8FA4020FFF7ABFF30B9174824222E
:100CA00062300DF16201FFF79DFA8020FFF7A0FF8F
:100CB00030B91248242286300DF18601FFF792FAEE
:100CC0004FF48070FFF794FF30B90C482422AA300B
:100CD0000DF1AA01FFF786FA4FF40070FFF788FFC5
:100CE00030B906482422CE300DF1CE01FFF77AFA52
:100CF000002020703EB010BD2465000815000020C3
:100D0000F22100F0F1BC024600200A4200D001208E
:100D100070474FF08040406A704700000348002150
:100D2000016041608160C16001617047080100207D
:100D30004C210148FFF76FBA9804002010B500F06D
:100D4000FBF9BDE8104005F01FBB000010B51749C6
:100D50000446D1F89E00D1F8A62003EE100AD1F87F
:100D60009A0004EE102A02EE900AD1F89600D1F80B
:100D7000A22002EE100AD1F8920003EE902A01EEB2
:100D8000900AD1F88E0001EE100AD1F88A0000EE28
:100D9000900AD1F8860000EE100A204601F07EFA93
:100DA0002046BDE8104001F07DBA0000150000208B
:100DB00010B51948174C818D204602F0CFFE204611
:100DC00002F0CEFEA4F5967000F028F8A4F1F00031
:100DD00000F024F8A4F1B40000F020F8A4F5F070BD
:100DE000FFF7B4FFA4F5D270FFF7B0FFA4F5B4701D
:100DF000FFF7ACFFA4F13C0000F0C0FFA4F17800C5
:100E000000F08AFFA4F50B70BDE810404C21FFF7FD
:100E100002BA0000100700201500002010B5174985
:100E20000446D1F87A00D1F8822003EE100AD1F8F6
:100E3000760004EE102A02EE900AD1F87200D1F882
:100E40007E2002EE100AD1F86E0003EE902A01EE29
:100E5000900AD1F86A0001EE100AD1F8660000EE9F
:100E6000900AD1F8620000EE100A204601F016FA4E
:100E70002046BDE8104001F015BA00001500002022
:100E800070B50D46044602F0D1FDA91D04F10A001B
:100E9000BDE8704001F00EB810B5044602F0EEFD5A
:100EA00004F10A00BDE8104001F013B80029016800
:100EB00002D041F0010101E021F001010160704721
:100EC0002DE9F0438FB00446DDE9168915481D462B
:100ED00016460F46A04303D10121480502F0E6FC67
:100EE0001148A04303D10121880502F0DFFC002155
:100EF0004FF48060CDE905108010CDE908100002A4
:100F00000791CDE90A010C910D910E9102AA694653
:100F100082E82003CDE90076204600F027F80FB0E4
:100F2000BDE8F083006002400064024000290168CF
:100F300002D041F4802101E021F48021016070475A
:100F4000002A026802D042F4002201E022F40022CA
:100F5000026001617047406880B27047014600201E
:100F60000968090300D501207047000030B5036807
:100F7000124ACC6813400A682243D1E905452C4344
:100F80002243CC6922430C6A22434C6A22438C6A76
:100F900022434C6B22438C6B22431A43026042690A
:100FA00022F00703D1E90B2422431A4342610A6964
:100FB00042604A6882608968C16030BD3F801CF031
:100FC00000F05AB83EB54E200821CDE90010154C6E
:100FD00015490290B7EE000A4FF4E1332246481C4F
:100FE00004F056F9012240F22551204605F039F966
:100FF00001221146272001F0F7F80C49A5152A46D1
:10100000A1F1280000F019FB09492A46A1F58A70D0
:1010100000F013FB03B02046BDE83040012105F08D
:1010200027B8000000480040080C0240D013002000
:10103000D014002038B500208DF800000C4800F0D6
:1010400000FB0028FAD10B4D40F225540022214626
:10105000284605F006F901226946054800F0FFFA26
:1010600001222146284605F0FCF89DF8000038BD15
:10107000A813002000480040032005F091B90000AB
:1010800031B50C4800F0E3FA0028FAD10A4D40F2DD
:10109000277400222146284605F0E3F8012269461C
:1010A000044800F0F6FA01222146284605F0D9F856
:1010B00038BD0000BC1300200048004010B502F00D
:1010C00097FC00F0C3FEBDE810400148FFF7E4BE06
:1010D0001C07002010B50446FFF7B8FC00281CD000
:1010E000204602F08BFC012002F098FC012809D078
:1010F000012002F093FC032809D0BDE81040012034
:1011000002F08CBC2046BDE8104002F07DBC04F12A
:101110000A00BDE8104000F0C1BE10BD704710B518
:1011200000214AF20E4403E02246521EFDD2491C21
:101130008142F9D310BD0000064910B54FF480720A
:1011400001F5007000F079FA0248BDE81040183847
:10115000FFF744BC9807002010B5012000F0E0F92B
:1011600000280DD0012000F0C1F9012000F0B8F9ED
:1011700004480168002903D0BDE81040002008475A
:1011800010BD00001816002070B54FF48065284689
:1011900000F0C6F9304C48B1284600F0A7F92846BF
:1011A00000F09EF9A16A09B10A2088474FF4006552
:1011B000284600F0B5F948B1284600F097F92846CE
:1011C00000F08EF9E16A09B10B2088474FF4805591
:1011D000284600F0A5F948B1284600F087F92846CE
:1011E00000F07EF9216B09B10C2088474FF40055BF
:1011F000284600F095F948B1284600F077F92846CE
:1012000000F06EF9616B09B10D2088474FF48045FD
:10121000284600F085F948B1284600F067F92846CD
:1012200000F05EF9A16B09B10E2088474FF400452C
:10123000284600F075F900280CD0284600F056F931
:10124000284600F04DF9E16B002903D0BDE870405D
:101250000F20084770BD00001816002010B50220AE
:1012600000F05EF900280DD0022000F03FF90220C6
:1012700000F036F904484168002903D0BDE8104069
:101280000120084710BD00001816002010B50420EA
:1012900000F046F900280DD0042000F027F90420C2
:1012A00000F01EF904488168002903D0BDE8104011
:1012B0000220084710BD00001816002010B50820B5
:1012C00000F02EF900280DD0082000F00FF90820BA
:1012D00000F006F90448C168002903D0BDE81040B9
:1012E0000320084710BD00001816002010B510207C
:1012F00000F016F900280DD0102000F0F7F81020AB
:1013000000F0EEF804480169002903D0BDE8104060
:101310000420084710BD00001816002070B52020DA
:1013200000F0FEF8264C48B1202000F0DFF8202025
:1013300000F0D6F8616909B105208847402000F027
:10134000EFF848B1402000F0D1F8402000F0C8F894
:10135000A16909B106208847802000F0E1F848B172
:10136000802000F0C3F8802000F0BAF8E16909B1EC
:10137000072088474FF48075284600F0D1F848B11F
:10138000284600F0B3F8284600F0AAF8216A09B10F
:10139000082088474FF40075284600F0C1F800285F
:1013A0000CD0284600F0A2F8284600F099F8616AAF
:1013B000002903D0BDE870400920084770BD000037
:1013C000181600202DE9F05F05464448DDF8288016
:1013D000994692468B46B0EB152F01D100263FE08F
:1013E0003E48001DB0EB152F01D1012638E03B48E7
:1013F0000830B0EB152F01D1022631E037480C3010
:10140000B0EB152F01D103262AE034481030B0EBA1
:10141000152F01D1042623E030481430B0EB152FEE
:1014200001D105261CE02D481830B0EB152F01D155
:10143000062615E029481C30B0EB152F01D10726F0
:101440000EE026482030B0EB152F01D1082607E02A
:1014500022482430B0EB152F01D1092600E00A26DE
:1014600005F00F040127A7400121880302F036FA96
:10147000284600F005FA2146304603F043F94A4673
:101480000021384600F038F82046414600F08AF83E
:101490006CB1012C0FD0022C11D0032C0FD0042CD6
:1014A0000DD00A2C0FD252465946172010E0524652
:1014B000594606200CE052465946072008E052469D
:1014C0005946082004E0102C06D2524659462820DE
:1014D000BDE8F05F00F088BEBDE8F09F000240006C
:1014E0000149086070470000143C01400149086050
:1014F00070470000143C01407CB50D4606460121B2
:101500001446880302F0EAF98DF804508DF805407E
:1015100001208DF806000096684600F00BF87CBDAF
:10152000034A0146002012680A4200D00120704799
:10153000143C014030B51A498379026853B30B68F3
:1015400093430B600A1D13680468A3431360027978
:101550000A441368046823431360114A083213686D
:101560000468A3431360131D1C680568AC431C602A
:101570004479102C05D021440A68006802430A60AF
:1015800030BD116804682143116019680068014387
:10159000196030BD0079084401689143016030BD95
:1015A000003C0140102802D2014A42F82010704746
:1015B0001816002080EC020A00F026B8D0ED020ACE
:1015C00090ED031AD0ED001A30EE811AD0ED050A25
:1015D00070EEA10AD0ED011A30EE410A30EEA12AD8
:1015E000C0EE821AC0ED041A20EE210A80ED030A33
:1015F00031EE000A20EEA01A80ED020A41EE610AE7
:10160000C0ED050A704700009FED050A80ED020A53
:1016100080ED030A80ED040A80ED050A70470000A2
:101620000000000010B50446D4E90001FEF7F3FD08
:101630000020A060E060206110BDC0E90012FFF74B
:10164000F1BF006908B100207047012070470169AF
:101650004068814201D10120704700207047F0B5F9
:1016600000231D460EE084680768661C86603C5DAA
:10167000CC54D0E90146A64200D185600469641EBD
:101680005B1C0461934202D20469002CEBD1184622
:10169000F0BDF0B500231D4610E0C4680768CE5CBD
:1016A00004F1010CC0F80CC03E554668C468B44251
:1016B00000D1C5600469641C5B1C0461934203D2C1
:1016C00046680469B442E8D11846F0BD0068084095
:1016D000704710B5002304E00446401C2478CC5425
:1016E0005B1C9342F8D310BD0A4601460148FFF740
:1016F000F0BF000000000E0810B586B040F2FF13E6
:10170000009300238DF808308DF8093008248DF8F7
:101710000A400C0A8DF80C10110A8DF80D108DF886
:1017200010308DF80E208DF811308DF80B408DF8AB
:101730000F308DF812306946FFF7FEF806B010BD85
:1017400038B5044600200D4603460222009011469B
:10175000204600F009F804F00F0124F0FF002A46AB
:10176000BDE8384000F0EEB82DE9FF4F054620F007
:10177000FF04384A38483949394E3A4FDFF8E88093
:10178000DFF8E890DFF8E8A0DFF8E8B083B0944233
:1017900002D1012108463CE0844204D1012102200B
:1017A00002F084F806E08C4204D10121042002F00A
:1017B0007DF806E0B44204D10121082002F076F859
:1017C00006E0BC4204D10121102002F06FF806E0CF
:1017D000444504D10121202002F068F806E04C4580
:1017E00004D10121402002F061F806E0544504D103
:1017F0000121802002F05AF806E05C4504D1012165
:10180000080202F053F807E01B48844204D101218A
:10181000401502F04BF805E01848844202D101213E
:101820000015F6E705F00F010120884000900498AC
:101830008DF8040005988DF8050006988DF80600CF
:1018400010988DF807006946204600F021F807B08F
:10185000BDE8F08F00000240000402400008024092
:10186000000C024000100240001402400018024028
:10187000001C0240002002400024024000280240D8
:1018800008B50021012302220091FFF76DFF08BD7A
:10189000F0B50023012403270D6804FA03F2154074
:1018A000954242D1D0F800C05E0007FA06F52CEA56
:1018B000050CC0F800C091F804C0D0F800E00CFAA4
:1018C00006FC4CEA0E0CC0F800C091F804C0BCF154
:1018D000010F02D0BCF1020F1FD1D0F808C02CEAD2
:1018E000050CC0F808C091F805C0D0F808E00CFA63
:1018F00006FC4CEA0E0CC0F808C0D0F804C02CEA74
:10190000020CC0F804C0426891F806C00CFA03FC4F
:101910001FFA8CFC42EA0C024260C268AA43C26011
:10192000CA79C568B2402A43C2605B1C102BB3D38E
:10193000F0BD08B500210B46009102220121FFF7FE
:1019400013FF08BD4B07DB0E9A40C90810B500EB2A
:101950008100016A0F249C40A1430162016A114386
:10196000016210BD418370470183704770B5374AEB
:10197000B6EE000A2DED068B52F82E1F047A53683E
:10198000E5069268002D02DA08EE901A03E000EEF8
:10199000901A60EE808A02DA08EE103A03E000EE58
:1019A000903A20EE808A02DA09EE102A03E000EE77
:1019B000902A20EE809A9FED260A610702D5F1EE6B
:1019C000688A03E0210701D4F0EE408AA10702D51E
:1019D000B1EE488A03E0E10701D1B0EE408AB0F9E8
:1019E0000000DFED1C9A00EE100A9FED1BAAB0EE7E
:1019F000691AB8EEC00AF0EE4A0A04F04FFDB0EEE4
:101A0000492AF1EE491AB0EE691AF0EE4A0A04F0DA
:101A10006DFDB0EE409AB0EE680A104800F0D8FABA
:101A20000F4C0E4884ED010AB0EE480A103000F069
:101A3000CFFA0A4884ED020AB0EE490A203000F0DD
:101A4000C7FA84ED030ABDEC068B70BD15000020BB
:101A5000000000000000C8420000C8C2BC0900200D
:101A60009804002070B52B4E05462DED048B56F8DA
:101A70002E0FDFED298A02EE100A28889FED279AA3
:101A800000EE100AF1EE421AB0EE681AB8EE400A03
:101A9000F0EE490A04F02AFD214C9FED228AB0EEB7
:101AA000681A84ED010AD4ED040A40EE080AC4ED78
:101AB000040A7168688802EE101A00EE100AF0EE4F
:101AC000490AF1EE421AB8EE400A04F00FFD84ED27
:101AD000020AD4ED050AB0EE681A40EE080AC4ED19
:101AE000050AB068F0EE490A02EE100AA88800EE76
:101AF000100AF1EE421AB8EE400A04F0F7FC84ED49
:101B0000030AD4ED060A40EE080AC4ED060ABDEC4D
:101B1000048B70BD150000200080D2440000B64345
:101B2000980400206F12833A10B53A4C2DED028BC9
:101B3000017AD4F83A00CA0600EE100A03D4F6EE91
:101B4000000A20EE200A9FED348A480602D5B1EE45
:101B5000400A03E0080601D4B0EE480A2F4800F01E
:101B600037FA2F4A9FED2F1A82ED0F0AD2ED110A94
:101B700040EE010AC2ED110AD4F8560000EE100A38
:101B8000F4EEC00AF1EE10FA08DCD4F8520000EED0
:101B9000100AF4EEC00AF1EE10FA01D200EE900A3B
:101BA0000020C2ED110A00F06BF9012805D00120D8
:101BB00000F066F9012805D00AE0D4F83E0008EEEE
:101BC000100A05E0D4F83E0000EE100AB1EE408A9B
:101BD00082ED108A92ED120A08EE010A82ED120AD5
:101BE000D4F85E0000EE900AB4EEE00AF1EE10FACE
:101BF00008DCD4F85A0000EE900AB4EEE00AF1EEE8
:101C000010FA01D200EE100A82ED120ABDEC028B2E
:101C100010BD00001500002000000000EC090020AD
:101C2000980400206F12833A10B5354CC0889FEDA0
:101C3000351AD4F83A1000EE100A02EE101ADFED51
:101C4000320AB8EE400AF1EE421A04F04FFC2F4A75
:101C50009FED2F1A82ED0F0AD2ED110A40EE410AD4
:101C6000C2ED110AD4F8560000EE100AF4EEC00AD4
:101C7000F1EE10FA08DCD4F8520000EE100AF4EE8F
:101C8000C00AF1EE10FA01D200EE900A0020C2ED77
:101C9000110A01F0C3FE012825D0002001F0BEFE8C
:101CA000022825D0DFED1B0AC2ED100A92ED120AC0
:101CB00000EE810A82ED120AD4F85E0000EE900A6E
:101CC000B4EEE00AF1EE10FA08DCD4F85A0000EEA7
:101CD000900AB4EEE00AF1EE10FA01D200EE100A1A
:101CE00082ED120A10BDD4F83E0000EE900ADBE748
:101CF000D4F83E0000EE100AF1EE400AD4E70000EE
:101D0000150000200080D2440000B6439804002053
:101D10006F12833A0000000010B517490446D1F84D
:101D2000E600D1F8EE2003EE100AD1F8E20004EE4E
:101D3000102A02EE900AD1F8DE00D1F8EA2002EE75
:101D4000100AD1F8DA0003EE902A01EE900AD1F8D9
:101D5000D60001EE100AD1F8D20000EE900AD1F8B8
:101D6000CE0000EE100A204600F098FA2046BDE8AA
:101D7000104000F097BA00001500002010B5174978
:101D80000446D1F8C200D1F8CA2003EE100AD1F8F7
:101D9000BE0004EE102A02EE900AD1F8BA00D1F883
:101DA000C62002EE100AD1F8B60003EE902A01EE2A
:101DB000900AD1F8B20001EE100AD1F8AE0000EEA0
:101DC000900AD1F8AA0000EE100A204600F066FA48
:101DD0002046BDE8104000F065BA00001500002064
:101DE000FEE70000002210B51146134605E000BFD3
:101DF00002EB420404446354491C0329F8D3521CE7
:101E0000022AFAD38360C36010BD70B5002202EBD2
:101E100042048B18055D9E79B54212D100EB820613
:101E2000B568052D02D26D1CB56004E02518AE78AA
:101E30006E709E79AE709B79521C0355022AE6D3D0
:101E400070BD002500EB8206EEE7000070B50B4D7B
:101E50000024A5F1400600BF04EB840005EBC0019F
:101E600006EB04100A2200F0AFF8641C042CF3D334
:101E7000BDE8704001485038FFF7B4BFFC090020AE
:101E8000024900EB4000084480787047AC0900200C
:101E900001460148FFF7B9BFAC09002010B5044660
:101EA000FFF7F6FF2046FFF761FD2046BDE8104032
:101EB000FFF73ABE0A8802804A8842808A88828078
:101EC0008A798271CA79C2710A89028149894181FC
:101ED000704700210A464318491CC9B29A71022969
:101EE000F9D30280428082800281428170470000E3
:101EF00001490020086070471C010020FFF79AB8D4
:101F000000B5044800F014F803485DF804EB00F055
:101F100017B80000FD1E00081D1F000810B504467C
:101F2000FFF7AEF82046FEF789FA204610BD000004
:101F3000002801D0014908607047000020010020FE
:101F4000002801D0014948607047000020010020AE
:101F500010B5FEF7C5F902F0EDFBFEF707FAFEF744
:101F6000A3F9BDE8104003F02FB8000010B50848F1
:101F7000FFF786FC0748FFF783FC0548401CFFF786
:101F80007FFC0448BDE81040401CFFF779BC00000E
:101F9000000402400208024010B50948FFF7C9FCDE
:101FA0000848FFF7C6FC06484FF480410E38FFF79B
:101FB000DBFC04488021BDE81040C01FFFF7D4BC03
:101FC0000E14024007100240C0E9001200F022B8CF
:101FD0000268816802EB8102491CD2ED000A30EEF2
:101FE000601AD0ED010AF8EE600AC1EE201AD0EDB9
:101FF000030A71EEA00AC0ED030A816082ED000AB7
:10200000D0E901128A4201D30021816090ED030AD8
:102010007047000000219FED0A0A0A46816007E030
:10202000036803EB820282ED000A8268521C826020
:1020300043689A42F4D3816080ED030A7047000040
:10204000000000000948D0F84E1001EE901AD0F8B8
:102050004A1001EE101AD0F84610D0F8420000EEF7
:10206000901A00EE100A024800F004B81500002093
:102070009C0A002070EE200A31EE210AB5EE001A0B
:10208000C0ED000A80ED010A20EE010A80ED020A8F
:1020900080EE201A80ED030A80ED041A7047FEE7F7
:1020A00070B504460160406804F10806401C606099
:1020B000618F2187118804F1200549BA6187518811
:1020C000022849BAE163918849BA21640DD23046A9
:1020D000DFED3B0A9FED3B0AFFF76CFADFED3A0AB2
:1020E0009FED3A0A2846FFF765FA6068642803D234
:1020F000608FA0640020E064608F218F401A00B2DE
:10210000A4F84400B0F5805F05DDE16CA0F5005057
:10211000491EE16407E010F5805F04DAE16C00F528
:102120000050491CE164A4F8500000B200EE100A0F
:1021300030461C34B8EEC00AFFF740FA14ED030A2B
:10214000DFED230ABDEEC00A10EE100A00B200EE69
:10215000100AA087B8EEC00A20EE200ADFED1D0AA3
:1021600084ED110A00EE100AB8EEC00A20EE200A33
:1021700084ED120AE08BE16A401A216B00EB4130DA
:1021800000EE100AA0632846B8EEC00AFFF716FA60
:1021900094ED030A9FED101ABDEEC00A84ED100AFB
:1021A000F8EEC00AB8EEC00A60EE810AC4ED130A68
:1021B000DFED0A0A20EE200A84ED140A70BD00004B
:1021C0006666A63FCDCCCC3D6666663F0AD7233C0B
:1021D000FFC72F427C59443FFFFF333DDB0F493A95
:1021E0007021FEF718B8704708B58DF800008DF81B
:1021F00001108DF8022001208DF80300684600F0E0
:1022000001F808BD30B50F22C47801780123FCB174
:10221000144C246801F1E02104F4E064C4F5E064A6
:10222000C4F30724C4F10405E2404478AC40857847
:10223000154025432A0181F80024007800F01F0191
:102240008B404009800000F1E020C0F8003130BD33
:1022500001F01F0083404809800000F1E020C0F831
:10226000803130BD0CED00E00249084302490860AE
:10227000704700000000FA050CED00E005489FEDF6
:10228000040A642180ED000A0348FDF7C4BF000082
:102290000000000028010020B00A002080EC090A9C
:1022A000704700009FED070A80ED090A80ED0A0AD9
:1022B00080ED0B0A80ED0C0A80ED0D0A80ED0E0A10
:1022C00070470000000000002DE9FE4F1546DFF8C2
:1022D0000484FF4ADDF830B008F104091C460E46BC
:1022E000074609F1040A93457ED100200290A8F127
:1022F0000400B0EB172F25D0B8EB172F22D0B9EB85
:10230000172F1FD0BAEB172F1CD00AF10400B0EB27
:10231000172F17D0001DB0EB172F13D0001DB0EBF7
:10232000172F0FD0001DB0EB172F0BD0001DB0EBF7
:10233000172F07D0001DB0EB172F03D0001DB0EBF7
:10234000172F05D101213846FFF7FAF90120029035
:10235000E048001FB0EB162F25D0B8EB162F22D087
:10236000B9EB162F1FD0BAEB162F1CD0D9480C3062
:10237000B0EB162F17D0001DB0EB162F13D0001D99
:10238000B0EB162F0FD0001DB0EB162F0BD0001D99
:10239000B0EB162F07D0001DB0EB162F03D0001D99
:1023A000B0EB162F07D101213046FFF7C9F902988B
:1023B00040F002000290C748001FB0EB152F27D055
:1023C000B8EB152F24D0B9EB152F21D0BAEB152F70
:1023D0001ED0C0480C30B0EB152F19D0001DB0EB4B
:1023E000152F15D0001D00E061E0B0EB152F0FD0C8
:1023F000001DB0EB152F0BD0001DB0EB152F07D033
:10240000001DB0EB152F03D0001DB0EB152F07D129
:1024100001212846FFF794F9029840F00400029049
:10242000AC48001FB0EB142F25D0B8EB142F22D0EE
:10243000B9EB142F1FD0BAEB142F1CD0A5480C30C9
:10244000B0EB142F17D0001DB0EB142F13D0001DCC
:10245000B0EB142F0FD0001DB0EB142F0BD0001DCC
:10246000B0EB142F07D0001DB0EB142F03D0001DCC
:10247000B0EB142F07D101212046FFF761F9029834
:1024800040F008000290002000900190DDE90D135B
:1024900002468F4802F034FB70228D480F9B029950
:1024A00002F0E2FC01218A4802F010FBB6E1BBF128
:1024B000804F7DD088498B45F8D100200290854817
:1024C000001FB0EB172F25D0B8EB172F22D0B9EB98
:1024D000172F1FD0BAEB172F1CD07E480C30B0EB53
:1024E000172F17D0001DB0EB172F13D0001DB0EB26
:1024F000172F0FD0001DB0EB172F0BD0001DB0EB26
:10250000172F07D0001DB0EB172F03D0001DB0EB25
:10251000172F05D102213846FFF712F9012002904A
:102520006C48001FB0EB162F25D0B8EB162F22D029
:10253000B9EB162F1FD0BAEB162F1CD065480C3004
:10254000B0EB162F17D0001DB0EB162F13D0001DC7
:10255000B0EB162F0FD0001DB0EB162F0BD0001DC7
:10256000B0EB162F07D0001DB0EB162F03D0001DC7
:10257000B0EB162F07D102213046FFF7E1F80298A1
:1025800040F0020002905348001FB0EB152F27D0F7
:10259000B8EB152F24D0B9EB152F21D0BAEB152F9E
:1025A0001ED04C480C30B0EB152F19D0001D00E0A8
:1025B00065E0B0EB152F13D0001DB0EB152F0FD039
:1025C000001DB0EB152F0BD0001DB0EB152F07D061
:1025D000001DB0EB152F03D0001DB0EB152F07D158
:1025E00002212846FFF7ACF8029840F00400029060
:1025F0003848001FB0EB142F25D0B8EB142F22D091
:10260000B9EB142F1FD0BAEB142F1CD031480C306B
:10261000B0EB142F17D0001DB0EB142F13D0001DFA
:10262000B0EB142F0FD0001DB0EB142F0BD0001DFA
:10263000B0EB142F07D0001DB0EB142F03D0001DFA
:10264000B0EB142F07D102212046FFF779F802984A
:1026500040F008000290002000900190DDE90D1389
:1026600002461D4802F04CFA70221B480F9B02994B
:1026700002F0FAFB0121184802F028FAAFE11548F0
:102680004FF0000B001FB0EB172F2CD0B8EB172F1B
:1026900029D0B9EB172F26D0BAEB172F23D00D482E
:1026A0000C30B0EB172F1ED0001DB0EB172F1AD037
:1026B000001DB0EB172F16D0001DB0EB172F12D056
:1026C000001DB0EB172F0ED0001DB0EB172F05E04B
:1026D00000000140040240000004004003D0001D3F
:1026E000B0EB172F05D101213846FFF729F84FF03D
:1026F000010BFC4FB7EB162F25D0B8EB162F22D0CD
:10270000B9EB162F1FD0BAEB162F1CD0F54810309E
:10271000B0EB162F17D0001DB0EB162F13D0001DF5
:10272000B0EB162F0FD0001DB0EB162F0BD0001DF5
:10273000B0EB162F07D0001DB0EB162F03D0001DF5
:10274000B0EB162F05D101213046FEF7F9FF4BF013
:10275000020BB7EB152F25D0B8EB152F22D0B9EB14
:10276000152F1FD0BAEB152F1CD0DE481030B0EB60
:10277000152F17D0001DB0EB152F13D0001DB0EB97
:10278000152F0FD0001DB0EB152F0BD0001DB0EB97
:10279000152F07D0001DB0EB152F03D0001DB0EB97
:1027A000152F05D101212846FEF7CAFF4BF0040B77
:1027B000B7EB142F25D0B8EB142F22D0B9EB142F80
:1027C0001FD0BAEB142F1CD0C6481030B0EB142F1A
:1027D00017D0001DB0EB142F13D0001DB0EB142F39
:1027E0000FD0001DB0EB142F0BD0001DB0EB142F39
:1027F00007D0001DB0EB142F03D0001DB0EB142F39
:1028000005D101212046FEF79BFF4BF0080B00206D
:10281000009002464FF080440190FDE3B2498B45A1
:102820007ED100200290AF48B0EB172F25D0B8EB37
:10283000172F22D0B9EB172F1FD0BAEB172F1CD0B0
:10284000A8481030B0EB172F17D0001DB0EB172F92
:1028500013D0001DB0EB172F0FD0001DB0EB172FBA
:102860000BD0001DB0EB172F07D0001DB0EB172FBA
:1028700003D0001DB0EB172F05D102213846FEF71B
:102880005FFF012002909748B0EB162F25D0B8EBE0
:10289000162F22D0B9EB162F1FD0BAEB162F1CD053
:1028A00090481030B0EB162F17D0001DB0EB162F4C
:1028B00013D0001DB0EB162F0FD0001DB0EB162F5C
:1028C0000BD0001DB0EB162F07D0001DB0EB162F5C
:1028D00003D0001DB0EB162F07D102213046FEF7C2
:1028E0002FFF029840F0020002907E48B0EB152FB7
:1028F00027D0B8EB152F24D0B9EB152F21D0BAEB88
:10290000152F1ED077481030B0EB152F19D0001DB1
:10291000B0EB152F15D0001DB0EB152F11D000E036
:102920005DE0001DB0EB152F0BD0001DB0EB152F97
:1029300007D0001DB0EB152F03D0001DB0EB152FF5
:1029400007D102212846FEF7FBFE029840F0040062
:1029500002906448B0EB142F25D0B8EB142F22D08E
:10296000B9EB142F1FD0BAEB142F1CD05D481030D8
:10297000B0EB142F17D0001DB0EB142F13D0001D97
:10298000B0EB142F0FD0001DB0EB142F0BD0001D97
:10299000B0EB142F07D0001DB0EB142F03D0001D97
:1029A000B0EB142F07D102212046FEF7C9FE029892
:1029B00040F008000290002000900190DDE90D1326
:1029C0000246494802F09CF8702247480F9B029942
:1029D00002F04AFA0121444802F078F8E7E043495E
:1029E0008B457DD1002002903E48B0EB172F25D0BB
:1029F000B8EB172F22D0B9EB172F1FD0BAEB172F38
:102A00001CD038481030B0EB172F17D0001DB0EB9A
:102A1000172F13D0001DB0EB172F0FD0001DB0EBF8
:102A2000172F0BD0001DB0EB172F07D0001DB0EBF8
:102A3000172F03D0001DB0EB172F05D10221384608
:102A4000FEF77EFE012002902648B0EB162F25D01F
:102A5000B8EB162F22D0B9EB162F1FD0BAEB162FDA
:102A60001CD020481030B0EB162F17D0001DB0EB53
:102A7000162F13D0001DB0EB162F0FD0001DB0EB9A
:102A8000162F0BD0001DB0EB162F07D0001DB0EB9A
:102A9000162F03D0001DB0EB162F07D102213046B0
:102AA000FEF74EFE029840F0020002900D48B0EB97
:102AB000152F2ED0B8EB152F2BD0B9EB152F28D012
:102AC000BAEB152F25D007481030B0EB152F20D0CA
:102AD000001DB0EB152F1CD0001DB0EB152F07E02B
:102AE00065E000000002400000080040000C0040CB
:102AF0000FD0001DB0EB152F0BD0001DB0EB152F24
:102B000007D0001DB0EB152F03D0001DB0EB152F23
:102B100007D102212846FEF713FE029840F0040078
:102B20000290FE48B0EB142F25D0B8EB142F22D022
:102B3000B9EB142F1FD0BAEB142F1CD0F74810306C
:102B4000B0EB142F17D0001DB0EB142F13D0001DC5
:102B5000B0EB142F0FD0001DB0EB142F0BD0001DC5
:102B6000B0EB142F07D0001DB0EB142F03D0001DC5
:102B7000B0EB142F07D102212046FEF7E1FD0298A9
:102B800040F008000290002000900190DDE90D1354
:102B90000246E34801F0B4FF7022E1480F9B02991E
:102BA00002F062F90121DE4801F090FFE0E0DD492A
:102BB0008B457DD100200290D848B0EB172F25D04F
:102BC000B8EB172F22D0B9EB172F1FD0BAEB172F66
:102BD0001CD0D2481030B0EB172F17D0001DB0EB2F
:102BE000172F13D0001DB0EB172F0FD0001DB0EB27
:102BF000172F0BD0001DB0EB172F07D0001DB0EB27
:102C0000172F03D0001DB0EB172F05D10321384635
:102C1000FEF796FD01200290C048B0EB162F25D09C
:102C2000B8EB162F22D0B9EB162F1FD0BAEB162F08
:102C30001CD0BA481030B0EB162F17D0001DB0EBE7
:102C4000162F13D0001DB0EB162F0FD0001DB0EBC8
:102C5000162F0BD0001DB0EB162F07D0001DB0EBC8
:102C6000162F03D0001DB0EB162F07D103213046DD
:102C7000FEF766FD029840F002000290A748B0EB14
:102C8000152F27D0B8EB152F24D0B9EB152F21D055
:102C9000BAEB152F1ED0A1481030B0EB152F19D06C
:102CA000001DB0EB152F15D0001DB0EB152F00E067
:102CB0005EE00FD0001DB0EB152F0BD0001DB0EB68
:102CC000152F07D0001DB0EB152F03D0001DB0EB62
:102CD000152F07D103212846FEF732FD029840F058
:102CE000040002908D48B0EB142F25D0B8EB142FC0
:102CF00022D0B9EB142F1FD0BAEB142F1CD0874869
:102D00001030B0EB142F17D0001DB0EB142F13D0E0
:102D1000001DB0EB142F0FD0001DB0EB142F0BD003
:102D2000001DB0EB142F07D0001DB0EB142F03D003
:102D3000001DB0EB142F07D103212046FEF700FD44
:102D4000029840F008000290002000900190DDE918
:102D50000D130246734801F0D3FE702271480F9B99
:102D6000029902F081F801216E4801F0AFFEEAE01D
:102D70006D498B457ED1002002906848B0EB172F3B
:102D800025D0B8EB172F22D0B9EB172F1FD0BAEBF5
:102D9000172F1CD061481030B0EB172F17D0001D33
:102DA000B0EB172F13D0001DB0EB172F0FD0001D65
:102DB000B0EB172F0BD0001DB0EB172F07D0001D65
:102DC000B0EB172F03D0001DB0EB172F05D1032157
:102DD0003846FEF7B5FC012002905048B0EB162FA4
:102DE00025D0B8EB162F22D0B9EB162F1FD0BAEB97
:102DF000162F1CD049481030B0EB162F17D0001DED
:102E0000B0EB162F13D0001DB0EB162F0FD0001D06
:102E1000B0EB162F0BD0001DB0EB162F07D0001D06
:102E2000B0EB162F03D0001DB0EB162F07D10321F6
:102E30003046FEF785FC029840F0020002903748C9
:102E4000B0EB152F27D0B8EB152F24D0B9EB152FE9
:102E500021D0BAEB152F1ED030481030B0EB152F13
:102E600019D0001DB0EB152F15D0001DB0EB152F9C
:102E700011D000E067E0001DB0EB152F0BD0001D56
:102E8000B0EB152F07D0001DB0EB152F03D0001DA0
:102E9000B0EB152F07D103212846FEF751FC02980D
:102EA00040F0040002901D48B0EB142F25D0B8EB81
:102EB000142F22D0B9EB142F1FD0BAEB142F1CD033
:102EC00016481030B0EB142F17D0001DB0EB142FA4
:102ED00013D0001DB0EB142F0FD0001DB0EB142F3A
:102EE0000BD0001DB0EB142F07D0001DB0EB142F3A
:102EF00003D0001DB0EB142F07D103212046FEF7AD
:102F00001FFC029840F00800029000200090019001
:102F1000DDE90D130246044808E00000000240000D
:102F2000000C0040000401400040014001F0E8FDB9
:102F30007022FE480F9B029901F096FF0121FB4889
:102F400001F0C4FDE1E0FA498B4566D10020029012
:102F5000F848B0EB172F25D0B8EB172F22D0B9EBDC
:102F6000172F1FD0BAEB172F1CD0F2481030B0EB40
:102F7000172F17D0001DB0EB172F13D0001DB0EB8B
:102F8000172F0FD0001DB0EB172F0BD0001DB0EB8B
:102F9000172F07D0001DB0EB172F03D0001DB0EB8B
:102FA000172F05D103213846FEF7CAFB01200290F6
:102FB000E048B0EB162F25D0B8EB162F22D0B9EB96
:102FC000162F1FD0BAEB162F1CD0DA481030B0EBFA
:102FD000162F17D0001DB0EB162F13D0001DB0EB2D
:102FE000162F0FD0001DB0EB162F0BD0001DB0EB2D
:102FF000162F07D0001DB0EB162F03D0001DB0EB2D
:10300000162F07D103213046FEF79AFB029840F0B5
:1030100002000290C74801E00EE376E0B0EB152F06
:1030200025D0B8EB152F22D0B9EB152F1FD0BAEB56
:10303000152F1CD0BF481030B0EB152F17D0001D36
:10304000B0EB152F13D0001DB0EB152F0FD0001DC6
:10305000B0EB152F0BD0001DB0EB152F07D0001DC6
:10306000B0EB152F03D0001DB0EB152F07D10321B6
:103070002846FEF765FB029840F004000290AD4838
:10308000B0EB142F25D0B8EB142F22D0B9EB142FAE
:103090001FD0BAEB142F1CD0A6481030B0EB142F61
:1030A00017D0001DB0EB142F13D0001DB0EB142F60
:1030B0000FD0001DB0EB142F0BD0001DB0EB142F60
:1030C00007D0001DB0EB142F03D0001DB0EB142F60
:1030D00007D103212046FEF733FB029840F0080099
:1030E0000290002000900190DDE90D130246904807
:1030F00001F006FD70228E480F9B029901F0B4FE8C
:1031000001218B4801F0E2FCE0E08B498B457DD149
:10311000002002908748B0EB172F25D0B8EB172F6F
:1031200022D0B9EB172F1FD0BAEB172F1CD0814834
:103130001030B0EB172F17D0001DB0EB172F13D0A6
:10314000001DB0EB172F0FD0001DB0EB172F0BD0C9
:10315000001DB0EB172F07D0001DB0EB172F03D0C9
:10316000001DB0EB172F05D103213846FEF7E8FA12
:10317000012002906F48B0EB162F25D0B8EB162F28
:1031800022D0B9EB162F1FD0BAEB162F1CD06948EE
:103190001030B0EB162F17D0001DB0EB162F13D048
:1031A000001DB0EB162F0FD0001DB0EB162F0BD06B
:1031B000001DB0EB162F07D0001DB0EB162F03D06B
:1031C000001DB0EB162F07D103213046FEF7B8FAE9
:1031D000029840F0020002905648B0EB152F27D01D
:1031E000B8EB152F24D0B9EB152F21D0BAEB152F42
:1031F0001ED050481030B0EB152F19D0001DB0EB89
:10320000152F15D0001DB0EB152F00E05EE00FD09C
:10321000001DB0EB152F0BD0001DB0EB152F07D004
:10322000001DB0EB152F03D0001DB0EB152F07D1FB
:1032300003212846FEF784FA029840F00400029029
:103240003C48B0EB142F25D0B8EB142F22D0B9EBAB
:10325000142F1FD0BAEB142F1CD036481030B0EB0F
:10326000142F17D0001DB0EB142F13D0001DB0EB9E
:10327000142F0FD0001DB0EB142F0BD0001DB0EB9E
:10328000142F07D0001DB0EB142F03D0001DB0EB9E
:10329000142F07D103212046FEF752FA029840F07E
:1032A00008000290002000900190DDE90D13024615
:1032B000214801F025FC70221F480F9B029901F064
:1032C000D3FD01211C4801F001FCEBE01B498B45BB
:1032D0007ED1002002901748B0EB172F25D0B8EB15
:1032E000172F22D0B9EB172F1FD0BAEB172F1CD0F6
:1032F00010481030B0EB172F17D0001DB0EB172F70
:1033000013D0001DB0EB172F0FD0001DB0EB172FFF
:103310000BD0001DB0EB172F07D0001DB0EB172FFF
:1033200003D0001DB0EB172F10D109E00040014081
:1033300000440140000240000048014000180040E5
:1033400009213846FEF7FCF901200290FB48B0EB5A
:10335000162F25D0B8EB162F22D0B9EB162F1FD081
:10336000BAEB162F1CD0F5481030B0EB162F17D043
:10337000001DB0EB162F13D0001DB0EB162F0FD091
:10338000001DB0EB162F0BD0001DB0EB162F07D091
:10339000001DB0EB162F03D0001DB0EB162F07D188
:1033A00009213046FEF7CCF9029840F00200029065
:1033B000E248B0EB152F27D0B8EB152F24D0B9EB8E
:1033C000152F21D0BAEB152F1ED0DC48103000E0AD
:1033D00068E0B0EB152F17D0001DB0EB152F13D000
:1033E000001DB0EB152F0FD0001DB0EB152F0BD02B
:1033F000001DB0EB152F07D0001DB0EB152F03D02B
:10340000001DB0EB152F07D109212846FEF798F9CA
:10341000029840F004000290C848B0EB142F25D069
:10342000B8EB142F22D0B9EB142F1FD0BAEB142F06
:103430001CD0C2481030B0EB142F17D0001DB0EBD9
:10344000142F13D0001DB0EB142F0FD0001DB0EBC4
:10345000142F0BD0001DB0EB142F07D0001DB0EBC4
:10346000142F03D0001DB0EB142F07D109212046E3
:10347000FEF766F9029840F00800029000200090E4
:103480000190DDE90D130246AD4801F039FB7022D1
:10349000AB480F9B029901F0E7FC0121A84801F01D
:1034A00015FBCAE0A7498B457ED1A4484FF0000B1D
:1034B000B0EB172F25D0B8EB172F22D0B9EB172F71
:1034C0001FD0BAEB172F1CD09C481030B0EB172F31
:1034D00017D0001DB0EB172F13D0001DB0EB172F26
:1034E0000FD0001DB0EB172F0BD0001DB0EB172F26
:1034F00007D0001DB0EB172F03D0001DB0EB172F26
:1035000005D109213846FEF71BF94FF0010B8B4F0F
:10351000B7EB162F25D0B8EB162F22D0B9EB162F0C
:103520001FD0BAEB162F1CD084481030B0EB162FEA
:1035300017D0001DB0EB162F13D0001DB0EB162FC7
:103540000FD0001DB0EB162F0BD0001DB0EB162FC7
:1035500007D0001DB0EB162F03D0001DB0EB162FC7
:1035600005D109213046FEF7EBF84BF0020BB7EB23
:10357000152F27D0B8EB152F24D0B9EB152F21D05C
:10358000BAEB152F1ED06D481030B0EB152F19D0A7
:10359000001DB0EB152F15D0001DB0EB152F11D06D
:1035A000001DB0EB152F00E047E00BD0001DB0EB85
:1035B000152F07D0001DB0EB152F03D0001DB0EB69
:1035C000152F05D109212846FEF7BAF84BF0040B58
:1035D000B7EB142F25D0B8EB142F22D0B9EB142F52
:1035E0001FD0BAEB142F1CD054481030B0EB142F5E
:1035F00017D0001DB0EB142F13D0001DB0EB142F0B
:103600000FD0001DB0EB142F0BD0001DB0EB142F0A
:1036100007D0001DB0EB142F03D0001DB0EB142F0A
:1036200005D109212046FEF78BF84BF0080B00204E
:1036300000900246434C0190D0E043498B457CD139
:103640003E484FF0000BB0EB172F25D0B8EB172FEB
:1036500022D0B9EB172F1FD0BAEB172F1CD0374849
:103660001030B0EB172F17D0001DB0EB172F13D071
:10367000001DB0EB172F0FD0001DB0EB172F0BD094
:10368000001DB0EB172F07D0001DB0EB172F03D094
:10369000001DB0EB172F05D109213846FEF750F871
:1036A0004FF0010B254FB7EB162F25D0B8EB162F97
:1036B00022D0B9EB162F1FD0BAEB162F1CD01F4803
:1036C0001030B0EB162F17D0001DB0EB162F13D013
:1036D000001DB0EB162F0FD0001DB0EB162F0BD036
:1036E000001DB0EB162F07D0001DB0EB162F03D036
:1036F000001DB0EB162F05D109213046FEF720F84A
:103700004BF0020BB7EB152F2FD0B8EB152F2CD0A9
:10371000B9EB152F29D0BAEB152F26D0074810305A
:10372000B0EB152F21D0001DB0EB152F1DD0001DC3
:10373000B0EB152F19D0001D08E061E00002400039
:1037400000180040001C004000200040B0EB152F86
:103750000BD0001DB0EB152F07D0001DB0EB152FBF
:1037600003D0001DB0EB152F05D109212846FDF728
:10377000E7FF4BF0040BB7EB142F24D0B8EB142F5A
:1037800021D0B9EB142F1ED0BAEB142F1BD01D483B
:10379000B0EB142F17D0001DB0EB142F13D0001D69
:1037A000B0EB142F0FD0001DB0EB142F0BD0001D69
:1037B000B0EB142F07D0001DB0EB142F03D0001D69
:1037C000B0EB142F05D109212046FDF7B9FF4BF0CE
:1037D000080B00200C4C009002460190DDE90D130F
:1037E000204601F08DF97022594620460F9B01F0CA
:1037F0003BFB03B02046BDE8F04F012101F066B964
:10380000BDE8FE8F1002400000200040704700001D
:103810001FB54FF47A700F4C40F6C4115922009432
:103820000390CDE901210C4B5A1E511E481EFEF794
:103830004BFD0121204601F059F9064940F2A460F0
:1038400040310860091F0860091F0860091F0860EF
:103850001FBD0000000800400F0C02402DE9F0479A
:10386000DFF840800025A8F1C009C5EB051108EB81
:10387000011705EB4501002409EB411604EB840018
:1038800007EBC00106EB04100A22FEF79DFB641C47
:10389000062CF3D36D1C022DE7D3034900200860EA
:1038A000BDE8F087D40B00202C010020044A002939
:1038B000116801D0014300E08143116070470000AE
:1038C00030380240044A0029116801D0014300E069
:1038D000814311607047000040380240044A0029CB
:1038E000116801D0014300E081431160704700007E
:1038F0004438024070B5204A1168204C11F00C0188
:1039000004D01F4E042903D0082903D004601BE013
:10391000066019E01849091F0B68C3F380550B684E
:1039200003F03F0315B1B6FBF3F301E0B4FBF3F38F
:103930000C680968C4F388146343C1F30141491C4E
:103940004900B3FBF1F1016011680F2303EA111183
:103950000C4B5C5C0168E14041601468072505EA96
:1039600094241C5D21FA04F48460126805EA523242
:103970009A5CD140C16070BD083802400024F40058
:10398000001BB7009E010020002210B51146032342
:1039900005E000BF02EB420404446354491C0329C0
:1039A000F8D3521C022AFAD300218160C16010BDF5
:1039B00070B5002202EB42048B18055D1E7AB542F9
:1039C00012D100EB8206B568052D02D26D1CB560E0
:1039D00004E02518AE786E701E7AAE701B7A521C09
:1039E0000355022AE6D370BD002500EB8206EEE700
:1039F0000148FFF7C9BF0000B40D0020014601488F
:103A0000FFF7D6BFB40D002010B50446FEF72AF824
:103A10002046BDE81040FEF707B90000024900EB60
:103A20004000084480787047B40D00200A88C2F333
:103A30000A0202804A788B78D20842EA4312C2F323
:103A40000A0242808A78CB78920942EA83020B7993
:103A500042EA8322C2F30A0282800A794B79520831
:103A600042EAC312C2F30A02C2804A799209027280
:103A70004979C1F3011141727047000000214FF4F0
:103A8000806200BF20F81120491CC9B20429F9D373
:103A9000002103224318491CC9B21A720229F9D322
:103AA000704700F04BB800003EB54E22452108207B
:103AB0008DE807001D4CB7EE000A1B4B2246002183
:103AC0001B4801F0E5FB01224021204602F0A2FB49
:103AD00024210020CDE90001174D221D154B510670
:103AE0002846FDF7EDF91349002224312846FDF759
:103AF00027FA01212846FDF719FA01212846FDF78A
:103B0000D5F9012200212520FEF76EFB012240F2AB
:103B10002441204602F0A5FB03B02046BDE830401A
:103B2000012102F0A5BA0000A086010000100140AA
:103B300007040240D01500204064024010B504463E
:103B4000002002F02DFC21460348FDF799F9BDE85D
:103B500010400148FDF7BEBA1C0700200160704705
:103B600000219FED030A416080ED020A70470000CA
:103B7000000000002DE9F04F87B0DFF804841546FF
:103B80000E46FE4A08F10409109909F1040A1C4680
:103B900007460AF1040B91427DD1A8F10400B0EB75
:103BA000172F24D0B8EB172F21D0B9EB172F1ED029
:103BB000BAEB172F1BD0BBEB172F18D00BF104005B
:103BC000B0EB172F13D0001DB0EB172F0FD0001D37
:103BD000B0EB172F0BD0001DB0EB172F07D0001D37
:103BE000B0EB172F03D0001DB0EB172F03D1052129
:103BF0003846FDF7A5FDE24F3F1FB7EB162F24D047
:103C0000B8EB162F21D0B9EB162F1ED0BAEB162F1A
:103C10001BD0BBEB162F18D0D9481030B0EB162FA5
:103C200013D0001DB0EB162F0FD0001DB0EB162FD8
:103C30000BD0001DB0EB162F07D0001DB0EB162FD8
:103C400003D0001DB0EB162F03D105213046FDF740
:103C500077FDB7EB152F26D0B8EB152F23D0B9EB96
:103C6000152F20D0BAEB152F1DD0BBEB152F1AD076
:103C7000C3481030B0EB152F15D0001DB0EB152F39
:103C800011D0001DB0EB152F0DD0001DB0EB152F7E
:103C900009D0001D00E042E0B0EB152F03D0001D5D
:103CA000B0EB152F03D105212846FDF749FDB7EBF1
:103CB000142F24D0B8EB142F21D0B9EB142F1ED021
:103CC000BAEB142F1BD0BBEB142F18D0AC4810301C
:103CD000B0EB142F13D0001DB0EB142F0FD0001D2C
:103CE000B0EB142F0BD0001DB0EB142F07D0001D2C
:103CF000B0EB142F03D0001DB0EB142F03D105211E
:103D00002046FDF71DFD16AC94E80F0002AC84E8D8
:103D10000F00DDE91401CDE90001984843E3994A19
:103D200091427DD19648001FB0EB172F24D0B8EBFD
:103D3000172F21D0B9EB172F1ED0BAEB172F1BD09E
:103D4000BBEB172F18D08E481030B0EB172F13D0C5
:103D5000001DB0EB172F0FD0001DB0EB172F0BD0AD
:103D6000001DB0EB172F07D0001DB0EB172F03D0AD
:103D7000001DB0EB172F03D105213846FDF7E0FCFD
:103D80007F48001FB0EB162F24D0B8EB162F21D0A0
:103D9000B9EB162F1ED0BAEB162F1BD0BBEB162F8C
:103DA00018D077481030B0EB162F13D0001DB0EBB1
:103DB000162F0FD0001DB0EB162F0BD0001DB0EB4F
:103DC000162F07D0001DB0EB162F03D0001DB0EB4F
:103DD000162F03D105213046FDF7B2FC6848001FBD
:103DE000B0EB152F26D0B8EB152F23D0B9EB152F3C
:103DF00020D0BAEB152F1DD0BBEB152F1AD0604881
:103E00001030B0EB152F15D0001DB0EB152F11D0D1
:103E1000001DB0EB152F0DD0001DB0EB152F00E0ED
:103E20004EE007D0001DB0EB152F03D0001DB0EB06
:103E3000152F03D105212846FDF782FC5048001FAD
:103E4000B0EB142F24D0B8EB142F21D0B9EB142FE2
:103E50001ED0BAEB142F1BD0BBEB142F18D0484840
:103E60001030B0EB142F13D0001DB0EB142F0FD077
:103E7000001DB0EB142F0BD0001DB0EB142F07D09A
:103E8000001DB0EB142F03D0001DB0EB142F03D195
:103E900005212046FDF754FC0DF1580C9CE80F005D
:103EA0000DF1080C8CE80F00DDE91401CDE90001EB
:103EB0000DF1440C33489CE80E0000F051FBD7E0B4
:103EC000314881427ED12E48001FB0EB172F24D0FD
:103ED000B8EB172F21D0B9EB172F1ED0BAEB172F45
:103EE0001BD0BBEB172F18D025481030B0EB172F85
:103EF00013D0001DB0EB172F0FD0001DB0EB172F04
:103F00000BD0001DB0EB172F07D0001DB0EB172F03
:103F100003D0001DB0EB172F03D106213846FDF763
:103F20000FFC1748001FB0EB162F24D0B8EB162F4C
:103F300021D0B9EB162F1ED0BAEB162F1BD0BBEB3E
:103F4000162F18D00E481030B0EB162F13D0001DCE
:103F5000B0EB162F0FD0001DB0EB162F0BD0001DAD
:103F6000B0EB162F07D0001DB0EB162F03D0001DAD
:103F7000B0EB162F0CD10621304607E0003001408F
:103F80000402400000380040003C0040FDF7D8FB30
:103F9000FE48B0EB152F26D0B8EB152F23D0B9EB88
:103FA000152F20D0BAEB152F1DD0BBEB152F1AD033
:103FB000F6481430B0EB152F15D0001DB0EB152FBF
:103FC00011D000E054E0001DB0EB152F0BD0001D08
:103FD000B0EB152F07D0001DB0EB152F03D0001D3F
:103FE000B0EB152F03D106212846FDF7A9FBE748C2
:103FF000B0EB142F24D0B8EB142F21D0B9EB142F31
:104000001ED0BAEB142F1BD0BBEB142F18D0DF48F7
:104010001430B0EB142F13D0001DB0EB142F0FD0C1
:10402000001DB0EB142F0BD0001DB0EB142F07D0E8
:10403000001DB0EB142F03D0001DB0EB142F03D1E3
:1040400006212046FDF77CFB0DF1580C9CE80F0083
:104050000DF1080C8CE80F00DDE91401CDE9000139
:104060000DF1440CCA489CE80E0000F079FACDE04E
:10407000C849109888427CD1C448B0EB172F24D08F
:10408000B8EB172F21D0B9EB172F1ED0BAEB172F93
:104090001BD0BBEB172F18D0BC481430B0EB172F38
:1040A00013D0001DB0EB172F0FD0001DB0EB172F52
:1040B0000BD0001DB0EB172F07D0001DB0EB172F52
:1040C00003D0001DB0EB172F03D105213846FDF7B3
:1040D00037FBAE48B0EB162F24D0B8EB162F21D00B
:1040E000B9EB162F1ED0BAEB162F1BD0BBEB162F39
:1040F00018D0A6481430B0EB162F13D0001DB0EB2B
:10410000162F0FD0001DB0EB162F0BD0001DB0EBFB
:10411000162F07D0001DB0EB162F03D0001DB0EBFB
:10412000162F03D105213046FDF70AFB9748B0EB67
:10413000152F26D0B8EB152F23D0B9EB152F20D093
:10414000BAEB152F1DD0BBEB152F1AD08F481430AA
:10415000B0EB152F15D0001DB0EB152F11D0001DA1
:10416000B0EB152F0DD0001DB0EB152F09D0001DA1
:1041700000E04BE0B0EB152F03D0001DB0EB152F86
:1041800003D105212846FDF7DBFA8048B0EB142F58
:1041900024D0B8EB142F21D0B9EB142F1ED0BAEBDA
:1041A000142F1BD0BBEB142F18D078481430B0EB71
:1041B000142F13D0001DB0EB142F0FD0001DB0EB47
:1041C000142F0BD0001DB0EB142F07D0001DB0EB47
:1041D000142F03D0001DB0EB142F03D1052120466E
:1041E000FDF7AEFA0DF1580C9CE80F000DF1080C2C
:1041F0008CE80F00DDE91401CDE900010DF1440C5C
:1042000064489CE80E0000F0ABF9CDE062491098DC
:1042100088427DD15D48B0EB172F24D0B8EB172F23
:1042200021D0B9EB172F1ED0BAEB172F1BD0BBEB49
:10423000172F18D055481430B0EB172F13D0001D8E
:10424000B0EB172F0FD0001DB0EB172F0BD0001DB8
:10425000B0EB172F07D0001DB0EB172F03D0001DB8
:10426000B0EB172F03D105213846FDF769FA474F08
:10427000B7EB162F24D0B8EB162F21D0B9EB162FA1
:104280001ED0BAEB162F1BD0BBEB162F18D03F4811
:104290001430B0EB162F13D0001DB0EB162F0FD03B
:1042A000001DB0EB162F0BD0001DB0EB162F07D062
:1042B000001DB0EB162F03D0001DB0EB162F03D15D
:1042C00005213046FDF73CFAB7EB152F26D0B8EBA9
:1042D000152F23D0B9EB152F20D0BAEB152F1DD0F9
:1042E000BBEB152F1AD029481430B0EB152F15D081
:1042F000001DB0EB152F11D0001DB0EB152F0DD008
:10430000001DB0EB152F09D0001DB0EB152F00E0FC
:104310004AE003D0001DB0EB152F03D1052128463C
:10432000FDF70EFAB7EB142F24D0B8EB142F21D0E1
:10433000B9EB142F1ED0BAEB142F1BD0BBEB142FEC
:1043400018D012481430B0EB142F13D0001DB0EB6E
:10435000142F0FD0001DB0EB142F0BD0001DB0EBAD
:10436000142F07D0001DB0EB142F03D0001DB0EBAD
:10437000142F03D105212046FDF7E2F916AC94E88D
:104380000F0002AC84E80F0008E0000000024000CB
:10439000003C00400034014000500140DDE91401C0
:1043A000CDE900016648C2E06649109888427DD197
:1043B0006548B0EB172F24D0B8EB172F21D0B9EBFD
:1043C000172F1ED0BAEB172F1BD0BBEB172F18D00F
:1043D0005D481430B0EB172F13D0001DB0EB172F32
:1043E0000FD0001DB0EB172F0BD0001DB0EB172F17
:1043F00007D0001DB0EB172F03D0001DB0EB172F17
:1044000003D105213846FDF79BF94F4FB7EB162F27
:1044100024D0B8EB162F21D0B9EB162F1ED0BAEB53
:10442000162F1BD0BBEB162F18D047481430B0EB1B
:10443000162F13D0001DB0EB162F0FD0001DB0EBC0
:10444000162F0BD0001DB0EB162F07D0001DB0EBC0
:10445000162F03D0001DB0EB162F03D105213046D7
:10446000FDF76EF9B7EB152F26D0B8EB152F23D03B
:10447000B9EB152F20D0BAEB152F1DD0BBEB152FA4
:104480001AD031481430B0EB152F15D0001DB0EB09
:10449000152F11D0001DB0EB152F0DD0001DB0EB66
:1044A000152F09D0001DB0EB152F00E044E003D01C
:1044B000001DB0EB152F03D105212846FDF740F96B
:1044C000B7EB142F24D0B8EB142F21D0B9EB142F55
:1044D0001ED0BAEB142F1BD0BBEB142F18D01A48E8
:1044E0001430B0EB142F13D0001DB0EB142F0FD0ED
:1044F000001DB0EB142F0BD0001DB0EB142F07D014
:10450000001DB0EB142F03D0001DB0EB142F03D10E
:1045100005212046FDF714F916AC94E80F0002AC13
:1045200084E80F00DDE91401CDE90001054811AC74
:1045300094E80E0000F014F807B0BDE8F08F00001A
:104540000050014000540140000240000029018851
:1045500002D041F0400101E021F0400101807047AC
:104560002DE9F04F85B091468A460446264A2749F0
:104570002748284D284E294FDDF848B098469442E8
:1045800002D10121801418E08C4204D1012188035A
:10459000FFF798F906E0844204D10121C803FFF730
:1045A00091F906E0AC4204D101214803FFF796F9E6
:1045B00006E0B44204D101210805FFF78FF904E0B9
:1045C000BC4202D101214805F7E7ADF802A0ADF8E1
:1045D00004800E98ADF80090ADF806000F98ADF885
:1045E00008001098ADF80A001198ADF80C00139867
:1045F000ADF81000ADF80EB06946204600F010F896
:1046000005B0BDE8F08F00000030014000380040E8
:10461000003C004000340140005001400054014083
:1046200030B502884C8802F441530A88CD88224371
:104630008C882C4322430C8922434C8922438C8949
:104640002243CC8922431A430280828B22F40062E7
:104650008283098A018230BD00F036B938B504463C
:104660000068FDF766F90448009008230022012144
:104670006068FCF7A7FE38BD9946000870B5054D87
:10468000002400BF05EBC400FFF7E8FF641C042C06
:10469000F8D370BD6467000830B400230122164CC3
:1046A0008240194604EBC3052D7905F00F058542BC
:1046B0001BD1124C256804F10400154207D0216873
:1046C00091432160016811430160012109E00568FF
:1046D000154206D0016891430160206810432060B4
:1046E000002130BC1846FFF7B7BF5B1CDBB2042BC0
:1046F000D8D330BC7047000064670008083C014014
:104700007047000010B58A0721F003040849130F11
:1047100021440F22D1F808489A409443C1F8084830
:10472000D1F8082898400243C1F8082810BD0000BD
:1047300000300140044800210160406801E08160D0
:1047400000690028FBD170470000002070B50A4DB9
:10475000D5E90004401C28600AE0A0682968081A0E
:104760006168814203D8206880472868A060246976
:10477000002CF2D170BD0000000000201CB500200C
:104780002E49019000900A6842F480320A604FF48A
:10479000A0430A6802F400320092019A521C01926E
:1047A000009A12B9019A9A42F3D10A68920342D54B
:1047B0000120009021484030026842F0805202609F
:1047C0001F48026842F4404202601C4A08321368E3
:1047D0001360136843F400431360136843F4A05359
:1047E0001360141F174B23600B6843F080730B603A
:1047F0000B689B01FCD5016841F480310160416880
:10480000C903FCD5016841F40031016041688903A6
:10481000FCD50D4940F205700860106820F00300D7
:104820001060106840F0020010601068C0F3810052
:104830000228FAD11CBD00901CBD000000380240C7
:10484000007000400C5A4007003C02400248002122
:1048500001704160704700003001002001490120D3
:10486000087070473001002001490020087070472F
:104870003001002010B58AB01148FDF75AF8002029
:104880000A213022CDE9080107924FF4007302900B
:1048900003900490CDE905034FF48270094C084B56
:1048A000CDE90040DB1C5A1E511E0020FFF762F9C3
:1048B0000AB02046BDE810400121FFF747BE0000C6
:1048C000061402400050014070B50D4604003CD073
:1048D000012C3CD0022C3CD0032C3CD0042C33D2F5
:1048E000214804EB440101EBC40100EBC104012D9C
:1048F00035D0002D28D1E06B401CE063FCF709FAAD
:10490000E064A16CDFED190A401A00EE100A206580
:10491000B8EE400A20EE200ABCEEC00A10EE100AE3
:1049200080B200EE100AA4F854002046B8EE400A07
:10493000FDF74EFBBCEEC00A10EE100AA4F85600BC
:104940005FF0000084F8380070BD122004E01320EE
:1049500002E0142000E0152001F022FDC0E7FCF782
:10496000D8F9A0640320EDE7C40D0020C520303E37
:1049700070B5104C0026104D2660206800EB4001F9
:1049800001EBC00005EBC0005821FBF744FC206898
:104990000A2200EB400101EBC00005EBC00000F172
:1049A0001001FDF711FB2068401C20600428E4D3AF
:1049B000266070BD3C010020C40D0020FFF7C6BE7C
:1049C0001CB500200090024601904FF47A735921E3
:1049D000054800F095F802B000220121BDE8104022
:1049E0003620FDF701BC00000010004010B5084C57
:1049F0000121204600F074F801221146204600F003
:104A00002DF92046BDE81040012100F06FB80000EC
:104A100000100040124810B5016841F470010160B7
:104A20001048016841F0010101600E4A002108327E
:104A3000116002680C4B1A400260031D0B4A1A6099
:104A4000026822F48022026006480C300160FFF701
:104A500095FE03494FF000608039086010BD0000EA
:104A600088ED00E000380240FFFFF6FE1030002421
:104A700010B501218C07204600F0E4F800280BD087
:104A80000121204600F02FF80121204600F028F8EF
:104A9000BDE8104000F068BA10BD000010B50A4C27
:104AA0000121204600F0CEF800280BD0012120463D
:104AB00000F019F80121204600F012F8BDE810407E
:104AC000FFF77CBF10BD00000010004000290188E6
:104AD00002D041F0800101E021F0800101807047A7
:104AE000C94301827047C943018270470029018888
:104AF00002D041F0010101E021F001010180704785
:104B00002DE9FF4F434904464348444D444EDFF8E6
:104B10001481DFF81491DFF814A1DFF814B183B029
:104B20004FEAB1478C4204D101210846FEF7D6FE78
:104B30000CE0B4F1804F06D0844207D1012102205D
:104B4000FEF7C0FE09E00121084645E0AC4204D171
:104B500001210420FEF7B6FE06E0B44204D1012193
:104B60000820FEF7AFFE06E0BC4204D10121102070
:104B7000FEF7A8FE06E0444504D101212020FEF7FF
:104B8000A1FE06E04C4504D101210220FEF7A6FE5D
:104B900006E0544504D101210804FEF79FFE06E01B
:104BA0005C4504D101214804FEF798FE07E0214846
:104BB000844204D101218804FEF790FE07E01E48DC
:104BC000844204D101214020FEF77CFE07E01B480F
:104BD000844204D101218020FEF774FE05E01848CC
:104BE000844202D101218015F6E70498ADF8000057
:104BF0000598ADF80200069801901098ADF80800ED
:104C000011988DF80A006946204600F06FF907B048
:104C1000BDE8F08F000001400004004000080040A3
:104C2000000C00400014004000040140004001401E
:104C3000004401400048014000180040001C0040B2
:104C40000020004002460020138A92890B4202EAAB
:104C5000010202D0002A00D001207047002A828978
:104C600001D00A4300E08A438281704730B5028C4C
:104C700022F001020284028C8388048B22F002025B
:104C800024F073050C882C438D8915434A882A43E8
:104C90000C4DA84202D00C4DA8420DD122F00805BF
:104CA000CA8923F440732A4322F004058A882A43E0
:104CB0000D8A1D434B8A2B4383800483896841639B
:104CC000028430BD0000014000040140028B22F04C
:104CD00008020A430283704770B5028C22F010026A
:104CE0000284028C8488038B0D8823F4E6464FF6F9
:104CF000FF7303EA052535438E8922F0200203EA7B
:104D0000061616434A8803EA02123243104EB04296
:104D100002D0104EB04215D122F08006CA8924F488
:104D2000406403EA0212324322F040068A8803EA12
:104D3000021232430E8A03EA860626434C8A03EAAD
:104D4000840434438480058389688163028470BD50
:104D50000000014000040140028B4FF6FF7322F473
:104D6000006203EA012111430183704770B5028C90
:104D700022F480720284028C8488838B0D8823F055
:104D800073031D4322F400738E894FF6FF7202EA0B
:104D900006261E434B8802EA03233343104EB042DB
:104DA00002D0104EB04215D123F40066CB8924F412
:104DB000405402EA0323334323F480668B8802EADB
:104DC000032333430E8A02EA061626434C8A02EA7C
:104DD00004143443848085838968C163038470BD6F
:104DE0000000014000040140828B22F008020A43C7
:104DF0008283704770B5028C22F480520284048C46
:104E00008288838B0D8823F4E6464FF6FF7303EA0E
:104E10000525354324F400568C8903EA04343443D1
:104E20004E8803EA06362643084CA04202D0084CBE
:104E3000A04205D122F480440A8A03EA8212224366
:104E40008280858389680164068470BD000001400A
:104E500000040140828B4FF6FF7322F4006203EAE4
:104E6000012111438183704730B585B00546ADF807
:104E7000002001200C46ADF8020000210220ADF810
:104E80000C00ADF81010C001ADF81200ADF8041020
:104E90000293ADF80E10E00707D069462846FFF7E9
:104EA000E5FE08212846FFF711FFA00707D5694650
:104EB0002846FFF711FF08212846FFF74DFF60073E
:104EC00007D569462846FFF751FF08212846FFF716
:104ED0008BFF200707D569462846FFF78BFF08217F
:104EE0002846FFF7B7FF05B030BD000030B5028897
:104EF000164B174C98420DD0A0420BD0B0F1804F0A
:104F000008D0144DA84205D0134DA84202D0134D2D
:104F1000A84203D122F070054A882A43104DA842C6
:104F200006D0104DA84203D022F440750A892A43C6
:104F300002804A68C2620A880285984201D0A04273
:104F400001D1897A01860121818230BD00000140B2
:104F5000000401400004004000080040000C004034
:104F6000001000400014004070471CB5002059217B
:104F70000090431E02468C0701902046FFF7C0FDBB
:104F800001212046FFF7A2FD02B00022BDE810403B
:104F900011461C20FDF728B910B501218C072046C9
:104FA000FFF79EFD012211462046FFF757FE2046DF
:104FB000BDE810400121FFF799BD10B5FFF7D5FFFF
:104FC000BDE81040FFF7FCBC10B5FFF7E5FFBDE8FA
:104FD0001040FFF70BBD00F039B800003EB54E2081
:104FE0000821CDE90010154C15490290B7EE000AD2
:104FF0004FF4E1332246481D00F04AF9012240F205
:105000002551204601F02DF9012211464720FDF7D8
:10501000EBF80C49A5152A46A1F12800FCF70DFB79
:1050200009492A46A1F58A70FCF707FB03B0204620
:10503000BDE83040012101F01BB800000014014020
:10504000091802408016002080170020012001F07E
:10505000A7B9000070B5194C40F22441204601F078
:10506000E1F8002829D0164D2088A088154C002191
:105070002046FBF71BFF2046FBF76DFFC0F1240025
:1050800086B22420211D08602046FBF767FF78B117
:105090002068243520F40020206001212046FBF701
:1050A00005FF122E09D12846BDE87040FEF7F9BC75
:1050B000206840F400202060EFE770BD0010014040
:1050C000D0150020406402407CB5234D40F2277685
:1050D0003146284601F0A6F80024C0B11F48FCF76D
:1050E000B0FA38B102B031462846BDE8704000221F
:1050F00001F0B7B88DF80040012269461748FCF767
:10510000AEFA9DF80010284601F01EF97CBD40F271
:105110002551284601F086F80028F7D0284601F0EE
:105120000FF98DF800000D481438FCF790FA38B1EB
:105130000A488DF80440012201A91438FCF78FFABF
:105140000648012269461438FCF7A3FA9DF80000CE
:10515000FBF736F97CBD00000044004094110020AC
:105160007CB5234D40F227763146284601F05AF8A7
:105170000024C0B11F48FCF764FA38B102B03146D0
:105180002846BDE87040002201F06BB88DF8004061
:10519000012269461748FCF762FA9DF8001028467C
:1051A00001F0D2F87CBD40F22551284601F03AF8D2
:1051B0000028F7D0284601F0C3F88DF800000D480C
:1051C0001438FCF744FA38B10A488DF8044001223B
:1051D00001A91438FCF743FA06480122694614383D
:1051E000FCF757FA9DF80000FBF7EAFE7CBD0000D3
:1051F00000480040BC1300207CB5234D40F22776C8
:105200003146284601F00EF80024C0B11F48FCF7D3
:1052100018FA38B102B031462846BDE87040002285
:1052200001F01FB88DF80040012269461748FCF7CD
:1052300016FA9DF80010284601F086F87CBD40F271
:105240002551284600F0EEFF0028F7D0284601F04F
:1052500077F88DF800000D481438FCF7F8F938B1EC
:105260000A488DF80440012201A91438FCF7F7F927
:105270000648012269461438FCF70BFA9DF8000035
:10528000FFF7A9FE7CBD0000001401406C16002051
:105290002DE9FF4F0C462DED020B05462DED028B3F
:1052A00083B0B0EE408ADDE91576FE49DFF8F89369
:1052B000099809F1040A0AF1040B88427ED1A9F188
:1052C0000400B0EB152F25D0B9EB152F22D0BAEB87
:1052D000152F1FD0BBEB152F1CD00BF10401B1EB28
:1052E000152F17D0091DB1EB152F13D0091DB1EBE8
:1052F000152F0FD0091DB1EB152F0BD0091DB1EBE8
:10530000152F07D0091DB1EB152F03D0091DB1EBE7
:10531000152F38D1B0EB142F25D0B9EB142F22D094
:10532000BAEB142F1FD0BBEB142F1CD0DE490C316D
:10533000B1EB142F17D0091DB1EB142F13D0091D99
:10534000B1EB142F0FD0091DB1EB142F0BD0091D99
:10535000B1EB142F07D0091DB1EB142F03D0091D99
:10536000B1EB142F0FD107212846FCF7E9F90721EB
:105370002046FCF7E5F9CDE90076B0EE480A202199
:10538000149B0A9A6DE0B0EB152F2DD0B9EB152FB9
:105390002AD0BAEB152F27D0BBEB152F24D0C24B48
:1053A0000C33B3EB152F1FD003F1040EBEEB152FFA
:1053B0001AD00EF10403B3EB152F00E055E013D023
:1053C00003F1040CBCEB152F0ED00CF10408B8EB64
:1053D000152F09D008F10408B8EB152F04D008F1F7
:1053E0000408B8EB152F0BD107212846FCF7A8F9C4
:1053F000CDE90076B0EE480A7221149B0A9A30E09B
:10540000B0EB142F22D0B9EB142F1FD0BAEB142F0E
:105410001CD0BBEB142F19D0A3480C30B0EB142FC9
:1054200014D0BEEB142F11D0B3EB142F0ED0BCEB65
:10543000142F0BD09C481C30B0EB142F06D0001D4D
:10544000B0EB142F02D0B8EB142F76D107212046F1
:10545000FCF776F9CDE90076149B0A9AB0EE480A7B
:105460007421904800F00EFED8E001468F4881423A
:105470007DD18D48001FB0EB152F25D0B9EB152F2E
:1054800022D0BAEB152F1FD0BBEB152F1CD08649AD
:105490000C31B1EB152F17D0091DB1EB152F13D01F
:1054A000091DB1EB152F0FD0091DB1EB152F0BD036
:1054B000091DB1EB152F07D0091DB1EB152F03D036
:1054C000091DB1EB152F39D1B0EB142F25D0B9EB55
:1054D000142F22D0BAEB142F1FD0BBEB142F1CD0EB
:1054E00071490C31B1EB142F17D0091DB1EB142FFA
:1054F00013D0091DB1EB142F0FD0091DB1EB142FE0
:105500000BD0091DB1EB142F07D0091DB1EB142FDF
:1055100003D0091DB1EB142F10D107212846FCF749
:105520000FF907212046FCF70BF9CDE90076B0EE24
:10553000480A2021149B0A9A6CE0FDE3B0EB152F7A
:105540002DD0B9EB152F2AD0BAEB152F27D0BBEBF6
:10555000152F24D0544A0C32B2EB152F1FD002F174
:10556000040EBEEB152F1AD00EF1040300E055E037
:10557000B3EB152F13D003F1040CBCEB152F0ED099
:105580000CF10408B8EB152F09D008F10408B8EBAA
:10559000152F04D008F10408B8EB152F0BD1072103
:1055A0002846FCF7CDF8CDE90076B0EE480A722126
:1055B000149B0A9A2EE0B0EB142F20D0B9EB142FD5
:1055C0001DD0BAEB142F1AD0BBEB142F17D0B2EBAF
:1055D000142F14D0BEEB142F11D0B3EB142F0ED018
:1055E000BCEB142F0BD030481C30B0EB142F06D07E
:1055F000001DB0EB142F02D0B8EB142F0DD10721F2
:105600002046FCF79DF8CDE90076149B0A9AB0EE8F
:10561000480A7421254800F035FDE1E02449099845
:1056200088427DD12048001FB0EB152F25D0B9EB63
:10563000152F22D0BAEB152F1FD0BBEB152F1CD086
:1056400019490C31B1EB152F17D0091DB1EB152FEE
:1056500013D0091DB1EB152F0FD0091DB1EB152F7C
:105660000BD0091DB1EB152F07D0091DB1EB152F7C
:1056700003D0091DB1EB152F41D1B0EB142F2ED063
:10568000B9EB142F2BD0BAEB142F28D0BBEB142F6F
:1056900025D005490C31B1EB142F20D0091DB1EBF9
:1056A000142F07E0001001400402400000440040B5
:1056B0000048004013D0091DB1EB142F0FD0091D75
:1056C000B1EB142F0BD0091DB1EB142F07D0091D1E
:1056D000B1EB142F03D0091DB1EB142F0FD107210B
:1056E0002846FCF72DF807212046FCF729F8CDE9DC
:1056F0000076B0EE480A2021149B0A9A6CE0B0EBC9
:10570000152F2CD0B9EB152F29D0BAEB152F26D099
:10571000BBEB152F23D0DFF878E4BEEB152F00E0AC
:105720005EE01CD00EF10403B3EB152F17D01B1D48
:10573000B3EB152F13D003F1040CBCEB152F0ED0D7
:105740000CF10408B8EB152F09D008F10408B8EBE8
:10575000152F04D008F10408B8EB152F0BD1072141
:105760002846FBF7EDFFCDE90076B0EE480A72213E
:10577000149B0A9A30E0B0EB142F22D0B9EB142F0F
:105780001FD0BAEB142F1CD0BBEB142F19D0BEEBDB
:10579000142F16D0FE48001DB0EB142F11D0B3EB20
:1057A000142F0ED0BCEB142F0BD0F9481030B0EBF7
:1057B000142F06D0001DB0EB142F02D0B8EB142F1D
:1057C0000DD107212046FBF7BBFFCDE90076149BE6
:1057D0000A9AB0EE480A7421EE4800F053FCD6E075
:1057E000ED48099981427CD1E9481038B0EB152F7A
:1057F00024D0B9EB152F21D0BAEB152F1ED0BBEB5F
:10580000152F1BD0E249B1EB152F17D0091DB1EBB5
:10581000152F13D0091DB1EB152F0FD0091DB1EBBA
:10582000152F0BD0091DB1EB152F07D0091DB1EBBA
:10583000152F03D0091DB1EB152F37D1B0EB142F65
:1058400024D0B9EB142F21D0BAEB142F1ED0BBEB10
:10585000142F1BD0CE49B1EB142F17D0091DB1EB7B
:10586000142F13D0091DB1EB142F0FD0091DB1EB6C
:10587000142F0BD0091DB1EB142F07D0091DB1EB6C
:10588000142F03D0091DB1EB142F0FD10821284686
:10589000FBF756FF08212046FBF752FFCDE90076C3
:1058A000B0EE480A2021149B0A9A6CE0B0EB152F49
:1058B0002CD0B9EB152F29D0BAEB152F26D0BBEB86
:1058C000152F23D0DFF8C8E2BEEB152F1ED00EF146
:1058D0000403B3EB152F19D01B1DB3EB152F15D0F7
:1058E00000E054E003F1040CBCEB152F0ED00CF1DA
:1058F0000408B8EB152F09D008F10408B8EB152FF0
:1059000004D008F10408B8EB152F0BD10821284664
:10591000FBF716FFCDE90076B0EE480A7221149B22
:105920000A9A30E0B0EB142F22D0B9EB142F1FD01D
:10593000BAEB142F1CD0BBEB142F19D0BEEB142FD5
:1059400016D09348001DB0EB142F11D0B3EB142FD9
:105950000ED0BCEB142F0BD08D481030B0EB142FB1
:1059600006D0001DB0EB142F02D0B8EB142F0DD1D0
:1059700008212046FBF7E4FECDE90076149B0A9A45
:10598000B0EE480A7421844800F07CFBD6E08348DE
:10599000099981427ED17E481038B0EB152F24D072
:1059A000B9EB152F21D0BAEB152F1ED0BBEB152F5D
:1059B0001BD07749B1EB152F17D0091DB1EB152F6F
:1059C00013D0091DB1EB152F0FD0091DB1EB152F09
:1059D0000BD0091DB1EB152F07D0091DB1EB152F09
:1059E00003D0091DB1EB152F37D1B0EB142F24D004
:1059F000B9EB142F21D0BAEB142F1ED0BBEB142F10
:105A00001BD06349B1EB142F17D0091DB1EB142F34
:105A100013D0091DB1EB142F0FD0091DB1EB142FBA
:105A20000BD0091DB1EB142F07D0091DB1EB142FBA
:105A300003D0091DB1EB142F0FD108212846FBF725
:105A40007FFE08212046FBF77BFECDE90076B0EE15
:105A5000480A2021149B0A9A6CE0B0EB152F2CD039
:105A6000B9EB152F29D0BAEB152F26D0BBEB152F8C
:105A700023D0DFF81CE1BEEB152F1ED00EF104037E
:105A8000B3EB152F19D01B1DB3EB152F15D003F158
:105A9000040C00E052E0BCEB152F0ED00CF1040812
:105AA000B8EB152F09D008F10408B8EB152F04D076
:105AB00008F10408B8EB152F0BD108212846FBF795
:105AC0003FFECDE90076B0EE480A7221149B0A9A97
:105AD00030E0B0EB142F22D0B9EB142F1FD0BAEB6B
