:020000040800F2
:10000000080500209D01000825160008BD15000800
:1000100021160008F50600082F180008000000004F
:100020000000000000000000000000008116000831
:10003000DD140008000000003D160008B5010008AE
:10004000B7010008B7010008B7010008B7010008B0
:10005000B7010008B7010008B7010008B7010008A0
:10006000B7010008B7010008B7010008B701000890
:10007000390E0008D110000825120008B701000849
:100080004D120008B1120008B7010008B7010008BE
:10009000ED070008B7010008B7010008B701000824
:1000A000B7010008ED170008B7010008B701000804
:1000B000B7010008B7010008B7010008B701000840
:1000C000B7010008B7010008B7010008B701000830
:1000D000B7010008B7010008B7010008B701000820
:1000E000B7010008B7010008B7010008B701000810
:1000F000B7010008B7010008B7010008B701000800
:10010000B7010008B7010008B7010008B7010008EF
:10011000B7010008B7010008B7010008B7010008DF
:10012000B7010008B7010008DD120008B701000898
:10013000B7010008B7010008B7010008B7010008BF
:10014000B7010008B7010008B7010008B7010008AF
:10015000B7010008B7010008B7010008B70100089F
:10016000B7010008B7010008B7010008B70100088F
:10017000B7010008B7010008B7010008B70100087F
:10018000B7010008B7010008DFF80CD000F0A0FAB2
:1001900000480047891800080805002006488047E5
:1001A00006480047FEE7FEE7FEE7FEE7FEE7FEE75C
:1001B000FEE7FEE7FEE7FEE7851700088901000875
:1001C0002DE9FE4F804681EA0300C00F0C460090E7
:1001D00021F0004123F00045B8EB0200A94105D20F
:1001E0004046214690461C460B46024623F00040FE
:1001F000104347D0270DC7F30A00C3F30A510290FA
:10020000401A019040286BDAC3F3130040F4801BBE
:100210000098924620B10023D2EB030A63EB0B0B4C
:1002200001985946C0F14002504600F08BF906464D
:100230000D4650465946019A00F0A3F910EB08000C
:100240006141002487EA115284EAE7731A4340D0DF
:10025000009A62B3019A012A4FEA075215DC001B8B
:1002600061EB02014FF0004202EA0752CDE9004281
:10027000001C41F5801132462B4600F0DAF903B03C
:10028000BDE8F08F40462146F9E7001B61EB020113
:10029000001C41F5801300185B412018A2F50017DF
:1002A00047EB030140EAD570B6196D4111E06D08C6
:1002B0004FEA360645EAC0754FEA0752001B61EB6C
:1002C0000201001C41F5801149084FEA3000001975
:1002D000514132462B4603B0BDE8F04F00F09AB9C9
:1002E0000098012240000023D0EB020263EBE07390
:1002F000009821464FEAE074B8EB000061EB04017E
:10030000E9E783F000435BE781F0004158E72DE91E
:10031000FE4F81EA030404F0004421F00041009400
:100320004FF0000B23F0004350EA01045ED052EA84
:1003300003045BD0C3F30A54C1F30A552C44A4F25E
:10034000F3340194A0FB0254C1F3130141F4801172
:10035000C3F3130343F4801301FB024400FB034E79
:10036000840A970A44EA815447EA8357A4FB076842
:1003700002958D0A05FB07854FEA932C04FB0C546C
:100380002705029D4FEA065847EA1637B5EB0805E0
:100390006EEB070C870E920E47EA811742EA831232
:1003A000A7FB0201B6EB0B0164EB00042B0D43EA43
:1003B0000C335E1844EB1C50DA465146E7FB020151
:1003C000C5F313044FEA0B3343EA14534FEA0432E4
:1003D000019C43EA0603A4F10C040294009CCDE9BD
:1003E00000B400F026F903B0BDE8F08F002001460C
:1003F000F9E72DE9F04D81EA030404F0004B21F008
:10040000004514464FF0000A23F0004150EA05026F
:1004100020D054EA01021DD0C5F30A570246C5F3A5
:100420001303C1F31300C1F30A5640F4801543F4DB
:100430008013A7EB0608101BD64608F2FD3873EBB5
:10044000050002D308F1010801E092185B41B8F100
:10045000000F03DA00200146BDE8F08D00204FF4C4
:100460008011064684460EE0171B73EB050705D383
:10047000121B63EB050306434CEA010C49084FEAE3
:10048000300092185B4150EA0107EDD152EA0300B7
:1004900012D082EA040083EA0501084305D0101B4C
:1004A000AB4106D20122002306E000224FF00043B8
:1004B00002E06FF0010253101AEB06004CEB0851FA
:1004C00010EB0A0041EB0B01BDE8F04D00F0A2B8C3
:1004D0000EB5C10F80EAE0700844CA07002140F25F
:1004E00033438DE80E000A460B4600F0A2F803B035
:1004F00000BD0EB540F2334102910021CDE900115B
:100500000A460B4600F095F803B000BD01F0004329
:1005100030B421F0004150EA010206D00A0DA2F5E4
:100520006072C1F31301002A02DC30BC0020704766
:10053000440F44EAC104C100E01830BC00EBC250D3
:1005400000F031B8202A04DB203A00FA02F1002042
:1005500070479140C2F1200320FA03F31943904001
:100560007047202A04DB203A21FA02F0002170476C
:1005700021FA02F3D040C2F120029140084319460B
:100580007047202A06DBCB17203A41FA02F043EAF3
:10059000E07306E041FA02F3D040C2F1200291403C
:1005A0000843194670470029A8BF7047401C4900FE
:1005B00008BF20F00100704710B4B0FA80FC00FAC8
:1005C0000CF050EA010404BF10BC704749B1CCF1F3
:1005D000200421FA04F411FA0CF118BF012121437F
:1005E0000843A3EB0C01CB1D4FEA00614FEA10203A
:1005F00042BF002010BC704700EBC35010440029DC
:10060000A4BF10BC7047401C490008BF20F0010087
:1006100010BC704710B5141E73F1000408DA401CBA
:1006200041F1000192185B411A4301D120F0010011
:1006300010BD2DE9F04D92469B4611B1B1FA81F201
:1006400002E0B0FA80F220329046FFF77BFF0446CA
:100650000F4640EA0A0041EA0B0153465A46084356
:1006600013D0114653EA010019D0C8F14002504698
:10067000FFF777FF05460E46504659464246FFF7BC
:1006800061FF084305D0012004E020463946BDE85B
:10069000F08D0020054346EAE0762C4337430A9864
:1006A0006305E40AA0EB08000022FD0A44EA47546F
:1006B0000A3002D500200146E9E701051019694119
:1006C000DDE9084500196941BDE8F04DA2E70000E9
:1006D000064C074D06E0E06840F0010394E807008F
:1006E00098471034AC42F6D3FFF752FDD8180008F3
:1006F000F818000800BFFEE7F0B585B004460D46C7
:1007000016461F464FF40070009000208DF8080038
:100710008DF8090008208DF80A00200A8DF80B00DA
:10072000E1B28DF80C10290A8DF80D10E9B28DF8A0
:100730000E10310A8DF80F10F1B28DF81010390A31
:100740008DF81110F9B28DF812106946024800F0C8
:10075000D7FA05B0F0BD00000064004000B585B0D8
:100760000121082000F06CFF0121480600F078FF0D
:100770000320009002208DF804008DF80500002071
:100780008DF806008DF807006946164800F0A7FEB0
:1007900009220021134800F0EAFE09220121114834
:1007A00000F0E5FE00208DF80E008DF80F008DF8AA
:1007B00010008DF8120001208DF8130000208DF834
:1007C0000A008DF80B0008208DF80C0004208DF82D
:1007D0000D000320ADF8080002A9034800F08EF9CF
:1007E00005B000BD000C02400064004000B585B0BB
:1007F00002214E4800F0F2F800287DD002214B483B
:1008000000F098F86A460021484800F001FA009884
:10081000A0F2012030B1012822D002283ED00328C6
:100820007BD159E09DF80C009DF80B1040EA0120A7
:100830003F4908809DF80E109DF80D0041EA002008
:1008400000B23B4948809DF810109DF80F0041EA26
:10085000002000B2364988809DF81100C8805DE014
:100860009DF80C009DF80B1040EA012030490881EA
:100870009DF80E109DF80D0041EA002001B22C48B1
:1008800041819DF810109DF80F0041EA002001B24F
:10089000274881819DF81110C1813FE09DF80C002F
:1008A0009DF80B1040EA0120214908829DF80E10A6
:1008B0009DF80D0041EA002001B21D4841829DF8DB
:1008C00010109DF80F0041EA002001B21848818203
:1008D0009DF81110C18221E09DF80C009DF80B10CD
:1008E00040EA0120124908839DF80E109DF80D0082
:1008F00041EA002001B201E015E00EE00C4841831E
:100900009DF810109DF80F0041EA002001B2084840
:1009100081839DF81110C18300E000BF00BF022158
:10092000024800F007F805B000BD00000064004078
:10093000E4000020B1F5007F3AD00FDC202928D058
:1009400006DC01291CD004291DD0082940D11DE056
:10095000402921D0B1F5807F3AD126E0B1F5004F92
:1009600031D006DCB1F5806F25D0B1F5006F2FD105
:1009700024E0B1F5803F12D0B1F5003F28D111E05D
:10098000154A826025E00822C26022E01022C2607F
:100990001FE0082202611CE01022026119E0082217
:1009A000426016E01022426013E00422426010E030
:1009B000042242600DE0042242600AE000228261CB
:1009C0000422426005E0002282610422426000E0CD
:1009D00000BF00BF704700000101010070B5044670
:1009E0000D46002660692840002871D0B5F5807F4B
:1009F0005CD010DC082D35D006DC012D20D0022D76
:100A000024D0042D72D127E0102D31D0202D35D0E7
:100A1000402D6BD138E0B5F5004F60D009DCB5F55D
:100A2000007F49D0B5F5806F4CD0B5F5006F5DD132
:100A30004FE0B5F5803F2DD0B5F5003F56D12FE002
:100A4000A0682D4900F0EFF9064651E0E068032167
:100A500000F0E9F906464BE0E068082100F0E3F910
:100A6000064645E0E068102100F0DDF906463FE06B
:100A70002069032100F0D7F9064639E020690821F2
:100A800000F0D1F9064633E02069102100F0CBF9DF
:100A900006462DE06068082100F0C5F9064627E00B
:100AA0006068102100F0BFF9064621E0A06901212D
:100AB00000F0B9F906461BE0A069022100F0B3F985
:100AC000064615E0A069042100F0ADF906460FE0E6
:100AD0000FE0A069702100F0A6F9064608E0606802
:100AE000042100F0A0F9064602E0FFE7002600BF5F
:100AF00000E00026304670BD0101010030B502461D
:100B000000200023146824F002041460146844F0E8
:100B10000104146000E05B1C546804F001041CB97B
:100B20004FF6FF74A342F6D1546804F001040CB9E7
:100B300000206CE08C79012C04D1146844F080040E
:100B4000146003E0146824F080041460CC79012C54
:100B500004D1146844F04004146003E0146824F0E5
:100B6000400414600C7A012C04D1146844F0200471
:100B7000146003E0146824F0200414604C7A012C03
:100B800004D1146844F01004146003E0146824F0E5
:100B9000100414608C7A012C04D1146844F0080409
:100BA000146003E0146824F008041460CC7A012C6B
:100BB00004D1146844F00404146003E0146824F0C1
:100BC000040414608C78A407CD7844EA05640D7998
:100BD00044EA05444D7944EA05540D886D1E2C43C2
:100BE000D461146824F001041460002300E05B1C4D
:100BF000546804F001041CB14FF6FF74A342F6D10F
:100C0000546804F001040CB1002000E0012030BD64
:100C100010B500F5D87303EB01131B6803F0040350
:100C20001372137A53B900F5D87303EB01131B68E1
:100C300040F2FF7404EA5353136009E000F5D873DF
:100C400003EB01131B686FF0604404EAD3035360A5
:100C500000F5D87303EB01131B6803F00203537212
:100C600000F5D87303EB01135B6803F00F03937275
:100C700000F5D87303EB01135B681B0AD37400F50E
:100C8000D87303EB01139B68D37200F5D87303EBA1
:100C900001139B681C0A147300F5D87303EB01134E
:100CA0009B681C0C547300F5D87303EB01139B680D
:100CB0001B0E937300F5D87303EB0113DB68D3733A
:100CC00000F5D87303EB0113DB681C0A147400F5FC
:100CD000D87303EB0113DB681C0C547400F5D87354
:100CE00003EB0113DB681B0E937421B9C36843F057
:100CF0002003C36003E0036943F02003036110BDD8
:100D000010B502460020936803F08063B3F1806F52
:100D100000D110E0936803F00063B3F1006F01D1DC
:100D2000012008E0936803F08053B3F1805F01D1A4
:100D3000022000E00420042874D002F5C07303EB05
:100D400000131B6803F0010402F5C07303EB0013EA
:100D50001C600B7A7BB94B7A0C8843EA445302F54A
:100D6000C07404EB00142468234302F5C07404EB40
:100D70000014236010E00B7A4C6843EAC4034C7AF9
:100D8000234302F5C07404EB00142468234302F5E6
:100D9000C07404EB001423608B7A03F00F038B7292
:100DA00002F5C07303EB00135B6823F00F0402F538
:100DB000C07303EB00135C6002F5C07303EB001318
:100DC0005B688C7A234302F5C07404EB0014636003
:100DD0008B7B1C064B7B44EA03440B7B44EA0323D6
:100DE000CC7A234302F5C07404EB0014A3608B7C1F
:100DF0001C064B7C44EA03440B7C44EA0323CC7B73
:100E0000234302F5C07404EB0014E36002F5C073E1
:100E100003EB00131B6843F0010402F5C07303EBFE
:100E200000131C6010BD0246002002EA01030BB152
:100E3000012000E0002070472DE9F0412DED068BE8
:100E400000249849984800F017FB00287DD0974966
:100E5000954800F0DDFA9349934800F0F3FA00BF9B
:100E60001AE12146E21704EB12721211A4EB0212EE
:100E70008F4B9A5C212A69D104F10F00C21700EB55
:100E800012721211A0EB02129A5C232AF3D1A51C54
:100E9000EF1705EB17773F11A5EB07179C461CF8DA
:100EA00007C0661CF71706EB17773F11A6EB07176D
:100EB000984618F807704CEA0727B7F5B67F02DCAA
:100EC0004FF4B67739E0A21CD71702EB17773F1122
:100ED000A2EB0717DFF8D8C11CF80770631C4FEAB4
:100EE000E37C03EB1C7C4FEA2C1CA3EB0C1CDFF80F
:100EF000C08118F80CC047EA0C2740F2946C674593
:100F000001DB674619E0A01CC71700EB17773F11FC
:100F1000A0EB0717DFF898C11CF80770611C4FEAB7
:100F2000E17C01EB1C7C4FEA2C1CA1EB0C1CDFF8D4
:100F3000808118F80CC047EA0C273FB2DFF874C173
:100F4000ACF80E70251DEF1701E0A8E0A3E005EB5B
:100F500017773F11A5EB0717DFF854C11CF807C03E
:100F6000E61CF71706EB17773F11A6EB0717DFF81C
:100F7000408118F807704CEA0727B7F5B67F02DC06
:100F80004FF4B67739E0221DD71702EB17773F11E0
:100F9000A2EB0717DFF818C11CF80770E31C4FEA33
:100FA000E37C03EB1C7C4FEA2C1CA3EB0C1CDFF84E
:100FB000008118F80CC047EA0C2740F2946C674592
:100FC00001DB674619E0201DC71700EB17773F11BB
:100FD000A0EB0717DFF8D8C01CF80770E11C4FEA38
:100FE000E17C01EB1C7C4FEA2C1CA1EB0C1CDFF814
:100FF000C08018F80CC047EA0C273FB2DFF8B4C035
:10100000ACF81070651DE91705EB11710911A5EB1E
:101010000111274A505CFFF76CFA41EC1A0B9FED67
:10102000260B53EC102BFFF772F941EC190B9FEDD7
:10103000240B53EC102BFFF764F941EC180BFFF76E
:1010400065FA21490860281DC11700EB11710911CB
:10105000A0EB0111164A515C164AD180C01CC11781
:1010600000EB11710911A0EB0111114A515C114AF9
:101070001180801CC11700EB11710911A0EB011147
:101080000B4A515C0B4A9181002010490860BDEC6D
:10109000068BBDE8F081641C102CFFF6E2AE00BFA9
:1010A000F5E70000008800102860024000080010EA
:1010B00088000020980000209A9999999999B93F41
:1010C0000000000000002440300000200C00002040
:1010D00010B52DED068B4949494800F0CDF900289F
:1010E0007DD04FF08151464800F092F94349444881
:1010F00000F0A8F94348007855287BD14148407852
:10110000532876D13F4989783E4AD27841EA022174
:1011100008B2FFF7DDF941EC1A0B9FED3B0B53ECE6
:10112000102BFFF766F941EC190B9FED390B53ECCF
:10113000102BFFF7ECF841EC180BFFF7E7F93649F5
:101140008861304909792F4A527941EA022108B26F
:10115000FFF7BEF941EC1A0B9FED2B0B53EC102B54
:10116000FFF747F941EC190B9FED290B53EC102BBE
:10117000FFF7CDF841EC180BFFF7C8F92649C86115
:10118000204989791F4AD27941EA022108B2FFF742
:101190009FF941EC1A0B9FED1C0B53EC102BFFF742
:1011A00028F941EC180B9FED1A0B53EC102BFFF7AD
:1011B000AEF841EC190BFFF7A9F91749086211487D
:1011C000007A1049497A40EA012000B200EE100A84
:1011D000B8EEC00A9FED111AC0EE010A01E009E065
:1011E00007E09FED0F0A30EE800A0B4880ED090AF8
:1011F00000BF00BFBDEC068B10BD000000802010BA
:1012000040600240B0000020000000000000E0400C
:101210000000000000806640BC0000200000AA43DF
:10122000B81E124210B50749074800F025F940B131
:101230004FF0C051044800F0EBF80249024800F0BA
:1012400001F910BD008000185860024010B500245C
:101250001349144800F010F900B31349114800F085
:10126000D7F80F490F4800F0EDF800BF14E0072051
:1012700094FBF0F100FB11400C49085C6C280AD18A
:10128000A01D072190FBF1F201FB12000749085C49
:10129000642800D110BD641C102CE8DB00BFF9E706
:1012A00000880020886002400008002044000020E0
:1012B00010B50749074800F0DFF838B1064905487E
:1012C00000F0A6F80249034800F0BCF810BD000089
:1012D00000802020A06002400000202010B5484976
:1012E000484800F0C9F800287ED04FF081514548A9
:1012F00000F08EF84249434800F0A4F842480078D4
:101300004149497840EA0120C0F30A003F4908807A
:101310003D484078C0103C49897840EA4110C0F30C
:101320000A003A4948803848807880113649C9789F
:1013300040EA81003449097940EA8120C0F30A007B
:10134000324988803048007940102F49497940EA75
:10135000C110C0F30A002D49C8802B484079C0F362
:10136000011008722848407980094872264880791F
:101370002549C97940EA012000B224494881224820
:10138000007A2149497A40EA012001B21F4881814F
:101390001D48807A1C49C97A40EA012001B21B48E5
:1013A000C1811948017B194801741748417B1748CE
:1013B00041741548807B00F00100144948821248AE
:1013C000807BC0F340011148C1820F48807BC0F38D
:1013D00080010E4881820C48807BC0F3C0010B481D
:1013E00001830948807B00E009E0C0F30011074851
:1013F00081830548807BC0F340110448418310BDC0
:101400000080201040640240760000205800002038
:101410000246094B9A4201D2084801E006481038BA
:1014200001F000531BB1064B0B40C36002E0044BBC
:101430000B4083607047000010640240006002406F
:101440007D0F7D0F0246094B9A4201D2084801E008
:101450000648103801F000531BB1064B0B40C36027
:1014600002E0044B0B4083607047000010640240B0
:10147000006002407D0F7D0F70B502460020002401
:101480000025124EB24201D2114B01E00F4B103B2E
:10149000104E0E4036B11E2606EAD124166806EA22
:1014A000040502E0566906F0800501F000560EB111
:1014B0005C6800E01C68084E344004EA010616B17E
:1014C0000DB1012000E0002070BD0000106402405A
:1014D000006002403C0F3C0F7D0F7D0F7047F0B560
:1014E0000A4600210023002400BF3DE0012505FA43
:1014F00001F3156805EA03049C4234D105684F00E6
:101500000326BE40B543056015794E00B540066818
:10151000354305601579012D02D01579022D16D1BC
:1015200085684F000326BE40B543856055794E005F
:10153000B540866835438560456801268E40B543D1
:101540004560456896798E40B6B235434560C568BA
:101550004F000326BE40B543C560D5794E00B54067
:10156000C6683543C560491C1029BFD3F0BDF0B52E
:10157000002300244D07ED0E02FA05F3CE1000F112
:10158000200555F826504E07F70E0F26BE40B543EE
:10159000CF1000F1200646F82750CE1000F12005AC
:1015A00055F8265045EA0304CE1000F1200545F811
:1015B0002640F0BD418370470183704700BFFEE7BE
:1015C0001CB50121202000F03BF80121102000F083
:1015D00037F88020009001208DF8040000208DF85D
:1015E000060003208DF8050000208DF807006946ED
:1015F0000948FFF774FF4FF48040009069460748A0
:10160000FFF76DFF80210448FFF7D6FF4FF48041BC
:101610000248FFF7D1FF1CBD001002400014024039
:1016200000BFFEE77047000002490143024A116013
:10163000704700000000FA050CED00E07047000064
:1016400029B1064A12680243044B1A6004E0034AB7
:1016500012688243014B1A60704700003038024024
:1016600029B1064A12680243044B1A6004E0034A97
:1016700012688243014B1A607047000040380240F4
:10168000704700000CB500200190009034480068BD
:1016900040F480303249086000BF3148006800F4EF
:1016A000003000900198401C0190009818B90198F2
:1016B000B0F5A06FF1D12A48006800F4003010B1F5
:1016C0000120009001E0002000900098012846D100
:1016D00023484030006840F0805021494031086084
:1016E0002048006840F480401E4908601C480830CB
:1016F00000681B49083108600846006840F4004053
:1017000008600846006840F4A05008601648091FA9
:101710000860081F006840F08070091F086000BF63
:101720000F48006800F000700028F9D040F2056012
:101730000E4908600A480830006820F00300084994
:10174000083108600846006840F00200086000BFE9
:1017500003480830006800F00C000828F8D10CBDE0
:10176000003802400070004008544007003C02402E
:1017700010B54FF4A060FFF757FFFFF721FFFEF70A
:10178000EDFF10BD10B51548006840F47000134916
:1017900008601348006840F001001149086000200B
:1017A0000F49083108600E4800680E4908400C498E
:1017B00008600D48091D0860081F006820F480209B
:1017C000091F0860002006490C310860FFF75AFF26
:1017D0004FF0006001498039086010BD88ED00E0DD
:1017E00000380240FFFFF6FE1030002410B50C4810
:1017F000008800F01000102805D00A480068401C3E
:101800000849086004E007480068401E0549086070
:101810000A2000F02BF80121014800F005F810BD66
:101820000000014054000020CA430282704700BFFC
:10183000FEE702E008C8121F08C1002AFAD170476B
:101840007047002001E001C1121F002AFBD1704740
:1018500010B5002107E04AF2104200BF131EA2F1AA
:101860000102FBD1491C8142F5D310BD10B5002106
:1018700006E0282200BF131EA2F10102FBD1491C81
:101880008142F6D310BD0000FFF772FF802110489F
:10189000FFF790FE4FF480410E48FFF78DFE4FF4A6
:1018A0007A70FFF7D5FF00231A4619464FF47A7075
:1018B000FEF722FF0AE000231A4619464FF47A7019
:1018C000FEF71AFF4FF4FA70FFF7C2FFF3E70000CC
:1018D0000010024000140240F81800080000002028
:1018E0005800000032180008501900085800002065
:1018F000B0040000421800080000000000000000D2
:1019000000000000000000000000000000000000D7
:1019100000000000010000000000FA440040924472
:101920000000FA4400409244000000000000000063
:1019300000000000000000000000000000000000A7
:101940000000000000000000000000000000000097
:040000050800018965
:00000001FF
