:020000040800F2
:10000000A0050020C101000867100008EB0F0008E0
:1000100065100008D30400089917000800000000CC
:10002000000000000000000000000000A112000815
:10003000890E000800000000D9110008751300089F
:10004000DB010008DB010008DB010008DB01000820
:10005000DB010008DB010008DB010008DB01000810
:10006000DB010008DB010008DB010008DB01000800
:10007000DB010008DB010008DB010008DB010008F0
:10008000AD0C0008150D0008DB010008DB010008BD
:100090003D060008DB010008DB010008DB01000869
:1000A000DB010008DB010008DB010008DB010008C0
:1000B000DB010008DB010008DB010008DB010008B0
:1000C000DB010008DB010008DB010008DB010008A0
:1000D000DB010008DB010008DB010008DB01000890
:1000E000DB010008DB010008DB010008DB01000880
:1000F000DB010008DB010008DB010008DB01000870
:10010000DB010008DB010008DB010008DB0100085F
:10011000DB010008DB010008DB010008DB0100084F
:10012000DB010008DB010008DB010008DB0100083F
:10013000DB010008DB010008DB010008DB0100082F
:10014000ED070008DB010008DB010008DB01000807
:10015000DB010008DB010008DB010008DB0100080F
:10016000DB010008DB010008DB010008DB010008FF
:10017000DB010008DB010008DB01000800000000D3
:10018000DB010008DB010008DB010008DB010008DF
:10019000DB010008DB010008DB010008DB010008CF
:1001A0000000000000000000DB010008DFF80CD0B8
:1001B00000F05EF900480047B9170008A0050020CC
:1001C0000648804706480047FEE7FEE7FEE7FEE7F1
:1001D000FEE7FEE7FEE7FEE7FEE7FEE7091500089B
:1001E000AD0100082DE9FE4F81EA030404F000444C
:1001F00021F0004100944FF0000B23F0004350EA3F
:1002000001045ED052EA03045BD0C3F30A54C1F385
:100210000A552C44A4F2F3340194A0FB0254C1F318
:10022000130141F48011C3F3130343F4801301FB62
:10023000024400FB034E840A970A44EA815447EAC9
:100240008357A4FB076802958D0A05FB07854FEAD3
:10025000932C04FB0C542705029D4FEA065847EAED
:100260001637B5EB08056EEB070C870E920E47EAC2
:10027000811742EA8312A7FB0201B6EB0B0164EB84
:1002800000042B0D43EA0C335E1844EB1C50DA4695
:100290005146E7FB0201C5F313044FEA0B3343EA6F
:1002A00014534FEA0432019C43EA0603A4F10C0400
:1002B0000294009CCDE900B400F08CF803B0BDE8D6
:1002C000F08F00200146F9E70EB5C10F80EAE0701B
:1002D0000844CA07002140F233438DE80E000A4665
:1002E0000B4600F077F803B000BD00F0004230F09C
:1002F00000400AD0C10D01F56071C0F3160042EA5A
:100300000151C20840071143704700200146704761
:1003100001F0004330B421F0004150EA010206D060
:100320000A0DA2F56072C1F31301002A02DC30BC91
:1003300000207047440F44EAC104C100E01830BCFB
:1003400000EBC250AFF300800029A8BF7047401CEB
:10035000490008BF20F00100704710B4B0FA80FCDB
:1003600000FA0CF050EA010404BF10BC704749B118
:10037000CCF1200421FA04F411FA0CF118BF012188
:1003800021430843A3EB0C01CB1D4FEA00614FEA68
:10039000102042BF002010BC704700EBC350104437
:1003A0000029A4BF10BC7047401C490008BF20F0C2
:1003B000010010BC704710B5141E73F1000408DA78
:1003C000401C41F1000192185B411A4301D120F019
:1003D000010010BD2DE9F04D92469B4611B1B1FAD6
:1003E00081F202E0B0FA80F22032904600F052F83A
:1003F00004460F4640EA0A0041EA0B0153465A46BA
:10040000084313D0114653EA010019D0C8F1400245
:10041000504600F04EF805460E46504659464246B4
:1004200000F038F8084305D0012004E020463946A2
:10043000BDE8F08D0020054346EAE0762C433743C3
:100440000A986305E40AA0EB08000022FD0A44EACA
:1004500047540A3002D500200146E9E7010510198A
:100460006941DDE9084500196941BDE8F04DA2E7A1
:10047000064C074D06E0E06840F0010394E80700F1
:1004800098471034AC42F6D3FFF794FEA01800084A
:10049000C0180008202A04DB203A00FA02F10020EC
:1004A00070479140C2F1200320FA03F319439040B2
:1004B0007047202A04DB203A21FA02F0002170471D
:1004C00021FA02F3D040C2F12002914008431946BC
:1004D0007047FEE710B586B04FF400740094002416
:1004E0008DF808408DF8094008248DF80A404FF433
:1004F0007A64A04200DD2046A14200DD2146A242EE
:1005000000DD2246A34200DD2346134CA04200DA60
:100510002046A14200DA2146A24200DA2246A34246
:1005200000DA2346040A8DF80C00080A8DF80D0045
:100530008DF80E10100A8DF80F008DF81020180A93
:100540008DF811008DF80B408DF812306946034884
:1005500000F054FB06B010BD60F0FFFF00640040E7
:1005600070B58AB00121082000F038FE012148064C
:1005700000F040FE02208DF820008DF821000024BC
:100580002C4D03268DF8224007968DF8234007A9AD
:10059000284600F0C5FC09220021284600F011FD84
:1005A00009220121284600F00CFD14208DF82400BA
:1005B00001258DF825508DF826508DF8275009A873
:1005C00000F052FD8DF806408DF802408DF807408E
:1005D0008DF8034008208DF80400ADF800608DF818
:1005E00008400420144E8DF80A408DF805008DF85F
:1005F0000B506946304600F045FA8DF816408DF8EC
:1006000017408DF81850ADF80C40ADF81040ADF81B
:100610000E40ADF81240ADF814408DF8195003A803
:1006200000F06EF901220221304600F023FA0AB0F0
:1006300070BD0000000C02400064004010B5314C59
:1006400086B00221204600F0C1F9002858D00221CE
:10065000204600F019F96A460021204600F086FA8B
:1006600000982949A0F50070013806D0012814D05F
:10067000022822D003283FD12FE0BDF80B0040BA5A
:100680000880BDF80D0040BA4880BDF80F0040BAA0
:1006900088809DF81100C8802EE0BDF80B0040BA9C
:1006A0000881BDF80D0040BA4881BDF80F0040BA7E
:1006B00088819DF81100C8811EE0BDF80B0040BA8A
:1006C0000882BDF80D0040BA4882BDF80F0040BA5C
:1006D00088829DF81100C8820EE0BDF80B0040BA78
:1006E0000883BDF80D0040BA4883BDF80F0040BA3A
:1006F00088839DF81100C8830221204600F0C4F8C9
:1007000006B010BD006400407001002070B58AB0D2
:100710000121022000F062FD0121880600F06AFD3F
:100720004FF44050079002208DF820008DF82100F2
:1007300000242C4D8DF822408DF8234007A928462F
:1007400000F0EEFB09220C21284600F03AFC0922B9
:100750000D21284600F035FC40208DF824000125AD
:100760008DF825508DF826508DF8275009A800F0F7
:100770007BFC8DF806408DF8074008208DF80400BA
:1007800004208DF802408DF805008DF808408DF8A2
:1007900003400320144E8DF80A40ADF800008DF898
:1007A0000B506946304600F06DF90E208DF81600AA
:1007B0008DF817408DF81850ADF80C40ADF810408A
:1007C000ADF80E40ADF81240ADF814408DF8195058
:1007D00003A800F095F801220221304600F04AF902
:1007E0000AB070BD000402400068004010B5154C0E
:1007F00086B00221204600F0E9F8002820D002212E
:10080000204600F041F81049204600F025F86A46DD
:100810000021204600F0AAF9DDF80B009DF80E102B
:1008200000BA20F0FF000843FFF74EFD9FED071BC5
:1008300053EC112BFFF7D6FCFFF76AFD0549086062
:1008400006B010BD00680040080000327B14AE47BF
:10085000E17A84BF040000200A4A914202D10021BB
:1008600081617047C1F313028B0101D5C2607047EB
:100870004B0101D502617047090101D582607047C3
:10088000426070477000F03030B508231024042215
:10089000B1F5007F1DD010DC202929D007DC01290B
:1008A00021D0042922D0082900D1C46030BD4029BC
:1008B00020D0B1F5807FF9D10BE00025B1F5004FD4
:1008C00006D008DCB1F5806F03D0B1F5006FEDD133
:1008D0008561426030BDB1F5803F0DD0B1F5003F7C
:1008E000F8D1446030BD0549816030BDC36030BD82
:1008F000036130BD046130BD436030BD01010100C2
:10090000F0B5827A012191402E4A136843F0010329
:1009100013602C4B1C331C688C431C60294D067BD8
:10092000294C0C35A6B92E688E432E604688C788A0
:1009300046EA0746877A04EBC707C7F84066068889
:10094000878846EA0746877A04EBC707C7F84466F4
:10095000067B012E12D12E680E432E60867A056822
:1009600004EBC6064FEA3545C6F84056867A456818
:1009700004EBC6044FEA3545C4F84456114CC57A19
:10098000241D002D256806D00D4325600D4C0589DA
:10099000143415B104E08D43F7E725688D432560D5
:1009A0000589012D02D125680D432560407B012872
:1009B00002D1186808431860106820F00100106028
:1009C000F0BD0000006600400060004002460020CC
:1009D00053690B424AD0B1F5807F3BD013DC082924
:1009E0002ED007DC012926D0022927D004293DD1A9
:1009F000D0682BE0102925D0202926D0402935D1D8
:100A00001069102130E0B1F5004F2BD00BDCB1F5AF
:100A1000007F22D0B1F5806F22D0B1F5006F25D1D3
:100A20009069702120E0B1F5803F11D0B1F5003F11
:100A30001CD15068E5E790680D4915E0D06802E0E8
:100A4000D068DEE7106903210EE0106908210BE091
:100A50005068FBE79069012106E09069022103E0FC
:100A6000906900E05068042100F01AB97047000056
:100A700001010100002A426901D00A4300E08A43D3
:100A80004261704710B50368002223F0020303603F
:100A9000036843F0010303604FF6FF7300E0521C4C
:100AA0004468E40701D19A42F9D14268D2073ED0A6
:100AB0008A79012A02683CD022F080020260CA7959
:100AC000012A026838D022F0400202600A7A012A24
:100AD000026834D022F0200202604A7A012A0268B9
:100AE00030D022F0100202608A7A012A02682CD0EB
:100AF00022F008020260CA7A012A026828D022F095
:100B0000040202608A78CC78920742EA04620C7987
:100B100042EA04424C79098842EA0452491E0A43D7
:100B2000C261016821F001010160002114E0002090
:100B300010BD42F08002C1E742F04002C5E742F03A
:100B40002002C9E742F01002CDE742F00802D1E7E7
:100B500042F00402D5E7491C4268D20701D099420D
:100B6000F9D14068C007E2D1012010BD10B500EBFB
:100B70000113D3F8B04114F004041472D3F8B04157
:100B800034D0E408C2F80440D3F8B04104F00204C1
:100B90005472D3F8B44104F00F049472D3F8B44102
:100BA000240AD474D3F8B841D472D3F8B841240AD3
:100BB0001473D3F8B841240C5473D3F8B841240EFD
:100BC0009473D3F8BC41D473D3F8BC41240A147491
:100BD000D3F8BC41240C5474D3F8BC311B0E93746D
:100BE00039B1016941F02001016110BD640D14604B
:100BF000CAE7C16841F02001C16010BD30B50246AE
:100C0000002093685B0108D49068000101D50120A1
:100C100003E09068C00037D5022002EB0012D2F842
:100C2000803103F00103C2F880310B7A73B3D2F83C
:100C300080414D681C434B7A43EAC5031C43C2F80C
:100C400080418B7A03F00F038B72D2F8843123F04A
:100C50000F03C2F88431D2F884318C7A2343C2F86E
:100C60008431CB7ACC6843EA0423C2F88831CB7B49
:100C7000096943EA0121C2F88C11D2F8801141F0D0
:100C80000101C2F8801130BD042030BDD2F880319E
:100C90004C7A23430C8843EA4453C2F88031D0E7AE
:100CA000024600200A4200D00120704770B5154E60
:100CB000154D00243146284600F07CF800281FD04E
:100CC0001249284600F040F83146284600F052F814
:100CD0000F49E01704EB107020F00F00201A405C61
:100CE0006C280AD104F10F00C21700EB127222F037
:100CF0000F02801A405C642802D0641C102CE8DBD0
:100D000070BD0000008800208860024000080020BC
:100D10009001002070B5094D094C2946204600F08D
:100D200049F8002809D00749204600F00DF8294667
:100D30002046BDE8704000F01DB870BD0080202046
:100D4000A060024000002020074A904201D20748DC
:100D500001E005481038064A8B0001EA020101D57E
:100D6000C1607047816070471064024000600240BB
:100D70007D0F7D0F074A904201D2074801E00548E8
:100D80001038064A8B0001EA020101D5C1607047A4
:100D90008160704710640240006002407D0F7D0F4B
:100DA0000029016802D041F0010101E021F00101B8
:100DB0000160704730B5104A0024904201D20F4BB9
:100DC00001E00D4B103B0E4A114205D01E2202EAF3
:100DD000D12502682A4002E0406900F080028800C4
:100DE00001D5586800E01868064B1840084201D049
:100DF00002B10124204630BD106402400060024070
:100E00003C0F3C0F7D0F7D0F0B0607D5436912B1D8
:100E100043F0800301E023F080034361802908D080
:100E2000002A026801F01E0101D00A4300E08A4353
:100E30000260704730B50368124ACC6813400A68F4
:100E40002243D1E905452C432243CC6922430C6A55
:100E500022434C6A22438C6A22434C6B22438C6BA4
:100E600022431A430260426922F00703D1E90B24AE
:100E700022431A4342610A6942604A688260896873
:100E8000C16030BD3F801CF0704710B500214AF2B0
:100E90000E4403E02246521EFDD2491C8142F9D382
:100EA00010BD91ED030AD2ED030A30EE200AD3ED16
:100EB000030A30EE600AD0ED030A30EE600AF5EE68
:100EC000000A20EE200A704710B504464068081A50
:100ED0002060B0F5805F02DDA0F5005004E010F561
:100EE000805F02DA00F50050206061602168A06830
:100EF000084400EE100AA060B8EEC00A10EE100A16
:100F0000FFF7F3F99FED041B53EC112BFFF76AF980
:100F1000FFF7FEF9E06010BD7C7BD7A02FBDAD3F91
:100F2000F0B50023012403270D6804FA03F21540ED
:100F3000954242D1D0F800C05E0007FA06F52CEACF
:100F4000050CC0F800C091F804C0D0F800E00CFA1D
:100F500006FC4CEA0E0CC0F800C091F804C0BCF1CD
:100F6000010F02D0BCF1020F1FD1D0F808C02CEA4B
:100F7000050CC0F808C091F805C0D0F808E00CFADC
:100F800006FC4CEA0E0CC0F808C0D0F804C02CEAED
:100F9000020CC0F804C0426891F806C00CFA03FCC9
:100FA0001FFA8CFC42EA0C024260C268AA43C2608B
:100FB000CA79C568B2402A43C2605B1C102BB3D308
:100FC000F0BD4B07DB0E9A40C90810B500EB81005D
:100FD000016A0F249C40A1430162016A114301622E
:100FE00010BD4183704701837047FEE77CB5012146
:100FF000202000F0F3F80121102000F0EFF880200D
:10100000009001208DF8040000208DF806000321D7
:101010008DF805100B4D8DF8070069462846FFF73F
:101020007FFF094E4FF48044694630460094FFF735
:1010300077FF80212846FFF7D6FF21463046FFF78D
:10104000D2FF7CBD001002400014024030B58C1865
:10105000511AE51ACA18C91A0560C0E90121E11838
:10106000C16030BDFEE7704730B50F22C47801780B
:101070000123FCB1144C246801F1E02104F4E06484
:10108000C4F5E064C4F30724C4F10405E2404478E5
:10109000AC408578154025432A0181F8002400786A
:1010A00000F01F018B404009800000F1E020C0F8F3
:1010B000003130BD01F01F0083404809800000F17D
:1010C000E020C0F8803130BD0CED00E0D0ED000A2A
:1010D00030EEC00AD0ED040A80ED040A70EE601A0A
:1010E000D0ED050A70EE800AC0ED050A90ED061AF3
:1010F000F4EEC10AF1EE10FA06DAB1EE411AF4EE9E
:10110000C10AF1EE10FA01D880ED051AD0ED010AFE
:1011100020EE801A80ED071A90ED020AD0ED050A44
:1011200020EE200A80ED080AD0ED030A31EE000A15
:1011300060EEA10AC0ED090A30EE200A70470000F7
:10114000B2EE0E0A80ED010A9FED070AF3EE040AE3
:1011500080ED020AC0ED030ADFED040AC0ED060AC5
:1011600080ED000A704700000000000000401C47AE
:101170009FED090AF3EE0E0A80ED010A9FED070AC2
:1011800080ED020AC0ED030ADFED050AC0ED060A94
:1011900080ED000A70470000295C8F3E00000000CF
:1011A0000000FA439FED090AF3EE050A80ED010AFB
:1011B0009FED070A80ED020AC0ED030ADFED050A84
:1011C000C0ED060A80ED000A70470000333373401B
:1011D000000000000000FA4370470000044A0029A4
:1011E000116801D0014300E08143116070470000A5
:1011F00030380240044A0029116801D0014300E060
:1012000081431160704700004038024070B5204AA9
:101210001168204C11F00C0104D01F4E042903D09A
:10122000082903D004601BE0066019E01849091F73
:101230000B68C3F380550B6803F03F0315B1B6FB91
:10124000F3F301E0B4FBF3F30C680968C4F388140A
:101250006343C1F30141491C4900B3FBF1F1016053
:1012600011680F2303EA11110C4B5C5C0168E1402B
:1012700041601468072505EA94241C5D21FA04F4F2
:101280008460126805EA52329A5CD140C16070BD38
:10129000083802400024F400001BB7000F000020B3
:1012A000704700001CB500202E49019000900A688C
:1012B00042F480320A604FF4A0430A6802F400321C
:1012C0000092019A521C0192009A12B9019A9A4214
:1012D000F3D10A68920342D50120009021484030A2
:1012E000026842F0805202601F48026842F44042A5
:1012F00002601C4A083213681360136843F4004309
:101300001360136843F4A0531360141F174B23603A
:101310000B6843F080730B600B689B01FCD5016880
:1013200041F4803101604168C903FCD5016841F492
:101330000031016041688903FCD50D4940F2057018
:101340000860106820F003001060106840F0020090
:1013500010601068C0F381000228FAD11CBD009013
:101360001CBD000000380240007000400C5A4007CD
:10137000003C024070B55E4C5E482DED028B21882A
:10138000FFF7A2FD5B48218910300646FFF79CFD60
:101390005848218A20300546FFF796FD5548218B95
:1013A00030300446FFF790FD23462A463146514827
:1013B000FFF777FDF0EE400A9FED4F1A4F4880EEA1
:1013C000810A80ED000A4B485038FFF77FFEBDEEE2
:1013D000C00A4848002310EE102A19464030FFF793
:1013E00035FE444C403460684042FEF76DFF9FED8F
:1013F000448B53EC182BFEF7F5FEFEF789FFA4F59E
:10140000987528602068FEF75FFF53EC182BFEF7F5
:10141000E9FEFEF77DFFA862A068FEF755FF53ECDA
:10142000182BFEF7DFFEFEF773FF2865E0684042E9
:10143000FEF74AFF53EC182BFEF7D4FEFEF768FFC9
:10144000A867F035A4F5987095ED000AB8EEC00ACB
:10145000FFF73CFE1034A4F58C70D4ED000A30EE9A
:10146000200A84ED000A95ED040AB8EEC00AFFF7E1
:101470002DFED4ED010AA4F1F00030EE200A84ED37
:10148000010A95ED080AB8EEC00AFFF71FFED4ED79
:10149000020AA4F1C80030EE200A84ED020A95ED9C
:1014A0000C0AB8EEC00AFFF711FED4ED030A30EEC5
:1014B000200A84ED030ABDEEC00A10EE103A94ED46
:1014C000020ABDEEC00A10EE102A94ED010ABDEE2C
:1014D000C00A10EE101A94ED000ABDEC028BBDEEAE
:1014E000C00ABDE8704010EE100AFEF7F3BF00001E
:1014F00070010020100100200000C8420000002000
:101500007B14AE47E17AC43F124810B5016841F43C
:10151000700101601048016841F0010101600E4A4C
:1015200000210832116002680C4B1A400260031D52
:101530000B4A1A60026822F48022026006480C30CE
:101540000160FFF7AFFE03494FF00060803908608B
:1015500010BD000088ED00E000380240FFFFF6FEFD
:10156000103000242DE9F04796B001210820FFF744
:1015700035FE01214804FFF73DFE4E4E07220521AE
:101580003046FFF71EFD072206213046FFF719FD02
:1015900002258DF85450002460208DF85640149098
:1015A0008DF855508DF8574014A93046FFF7B8FC18
:1015B0004FF4E1301090ADF848400C203E4EADF8AD
:1015C0004440ADF84A00ADF84640ADF84C4010A993
:1015D000304600F08BF80121304600F075F801220A
:1015E000C021304600F07AF84FF010098DF83C9099
:1015F00003268DF83D608DF83E5001278DF83F7031
:101600000FA8FFF731FD11208DF83C008DF83D60EB
:101610008DF83E508DF83F700FA8FFF725FD012192
:101620004805FFF7DBFDAD06234E2448361D009527
:10163000CDE901604020039004A907206F1481E8E0
:1016400091004FF48078CDE90848DFF874A0079442
:101650000A940B940C940D94694650460E94FFF72F
:10166000E9FB01215046FFF79BFB164802A981E8E0
:101670001102CDE905474FF44030CDE90A04CDE928
:10168000084807940C940D940E940D4CCDE9005627
:10169000183C69462046FFF7CDFB01212046FFF7A5
:1016A0007FFB012210212046FFF7AEFB16B0BDE8FC
:1016B000F0870000000C02400044004008000020B9
:1016C000A0600240900100200029818902D041F4ED
:1016D000005101E021F4005181817047002A828A83
:1016E00001D00A4300E08A43828270477FB50446F6
:1016F000008A0D4620F44051E88808432082A089E2
:1017000041F20C618843A9882A8911436A890243FE
:101710001143A181A08A20F44071A8890843A082C6
:101720006846FFF773FD1A48844202D01948844284
:1017300001D1039800E00298A189090400EBC001DF
:1017400001EB0010296801D5490000E08900B0FBD9
:10175000F1F26420B2FBF0F109010B096FF01805FA
:101760006B4302EB8302A3891D044FF0320306D5BD
:1017700003EBC202B2FBF0F000F0070005E003EB60
:101780000212B2FBF0F000F00F00084320817FBD91
:101790000010014000140140FEE702E008C8121FDB
:1017A00008C1002AFAD170477047002001E001C14A
:1017B000121F002AFBD170473148FFF7D9FC30488F
:1017C0002830FFF7D5FC2E485030FFF7D1FC2C48CD
:1017D0007830FFF7CDFC2A48A030FFF7B1FC28484D
:1017E000C830FFF7DFFCFEF7BBFEFEF78FFFFFF709
:1017F000FDFBFFF7B7FE4FF0E02022494161224A8E
:10180000F02182F8141D00258561072101618021E6
:101810001E48FFF7E6FB4FF480411D48FFF7E1FB50
:101820000A20FFF732FB1B4821211B4C017030219D
:10183000417021888170227AC270227C0271227EDE
:101840004271232282710E48F03085608561856285
:101850008563FFF739FB21891048FFF735FB0F48F7
:10186000218A1030FFF730FB0C48218B2030FFF726
:101870002BFB0A48B2EE040A603880ED000AFEE74E
:10188000200000201FBF02000FE000E00010024017
:1018900000140240080000207001002020010020F8
:1018A000C018000800000020200000009A1700085F
:1018B000E01800082000002080050000AA1700089A
:1018C0000000000000000000000000000000000018
:1018D00000000001020304010203040607080900D6
:04000005080001AD41
:00000001FF
