:020000040800F2
:10000000A0050020C101000837100008030F0008F8
:1000100035100008490500084119000800000000DB
:10002000000000000000000000000000FD110008BA
:10003000D10D000800000000351100086913000808
:10004000DB010008DB010008DB010008DB01000820
:10005000DB010008DB010008DB010008DB01000810
:10006000DB010008DB010008DB010008DB01000800
:10007000DB010008DB010008DB010008DB010008F0
:10008000F50B00085D0C0008DB010008DB0100082F
:1000900029060008DB010008DB010008DB0100087D
:1000A000DB010008DB010008DB010008DB010008C0
:1000B000DB010008DB010008DB010008DB010008B0
:1000C000DB010008DB010008DB010008DB010008A0
:1000D000DB010008DB010008DB0100082117000834
:1000E000DB010008DB010008DB010008DB01000880
:1000F000DB010008DB010008DB010008DB01000870
:10010000DB010008DB010008DB010008DB0100085F
:10011000DB010008DB010008DB010008DB0100084F
:10012000DB010008DB010008DB010008DB0100083F
:10013000DB010008DB010008DB010008DB0100082F
:10014000D9070008DB010008DB010008DB0100081B
:10015000DB010008DB010008DB010008DB0100080F
:10016000DB010008DB010008DB010008DB010008FF
:10017000DB010008DB010008DB01000800000000D3
:10018000DB010008DB010008DB010008DB010008DF
:10019000DB010008DB010008DB010008DB010008CF
:1001A0000000000000000000DB010008DFF80CD0B8
:1001B00000F04CF90048004761190008A005002034
:1001C0000648804706480047FEE7FEE7FEE7FEE7F1
:1001D000FEE7FEE7FEE7FEE7FEE7FEE7A113000805
:1001E000AD0100082DE9FE4F81EA030404F000444C
:1001F00021F0004100944FF0000B23F0004350EA3F
:1002000001045ED052EA03045BD0C3F30A54C1F385
:100210000A552C44A4F2F3340194A0FB0254C1F318
:10022000130141F48011C3F3130343F4801301FB62
:10023000024400FB034E840A970A44EA815447EAC9
:100240008357A4FB076802958D0A05FB07854FEAD3
:10025000932C04FB0C542705029D4FEA065847EAED
:100260001637B5EB08056EEB070C870E920E47EAC2
:10027000811742EA8312A7FB0201B6EB0B0164EB84
:1002800000042B0D43EA0C335E1844EB1C50DA4695
:100290005146E7FB0201C5F313044FEA0B3343EA6F
:1002A00014534FEA0432019C43EA0603A4F10C0400
:1002B0000294009CCDE900B400F079F803B0BDE8E9
:1002C000F08F00200146F9E70EB5C10F80EAE0701B
:1002D0000844CA07002140F233438DE80E000A4665
:1002E0000B4600F064F803B000BD01F0004330B4E9
:1002F00021F0004150EA010206D00A0DA2F5607219
:10030000C1F31301002A02DC30BC00207047440F07
:1003100044EAC104C100E01830BC00EBC250AFF3A6
:1003200000800029A8BF7047401C490008BF20F08A
:100330000100704710B4B0FA80FC00FA0CF050EAEB
:10034000010404BF10BC704749B1CCF1200421FA6C
:1003500004F411FA0CF118BF012121430843A3EB67
:100360000C01CB1D4FEA00614FEA102042BF002074
:1003700010BC704700EBC35010440029A4BF10BC50
:100380007047401C490008BF20F0010010BC7047B6
:1003900010B5141E73F1000408DA401C41F100018D
:1003A00092185B411A4301D120F0010010BD2DE9E4
:1003B000F04D92469B4611B1B1FA81F202E0B0FADB
:1003C00080F22032904600F053F804460F4640EA8F
:1003D0000A0041EA0B0153465A46084313D011461E
:1003E00053EA010019D0C8F14002504600F04FF81E
:1003F00005460E4650465946424600F039F8084335
:1004000005D0012004E020463946BDE8F08D0020EB
:10041000054346EAE0762C4337430A986305E40A2D
:10042000A0EB08000022FD0A44EA47540A3002D536
:1004300000200146E9E7010510196941DDE9084599
:1004400000196941BDE8F04DA2E70000064C074DD8
:1004500006E0E06840F0010394E807009847103494
:10046000AC42F6D3FFF7A6FEA81A0008C81A000887
:10047000202A04DB203A00FA02F100207047914064
:10048000C2F1200320FA03F3194390407047202A59
:1004900004DB203A21FA02F00021704721FA02F32E
:1004A000D040C2F120029140084319467047000035
:1004B00070B58AB00121022000F04AFE012102201D
:1004C00000F03AFE1E4E02220421304600F005FDE7
:1004D0001020009002208DF8040003208DF8050004
:1004E00000248DF8064001258DF8075069463046F6
:1004F00000F0A2FC5920ADF80800124EADF80A40F9
:100500000395ADF8104002A9304600F0C1FF60200D
:10051000ADF81400ADF81650ADF8204005A93046EE
:1005200000F080FF0821304600F0ACFF012130468A
:1005300000F064FF0121304600F06AFF0AB070BD90
:100540000004024000040040FEE7000070B58AB0DD
:100550000121082000F0F0FD0121480600F0F8FD1F
:1005600002208DF820008DF8210000242C4D032658
:100570008DF8224007968DF8234007A9284600F001
:100580005BFC09220021284600F0A7FC092201217A
:10059000284600F0A2FC14208DF8240001258DF8D7
:1005A00025508DF826508DF8275009A800F044FDFD
:1005B0008DF806408DF802408DF807408DF8034015
:1005C00008208DF80400ADF800608DF80840042084
:1005D000144E8DF80A408DF805008DF80B506946D1
:1005E000304600F045FA8DF816408DF817408DF82A
:1005F0001850ADF80C40ADF81040ADF80E40ADF815
:100600001240ADF814408DF8195003A800F06EF9AF
:1006100001220221304600F023FA0AB070BD00002A
:10062000000C02400064004010B5314C86B002213D
:10063000204600F0C1F9002858D00221204600F0E1
:1006400019F96A460021204600F086FA00982949E7
:10065000A0F50070013806D0012814D0022822D05D
:1006600003283FD12FE0BDF80B0040BA0880BDF849
:100670000D0040BA4880BDF80F0040BA88809DF850
:100680001100C8802EE0BDF80B0040BA0881BDF80B
:100690000D0040BA4881BDF80F0040BA88819DF82E
:1006A0001100C8811EE0BDF80B0040BA0882BDF8F9
:1006B0000D0040BA4882BDF80F0040BA88829DF80C
:1006C0001100C8820EE0BDF80B0040BA0883BDF8E7
:1006D0000D0040BA4883BDF80F0040BA88839DF8EA
:1006E0001100C8830221204600F0C4F806B010BDF6
:1006F000006400405C01002070B58AB00121022036
:1007000000F01AFD0121880600F022FD4FF4405050
:10071000079002208DF820008DF8210000242C4D38
:100720008DF822408DF8234007A9284600F084FB6D
:1007300009220C21284600F0D0FB09220D21284671
:1007400000F0CBFB40208DF8240001258DF82550CA
:100750008DF826508DF8275009A800F06DFC8DF813
:1007600006408DF8074008208DF8040004208DF81D
:1007700002408DF805008DF808408DF803400320F5
:10078000144E8DF80A40ADF800008DF80B50694604
:10079000304600F06DF90E208DF816008DF81740E8
:1007A0008DF81850ADF80C40ADF81040ADF80E4083
:1007B000ADF81240ADF814408DF8195003A800F0C0
:1007C00095F801220221304600F04AF90AB070BDC6
:1007D000000402400068004010B5154C86B00221AC
:1007E000204600F0E9F8002820D00221204600F041
:1007F00041F81049204600F025F86A4600212046BD
:1008000000F0AAF9DDF80B009DF80E1000BA20F0F8
:10081000FF000843FFF758FD9FED071B53EC112B1A
:10082000FFF7E0FCFFF761FD0549086006B010BD69
:1008300000680040080000327B14AE47E17A84BFB4
:10084000000000200A4A914202D1002181617047D4
:10085000C1F313028B0101D5C26070474B0101D572
:1008600002617047090101D582607047426070479C
:100870007000F03030B5082310240422B1F5007F59
:100880001DD010DC202929D007DC012921D0042922
:1008900022D0082900D1C46030BD402920D0B1F554
:1008A000807FF9D10BE00025B1F5004F06D008DCC0
:1008B000B1F5806F03D0B1F5006FEDD18561426075
:1008C00030BDB1F5803F0DD0B1F5003FF8D14460A7
:1008D00030BD0549816030BDC36030BD036130BDAE
:1008E000046130BD436030BD01010100F0B5827A82
:1008F000012191402E4A136843F0010313602C4BF1
:100900001C331C688C431C60294D067B294C0C351C
:10091000A6B92E688E432E604688C78846EA0746E9
:10092000877A04EBC707C7F840660688878846EAD7
:100930000746877A04EBC707C7F84466067B012E93
:1009400012D12E680E432E60867A056804EBC60627
:100950004FEA3545C6F84056867A456804EBC6042A
:100960004FEA3545C4F84456114CC57A241D002D74
:10097000256806D00D4325600D4C0589143415B14A
:1009800004E08D43F7E725688D4325600589012D37
:1009900002D125680D432560407B012802D11868EB
:1009A00008431860106820F001001060F0BD0000DE
:1009B00000660040006000400246002053690B4280
:1009C0004AD0B1F5807F3BD013DC08292ED007DC5C
:1009D000012926D0022927D004293DD1D0682BE057
:1009E000102925D0202926D0402935D11069102181
:1009F00030E0B1F5004F2BD00BDCB1F5007F22D0F9
:100A0000B1F5806F22D0B1F5006F25D190697021CA
:100A100020E0B1F5803F11D0B1F5003F1CD1506806
:100A2000E5E790680D4915E0D06802E0D068DEE7A0
:100A3000106903210EE0106908210BE05068FBE704
:100A40009069012106E09069022103E0906900E0CD
:100A50005068042100F0C8B870470000010101008F
:100A6000002A426901D00A4300E08A43426170478C
:100A700010B50368002223F002030360036843F00B
:100A8000010303604FF6FF7300E0521C4468E40763
:100A900001D19A42F9D14268D2073ED08A79012A1F
:100AA00002683CD022F080020260CA79012A026802
:100AB00038D022F0400202600A7A012A026834D05B
:100AC00022F0200202604A7A012A026830D022F025
:100AD000100202608A7A012A02682CD022F00802F1
:100AE0000260CA7A012A026828D022F00402026059
:100AF0008A78CC78920742EA04620C7942EA04428E
:100B00004C79098842EA0452491E0A43C2610168CD
:100B100021F001010160002114E0002010BD42F02D
:100B20008002C1E742F04002C5E742F02002C9E777
:100B300042F01002CDE742F00802D1E742F0040291
:100B4000D5E7491C4268D20701D09942F9D14068E3
:100B5000C007E2D1012010BD10B500EB0113D3F89E
:100B6000B04114F004041472D3F8B04134D0E40856
:100B7000C2F80440D3F8B04104F002045472D3F830
:100B8000B44104F00F049472D3F8B441240AD4742D
:100B9000D3F8B841D472D3F8B841240A1473D3F807
:100BA000B841240C5473D3F8B841240E9473D3F88D
:100BB000BC41D473D3F8BC41240A1474D3F8BC41AB
:100BC000240C5474D3F8BC311B0E937439B10169F1
:100BD00041F02001016110BD640D1460CAE7C168D5
:100BE00041F02001C16010BD024600200A4200D041
:100BF0000120704770B5154E154D0024314628462A
:100C000000F07CF800281FD01249284600F040F878
:100C10003146284600F052F80F49E01704EB1070F7
:100C200020F00F00201A405C6C280AD104F10F005C
:100C3000C21700EB127222F00F02801A405C642887
:100C400002D0641C102CE8DB70BD0000008800207E
:100C500088600240000800207C01002070B5094D2A
:100C6000094C2946204600F049F8002809D00749D8
:100C7000204600F00DF829462046BDE8704000F0FF
:100C80001DB870BD00802020A06002400000202020
:100C9000074A904201D2074801E005481038064A49
:100CA0008B0001EA020101D5C16070478160704785
:100CB00010640240006002407D0F7D0F074A9042A1
:100CC00001D2074801E005481038064A8B0001EAC6
:100CD000020101D5C1607047816070471064024015
:100CE000006002407D0F7D0F0029016802D041F0B5
:100CF000010101E021F001010160704730B5104AA7
:100D00000024904201D20F4B01E00D4B103B0E4AE4
:100D1000114205D01E2202EAD12502682A4002E0D3
:100D2000406900F08002880001D5586800E018682A
:100D3000064B1840084201D002B10124204630BDC4
:100D400010640240006002403C0F3C0F7D0F7D0F9D
:100D50000B0607D5436912B143F0800301E023F08D
:100D600080034361802908D0002A026801F01E0137
:100D700001D00A4300E08A430260704730B503683F
:100D8000124ACC6813400A682243D1E905452C4336
:100D90002243CC6922430C6A22434C6A22438C6A68
:100DA00022434C6B22438C6B22431A4302604269FC
:100DB00022F00703D1E90B2422431A4342610A6956
:100DC00042604A6882608968C16030BD3F801CF023
:100DD000704710B500214AF20E4403E02246521E2D
:100DE000FDD2491C8142F9D310BD000010B5044664
:100DF0004068081A2060B0F5805F02DDA0F5005061
:100E000004E010F5805F02DA00F5005020606160B8
:100E10002168A0680844A060FFF756FA9FED041B04
:100E200053EC112BFFF7DEF9FFF75FFAE06010BD1E
:100E30007C7BD7A02FBDAD3FF0B500230124032755
:100E40000D6804FA03F21540954242D1D0F800C073
:100E50005E0007FA06F52CEA050CC0F800C091F810
:100E600004C0D0F800E00CFA06FC4CEA0E0CC0F806
:100E700000C091F804C0BCF1010F02D0BCF1020F18
:100E80001FD1D0F808C02CEA050CC0F808C091F8B2
:100E900005C0D0F808E00CFA06FC4CEA0E0CC0F8CD
:100EA00008C0D0F804C02CEA020CC0F804C04268A4
:100EB00091F806C00CFA03FC1FFA8CFC42EA0C0203
:100EC0004260C268AA43C260CA79C568B2402A4378
:100ED000C2605B1C102BB3D3F0BD4B07DB0E9A40F6
:100EE000C90810B500EB8100016A0F249C40A143A2
:100EF0000162016A1143016210BD418370470183A1
:100F00007047FEE710B500F0B3FB4FF4FA70FFF73F
:100F100060FFBDE81040452000F098BD7CB5012180
:100F2000202000F009F90121102000F005F98020AF
:100F3000009001208DF8040000208DF806000321A8
:100F40008DF805100B4D8DF8070069462846FFF710
:100F500073FF094E4FF48044694630460094FFF712
:100F60006BFF80212846FFF7CAFF21463046FFF776
:100F7000C6FF7CBD00100240001402402DE9FC4178
:100F80000121084600F0D8F80121022000F0D4F831
:100F90000121042000F0D0F80121102000F0CCF84D
:100FA00001268DF80460002430208DF806400325CA
:100FB0001C4F00908DF805508DF807406946384663
:100FC000FFF73AFF8DF804608DF806408DF8055064
:100FD00000958DF8074069461348FFF72DFF8DF8FF
:100FE00004603F208DF8064000908DF805508DF884
:100FF000074069460D48FFF71FFF8DF8046041F276
:1010000070008DF8064000908DF805508DF807406F
:1010100069460748FFF710FF10213846FFF76FFFBA
:10102000BDE8FC81000002400004024000080240CC
:1010300000100240FEE7704730B50F22C4780178F7
:101040000123FCB1144C246801F1E02104F4E064B4
:10105000C4F5E064C4F30724C4F10405E240447815
:10106000AC408578154025432A0181F8002400789A
:1010700000F01F018B404009800000F1E020C0F823
:10108000003130BD01F01F0083404809800000F1AD
:10109000E020C0F8803130BD0CED00E0B2EE0E0A69
:1010A00080ED010A9FED070AF3EE040A80ED020AC3
:1010B000C0ED030ADFED040AC0ED060A80ED000A68
:1010C000704700000000000000401C479FED090A27
:1010D000F3EE0E0A80ED010A9FED070A80ED020A89
:1010E000C0ED030ADFED050AC0ED060A80ED000A37
:1010F00070470000295C8F3E000000000000FA43AA
:101100009FED090AF3EE050A80ED010A9FED070A3B
:1011100080ED020AC0ED030ADFED050AC0ED060A04
:1011200080ED000A70470000333373400000000078
:101130000000FA4370470000044A0029116801D0FA
:10114000014300E0814311607047000030380240E5
:10115000044A0029116801D0014300E08143116075
:10116000704700004038024070B5204A1168204C9A
:1011700011F00C0104D01F4E042903D0082903D01C
:1011800004601BE0066019E01849091F0B68C3F3EF
:1011900080550B6803F03F0315B1B6FBF3F301E094
:1011A000B4FBF3F30C680968C4F388146343C1F318
:1011B0000141491C4900B3FBF1F1016011680F23A3
:1011C00003EA11110C4B5C5C0168E140416014685A
:1011D000072505EA94241C5D21FA04F48460126852
:1011E00005EA52329A5CD140C16070BD08380240B5
:1011F0000024F400001BB7001C0000207047000012
:101200001CB500202E49019000900A6842F48032FB
:101210000A604FF4A0430A6802F400320092019A77
:10122000521C0192009A12B9019A9A42F3D10A68AB
:10123000920342D50120009021484030026842F0DC
:10124000805202601F48026842F4404202601C4A19
:10125000083213681360136843F400431360136883
:1012600043F4A0531360141F174B23600B6843F023
:1012700080730B600B689B01FCD5016841F48031E1
:1012800001604168C903FCD5016841F40031016087
:1012900041688903FCD50D4940F20570086010686B
:1012A00020F003001060106840F002001060106829
:1012B000C0F381000228FAD11CBD00901CBD0000C3
:1012C00000380240007000400C5A4007003C0240C9
:1012D0000649152808D0064A32F81000034A083A91
:1012E00010604008086070470020FBE734040040AD
:1012F0006C1A00080E2803D20249085CFFF7E8BF09
:1013000070470000961A000810B50120FFF7F2FFA1
:101310006420FFF75EFD0220FFF7ECFFC820FFF717
:1013200058FD0920FFF7E6FF6420FFF752FD0A2071
:10133000FFF7E0FF6420FFF74CFD0B20FFF7DAFF1B
:101340006420FFF746FD0C20FFF7D4FF6420FFF771
:1013500040FD0D20FFF7CEFF6420FFF73AFDBDE80A
:1013600010400E20FFF7C6BF10B50B4C0B4821886C
:10137000FFF73CFD094821891030FFF737FD07488A
:10138000218A2030FFF732FD218B0448BDE8104050
:101390003030FFF72BBD00005C0100201C01002055
:1013A000124810B5016841F47001016010480168ED
:1013B00041F0010101600E4A00210832116002680B
:1013C0000C4B1A400260031D0B4A1A60026822F49B
:1013D0008022026006480C300160FFF711FF0349CC
:1013E0004FF000608039086010BD000088ED00E01B
:1013F00000380240FFFFF6FE10300024002901886B
:1014000002D041F0800101E021F0800101807047AD
:101410000029018802D041F0010101E021F0010121
:101420000180704730B5028C22F001020284028CE8
:101430008388048B22F0020224F073050C882C436D
:101440008D8915434A882A430C4DA84202D00C4D81
:10145000A8420DD122F00805CA8923F440732A431B
:1014600022F004058A882A430D8A1D434B8A2B43A8
:101470008380048389684163028430BD0000014099
:1014800000040140028B22F008020A4302837047E5
:1014900030B50288164B174C98420DD0A0420BD0A5
:1014A000B0F1804F08D0144DA84205D0134DA8428A
:1014B00002D0134DA84203D122F070054A882A4376
:1014C000104DA84206D0104DA84203D022F440751A
:1014D0000A892A4302804A68C2620A8802859842C1
:1014E00001D0A04201D1897A01860121818230BDDB
:1014F00000000140000401400004004000080040DA
:10150000000C004000100040001400402DE9F0479E
:1015100096B001210820FFF70FFE01214804FFF7D4
:1015200017FE4E4E072205213046FFF7D6FC072254
:1015300006213046FFF7D1FC02258DF854500024D7
:1015400060208DF8564014908DF855508DF8574016
:1015500014A93046FFF770FC4FF4E1301090ADF85D
:1015600048400C203E4EADF84440ADF84A00ADF87E
:101570004640ADF84C4010A9304600F06DF901210D
:10158000304600F019F90122C021304600F01EF962
:101590004FF010098DF83C9003268DF83D608DF8D2
:1015A0003E5001278DF83F700FA8FFF745FD112031
:1015B0008DF83C008DF83D608DF83E508DF83F7001
:1015C0000FA8FFF739FD01214805FFF7B5FDAD066E
:1015D000234E2448361D0095CDE90160402003903C
:1015E00004A907206F1481E891004FF48078CDE9B9
:1015F0000848DFF874A007940A940B940C940D9497
:10160000694650460E94FFF7B9FB01215046FFF79B
:101610006BFB164802A981E81102CDE905474FF49A
:101620004030CDE90A04CDE9084807940C940D94A4
:101630000E940D4CCDE90056183C69462046FFF744
:101640009DFB01212046FFF74FFB01221021204680
:10165000FFF77EFB16B0BDE8F0870000000C0240EB
:101660000044004004000020A06002407C010020F3
:1016700030B587B001210820FFF75EFD0121880405
:10168000FFF766FD244D072208212846FFF725FCB9
:10169000072209212846FFF720FC4FF440700490F0
:1016A00002208DF8140000248DF8164003208DF8D8
:1016B00015008DF8174004A92846FFF7BDFB4FF42D
:1016C00016500090ADF808400C20144DADF80440C1
:1016D000ADF80A00ADF80640ADF80C406946284662
:1016E00000F0BAF8012240F22551284600F09CF89B
:1016F0000121284600F060F827208DF8180001200D
:101700008DF819008DF81A408DF81B0006A8FFF718
:1017100093FC07B030BD0000000C024000480040C0
:1017200010B51A4C40F22551204600F05EF8002812
:101730001CD0204600F0E6F8164A15495378C854E4
:101740005B1CD8B250700C7800235A2C1CD1022894
:1017500009D003280AD9CC78641D844206D1887840
:10176000152811D103E048785A280DD110BD107802
:1017700050B9086890604868D06001201070054832
:101780000830808840BA5060537010BD0048004057
:101790008C0100200C00002070B5064D044640214D
:1017A000284600F01BF80028F9D00248001D0480EC
:1017B00070BD0000004800400029818902D041F43A
:1017C000005101E021F4005181817047002A828A92
:1017D00001D00A4300E08A4382827047024600201B
:1017E00012880A4200D00120704730B501F01F0274
:1017F00001240025C1F3421304FA02F2012B0FD099
:10180000022B0FD0838A4FEA11210088134204FA79
:1018100001F400EA040001D000B10125284630BDE2
:101820008389F0E7038AEEE710B5C1F3421301F0B4
:101830001F040121A140012B07D0022B07D0143037
:10184000002A026805D00A4304E00C30F8E71030A3
:10185000F6E78A43026010BD7FB50446008A0D4654
:1018600020F44051E88808432082A08941F20C61AD
:101870008843A9882A8911436A8902431143A181B7
:10188000A08A20F44071A8890843A0826846FFF727
:101890006BFC1A48844202D01948844201D1039853
:1018A00000E00298A189090400EBC00101EB0010DF
:1018B000296801D5490000E08900B0FBF1F26420FD
:1018C000B2FBF0F109010B096FF018056B4302EB55
:1018D0008302A3891D044FF0320306D503EBC20235
:1018E000B2FBF0F000F0070005E003EB0212B2FBE0
:1018F000F0F000F00F00084320817FBD0010014090
:10190000001401408088C0F3080070472DE9F041C1
:101910000D4600240646A1F1010847190CE0444594
:1019200005DA17F8010C315D084407F8010C305D49
:10193000641CE4B2FFF730FFAC42F0D3BDE8F081A5
:10194000FEE702E008C8121F08C1002AFAD170475A
:101950007047002001E001C1121F002AFBD170472F
:101960003248FFF7B3FB31482830FFF7AFFB2F4871
:101970005030FFF7ABFB2D487830FFF7A7FB2B4823
:10198000A030FFF78BFB2948C830FFF7B9FBFEF703
:10199000DDFDFEF7B1FEFFF7C1FAFEF789FDFFF7A7
:1019A000EDFAFFF7B3FDFFF7ADFA4FF0E020204965
:1019B0004161204AF02182F8141D0025856107212C
:1019C000016180211C48FFF798FA4FF480411B48C1
:1019D000FFF793FAFFF798FC19482121194C017081
:1019E0003021417021888170227AC270227C02717C
:1019F000227E4271232282710C48F030856085611D
:101A000085628563FFF7F2F921890F48FFF7EEF948
:101A10000D48218A1030FFF7E9F90B48218B20305F
:101A2000FFF7E4F96420FFF7D4F9FBE72C0000206E
:101A30001FBF02000FE000E000100240001402404F
:101A4000040000205C0100202C010020064908B59C
:101A500009680091A5218DF800108DF8010003217F
:101A60006846FFF753FF08BDA41A0008EE0E4D0D9F
:101A7000D90B2F0BF709E008E8077707A606F6054C
:101A80009705FB047004F403BB035303F602CB0277
:101A90007D023802FA01040404040505050509095C
:101AA00009090915EA000000C81A00080000002012
:101AB0002C00000042190008F41A00082C00002035
:101AC000740500005219000800000000000000002A
:101AD0000000000000000000000000000000000006
:101AE00000000000000000000102030401020304E2
:041AF00006070809D4
:04000005080001AD41
:00000001FF
