:020000040800F2
:1000000058060020C10100083118000875160008C4
:10001000D51700086905000839290008000000000C
:10002000000000000000000000000000611B00084C
:100030005D13000800000000351A0008D90100080F
:10004000DB010008DB010008DB010008DB01000820
:10005000DB010008DB010008DB0100089513000844
:10006000DB010008DB010008DB010008DB01000800
:10007000DB010008DB010008DB010008DB010008F0
:10008000DB010008DB010008DB010008DB010008E0
:1000900005070008DB010008DB010008DB010008A0
:1000A000DB010008DB010008DB010008DB010008C0
:1000B000DB010008DB010008DB010008DB010008B0
:1000C000DB010008DB010008DB010008DB010008A0
:1000D000DB010008DB01000849220008C9250008EF
:1000E000DB010008DB010008DB010008DB01000880
:1000F000DB010008DB010008DB010008DB01000870
:10010000DB010008DB010008911E0008DB0100088C
:10011000DB010008DB010008151F0008711F000843
:10012000DB010008DB010008DB010008DB0100083F
:10013000DB010008DB010008DB010008DB0100082F
:1001400039090008DB010008DB010008DB010008B9
:10015000DB010008DB010008DB0100089126000834
:10016000DB010008DB010008DB010008DB010008FF
:10017000DB010008DB010008DB01000800000000D3
:10018000DB010008DB010008DB010008DB010008DF
:10019000DB010008DB010008DB010008DB010008CF
:1001A0000000000000000000DB010008DFF80CD0B8
:1001B00000F058F900480047CD29000858060020F3
:1001C0000648804706480047FEE7FEE7FEE7FEE7F1
:1001D000FEE7FEE7FEE7FEE7FEE7FEE7291E000872
:1001E000AD0100082DE9FE4F81EA030404F000444C
:1001F00021F0004100944FF0000B23F0004350EA3F
:1002000001045ED052EA03045BD0C3F30A54C1F385
:100210000A552C44A4F2F3340194A0FB0254C1F318
:10022000130141F48011C3F3130343F4801301FB62
:10023000024400FB034E840A970A44EA815447EAC9
:100240008357A4FB076802958D0A05FB07854FEAD3
:10025000932C04FB0C542705029D4FEA065847EAED
:100260001637B5EB08056EEB070C870E920E47EAC2
:10027000811742EA8312A7FB0201B6EB0B0164EB84
:1002800000042B0D43EA0C335E1844EB1C50DA4695
:100290005146E7FB0201C5F313044FEA0B3343EA6F
:1002A00014534FEA0432019C43EA0603A4F10C0400
:1002B0000294009CCDE900B400F086F803B0BDE8DC
:1002C000F08F00200146F9E70EB5C10F80EAE0701B
:1002D0000844CA07002140F233438DE80E000A4665
:1002E0000B4600F071F803B000BD0EB540F233418B
:1002F00002910021CDE900110A460B4600F064F896
:1003000003B000BD01F0004330B421F0004150EAD9
:10031000010206D00A0DA2F56072C1F31301002A92
:1003200002DC30BC00207047440F44EAC104C10025
:10033000E01830BC00EBC250AFF300800029A8BF2A
:100340007047401C490008BF20F00100704710B4FE
:10035000B0FA80FC00FA0CF050EA010404BF10BCB3
:10036000704749B1CCF1200421FA04F411FA0CF1E0
:1003700018BF012121430843A3EB0C01CB1D4FEA19
:1003800000614FEA102042BF002010BC704700EB14
:10039000C35010440029A4BF10BC7047401C490042
:1003A00008BF20F0010010BC704710B5141E73F197
:1003B000000408DA401C41F1000192185B411A4325
:1003C00001D120F0010010BD2DE9F04D92469B4671
:1003D00011B1B1FA81F202E0B0FA80F22032904617
:1003E00000F052F804460F4640EA0A0041EA0B01C9
:1003F00053465A46084313D0114653EA010019D018
:10040000C8F14002504600F04EF805460E465046F0
:100410005946424600F038F8084305D0012004E070
:1004200020463946BDE8F08D0020054346EAE076D7
:100430002C4337430A986305E40AA0EB0800002226
:10044000FD0A44EA47540A3002D500200146E9E794
:10045000010510196941DDE9084500196941BDE848
:10046000F04DA2E7064C074D06E0E06840F00103BE
:1004700094E8070098471034AC42F6D3FFF79AFE91
:10048000102B0008302B0008202A04DB203A00FA49
:1004900002F1002070479140C2F1200320FA03F3DB
:1004A000194390407047202A04DB203A21FA02F0D9
:1004B0000021704721FA02F3D040C2F1200291409E
:1004C000084319467047000000B58BB00121022097
:1004D00001F0C2FA0121022001F0AEFA0222042149
:1004E0001F4801F05DF81020099002208DF82800C7
:1004F00003208DF8290000208DF82A0001208DF8B6
:100500002B0009A9164801F003F85920ADF818008E
:100510000020ADF81A00012007900020ADF820005F
:1005200006A9104801F0F4FD6020ADF80400012098
:10053000ADF806000020ADF8100001A9094801F04F
:1005400087FD0821074801F0CAFD0121054801F097
:1005500041FD0121034801F04FFD0BB000BD00003B
:10056000000402400004004000BFFEE7F0B585B083
:1005700004460D4616461F464FF4007000900020BA
:100580008DF808008DF8090008208DF80A00B4F5F0
:100590007A6F01DD4FF47A64B5F57A6F01DD4FF4BF
:1005A0007A65B6F57A6F01DD4FF47A66B7F57A6F42
:1005B00001DD4FF47A6714F57A6F00DA154C15F502
:1005C0007A6F00DA134D16F57A6F00DA114E17F5CF
:1005D0007A6F00DA0F4F200A8DF80B00E1B28DF828
:1005E0000C10290A8DF80D10E9B28DF80E10310AA1
:1005F0008DF80F10F1B28DF81010390A8DF8111026
:10060000F9B28DF812106946034800F0A2FC05B05B
:10061000F0BD000060F0FFFF0064004000B58BB04B
:100620000121082001F008FA0121480601F014FA1E
:100630000320029002208DF80C008DF80D000020A0
:100640008DF80E008DF80F0002A92C4800F060FF15
:1006500009220021294800F0A3FF0922012127488F
:1006600000F09EFF14208DF8040001208DF8050095
:100670008DF806008DF8070001A801F0DBF80020D6
:100680008DF826008DF827008DF828008DF82A00B7
:1006900001208DF82B0000208DF822008DF823001A
:1006A00008208DF8240004208DF825000320ADF8E3
:1006B000200008A9124800F04AFB00208DF81A001B
:1006C0008DF81B0001208DF81C000020ADF81000F3
:1006D000ADF81200ADF81400ADF81600ADF8180032
:1006E00001208DF81D0004A800F014FA0122022157
:1006F000034800F023FB0BB000BD0000000C0240DB
:100700000064004000B585B002214E4800F086FA32
:1007100000287DD002214B4800F0A8F96A4600214C
:10072000484800F09EFB0098A0F2012030B101285B
:1007300022D002283ED003287BD159E09DF80C003E
:100740009DF80B1040EA01203F4908809DF80E10EB
:100750009DF80D0041EA002000B23B4948809DF819
:1007600010109DF80F0041EA002000B23649888041
:100770009DF81100C8805DE09DF80C009DF80B10FD
:1007800040EA0120304908819DF80E109DF80D00C7
:1007900041EA002001B22C4841819DF810109DF8DB
:1007A0000F0041EA002001B2274881819DF8111015
:1007B000C1813FE09DF80C009DF80B1040EA01203C
:1007C000214908829DF80E109DF80D0041EA002095
:1007D00001B21D4841829DF810109DF80F0041EABA
:1007E000002001B2184881829DF81110C18221E0D9
:1007F0009DF80C009DF80B1040EA01201249088377
:100800009DF80E109DF80D0041EA002001B201E0B4
:1008100015E00EE00C4841839DF810109DF80F0084
:1008200041EA002001B2084881839DF81110C1837C
:1008300000E000BF00BF0221024800F017F905B038
:1008400000BD000000640040B001002000B58BB086
:100850000121022001F0F0F80121880601F0FCF8E6
:100860004FF44050029002208DF80C008DF80D00DE
:1008700000208DF80E008DF80F0002A92C4800F022
:1008800047FE09220C212A4800F08AFE09220D2188
:10089000274800F085FE40208DF8040001208DF8E7
:1008A00005008DF806008DF8070001A800F0C2FFD2
:1008B00000208DF826008DF827008DF828008DF88F
:1008C0002A0001208DF82B0000208DF822008DF8E1
:1008D000230008208DF8240004208DF82500032033
:1008E000ADF8200008A9134800F031FA0E208DF869
:1008F0001A0000208DF81B0001208DF81C0000203C
:10090000ADF81000ADF81200ADF81400ADF8160007
:10091000ADF8180001208DF81D0004A800F0FAF8C9
:1009200001220221034800F009FA0BB000BD0000CB
:10093000000402400068004000B52DED048B85B036
:100940000221354800F06AF9002861D002213248BE
:1009500000F08CF83149304800F06CF86A4600210C
:100960002D4800F07EFA2E48006820BB9DF80B1041
:100970000A069DF80C1042EA01429DF80D1042EA69
:1009800001219DF80E2041EA0200FFF79DFC41EC99
:10099000190B9FED240B53EC102BFFF723FC41ECBC
:1009A000180BFFF7AFFC214908601D480068401C88
:1009B0001B49086002E00120194908609DF80B10EE
:1009C0000A069DF80C1042EA01429DF80D1042EA19
:1009D00001219DF80E2041EA0200FFF775FC41EC71
:1009E000190B9FED100B53EC102BFFF7FBFB41ECA9
:1009F000180BFFF787FC0D494860084690ED010A87
:100A0000D0ED000A30EE600A094880ED000A00BF10
:100A100005B0BDEC048B00BD00680040080000324A
:100A20000C0000207B14AE47E17A84BF0400002054
:100A30000000002000220C4B994202D10023836168
:100A400011E0C1F3130201F000730BB1C2600AE0C0
:100A500001F080630BB1026105E001F000630BB1AE
:100A6000826000E0426070477000F030B1F5007FB6
:100A70003AD00FDC202928D006DC01291CD004291B
:100A80001DD0082940D11DE0402921D0B1F5807F3B
:100A90003AD126E0B1F5004F31D006DCB1F5806FD8
:100AA00025D0B1F5006F2FD124E0B1F5803F12D0F1
:100AB000B1F5003F28D111E0154A826025E00822F7
:100AC000C26022E01022C2601FE0082202611CE026
:100AD0001022026119E00822426016E010224260F2
:100AE00013E00422426010E0042242600DE0042280
:100AF00042600AE0002282610422426005E0002296
:100B000082610422426000E000BF00BF7047000025
:100B10000101010010B50021837A012202FA03F1DC
:100B20003D4A126842F001023B4B1A603A4A1C32BD
:100B300012688A43384B1C331A60027BCAB9364AA2
:100B40000C3212688A43344B0C331A604288C388D3
:100B500042EA0343304A4032847A42F83430028811
:100B6000838842EA03432C4A4032847A02EBC4026F
:100B70005360027B012A19D1274A0C3212680A43BA
:100B8000254B0C331A604288038842EA0343224A09
:100B90004032847A42F83430C288838842EA034380
:100BA0001D4A4032847A02EBC4025360C27A3AB9D9
:100BB000194A121D12688A43174B1B1D1A6006E062
:100BC000154A121D12680A43134B1B1D1A60028935
:100BD00032B9114A143212688A430F4B14331A6027
:100BE0000289012A06D10C4A143212680A430A4BC0
:100BF00014331A60427B012A06D1074A1C3212685C
:100C00000A43054B1C331A60034A126822F00102A2
:100C1000014B1A6010BD00000066004070B504462C
:100C20000D46002660692840002871D0B5F5807F08
:100C30005CD010DC082D35D006DC012D20D0022D33
:100C400024D0042D72D127E0102D31D0202D35D0A5
:100C5000402D6BD138E0B5F5004F60D009DCB5F51B
:100C6000007F49D0B5F5806F4CD0B5F5006F5DD1F0
:100C70004FE0B5F5803F2DD0B5F5003F56D12FE0C0
:100C8000A0682D4900F0F8F9064651E0E06803211C
:100C900000F0F2F906464BE0E068082100F0ECF9BC
:100CA000064645E0E068102100F0E6F906463FE020
:100CB0002069032100F0E0F9064639E020690821A7
:100CC00000F0DAF9064633E02069102100F0D4F98B
:100CD00006462DE06068082100F0CEF9064627E0C0
:100CE0006068102100F0C8F9064621E0A0690121E2
:100CF00000F0C2F906461BE0A069022100F0BCF931
:100D0000064615E0A069042100F0B6F906460FE09A
:100D10000FE0A069702100F0AFF9064608E06068B6
:100D2000042100F0A9F9064602E0FFE7002600BF13
:100D300000E00026304670BD010101001AB1436990
:100D40000B43436102E043698B434361704730B515
:100D5000024600200023146824F002041460146882
:100D600044F00104146000E05B1C546804F00104CA
:100D70001CB94FF6FF74A342F6D1546804F0010485
:100D80000CB900206CE08C79012C04D1146844F07B
:100D90008004146003E0146824F080041460CC79AB
:100DA000012C04D1146844F04004146003E014687A
:100DB00024F0400414600C7A012C04D1146844F02F
:100DC0002004146003E0146824F0200414604C7ABA
:100DD000012C04D1146844F01004146003E014687A
:100DE00024F0100414608C7A012C04D1146844F0AF
:100DF0000804146003E0146824F008041460CC7A3A
:100E0000012C04D1146844F00404146003E0146855
:100E100024F0040414608C78A407CD7844EA0564B7
:100E20000D7944EA05444D7944EA05540D886D1E58
:100E30002C43D461146824F001041460002300E002
:100E40005B1C546804F001041CB14FF6FF74A3420C
:100E5000F6D1546804F001040CB1002000E0012038
:100E600030BD10B500F5D87303EB01131B6803F018
:100E700004031372137A53B900F5D87303EB01130B
:100E80001B6840F2FF7404EA5353136009E000F555
:100E9000D87303EB01131B686FF0604404EAD303BB
:100EA000536000F5D87303EB01131B6803F00203D2
:100EB000537200F5D87303EB01135B6803F00F0363
:100EC000937200F5D87303EB01135B681B0AD374AC
:100ED00000F5D87303EB01139B68D37200F5D87348
:100EE00003EB01139B681C0A147300F5D87303EB22
:100EF00001139B681C0C547300F5D87303EB0113AA
:100F00009B681B0E937300F5D87303EB0113DB682A
:100F1000D37300F5D87303EB0113DB681C0A147458
:100F200000F5D87303EB0113DB681C0C547400F557
:100F3000D87303EB0113DB681B0E937421B9C368EC
:100F400043F02003C36003E0036943F0200303611F
:100F500010BD10B502460020936803F08063B3F122
:100F6000806F00D110E0936803F00063B3F1006F6D
:100F700001D1012008E0936803F08053B3F1805F52
:100F800001D1022000E00420042874D002F5C073CF
:100F900003EB00131B6803F0010402F5C07303EBBD
:100FA00000131C600B7A7BB94B7A0C8843EA4453DC
:100FB00002F5C07404EB00142468234302F5C074E6
:100FC00004EB0014236010E00B7A4C6843EAC4037E
:100FD0004C7A234302F5C07404EB001424682343C5
:100FE00002F5C07404EB001423608B7A03F00F0346
:100FF0008B7202F5C07303EB00135B6823F00F04E0
:1010000002F5C07303EB00135C6002F5C07303EBE1
:1010100000135B688C7A234302F5C07404EB001460
:1010200063608B7B1C064B7B44EA03440B7B44EAE6
:101030000323CC7A234302F5C07404EB0014A360AD
:101040008B7C1C064B7C44EA03440B7C44EA032360
:10105000CC7B234302F5C07404EB0014E36002F57B
:10106000C07303EB00131B6843F0010402F5C07367
:1010700003EB00131C6010BD0246002002EA0103CE
:101080000BB1012000E000207047000010B52DEDED
:10109000048BA6480188A64800F0CAF9A348018934
:1010A000A348103000F0C4F9A048018AA0482030BD
:1010B00000F0BEF99D48018B9D48303000F0B8F932
:1010C00001209C490870002877D09B4803689B4802
:1010D00002689B4801689B4800F006FB99498868B4
:1010E000FFF7F2F841EC190B9FED970B53EC102B27
:1010F000FFF778F841EC180BFFF704F994490865FD
:101100009049C9684842FFF7DFF841EC190B9FEDA1
:101110008E0B53EC102BFFF765F841EC180BFFF723
:10112000F1F88B4988679FED8B0A8B4880ED000AA8
:101130009FED880A80ED010A7D48D0ED080AF8EE9F
:10114000E00AB0EE600A01F1500000F0AFFB824807
:10115000D0ED020A30EE200A80ED020A7448D0ED8C
:101160000C0AF8EEE00AB0EE600A7948783000F038
:101170009DFB7948D0ED030A30EE200A80ED030A8A
:10118000044694ED030ABDEEC00A10EE103A94ED49
:10119000020ABDEEC00A10EE102A94ED010ABDEE5F
:1011A000C00A10EE101A94ED000ABDEEC00A10EE4F
:1011B000100AFFF7DBF9B5E0FFE75F4803685F4817
:1011C00002685F4801685F4800F08EFA5D4949682F
:1011D0004842FFF779F841EC190B9FED5B0B53EC9C
:1011E000102BFEF7FFFF41EC180BFFF78BF8584967
:1011F000086054490868FFF767F841EC190B9FED48
:10120000520B53EC102BFEF7EDFF41EC180BFFF7E0
:1012100079F84F4988624B498868FFF755F841ECE7
:10122000190B9FED490B53EC102BFEF7DBFF41EC44
:10123000180BFFF767F8464908654249C9684842F4
:10124000FFF742F841EC190B9FED3F0B53EC102BCD
:10125000FEF7C8FF41EC180BFFF754F83C498867CC
:101260003348D0ED000AF8EEE00AB0EE600A084616
:1012700000F01CFB3848D0ED000A30EE200A80ED6B
:10128000000A2B48D0ED040AF8EEE00AB0EE600A3E
:101290002F48283000F00AFB2F48D0ED010A30EE2D
:1012A000200A80ED010A2248D0ED080AF8EEE00A93
:1012B000B0EE600A2648503000F0F8FA2648D0ED2B
:1012C000020A30EE200A80ED020A1948D0ED0C0A1D
:1012D000F8EEE00AB0EE600A1D48783000F0E6FA59
:1012E0001D48D0ED030A30EE200A80ED030A0446C3
:1012F00094ED030ABDEEC00A10EE103A94ED020A16
:10130000BDEEC00A10EE102A94ED010ABDEEC00A2F
:1013100010EE101A94ED000ABDEEC00A10EE100A8D
:10132000FFF724F9BDEC048B10BD0000B0010020D4
:1013300050010020400000204C0000204800002008
:1013400044000020900100207B14AE47E17AC43FA6
:101350006000002000000000A0010020704710B5D0
:10136000002107E04AF2104200BF1300A2F101027F
:10137000FBD1491C8142F5D310BD10B5002106E018
:10138000282200BF1300A2F10102FBD1491C8142B7
:10139000F6D310BD10B52DED048B0A20FFF7EDFF3D
:1013A000022000F039F808B30221134800F01BF9BD
:1013B00018B100201149086018E010480068FEF7D5
:1013C00094FF41EC190B9FED0E0B53EC102BFEF725
:1013D00009FF41EC180BFEF795FF0B49086000F080
:1013E000FBF93C20FFF7BBFF01F05AFA022000F0A6
:1013F0000DF8BDEC048B10BD000802402400002055
:101400003A234A7B832FC63F300000200149086001
:1014100070470000143C014001460020034A126856
:101420000A400AB1012000E000207047143C01404E
:1014300070B52DED048B04460D466068281A2060B7
:101440002068B0F5805F04DD2068A0F500502060C2
:1014500007E0206810F5805F03DA206800F500508F
:10146000206065602168A0680844A060A068FEF75D
:101470002BFF41EC190B9FED070B53EC102BFEF7E4
:10148000B1FE41EC180BFEF73DFFE060BDEC048BB4
:1014900070BD00007C7BD7A02FBDAD3F2DE9F04192
:1014A00004460D4616460027012D08D10221164894
:1014B00000F0A4F80121144800F0A0F807E0022190
:1014C000114800F099F801210F4800F095F8002725
:1014D00016E008210D4800F091F804210B4800F0B7
:1014E0008DF83046FFF749FF0821084800F084F8DE
:1014F0000421064800F080F83046FFF73EFF7F1CCD
:10150000A742E6D9BDE8F08100040240000802408D
:10151000F0B50A4600210023002400BF3DE001256C
:1015200005FA01F3156805EA03049C4234D1056805
:101530004F000326BE40B543056015794E00B54007
:101540000668354305601579012D02D01579022D05
:1015500016D185684F000326BE40B5438560557996
:101560004E00B540866835438560456801268E404B
:10157000B5434560456896798E40B6B235434560BF
:10158000C5684F000326BE40B543C560D5794E00FF
:10159000B540C6683543C560491C1029BFD3F0BDAE
:1015A000F0B5002300244D07ED0E02FA05F3CE102E
:1015B00000F1200555F826504E07F70E0F26BE40C5
:1015C000B543CF1000F1200646F82750CE1000F1A9
:1015D000200555F8265045EA0304CE1000F12005F9
:1015E00045F82640F0BD0246002013690B400BB1C0
:1015F000012000E00020704741837047018370475D
:1016000030B50A46002327E0002120E000EB8104EA
:10161000D4ED000A4C1C00EB840494ED001AF4EEA7
:10162000C10AF1EE10FA11DD00EB810494ED000A1D
:101630004C1C00EB8404D4ED000A00EB8104C4EDE3
:10164000000A4C1C00EB840484ED000A491CD41AE7
:10165000641E8C42DADC5B1C541E9C42D4DC541C9D
:1016600004EBD4756D1000EB8505D5ED000AB0EEE6
:10167000600A30BD00BFFEE710B500F04BFF45200B
:1016800001F016FA10BD00001CB50121202000F069
:10169000D3F90121102000F0CFF980200090012023
:1016A0008DF8040000208DF8060003208DF8050059
:1016B00000208DF8070069460948FFF729FF4FF41D
:1016C0008040009069460748FFF722FF80210448C8
:1016D000FFF794FF4FF480410248FFF78FFF1CBDD6
:1016E000001002400014024030B58C18E41A046067
:1016F0004C4214441C4444604C4214445D422C440B
:1017000084608C181C44C46030BD00001CB50121ED
:10171000084600F091F90121022000F08DF9012125
:10172000042000F089F90121102000F085F9302013
:10173000009001208DF8040000208DF806000320A1
:101740008DF8050000208DF8070069461D48FFF759
:10175000DFFE0320009001208DF8040000208DF8AA
:10176000060003208DF8050000208DF8070069466B
:101770001548FFF7CDFE3F20009001208DF80400B2
:1017800000208DF8060003208DF8050000208DF85C
:10179000070069460D48FFF7BBFE41F2700000905C
:1017A00001208DF8040000208DF8060003208DF83C
:1017B000050000208DF8070069460548FFF7A8FEE0
:1017C0001CBD00000000024000040240000802406E
:1017D0000010024000BFFEE700B511480088042851
:1017E00002DD00200E4908800E4890ED000A0E48E8
:1017F0000B49098800EB810080ED000A0848008849
:10180000401C0749088008460088042806D10521A5
:101810000548FFF7F5FE054880ED000A00BD000011
:101820003800002030000020280200203400002072
:101830007047000070B5002100230F22C4781CB34C
:10184000174C246804F4E064C4F5E064C4F3072191
:10185000C1F10404E3B20A4144789C40E1B28478C7
:10186000144021430C07210E0E4C05786155047875
:1018700004F01F050124AC4005786D11AD0005F1A1
:10188000E025C5F8004109E0047804F01F050124B3
:10189000AC40054D0678761145F8264070BD000035
:1018A0000CED00E000E400E080E100E0B0EE401A62
:1018B00090ED000A30EE410AF0EE400A90ED040A85
:1018C00030EEC00AF0EE401AC0ED040A90ED050AB1
:1018D00030EE200A80ED050A90ED050A90ED062A0B
:1018E000B4EEC20AF1EE10FA04DB90ED060A80EDC8
:1018F000050A10E090ED050A90ED062AB1EE422AA5
:10190000B4EEC20AF1EE10FA05D890ED060AB1EE77
:10191000400A80ED050A90ED010A20EE200A80EDD4
:10192000070A90ED020A90ED052A20EE020A80EDEA
:10193000080A90ED030A20EE210A80ED090A90EDD5
:10194000070A90ED082A30EE020A90ED092A30EEDF
:10195000020A70479FED0A0A80ED010A9FED090A0D
:1019600080ED020A9FED080A80ED030A9FED070A49
:1019700080ED060A9FED060A80ED000A7047000020
:10198000CDCC4C3EA69BC43B0000F04200401C471F
:1019900000000000012914D19FED140A80ED010A16
:1019A0009FED130A80ED020AB3EE040A80ED030AEC
:1019B0009FED100A80ED060A9FED0D0A80ED000AEA
:1019C00013E09FED0D0A80ED010A9FED090A80EDFD
:1019D000020A9FED070A80ED030A9FED060A80EDDB
:1019E000060A9FED030A80ED000A70478FC2753D1D
:1019F000000000000000C842CDCC4C3E9FED0A0A1A
:101A000080ED010A9FED090A80ED020AB3EE050A96
:101A100080ED030A9FED060A80ED060A9FED030A9A
:101A200080ED000A7047000033337340000000006F
:101A30000000FA437047000029B1064A12680243C9
:101A4000044B1A6004E0034A12688243014B1A6097
:101A5000704700003038024029B1064A126802433C
:101A6000044B1A6004E0034A12688243014B1A6077
:101A70007047000040380240F0B5002100220024E9
:101A8000022500260223324F3F6807F00C0121B1E6
:101A9000042905D0082937D105E02E4F076036E02C
:101AA0002D4F076033E02A4F3F1F3F68C7F3805632
:101AB000274F3F1F3F6807F03F036EB1264FB7FB2C
:101AC000F3F7DFF88CC0ACF1040CDCF800C0CCF309
:101AD000881C07FB0CF40CE01E4FB7FBF3F7DFF894
:101AE00070C0ACF1040CDCF800C0CCF3881C07FB20
:101AF0000CF4174F3F1F3F68C7F301477F1C7D0061
:101B0000B4FBF5F7076002E0124F076000BF00BFAB
:101B10000F4F3F6807F0F0010909104F7A5C076822
:101B2000D74047600A4F3F6807F4E051890A0B4FDE
:101B30007A5C4768D7408760054F3F6807F460418B
:101B4000490B064F7A5C4768D740C760F0BD00007C
:101B5000083802400024F400001BB70050000020A9
:101B6000704700000CB500200190009041480068CB
:101B700040F480303F49086000BF3E48006800F4F0
:101B8000003000900198401C0190009818B901980D
:101B9000B0F5A04FF1D13748006800F4003010B123
:101BA0000120009001E0002000900098012860D101
:101BB00030484030006840F080502E494031086085
:101BC0002D48006840F440402B49086029480830FF
:101BD00000682849083108600846006840F4004061
:101BE00008600846006840F4A05008602348091FB8
:101BF0000860081F006840F08070091F086000BF7F
:101C00001C48006800F000700028F9D01A480068ED
:101C100040F480301849086000BF1748406800F45D
:101C200080300028F9D01448006840F40030124990
:101C3000086000BF1048406800F400300028F9D068
:101C400040F205700E4908600A480830006820F02C
:101C500003000849083108600846006840F00200A7
:101C6000086000BF03480830006800F00C00082836
:101C7000F8D10CBD00380240007000400C5A4007FB
:101C8000003C0240152803D10021094A11600DE0F3
:101C9000084931F81010064A083A1160054A32F82E
:101CA000101001EBD1725210014B1A607047000006
:101CB00034040040D42A000810B504460E2C03D288
:101CC0000249085DFFF7DEFF10BD0000FE2A000894
:101CD00010B50446A07900F08000002869D10121E8
:101CE000206800F09BF998B1A07900F0400078B12D
:101CF000A07900F03F003F2807D1A07940F0800094
:101D0000A0714FF0FF30A06002E0A068401CA0600E
:101D1000A188206800F082F9002846D0A07900F060
:101D20004000E8B1A07940F08000A071A0880228AE
:101D300002D0082812D108E0206800F069F9A060FC
:101D40000021206800F0C2F909E0206800F063F982
:101D5000A0600021206800F0CBF900E000BF24E083
:101D60000020A071A060A07940F04000A071002187
:101D7000206800F041F90021206800F0C6F9A08831
:101D8000022802D008280AD104E00221206800F0CD
:101D90009DF905E00221206800F0AAF900E000BFEB
:101DA00000BF0121206800F027F905488068054937
:101DB0000860A28842F00101206800F01AF910BD05
:101DC0003C0200203C00002010B50120FFF774FF0A
:101DD0006420FFF7C4FA0220FFF76EFFC820FFF768
:101DE000BEFA0920FFF768FF6420FFF7B8FA0A205F
:101DF000FFF762FF6420FFF7B2FA0B20FFF75CFFEA
:101E00006420FFF7ACFA0C20FFF756FF6420FFF7C1
:101E1000A6FA0D20FFF750FF6420FFF7A0FA0E206E
:101E2000FFF74AFF10BD000010B51548006840F4E8
:101E30007000134908601348006840F00100114920
:101E4000086000200F49083108600E4800680E49FC
:101E500008400C4908600D48091D0860081F00680B
:101E600020F48020091F0860002006490C3108601A
:101E7000FFF778FE4FF0006001498039086010BD1F
:101E800088ED00E000380240FFFFF6FE103000242D
:101E900010B50121094800F0ACF80221074800F014
:101EA000BDF810B10648FFF713FF0821034800F002
:101EB000B5F810B10348FFF70BFF10BD000C004050
:101EC0003C020020480200201FB501211020FFF72E
:101ED000C3FD36208DF8000001208DF801000020A0
:101EE0008DF8020001208DF803006846FFF7A2FC80
:101EF0005920ADF804000020ADF80600ADF80C0044
:101F00004FF47A70029001A9014800F001F91FBD59
:101F10000010004010B501210A4800F07FF878B1A8
:101F20000121084800F065F80121064800F05EF83C
:101F30000548406980F0800003494861FFF7A6F832
:101F400010BD0000001000400010024010B501213B
:101F5000064800F051F801221146044800F06FF8DD
:101F60000121024800F042F810BD000000100040BE
:101F700010B50121144800F051F818B3012112489E
:101F800000F037F80121104800F030F80F480068E1
:101F9000401C0E490860084600684CF250318842E7
:101FA00002D100200949086009480068401C08491E
:101FB0000860084600684CF25031884202D1002087
:101FC0000349086010BD00000014004024000020F8
:101FD0002800002021B1028842F08002028004E043
:101FE00002884FF67F731A4002807047CA4302820C
:101FF0007047CA430282704721B1028842F0010251
:10200000028004E002884FF6FE731A400280704797
:102010000146486B70470146C86B704730B50246B1
:10202000002000230024158A05EA0103958905EAAA
:10203000010413B10CB1012000E0002030BD1AB141
:1020400083890B43838102E083898B4383817047BB
:1020500070B5002400220023058C4FF6FE76354033
:102060000584028C8388048B4FF68F752C40B51E37
:102070002C400D882C43751E2A408D892A434D889B
:102080002A43104DA84202D00F4DA84213D14FF65B
:10209000F7752A40CD892A434FF6FB752A408D8873
:1020A0002A434FF6FF652B404FF6FF552B400D8A14
:1020B0002B434D8A2B43838004838D6845630284C0
:1020C00070BD000000000140000401400A460021EC
:1020D000018C4FF6FD7319401143018470470A4685
:1020E0000021018B4FF6F7731940114301837047AC
:1020F0000A460021018C4FF6FF5319404FF6FF733B
:1021000003EA0223194301847047416270470000CB
:1021100000220288184B98420ED0184B98420BD0E0
:10212000B0F1804F08D0164B984205D0154B98421D
:1021300002D0154B984204D14FF68F731A404B884A
:102140001A43124B984207D0114B984204D04FF6D5
:10215000FF431A400B891A4302804B68C3620B8805
:102160000385054B984202D0044B984201D18B7AEB
:102170000386012383827047000001400004014070
:102180000004004000080040000C00400010004027
:102190000014004000B587B001210820FFF74CFC77
:1021A00001214804FFF758FC072205212448FFF7C6
:1021B000F7F9072206212248FFF7F2F96020019083
:1021C00002208DF8080000208DF80A0003208DF809
:1021D000090000208DF80B0001A91948FFF798F9B4
:1021E0004FF4165003900020ADF81000ADF8120027
:1021F000ADF814000C20ADF816000020ADF8180062
:1022000003A9104800F0C6FA012240F225510D48FA
:1022100000F09BFA01210B4800F054FA26208DF8BB
:10222000000001208DF8010000208DF8020001203F
:102230008DF803006846FFF7FDFA07B000BD000007
:10224000000C02400044004010B540F22551A8485F
:1022500000F051FA00287DD0A54800F005FBC1B27E
:10226000A44802780078401CA24B1870A248815400
:1022700000785A286FD1A04880788B28FAD19E48E0
:10228000407801281AD114209C49086000209C49FC
:1022900008609C49086001219B48FFF77BFB0121F6
:1022A00099482830FFF776FB012197485030FFF717
:1022B00071FB012194487830FFF76CFB8E48407821
:1022C00002281BD16FF013008C49086000208C4954
:1022D00008608C49086001218B48FFF75BFB0121F6
:1022E00089482830FFF756FB012187485030FFF717
:1022F00051FB012184487830FFF74CFB7E48407841
:1023000003281BD16FF00E007D49086000207D4935
:1023100008607A49086001217B48FFF73BFB0121F7
:1023200079482830FFF736FB012177485030FFF716
:1023300031FB012174487830FFF72CFB6E48407860
:1023400004281DD10F206E49086000206B490860E9
:102350006C4901E0CBE0BCE0086001216A48FFF76E
:1023600019FB012168482830FFF714FB012166485A
:102370005030FFF70FFB012163487830FFF70AFB6D
:102380005D4840780C281AD10F205E490860002073
:102390005A4908605A49086000215B48FFF7FAFA79
:1023A000002159482830FFF7F5FA002156485030EF
:1023B000FFF7F0FA002154487830FFF7EBFA4E4867
:1023C00040780D281BD16FF00E004E4908600020A8
:1023D0004A4908604A49086000214B48FFF7DAFA89
:1023E000002149482830FFF7D5FA002146485030EF
:1023F000FFF7D0FA002144487830FFF7CBFA3E4887
:1024000040780E2805D10120404908703C203B4906
:102410000860394840780B2819D1002038490860F5
:10242000364908603749086001213748FFF7B2FA9A
:10243000012135482830FFF7ADFA012132485030EC
:10244000FFF7A8FA012130487830FFF7A3FA2A48AD
:102450004078092805D14FF47A720121C82000F094
:102460006DFA254840780A2805D14FF47A72002188
:10247000C82000F063FA20484078052805D140F6CE
:10248000B8320021C820FFF709F81B484078062819
:1024900005D140F6B8320121C820FEF7FFFF1648EB
:1024A0004078072805D14FF4FA620121C82000F0D6
:1024B00009FA11484078082805D14FF4FA62002142
:1024C000C82000F0FFF91248006880F480401049ED
:1024D0000860094800785A2802D000200549087091
:1024E00004480078032802D100200249087010BD7A
:1024F0000044004010000020F401002048000020AB
:10250000440000204C00002060000020400000201B
:102510001414024000B587B001210820FFF78CFA9F
:1025200001218804FFF798FA072208212448FFF7C1
:1025300037F8072209212248FFF732F84FF440709C
:10254000019002208DF8080000208DF80A00032079
:102550008DF8090000208DF80B0001A91848FEF73E
:10256000D7FF4FF4165003900020ADF81000ADF8DF
:102570001200ADF814000C20ADF816000020ADF8E4
:10258000180003A90F4800F005F9012240F2255177
:102590000C4800F0DAF801210A4800F093F82720EF
:1025A0008DF8000001208DF8010000208DF8020058
:1025B00001208DF803006846FFF73CF907B000BD25
:1025C000000C02400048004010B540F2255123485D
:1025D00000F091F800283ED0204800F045F9C1B243
:1025E0001F4802780078401C1D4B18701D4881540C
:1025F00000785A2802D00020194608701848007840
:10260000022806D1174840785A2802D000201449E1
:1026100008701348007803281DDD1248C078401D5B
:102620000F490978884200D010BD0E4880781528DF
:102630000DD10D480B490A68026049684160407934
:102640000949097940EA01200849086000BF00BF34
:1026500000200349087000BFE6E700000048004082
:102660002000002000020020140000201C00002098
:1026700010B5044600BF4021044800F02FF80028A0
:10268000F9D00248001D048010BD00000048004041
:1026900010B540F22551084800F02DF858B1064811
:1026A00000F0E2F8C1B2054802780078401C034B04
:1026B00018700348815410BD00140140210000200F
:1026C0001402002021B1828942F40052828104E088
:1026D00082894DF6FF731A408281704702460020BE
:1026E000B1F5007F00D100BF13880B400BB1012072
:1026F00000E00020704770B502460024002300254A
:10270000002040F66A16B14200D100BFC1F3421565
:1027100001F01F03012606FA03F3012D02D1968969
:10272000334006E0022D02D1168A334001E0968A3A
:1027300033400C12012606FA04F41688344013B113
:102740000CB1012000E0002070BDF0B5034600246C
:1027500000260025002040F66A17B94200D100BFCC
:102760001846C1F3421401F01F06012707FA06F5C7
:10277000012C01D10C3004E0022C01D1103000E01A
:1027800014301AB107682F43076002E00768AF43AF
:102790000760F0BD2DE9FF4705460E460024A1461F
:1027A00000BFA046B08900B100BF2C8A24F4405479
:1027B000F08804432C82AC8941F20C608443B088D9
:1027C00031890843718908430443AC81AC8A24F4FD
:1027D0004074B0890443AC826846FFF74DF9204845
:1027E000854202D01F48854202D1DDF80C9001E0FD
:1027F000DDF80890A88900F4004040B109EBC90059
:1028000000EB091031684900B0FBF1F707E009EB74
:10281000C90000EB091031688900B0FBF1F76420B2
:10282000B7FBF0F004012009642101FB1078A889AE
:1028300000F4004040B1322000EBC800B0FBF1F0E2
:1028400000F00700044308E0322000EB0810642188
:10285000B0FBF1F000F00F0004432C81BDE8FF87CE
:10286000001001400014014001468888C0F30800B0
:10287000704770B504460D4600260EE0681EB04253
:1028800005DD205CA15D0844C1B2681E21543146BB
:10289000721CD6B2605CFFF7EBFEAE42EEDB70BDA1
:1028A00010B54FF480610648FEF7A8FE6420FEF7DD
:1028B00064FD4FF480610248FEF79EFE10BD0000EB
:1028C000001402402DE9F04104460D46164600274B
:1028D000012D08D109031748FEF790FE1021154875
:1028E000FEF78CFE08E04FF480511248FEF784FE9C
:1028F00010211048FEF780FE002716E040210D4809
:10290000FEF77CFE20210B48FEF778FE3046FEF7EE
:1029100034FD40210748FEF76FFE20210548FEF7F1
:102920006BFE3046FEF729FD7F1CA742E6D9BDE8C5
:10293000F08100000010024000BFFEE72DE9F041E9
:1029400004460D4616460027012D07D11648FEF70E
:1029500055FE02211448FEF751FE07E001211248FE
:10296000FEF74AFE02211048FEF746FE002716E059
:1029700020210D48FEF742FE10210B48FEF73EFED7
:102980003046FEF7FAFC20210748FEF735FE1021FD
:102990000548FEF731FE3046FEF7EFFC7F1CA742EC
:1029A000E6D9BDE8F08100000008024002E008C856
:1029B000121F08C1002AFAD170477047002001E0B9
:1029C00001C1121F002AFBD17047000001212E48CF
:1029D000FEF7E0FF01212C482830FEF7DBFF012144
:1029E00029485030FEF7D6FF012127487830FEF7FE
:1029F000D1FF2648FEF7AEFF2548FEF7FFFFFDF7A3
:102A00000DFEFDF723FFFEF73FFEFDF75DFDFEF730
:102A10007DFEFFF7BFFBFEF72FFEFFF755FA802183
:102A20001C48FEF7E9FD4FF480411B48FEF7E4FD2A
:102A300000201A4988600021184881618162816301
:102A4000174801881548FEF7F3FC1548018913481B
:102A50001030FEF7EDFC1248018A10482030FEF7D6
:102A6000E7FC0F48018B0D483030FEF7E1FCFFF723
:102A7000ABF9FFF76BFA00200A4908600A490860C1
:102A80000A49086000BFFEE7600000200001002046
:102A900028010020001002400014024050010020D4
:102AA000B001002044000020480000204C0000201D
:102AB00038B50446064800680090A5208DF800004F
:102AC0008DF8014003216846FFF7D3FE38BD0000B2
:102AD0000C2B0008EE0E4D0DD90B2F0BF709E0085B
:102AE000E8077707A606F6059705FB047004F403CC
:102AF000BB035303F602CB027D023802FA01040441
:102B0000040405050505090909090915EA0000007D
:102B1000302B00080000002060000000AC290008F5
:102B2000902B000860000020F8050000BC29000878
:102B30000000000000000000000000000000000095
:102B40000000000000000000000000000000000085
:102B50000000000000000000000000000000000075
:102B60000000000000000000000000000000000065
:102B70000000000000000000000000000000000055
:102B80000000000001020304010203040607080913
:04000005080001AD41
:00000001FF
