:020000040800F2
:1000000040040020C1010008B309000835090008B8
:10001000B1090008090200087D0B0008000000007B
:100020000000000000000000000000004D0A000871
:100030006908000800000000190A0008D90100083A
:10004000DB010008DB010008DB010008DB01000820
:10005000DB010008DB010008DB010008DB01000810
:10006000DB010008DB010008DB010008DB01000800
:10007000DB010008DB010008DB010008DB010008F0
:10008000DB010008DB010008DB010008DB010008E0
:1000900075030008DB010008DB010008DB01000834
:1000A000DB010008DB010008DB010008DB010008C0
:1000B000DB010008DB010008DB010008DB010008B0
:1000C000DB010008DB010008DB010008DB010008A0
:1000D000DB010008DB010008DB010008DB01000890
:1000E000DB010008DB010008DB010008DB01000880
:1000F000DB010008DB010008DB010008DB01000870
:10010000DB010008DB010008DB010008DB0100085F
:10011000DB010008DB010008DB010008DB0100084F
:10012000DB010008DB010008DB010008DB0100083F
:10013000DB010008DB010008DB010008DB0100082F
:10014000DB010008DB010008DB010008DB0100081F
:10015000DB010008DB010008DB010008DB0100080F
:10016000DB010008DB010008DB010008DB010008FF
:10017000DB010008DB010008DB01000800000000D3
:10018000DB010008DB010008DB010008DB010008DF
:10019000DB010008DB010008DB010008DB010008CF
:1001A0000000000000000000DB010008DFF80CD0B8
:1001B00000F018F8004800479D0B0008400400209C
:1001C0000648804706480047FEE7FEE7FEE7FEE7F1
:1001D000FEE7FEE7FEE7FEE7FEE7FEE7210B00088D
:1001E000AD010008064C074D06E0E06840F0010351
:1001F00094E8070098471034AC42F6D3FFF7DAFFD3
:10020000380C0008480C0008FEE7000010B586B066
:100210004FF40074009400248DF808408DF80940D4
:1002200008248DF80A404FF47A64A04200DD20468D
:10023000A14200DD2146A24200DD2246A34200DDAC
:100240002346134CA04200DA2046A14200DA2146A0
:10025000A24200DA2246A34200DA2346040A8DF8BD
:100260000C00080A8DF80D008DF80E10100A8DF89C
:100270000F008DF81020180A8DF811008DF80B4032
:100280008DF812306946034800F096FA06B010BDAA
:1002900060F0FFFF0064004070B58AB001210820C3
:1002A00000F0BCFB0121480600F0C4FB02208DF8E1
:1002B00020008DF8210000242C4D03268DF82240CB
:1002C00007968DF8234007A9284600F0CEFA0922A8
:1002D0000021284600F01AFB09220121284600F0DF
:1002E00015FB14208DF8240001258DF825508DF87C
:1002F00026508DF8275009A800F05CFB8DF80640C9
:100300008DF802408DF807408DF8034008208DF8E5
:100310000400ADF800608DF808400420144E8DF8FC
:100320000A408DF805008DF80B506946304600F004
:1003300087F98DF816408DF817408DF81850ADF8F4
:100340000C40ADF81040ADF80E40ADF81240ADF8DD
:1003500014408DF8195003A800F0B0F801220221D2
:10036000304600F065F90AB070BD0000000C024094
:100370000064004010B5314C86B00221204600F0E8
:1003800003F9002858D00221204600F05BF86A46A5
:100390000021204600F0C8F900982949A0F5007016
:1003A000013806D0012814D0022822D003283FD1DA
:1003B0002FE0BDF80B0040BA0880BDF80D0040BA30
:1003C0004880BDF80F0040BA88809DF81100C880B1
:1003D0002EE0BDF80B0040BA0881BDF80D0040BA10
:1003E0004881BDF80F0040BA88819DF81100C8818E
:1003F0001EE0BDF80B0040BA0882BDF80D0040BAFF
:100400004882BDF80F0040BA88829DF81100C8826A
:100410000EE0BDF80B0040BA0883BDF80D0040BAED
:100420004883BDF80F0040BA88839DF81100C88347
:100430000221204600F006F806B010BD006400401E
:100440002000002030B5082310240422B1F5007FDD
:100450001DD010DC202929D007DC012921D0042956
:1004600022D0082900D1C46030BD402920D0B1F588
:10047000807FF9D10BE00025B1F5004F06D008DCF4
:10048000B1F5806F03D0B1F5006FEDD185614260A9
:1004900030BDB1F5803F0DD0B1F5003FF8D14460DB
:1004A00030BD0549816030BDC36030BD036130BDE2
:1004B000046130BD436030BD01010100F0B5827AB6
:1004C000012191402E4A136843F0010313602C4B25
:1004D0001C331C688C431C60294D067B294C0C3551
:1004E000A6B92E688E432E604688C78846EA07461E
:1004F000877A04EBC707C7F840660688878846EA0C
:100500000746877A04EBC707C7F84466067B012EC7
:1005100012D12E680E432E60867A056804EBC6065B
:100520004FEA3545C6F84056867A456804EBC6045E
:100530004FEA3545C4F84456114CC57A241D002DA8
:10054000256806D00D4325600D4C0589143415B17E
:1005500004E08D43F7E725688D4325600589012D6B
:1005600002D125680D432560407B012802D118681F
:1005700008431860106820F001001060F0BD000012
:1005800000660040006000400246002053690B42B4
:100590004AD0B1F5807F3BD013DC08292ED007DC90
:1005A000012926D0022927D004293DD1D0682BE08B
:1005B000102925D0202926D0402935D110691021B5
:1005C00030E0B1F5004F2BD00BDCB1F5007F22D02D
:1005D000B1F5806F22D0B1F5006F25D190697021FF
:1005E00020E0B1F5803F11D0B1F5003F1CD150683B
:1005F000E5E790680D4915E0D06802E0D068DEE7D5
:10060000106903210EE0106908210BE05068FBE738
:100610009069012106E09069022103E0906900E001
:100620005068042100F01AB9704700000101010070
:10063000002A426901D00A4300E08A4342617047C0
:1006400010B50368002223F002030360036843F03F
:10065000010303604FF6FF7300E0521C4468E40797
:1006600001D19A42F9D14268D2073ED08A79012A53
:1006700002683CD022F080020260CA79012A026836
:1006800038D022F0400202600A7A012A026834D08F
:1006900022F0200202604A7A012A026830D022F059
:1006A000100202608A7A012A02682CD022F0080225
:1006B0000260CA7A012A026828D022F0040202608D
:1006C0008A78CC78920742EA04620C7942EA0442C2
:1006D0004C79098842EA0452491E0A43C261016802
:1006E00021F001010160002114E0002010BD42F062
:1006F0008002C1E742F04002C5E742F02002C9E7AC
:1007000042F01002CDE742F00802D1E742F00402C5
:10071000D5E7491C4268D20701D09942F9D1406817
:10072000C007E2D1012010BD10B500EB0113D3F8D2
:10073000B04114F004041472D3F8B04134D0E4088A
:10074000C2F80440D3F8B04104F002045472D3F864
:10075000B44104F00F049472D3F8B441240AD47461
:10076000D3F8B841D472D3F8B841240A1473D3F83B
:10077000B841240C5473D3F8B841240E9473D3F8C1
:10078000BC41D473D3F8BC41240A1474D3F8BC41DF
:10079000240C5474D3F8BC311B0E937439B1016925
:1007A00041F02001016110BD640D1460CAE7C16809
:1007B00041F02001C16010BD30B5024600209368B1
:1007C0005B0108D49068000101D5012003E0906826
:1007D000C00037D5022002EB0012D2F8803103F0BE
:1007E0000103C2F880310B7A73B3D2F880414D68AF
:1007F0001C434B7A43EAC5031C43C2F880418B7A01
:1008000003F00F038B72D2F8843123F00F03C2F888
:100810008431D2F884318C7A2343C2F88431CB7A84
:10082000CC6843EA0423C2F88831CB7B096943EAE8
:100830000121C2F88C11D2F8801141F00101C2F8F7
:10084000801130BD042030BDD2F880314C7A234372
:100850000C8843EA4453C2F88031D0E702460020B6
:100860000A4200D0012070477047F0B500230124F0
:1008700003270D6804FA03F21540954242D1D0F8DF
:1008800000C05E0007FA06F52CEA050CC0F800C0AF
:1008900091F804C0D0F800E00CFA06FC4CEA0E0C0B
:1008A000C0F800C091F804C0BCF1010F02D0BCF147
:1008B000020F1FD1D0F808C02CEA050CC0F808C000
:1008C00091F805C0D0F808E00CFA06FC4CEA0E0CD2
:1008D000C0F808C0D0F804C02CEA020CC0F804C06C
:1008E000426891F806C00CFA03FC1FFA8CFC42EA3D
:1008F0000C024260C268AA43C260CA79C568B240AD
:100900002A43C2605B1C102BB3D3F0BD4B07DB0E38
:100910009A40C90810B500EB8100016A0F249C4081
:10092000A1430162016A1143016210BD4183704716
:1009300001837047FEE700007CB50121202000F014
:100940006DF80121102000F069F88020009001204E
:100950008DF8040000208DF8060003218DF80510A5
:100960000B4D8DF8070069462846FFF77EFF094EBC
:100970004FF48044694630460094FFF776FF8021AB
:100980002846FFF7D5FF21463046FFF7D1FF7CBD53
:10099000001002400014024030B58C18511AE51ABC
:1009A000CA18C91A0560C0E90121E118C16030BD4B
:1009B000FEE7704730B50F22C47801780123FCB1FF
:1009C000144C246801F1E02104F4E064C4F5E0640F
:1009D000C4F30724C4F10405E2404478AC408578B0
:1009E000154025432A0181F80024007800F01F01FA
:1009F0008B404009800000F1E020C0F8003130BD9C
:100A000001F01F0083404809800000F1E020C0F899
:100A1000803130BD0CED00E070470000044A002931
:100A2000116801D0014300E081431160704700006C
:100A300030380240044A0029116801D0014300E027
:100A40008143116070470000403802407047000049
:100A50001CB500202E49019000900A6842F48032B3
:100A60000A604FF4A0430A6802F400320092019A2F
:100A7000521C0192009A12B9019A9A42F3D10A6863
:100A8000920342D50120009021484030026842F094
:100A9000805202601F48026842F4404202601C4AD1
:100AA000083213681360136843F40043136013683B
:100AB00043F4A0531360141F174B23600B6843F0DB
:100AC00080730B600B689B01FCD5016841F4803199
:100AD00001604168C903FCD5016841F4003101603F
:100AE00041688903FCD50D4940F205700860106823
:100AF00020F003001060106840F0020010601068E1
:100B0000C0F381000228FAD11CBD00901CBD00007A
:100B100000380240007000400C5A4007003C024080
:100B2000124810B5016841F4700101601048016875
:100B300041F0010101600E4A002108321160026893
:100B40000C4B1A400260031D0B4A1A60026822F423
:100B50008022026006480C300160FFF779FF0349EC
:100B60004FF000608039086010BD000088ED00E0A3
:100B700000380240FFFFF6FE10300024FEE702E0DE
:100B800008C8121F08C1002AFAD170477047002018
:100B900001E001C1121F002AFBD17047FFF77CFB67
:100BA000FFF7CAFE80212048FFF7C0FE4FF48041C6
:100BB0001E48FFF7BBFE1F4C1D4E04F1100500221E
:100BC000334611461B48FFF7E7FE94ED010AF8EEA5
:100BD000C00AC5ED000A94ED000AB8EEC01A85ED12
:100BE000011A94ED020AB8EEC00A85ED020ABDEEC4
:100BF000C00AD4ED031A10EE102AF8EEE11ABDEE89
:100C0000C10AC5ED031A10EE101AF1EE611AB1EE29
:100C1000600AFDEEE11ABDEEC00A11EE903A10EE48
:100C2000100AFFF7F3FACAE700100240001402406E
:100C300018FCFFFF00000020480C00080000002006
:080C4000400400008E0B0008C7
:04000005080001AD41
:00000001FF
