:020000040800F2
:1000000000060020C1010008571100081310000865
:100010005511000861050008651C0008000000007B
:10002000000000000000000000000000A113000814
:10003000E10E000800000000D91200080D150008AC
:10004000DB010008DB010008DB010008DB01000820
:10005000DB010008DB010008DB010008DB01000810
:10006000DB010008DB010008DB010008DB01000800
:10007000DB010008DB010008DB010008DB010008F0
:10008000DB010008DB010008DB010008DB010008E0
:10009000CD060008DB010008DB010008DB010008D9
:1000A000DB010008DB010008DB010008DB010008C0
:1000B000DB010008DB010008DB010008DB010008B0
:1000C000DB010008DB010008DB010008DB010008A0
:1000D000DB010008DB01000829180008291A0008C4
:1000E000DB010008DB010008DB010008DB01000880
:1000F000DB010008DB010008DB010008DB01000870
:10010000DB010008DB010008DB010008DB0100085F
:10011000DB010008DB010008B5150008DB01000861
:10012000DB010008DB010008DB010008DB0100083F
:10013000DB010008DB010008DB010008DB0100082F
:100140007D080008DB010008DB010008DB01000876
:10015000DB010008DB010008DB010008B91A000818
:10016000DB010008DB010008DB010008DB010008FF
:10017000DB010008DB010008DB01000800000000D3
:10018000DB010008DB010008DB010008DB010008DF
:10019000DB010008DB010008DB010008DB010008CF
:1001A0000000000000000000DB010008DFF80CD0B8
:1001B00000F058F900480047851C000800060020A0
:1001C0000648804706480047FEE7FEE7FEE7FEE7F1
:1001D000FEE7FEE7FEE7FEE7FEE7FEE71115000893
:1001E000AD0100082DE9FE4F81EA030404F000444C
:1001F00021F0004100944FF0000B23F0004350EA3F
:1002000001045ED052EA03045BD0C3F30A54C1F385
:100210000A552C44A4F2F3340194A0FB0254C1F318
:10022000130141F48011C3F3130343F4801301FB62
:10023000024400FB034E840A970A44EA815447EAC9
:100240008357A4FB076802958D0A05FB07854FEAD3
:10025000932C04FB0C542705029D4FEA065847EAED
:100260001637B5EB08056EEB070C870E920E47EAC2
:10027000811742EA8312A7FB0201B6EB0B0164EB84
:1002800000042B0D43EA0C335E1844EB1C50DA4695
:100290005146E7FB0201C5F313044FEA0B3343EA6F
:1002A00014534FEA0432019C43EA0603A4F10C0400
:1002B0000294009CCDE900B400F086F803B0BDE8DC
:1002C000F08F00200146F9E70EB5C10F80EAE0701B
:1002D0000844CA07002140F233438DE80E000A4665
:1002E0000B4600F071F803B000BD0EB540F233418B
:1002F00002910021CDE900110A460B4600F064F896
:1003000003B000BD01F0004330B421F0004150EAD9
:10031000010206D00A0DA2F56072C1F31301002A92
:1003200002DC30BC00207047440F44EAC104C10025
:10033000E01830BC00EBC250AFF300800029A8BF2A
:100340007047401C490008BF20F00100704710B4FE
:10035000B0FA80FC00FA0CF050EA010404BF10BCB3
:10036000704749B1CCF1200421FA04F411FA0CF1E0
:1003700018BF012121430843A3EB0C01CB1D4FEA19
:1003800000614FEA102042BF002010BC704700EB14
:10039000C35010440029A4BF10BC7047401C490042
:1003A00008BF20F0010010BC704710B5141E73F197
:1003B000000408DA401C41F1000192185B411A4325
:1003C00001D120F0010010BD2DE9F04D92469B4671
:1003D00011B1B1FA81F202E0B0FA80F22032904617
:1003E00000F052F804460F4640EA0A0041EA0B01C9
:1003F00053465A46084313D0114653EA010019D018
:10040000C8F14002504600F04EF805460E465046F0
:100410005946424600F038F8084305D0012004E070
:1004200020463946BDE8F08D0020054346EAE076D7
:100430002C4337430A986305E40AA0EB0800002226
:10044000FD0A44EA47540A3002D500200146E9E794
:10045000010510196941DDE9084500196941BDE848
:10046000F04DA2E7064C074D06E0E06840F00103BE
:1004700094E8070098471034AC42F6D3FFF79AFE91
:10048000B01D0008D01D0008202A04DB203A00FA25
:1004900002F1002070479140C2F1200320FA03F3DB
:1004A000194390407047202A04DB203A21FA02F0D9
:1004B0000021704721FA02F3D040C2F1200291409E
:1004C000084319467047000070B58AB00121022028
:1004D00000F010FF0121022000F000FF1E4E02225A
:1004E0000421304600F081FD1020009002208DF89C
:1004F000040003208DF8050000248DF80640012536
:100500008DF807506946304600F01EFD5920ADF8C1
:100510000800124EADF80A400395ADF8104002A94C
:10052000304601F0EDF86020ADF81400ADF816503B
:10053000ADF8204005A9304601F0ACF8082130465E
:1005400001F0D8F80121304601F076F8012130465B
:1005500001F082F80AB070BD0004024000040040BF
:10056000FEE7000010B586B04FF40074009400243C
:100570008DF808408DF8094008248DF80A404FF4A2
:100580007A64A04200DD2046A14200DD2146A2425D
:1005900000DD2246A34200DD2346134CA04200DAD0
:1005A0002046A14200DA2146A24200DA2246A342B6
:1005B00000DA2346040A8DF80C00080A8DF80D00B5
:1005C0008DF80E10100A8DF80F008DF81020180A03
:1005D0008DF811008DF80B408DF8123069460348F4
:1005E00000F078FB06B010BD60F0FFFF0064004033
:1005F00070B58AB00121082000F070FE0121480684
:1006000000F078FE02208DF820008DF821000024F3
:100610002C4D03268DF8224007968DF8234007A91C
:10062000284600F091FC09220021284600F0DDFC5C
:1006300009220121284600F0D8FC14208DF824005E
:1006400001258DF825508DF826508DF8275009A8E2
:1006500000F082FD8DF806408DF802408DF80740CD
:100660008DF8034008208DF80400ADF800608DF887
:1006700008400420144E8DF80A408DF805008DF8CE
:100680000B506946304600F069FA8DF816408DF837
:1006900017408DF81850ADF80C40ADF81040ADF88B
:1006A0000E40ADF81240ADF814408DF8195003A873
:1006B00000F092F901220221304600F047FA0AB018
:1006C00070BD0000000C02400064004010B5314CC9
:1006D00086B00221204600F0E5F9002858D002211A
:1006E000204600F03DF96A460021204600F0AAFAB3
:1006F00000982949A0F50070013806D0012814D0CF
:10070000022822D003283FD12FE0BDF80B0040BAC9
:100710000880BDF80D0040BA4880BDF80F0040BA0F
:1007200088809DF81100C8802EE0BDF80B0040BA0B
:100730000881BDF80D0040BA4881BDF80F0040BAED
:1007400088819DF81100C8811EE0BDF80B0040BAF9
:100750000882BDF80D0040BA4882BDF80F0040BACB
:1007600088829DF81100C8820EE0BDF80B0040BAE7
:100770000883BDF80D0040BA4883BDF80F0040BAA9
:1007800088839DF81100C8830221204600F0E8F814
:1007900006B010BD006400408801002070B58AB02A
:1007A0000121022000F09AFD0121880600F0A2FD3F
:1007B0004FF44050079002208DF820008DF8210062
:1007C00000242C4D8DF822408DF8234007A928469F
:1007D00000F0BAFB09220C21284600F006FC092291
:1007E0000D21284600F001FC40208DF82400012551
:1007F0008DF825508DF826508DF8275009A800F067
:10080000ABFC8DF806408DF8074008208DF80400F9
:1008100004208DF802408DF805008DF808408DF811
:1008200003400320144E8DF80A40ADF800008DF807
:100830000B506946304600F091F90E208DF81600F5
:100840008DF817408DF81850ADF80C40ADF81040F9
:10085000ADF80E40ADF81240ADF814408DF81950C7
:1008600003A800F0B9F801220221304600F06EF929
:100870000AB070BD000402400068004070B5274C0B
:1008800002212DED028B86B0204600F00BF90028E6
:1008900040D00221204600F063F82149204600F0B4
:1008A00047F86A460021204600F0CCF91D4C9FED28
:1008B0001E8B0126206804F1080580B9DDF80B00C5
:1008C0009DF80E1000BA20F0FF000843FFF7FCFC73
:1008D00053EC182BFFF786FCFFF714FD2860266009
:1008E000DDF80B009DF80E1000BA20F0FF00084361
:1008F000FFF7EAFC53EC182BFFF774FCFFF702FD3F
:1009000000EE100A85ED010AD5ED000A30EE600A0E
:1009100084ED010A06B0BDEC028B70BD006800409A
:1009200008000032000000207B14AE47E17A84BF4B
:100930000A4A914202D1002181617047C1F313023A
:100940008B0101D5C26070474B0101D50261704730
:10095000090101D582607047426070477000F03035
:1009600030B5082310240422B1F5007F1DD010DC1F
:10097000202929D007DC012921D0042922D00829E7
:1009800000D1C46030BD402920D0B1F5807FF9D1BD
:100990000BE00025B1F5004F06D008DCB1F5806F03
:1009A00003D0B1F5006FEDD18561426030BDB1F586
:1009B000803F0DD0B1F5003FF8D1446030BD05490E
:1009C000816030BDC36030BD036130BD046130BDA6
:1009D000436030BD01010100F0B5827A01219140F0
:1009E0002E4A136843F0010313602C4B1C331C6820
:1009F0008C431C60294D067B294C0C35A6B92E680A
:100A00008E432E604688C78846EA0746877A04EBFD
:100A1000C707C7F840660688878846EA0746877A88
:100A200004EBC707C7F84466067B012E12D12E6877
:100A30000E432E60867A056804EBC6064FEA3545FC
:100A4000C6F84056867A456804EBC6044FEA354539
:100A5000C4F84456114CC57A241D002D256806D0D3
:100A60000D4325600D4C0589143415B104E08D4308
:100A7000F7E725688D4325600589012D02D125689A
:100A80000D432560407B012802D118680843186097
:100A9000106820F001001060F0BD0000006600400A
:100AA000006000400246002053690B424AD0B1F575
:100AB000807F3BD013DC08292ED007DC012926D00B
:100AC000022927D004293DD1D0682BE0102925D058
:100AD000202926D0402935D11069102130E0B1F508
:100AE000004F2BD00BDCB1F5007F22D0B1F5806F29
:100AF00022D0B1F5006F25D19069702120E0B1F5C9
:100B0000803F11D0B1F5003F1CD15068E5E79068F7
:100B10000D4915E0D06802E0D068DEE710690321D6
:100B20000EE0106908210BE05068FBE79069012195
:100B300006E09069022103E0906900E0506804211A
:100B400000F01AB97047000001010100002A426953
:100B500001D00A4300E08A434261704710B5036840
:100B6000002223F002030360036843F001030360E3
:100B70004FF6FF7300E0521C4468E40701D19A422B
:100B8000F9D14268D2073ED08A79012A02683CD066
:100B900022F080020260CA79012A026838D022F06D
:100BA000400202600A7A012A026834D022F0200250
:100BB00002604A7A012A026830D022F010020260F4
:100BC0008A7A012A02682CD022F008020260CA7ACE
:100BD000012A026828D022F0040202608A78CC78C8
:100BE000920742EA04620C7942EA04424C7909888D
:100BF00042EA0452491E0A43C261016821F0010120
:100C00000160002114E0002010BD42F08002C1E725
:100C100042F04002C5E742F02002C9E742F010026C
:100C2000CDE742F00802D1E742F00402D5E7491CC3
:100C30004268D20701D09942F9D14068C007E2D199
:100C4000012010BD10B500EB0113D3F8B04114F032
:100C500004041472D3F8B04134D0E408C2F804405C
:100C6000D3F8B04104F002045472D3F8B44104F054
:100C70000F049472D3F8B441240AD474D3F8B84161
:100C8000D472D3F8B841240A1473D3F8B841240CB1
:100C90005473D3F8B841240E9473D3F8BC41D47381
:100CA000D3F8BC41240A1474D3F8BC41240C547406
:100CB000D3F8BC311B0E937439B1016941F02001A6
:100CC000016110BD640D1460CAE7C16841F02001E4
:100CD000C16010BD30B50246002093685B0108D4A6
:100CE0009068000101D5012003E09068C00037D56D
:100CF000022002EB0012D2F8803103F00103C2F8A7
:100D000080310B7A73B3D2F880414D681C434B7A23
:100D100043EAC5031C43C2F880418B7A03F00F03FA
:100D20008B72D2F8843123F00F03C2F88431D2F8E9
:100D300084318C7A2343C2F88431CB7ACC6843EA7D
:100D40000423C2F88831CB7B096943EA0121C2F848
:100D50008C11D2F8801141F00101C2F8801130BD30
:100D6000042030BDD2F880314C7A23430C8843EA0A
:100D70004453C2F88031D0E7024600200A4200D036
:100D80000120704770B54F4C4F482DED028B2188E4
:100D900000F0B4F84C482189103000F0AFF84A4810
:100DA000218A203000F0AAF84748218B303000F02B
:100DB000A5F800221E231146444800F063F9434C75
:100DC00060684042FFF780FA9FED418B53EC182B8F
:100DD000FFF708FAFFF796FA3F4D28602068FFF703
:100DE00073FA53EC182BFFF7FDF9FFF78BFAA862A3
:100DF000A068FFF769FA53EC182BFFF7F3F9FFF738
:100E000081FA2865E0684042FFF75EFA53EC182B40
:100E1000FFF7E8F9FFF776FA2B49A867284691ED26
:100E2000000AB8EEC00A00F0C9F92C4C05F1280000
:100E3000D4ED000A30EE200A84ED000A91ED040A98
:100E4000B8EEC00A00F0BAF9D4ED010A05F150007D
:100E500030EE200A84ED010A91ED080AB8EEC00ACE
:100E600000F0ACF9D4ED020A05F1780030EE200A6A
:100E700084ED020A91ED0C0AB8EEC00A00F09EF96A
:100E8000D4ED030A30EE200A84ED030ABDEEC00A59
:100E900010EE103A94ED020ABDEEC00A10EE102AD0
:100EA00094ED010ABDEEC00A10EE101A94ED000A8E
:100EB000BDEC028BBDEEC00ABDE8704010EE100A1A
:100EC000FFF750BB880100202801002068010020A6
:100ED0007B14AE47E17AC43F38000020780100203F
:100EE000704710B500214AF20E4403E02246521E1C
:100EF000FDD2491C8142F9D310BD000010B5044653
:100F00004068081A2060B0F5805F02DDA0F500504F
:100F100004E010F5805F02DA00F5005020606160A7
:100F20002168A0680844A060FFF7CEF99FED041B7C
:100F300053EC112BFFF756F9FFF7E4F9E06010BD11
:100F40007C7BD7A02FBDAD3FF0B500230124032744
:100F50000D6804FA03F21540954242D1D0F800C062
:100F60005E0007FA06F52CEA050CC0F800C091F8FF
:100F700004C0D0F800E00CFA06FC4CEA0E0CC0F8F5
:100F800000C091F804C0BCF1010F02D0BCF1020F07
:100F90001FD1D0F808C02CEA050CC0F808C091F8A1
:100FA00005C0D0F808E00CFA06FC4CEA0E0CC0F8BC
:100FB00008C0D0F804C02CEA020CC0F804C0426893
:100FC00091F806C00CFA03FC1FFA8CFC42EA0C02F2
:100FD0004260C268AA43C260CA79C568B2402A4367
:100FE000C2605B1C102BB3D3F0BD4B07DB0E9A40E5
:100FF000C90810B500EB8100016A0F249C40A14391
:101000000162016A1143016210BD4183704701838F
:101010007047FEE710B500F0AFFCBDE8104045207A
:1010200000F098BE7CB50121202000F057F9012185
:10103000102000F053F98020009001208DF804006A
:1010400000208DF8060003218DF805100B4D8DF85A
:10105000070069462846FFF777FF094E4FF48044A2
:10106000694630460094FFF76FFF80212846FFF75E
:10107000CEFF21463046FFF7CAFF7CBD001002407C
:101080000014024030B58C18511AE51ACA18C91A52
:101090000560C0E90121E118C16030BD2DE9FC41C6
:1010A0000121084600F01AF90121022000F016F98A
:1010B0000121042000F012F90121102000F00EF9A6
:1010C00001268DF80460002430208DF806400325A9
:1010D0001C4F00908DF805508DF807406946384642
:1010E000FFF732FF8DF804608DF806408DF805504B
:1010F00000958DF8074069461348FFF725FF8DF8E6
:1011000004603F208DF8064000908DF805508DF862
:10111000074069460D48FFF717FF8DF8046041F25C
:1011200070008DF8064000908DF805508DF807404E
:1011300069460748FFF708FF10213846FFF767FFA9
:10114000BDE8FC81000002400004024000080240AB
:1011500000100240FEE7704730B50F22C4780178D6
:101160000123FCB1144C246801F1E02104F4E06493
:10117000C4F5E064C4F30724C4F10405E2404478F4
:10118000AC408578154025432A0181F80024007879
:1011900000F01F018B404009800000F1E020C0F802
:1011A000003130BD01F01F0083404809800000F18C
:1011B000E020C0F8803130BD0CED00E0D0ED000A39
:1011C00030EEC00AD0ED040A80ED040A70EE601A19
:1011D000D0ED050A70EE800AC0ED050A90ED061A02
:1011E000F4EEC10AF1EE10FA06DAB1EE411AF4EEAD
:1011F000C10AF1EE10FA01D880ED051AD0ED010A0E
:1012000020EE801A80ED071A90ED020AD0ED050A53
:1012100020EE200A80ED080AD0ED030A31EE000A24
:1012200060EEA10AC0ED090A30EE200A7047000006
:101230009FED0A0A80ED010A9FED090A80ED020A7E
:101240009FED080A80ED030A9FED070A80ED060A6C
:101250009FED060A80ED000A70470000CDCC4C3EA1
:10126000A69BC43B0000F04200401C470000000069
:101270009FED090AF3EE040A80ED010A9FED070ACB
:1012800080ED020AC0ED030ADFED050AC0ED060A93
:1012900080ED000A70470000295C8F3E00000000CE
:1012A0000000C8429FED090AF3EE050A80ED010A2D
:1012B0009FED070A80ED020AC0ED030ADFED050A83
:1012C000C0ED060A80ED000A70470000333373401A
:1012D000000000000000FA4370470000044A0029A3
:1012E000116801D0014300E08143116070470000A4
:1012F00030380240044A0029116801D0014300E05F
:1013000081431160704700004038024070B5204AA8
:101310001168204C11F00C0104D01F4E042903D099
:10132000082903D004601BE0066019E01849091F72
:101330000B68C3F380550B6803F03F0315B1B6FB90
:10134000F3F301E0B4FBF3F30C680968C4F3881409
:101350006343C1F30141491C4900B3FBF1F1016052
:1013600011680F2303EA11110C4B5C5C0168E1402A
:1013700041601468072505EA94241C5D21FA04F4F1
:101380008460126805EA52329A5CD140C16070BD37
:10139000083802400024F400001BB700250000209C
:1013A000704700001CB500202E49019000900A688B
:1013B00042F480320A604FF4A0430A6802F400321B
:1013C0000092019A521C0192009A12B9019A9A4213
:1013D000F3D10A68920342D50120009021484030A1
:1013E000026842F0805202601F48026842F44042A4
:1013F00002601C4A083213681360136843F4004308
:101400001360136843F4A0531360141F174B236039
:101410000B6843F080730B600B689B01FCD501687F
:1014200041F4803101604168C903FCD5016841F491
:101430000031016041688903FCD50D4940F2057017
:101440000860106820F003001060106840F002008F
:1014500010601068C0F381000228FAD11CBD009012
:101460001CBD000000380240007000400C5A4007CC
:10147000003C02400649152808D0064A32F8100000
:10148000034A083A10604008086070470020FBE7F4
:1014900034040040741D00080E2803D20249085C81
:1014A000FFF7E8BF704700009E1D000810B501203F
:1014B000FFF7F2FF6420FFF714FD0220FFF7ECFFB7
:1014C000C820FFF70EFD0920FFF7E6FF6420FFF7B5
:1014D00008FD0A20FFF7E0FF6420FFF702FD0B2064
:1014E000FFF7DAFF6420FFF7FCFC0C20FFF7D4FFC6
:1014F0006420FFF7F6FC0D20FFF7CEFF6420FFF716
:10150000F0FCBDE810400E20FFF7C6BF704700009A
:10151000124810B5016841F470010160104801687B
:1015200041F0010101600E4A002108321160026899
:101530000C4B1A400260031D0B4A1A60026822F429
:101540008022026006480C300160FFF72BFF034940
:101550004FF000608039086010BD000088ED00E0A9
:1015600000380240FFFFF6FE103000241FB50121B5
:101570001020FFF7BFFE36208DF80C0001208DF8FB
:101580000D0000248DF80E408DF80F0003A8FFF722
:10159000E3FD5920ADF800004FF47A700190ADF8EA
:1015A0000240ADF808406946014800F0A9F81FBDA7
:1015B0000010004010B50C4C0121204600F056F8F8
:1015C000002810D00121204600F043F801212046D8
:1015D00000F03CF80548416981F080014161BDE8B7
:1015E0001040FFF7CFBB10BD0010004000100240BC
:1015F00010B5084C0121204600F02EF801221146BA
:10160000204600F03FF82046BDE81040012100F0E0
:101610001DB800000010004010B5064C0021204607
:1016200000F01AF820460022BDE81040012100F029
:1016300029B80000001000400029018802D041F0C4
:10164000800101E021F0800101807047C9430182DF
:101650007047C943018270470029018802D041F0D8
:10166000010101E021F001010180704702460020E4
:10167000138A92890B4202EA010202D0002A00D0AA
:1016800001207047002A828901D00A4300E08A4382
:101690008281704730B5028C22F001020284028CF4
:1016A0008388048B22F0020224F073050C882C43FB
:1016B0008D8915434A882A430C4DA84202D00C4D0F
:1016C000A8420DD122F00805CA8923F440732A43A9
:1016D00022F004058A882A430D8A1D434B8A2B4336
:1016E0008380048389684163028430BD0000014027
:1016F00000040140028B22F008020A430283704773
:1017000030B50288164B174C98420DD0A0420BD032
:10171000B0F1804F08D0144DA84205D0134DA84217
:1017200002D0134DA84203D122F070054A882A4303
:10173000104DA84206D0104DA84203D022F44075A7
:101740000A892A4302804A68C2620A88028598424E
:1017500001D0A04201D1897A01860121818230BD68
:101760000000014000040140000400400008004067
:10177000000C0040001000400014004030B587B05D
:1017800001210820FFF7AAFD01214804FFF7B2FD5F
:10179000234D072205212846FFF727FC07220621B3
:1017A0002846FFF722FC6020049002208DF81400E8
:1017B00000248DF8164003208DF815008DF8174091
:1017C00004A92846FFF7C0FB4FF4E1300090ADF8C4
:1017D00008400C20134DADF80440ADF80A00ADF8F8
:1017E0000640ADF80C406946284600F0C7F90122D2
:1017F00040F22551284600F0A9F90121284600F0C1
:1018000075F926208DF8180001208DF819008DF843
:101810001A408DF81B0006A8FFF79EFC07B030BDEC
:10182000000C0240004400402DE9F0414C4C40F2D5
:1018300025512DED028B204600F069F900287DD05E
:10184000204600F0F1F9484D464C002729786054B5
:10185000491C297020785A287CD1E07A8B2876D1CF
:101860006078FEF742FD9FED418B53EC182BFEF79D
:10187000B9FCFEF747FDA4F10C063060A078FEF736
:1018800034FD53EC182BFEF7ADFCFEF73BFD70600A
:10189000E078FEF72AFD53EC182BFEF7A3FCFEF7C9
:1018A00031FDB0602079FEF720FD53EC182BFEF7D8
:1018B00099FCFEF727FD183E30606079FEF715FDB4
:1018C00053EC182BFEF78EFCFEF71CFD7060A07920
:1018D000FEF70BFD53EC182BFEF784FCFEF712FD10
:1018E000B060E079FEF701FD53EC182BFEF77AFCAF
:1018F000FEF708FD0C363060207AFEF7F6FC53EC5C
:10190000182BFEF76FFCFEF7FDFC7060607AFEF7A7
:10191000ECFC53EC182BFEF765FCFEF7F3FCB06013
:10192000A07A012807D1FFF777FE00231A4619464F
:101930001846FEF717FE0F48016802E00BE009E0C9
:1019400005E081F48041016020785A2802D128788E
:101950000C2800D12F70BDEC028BBDE8F081000097
:1019600000440040CC010020100000207B14AE4752
:10197000E17A843F1414024030B587B00121082079
:10198000FFF7ACFC01218804FFF7B4FC244D0722CB
:1019900008212846FFF729FB072209212846FFF7DF
:1019A00024FB4FF44070049002208DF814000024B2
:1019B0008DF8164003208DF815008DF8174004A906
:1019C0002846FFF7C1FA4FF416500090ADF80840D2
:1019D0000C20144DADF80440ADF80A00ADF80640F7
:1019E000ADF80C406946284600F0C8F8012240F2E4
:1019F0002551284600F0AAF80121284600F076F883
:101A000027208DF8180001208DF819008DF81A4054
:101A10008DF81B0006A8FFF79FFB07B030BD000044
:101A2000000C02400048004010B5184C40F225510F
:101A3000204600F06CF800281CD0204600F0F4F896
:101A4000144A13491378C8545B1CD8B210700C7830
:101A500000235A2C18D1022809D003280AD9CC789F
:101A6000641D844206D1887815280DD103E048789A
:101A70005A2809D110BD086890604868D0600548B0
:101A80000830808840BA5060137010BD0048004094
:101A9000D80100201400002070B5064D04464021F6
:101AA000284600F02DF80028F9D00248001D0480D7
:101AB00070BD00000048004010B5094C40F22551AF
:101AC000204600F024F8002808D0204600F0ACF8AA
:101AD000054A044B11785854491C117010BD000080
:101AE00000140140EC01002024000020002981891D
:101AF00002D041F4005101E021F40051818170478E
:101B00000246002012880A4200D00120704730B5FA
:101B100001F01F0201240025C1F3421304FA02F26E
:101B2000012B0FD0022B0FD0838A4FEA112100889E
:101B3000134204FA01F400EA040001D000B10125C7
:101B4000284630BD8389F0E7038AEEE710B5C1F37C
:101B5000421301F01F040121A140012B07D0022BE9
:101B600007D01430002A026805D00A4304E00C3084
:101B7000F8E71030F6E78A43026010BD7FB50446EF
:101B8000008A0D4620F44051E88808432082A0894D
:101B900041F20C618843A9882A8911436A8902436A
:101BA0001143A181A08A20F44071A8890843A08232
:101BB0006846FFF7ABFB1A48844202D019488442BA
:101BC00001D1039800E00298A189090400EBC0014B
:101BD00001EB0010296801D5490000E08900B0FB45
:101BE000F1F26420B2FBF0F109010B096FF0180566
:101BF0006B4302EB8302A3891D044FF0320306D529
:101C000003EBC202B2FBF0F000F0070005E003EBCB
:101C10000212B2FBF0F000F00F00084320817FBDFC
:101C200000100140001401408088C0F30800704794
:101C30002DE9F0410D4600240646A1F1010847199F
:101C40000CE0444505DA17F8010C315D084407F84B
:101C5000010C305D641CE4B2FFF71EFFAC42F0D310
:101C6000BDE8F081FEE702E008C8121F08C1002AA3
:101C7000FAD170477047002001E001C1121F002A0D
:101C8000FBD170472C48FFF7F3FA2B482830FFF7B9
:101C9000EFFA29485030FFF7EBFA27487830FFF782
:101CA000E7FA2548A030FFF7C3FA2348C830FFF70A
:101CB000F9FAFEF79DFCFEF771FDFFF7B3F9FEF7A9
:101CC00003FCFFF7EBF9FFF759FDFFF7A3F94FF01E
:101CD000E0201A4941611A4AF02182F8141D0024BB
:101CE000846107210161FFF741FC80211548FFF75E
:101CF0008CF94FF480411448FFF787F90E48F03013
:101D00008460846184628463104C2188FFF7F6F854
:101D100021890F48FFF7F2F80D48218A1030FFF7AC
:101D2000EDF80B48218B2030FFF7E8F8FFF7BEFBFA
:101D3000FFF75EFCFEE70000380000201FBF020036
:101D40000FE000E000100240001402408801002073
:101D500038010020064908B509680091A5218DF8D1
:101D600000108DF8010003216846FFF761FF08BDF0
:101D7000AC1D0008EE0E4D0DD90B2F0BF709E00836
:101D8000E8077707A606F6059705FB047004F40339
:101D9000BB035303F602CB027D023802FA010404AE
:101DA000040405050505090909090915EA000000EB
:101DB000D01D00080000002038000000661C00084C
:101DC000081E000838000020C8050000761C000826
:101DD0000000000000000000000000000000000003
:101DE00000000000000000000000000000000000F3
:101DF00000000000000000000001020304010203D3
:081E00000406070809000000B8
:04000005080001AD41
:00000001FF
